{
  "_format": "hh-sol-artifact-1",
  "contractName": "MonPetitProno",
  "sourceName": "contracts/PetitProno.sol",
  "abi": [
    {
      "inputs": [],
      "stateMutability": "nonpayable",
      "type": "constructor"
    },
    {
      "anonymous": false,
      "inputs": [
        {
          "indexed": false,
          "internalType": "string",
          "name": "_LeagueId",
          "type": "string"
        },
        {
          "indexed": false,
          "internalType": "string",
          "name": "_League_name",
          "type": "string"
        },
        {
          "indexed": false,
          "internalType": "string",
          "name": "_ipfs",
          "type": "string"
        }
      ],
      "name": "NewLeague",
      "type": "event"
    },
    {
      "anonymous": false,
      "inputs": [
        {
          "indexed": false,
          "internalType": "string",
          "name": "_LeagueId",
          "type": "string"
        },
        {
          "indexed": false,
          "internalType": "string",
          "name": "_TeamId",
          "type": "string"
        },
        {
          "indexed": false,
          "internalType": "string",
          "name": "_Team_name",
          "type": "string"
        },
        {
          "indexed": false,
          "internalType": "string",
          "name": "_ipfs",
          "type": "string"
        }
      ],
      "name": "NewTeam",
      "type": "event"
    },
    {
      "inputs": [
        {
          "internalType": "string",
          "name": "_LeagueId",
          "type": "string"
        },
        {
          "internalType": "string",
          "name": "_TeamId",
          "type": "string"
        },
        {
          "internalType": "address",
          "name": "_walletId",
          "type": "address"
        },
        {
          "internalType": "string",
          "name": "_matchId",
          "type": "string"
        },
        {
          "internalType": "uint256[3]",
          "name": "_odds",
          "type": "uint256[3]"
        },
        {
          "internalType": "uint256[2]",
          "name": "_prono",
          "type": "uint256[2]"
        }
      ],
      "name": "addForecast",
      "outputs": [],
      "stateMutability": "nonpayable",
      "type": "function"
    },
    {
      "inputs": [
        {
          "internalType": "string",
          "name": "_LeagueId",
          "type": "string"
        },
        {
          "internalType": "string",
          "name": "_League_name",
          "type": "string"
        },
        {
          "internalType": "string",
          "name": "_ipfs",
          "type": "string"
        }
      ],
      "name": "addLeague",
      "outputs": [],
      "stateMutability": "nonpayable",
      "type": "function"
    },
    {
      "inputs": [
        {
          "internalType": "string",
          "name": "_LeagueId",
          "type": "string"
        },
        {
          "internalType": "string",
          "name": "_TeamId",
          "type": "string"
        },
        {
          "internalType": "string",
          "name": "_Player_name",
          "type": "string"
        }
      ],
      "name": "addPlayer",
      "outputs": [],
      "stateMutability": "nonpayable",
      "type": "function"
    },
    {
      "inputs": [
        {
          "internalType": "string",
          "name": "_LeagueId",
          "type": "string"
        },
        {
          "internalType": "string",
          "name": "_TeamId",
          "type": "string"
        },
        {
          "internalType": "string",
          "name": "_Teame_Name",
          "type": "string"
        },
        {
          "internalType": "string",
          "name": "_ipfs",
          "type": "string"
        }
      ],
      "name": "addTeam",
      "outputs": [],
      "stateMutability": "nonpayable",
      "type": "function"
    },
    {
      "inputs": [
        {
          "internalType": "string",
          "name": "_LeagueId",
          "type": "string"
        },
        {
          "internalType": "string",
          "name": "_TeamId",
          "type": "string"
        }
      ],
      "name": "getAllPlayerAddrFromOneTeam",
      "outputs": [
        {
          "internalType": "address[]",
          "name": "",
          "type": "address[]"
        }
      ],
      "stateMutability": "view",
      "type": "function"
    },
    {
      "inputs": [
        {
          "internalType": "string",
          "name": "_LeagueId",
          "type": "string"
        },
        {
          "internalType": "string",
          "name": "_TeamId",
          "type": "string"
        },
        {
          "internalType": "address",
          "name": "_walletId",
          "type": "address"
        },
        {
          "internalType": "string",
          "name": "_matchId",
          "type": "string"
        }
      ],
      "name": "getForecast",
      "outputs": [
        {
          "internalType": "uint256[3]",
          "name": "",
          "type": "uint256[3]"
        },
        {
          "internalType": "uint256[2]",
          "name": "",
          "type": "uint256[2]"
        },
        {
          "internalType": "uint256[2]",
          "name": "",
          "type": "uint256[2]"
        },
        {
          "internalType": "uint256",
          "name": "",
          "type": "uint256"
        }
      ],
      "stateMutability": "view",
      "type": "function"
    },
    {
      "inputs": [
        {
          "internalType": "string",
          "name": "_LeagueId",
          "type": "string"
        }
      ],
      "name": "getFreeTeamFromOneLeague",
      "outputs": [
        {
          "internalType": "string[]",
          "name": "",
          "type": "string[]"
        }
      ],
      "stateMutability": "view",
      "type": "function"
    },
    {
      "inputs": [
        {
          "internalType": "string",
          "name": "_LeagueId",
          "type": "string"
        }
      ],
      "name": "getLeagueById",
      "outputs": [
        {
          "internalType": "string[3]",
          "name": "",
          "type": "string[3]"
        }
      ],
      "stateMutability": "view",
      "type": "function"
    },
    {
      "inputs": [],
      "name": "getLeaguesID",
      "outputs": [
        {
          "internalType": "string[]",
          "name": "",
          "type": "string[]"
        }
      ],
      "stateMutability": "view",
      "type": "function"
    },
    {
      "inputs": [
        {
          "internalType": "string",
          "name": "_LeagueId",
          "type": "string"
        }
      ],
      "name": "getMyTeamFromOneLeague",
      "outputs": [
        {
          "internalType": "string[]",
          "name": "",
          "type": "string[]"
        }
      ],
      "stateMutability": "view",
      "type": "function"
    },
    {
      "inputs": [
        {
          "internalType": "string",
          "name": "_LeagueId",
          "type": "string"
        },
        {
          "internalType": "string",
          "name": "_TeamId",
          "type": "string"
        },
        {
          "internalType": "address",
          "name": "_walletId",
          "type": "address"
        }
      ],
      "name": "getPlayerScore",
      "outputs": [
        {
          "internalType": "uint256",
          "name": "",
          "type": "uint256"
        }
      ],
      "stateMutability": "view",
      "type": "function"
    },
    {
      "inputs": [
        {
          "internalType": "string",
          "name": "_LeagueId",
          "type": "string"
        },
        {
          "internalType": "string",
          "name": "_TeamId",
          "type": "string"
        },
        {
          "internalType": "address",
          "name": "_walletId",
          "type": "address"
        }
      ],
      "name": "getPlayername",
      "outputs": [
        {
          "internalType": "string",
          "name": "",
          "type": "string"
        }
      ],
      "stateMutability": "view",
      "type": "function"
    },
    {
      "inputs": [
        {
          "internalType": "string",
          "name": "_LeagueId",
          "type": "string"
        }
      ],
      "name": "getTeamsIdFromOneLeague",
      "outputs": [
        {
          "internalType": "string[]",
          "name": "",
          "type": "string[]"
        }
      ],
      "stateMutability": "view",
      "type": "function"
    },
    {
      "inputs": [
        {
          "internalType": "string",
          "name": "_LeagueId",
          "type": "string"
        },
        {
          "internalType": "string",
          "name": "_TeamId",
          "type": "string"
        }
      ],
      "name": "getTeamsInfos",
      "outputs": [
        {
          "internalType": "string[3]",
          "name": "",
          "type": "string[3]"
        }
      ],
      "stateMutability": "view",
      "type": "function"
    },
    {
      "inputs": [],
      "name": "owner",
      "outputs": [
        {
          "internalType": "address",
          "name": "",
          "type": "address"
        }
      ],
      "stateMutability": "view",
      "type": "function"
    },
    {
      "inputs": [
        {
          "internalType": "string",
          "name": "_LeagueId",
          "type": "string"
        },
        {
          "internalType": "string",
          "name": "_TeamId",
          "type": "string"
        },
        {
          "internalType": "address",
          "name": "_walletId",
          "type": "address"
        },
        {
          "internalType": "string",
          "name": "_matchId",
          "type": "string"
        },
        {
          "internalType": "uint256",
          "name": "_PointNb",
          "type": "uint256"
        }
      ],
      "name": "setForecastPointNb",
      "outputs": [],
      "stateMutability": "nonpayable",
      "type": "function"
    },
    {
      "inputs": [
        {
          "internalType": "string",
          "name": "_LeagueId",
          "type": "string"
        },
        {
          "internalType": "string",
          "name": "_TeamId",
          "type": "string"
        },
        {
          "internalType": "address",
          "name": "_walletId",
          "type": "address"
        },
        {
          "internalType": "string",
          "name": "_matchId",
          "type": "string"
        },
        {
          "internalType": "uint256[2]",
          "name": "_prono",
          "type": "uint256[2]"
        }
      ],
      "name": "setForecastProno",
      "outputs": [],
      "stateMutability": "nonpayable",
      "type": "function"
    },
    {
      "inputs": [
        {
          "internalType": "string",
          "name": "_LeagueId",
          "type": "string"
        },
        {
          "internalType": "string",
          "name": "_TeamId",
          "type": "string"
        },
        {
          "internalType": "address",
          "name": "_walletId",
          "type": "address"
        },
        {
          "internalType": "string",
          "name": "_matchId",
          "type": "string"
        },
        {
          "internalType": "uint256[2]",
          "name": "_result",
          "type": "uint256[2]"
        }
      ],
      "name": "setForecastResult",
      "outputs": [],
      "stateMutability": "nonpayable",
      "type": "function"
    },
    {
      "inputs": [
        {
          "internalType": "string",
          "name": "_LeagueId",
          "type": "string"
        },
        {
          "internalType": "string",
          "name": "_TeamId",
          "type": "string"
        }
      ],
      "name": "updateAllScore",
      "outputs": [],
      "stateMutability": "nonpayable",
      "type": "function"
    },
    {
      "inputs": [
        {
          "internalType": "string",
          "name": "_LeagueId",
          "type": "string"
        },
        {
          "internalType": "string",
          "name": "_TeamId",
          "type": "string"
        },
        {
          "internalType": "address",
          "name": "_walletId",
          "type": "address"
        }
      ],
      "name": "updateScore",
      "outputs": [],
      "stateMutability": "nonpayable",
      "type": "function"
    }
  ],
  "bytecode": "0x608060405234801561001057600080fd5b50600080546001600160a01b03191633179055612661806100326000396000f3fe608060405234801561001057600080fd5b506004361061012c5760003560e01c8063a9b756ce116100ad578063ce649e6211610071578063ce649e62146102aa578063d5e79a13146102bd578063f10efc50146102d0578063f254a8fd146102e3578063f5aad87a1461030457600080fd5b8063a9b756ce1461022c578063b0a5e4bd1461023f578063b581130314610254578063b99298d814610274578063c34901d91461029757600080fd5b8063513a7beb116100f4578063513a7beb146101925780636808efb2146101bb5780637e141c44146101ce5780638a3baacd146101ee5780638da5cb5b1461020157600080fd5b8063138ab2c314610131578063145ce0ac1461014657806333a26f8614610159578063344f41b31461016c57806345c7a7451461017f575b600080fd5b61014461013f366004611cc1565b610317565b005b610144610154366004611d6b565b6103b3565b610144610167366004611cc1565b6104ce565b61014461017a366004611e17565b610562565b61014461018d366004611ee1565b61068f565b6101a56101a0366004611f68565b610756565b6040516101b2919061201b565b60405180910390f35b6101446101c9366004612068565b61091c565b6101e16101dc366004612108565b6109ab565b6040516101b2919061217b565b6101a56101fc366004612195565b610aa5565b600054610214906001600160a01b031681565b6040516001600160a01b0390911681526020016101b2565b61014461023a366004611ee1565b610c28565b610247610d16565b6040516101b291906121d1565b610267610262366004611f68565b610def565b6040516101b29190612233565b610287610282366004612280565b610e8c565b6040516101b29493929190612312565b6102476102a5366004612195565b611000565b6101446102b8366004612108565b6110fa565b6102476102cb366004612195565b611484565b6102476102de366004612195565b6116a4565b6102f66102f1366004612108565b61189c565b6040519081526020016101b2565b610144610312366004611f68565b61190e565b806002866040516103289190612367565b9081526020016040518091039020600301856040516103479190612367565b90815260200160405180910390206003016000856001600160a01b03166001600160a01b031681526020019081526020016000206003018360405161038c9190612367565b90815260200160405180910390206005019060026103ab929190611a53565b505050505050565b816002856040516103c49190612367565b9081526020016040518091039020600301846040516103e39190612367565b908152604051908190036020019020906103fd9082612403565b508060028560405161040f9190612367565b90815260200160405180910390206003018460405161042e9190612367565b9081526020016040518091039020600101908161044b9190612403565b5060028460405161045c9190612367565b90815260405160209181900382019020600201805460018101825560009182529190200161048a8482612403565b507ff7bdee82c7ae87e45cf2bf70b1dbcfc8ac7aa0bdc001f00320842715e72c0a9d848484846040516104c094939291906124c2565b60405180910390a150505050565b806002866040516104df9190612367565b9081526020016040518091039020600301856040516104fe9190612367565b90815260200160405180910390206003016000856001600160a01b03166001600160a01b03168152602001908152602001600020600301836040516105439190612367565b90815260200160405180910390206003019060026103ab929190611a53565b816002876040516105739190612367565b9081526020016040518091039020600301866040516105929190612367565b90815260200160405180910390206003016000866001600160a01b03166001600160a01b03168152602001908152602001600020600301846040516105d79190612367565b9081526040519081900360200190206105f1916003611a91565b50806002876040516106039190612367565b9081526020016040518091039020600301866040516106229190612367565b90815260200160405180910390206003016000866001600160a01b03166001600160a01b03168152602001908152602001600020600301846040516106679190612367565b9081526020016040518091039020600301906002610686929190611a53565b50505050505050565b806002846040516106a09190612367565b9081526020016040518091039020600301836040516106bf9190612367565b908152604080516020928190038301902033600090815260039091019092529020906106eb9082612403565b506002836040516106fc9190612367565b90815260200160405180910390206003018260405161071b9190612367565b908152604051908190036020908101909120600201805460018101825560009182529190200180546001600160a01b03191633179055505050565b61075e611abe565b60006002846040516107709190612367565b90815260200160405180910390206003018360405161078f9190612367565b90815260405190819003602001902080546107a990612383565b80601f01602080910402602001604051908101604052809291908181526020018280546107d590612383565b80156108225780601f106107f757610100808354040283529160200191610822565b820191906000526020600020905b81548152906001019060200180831161080557829003601f168201915b50505050509050600060028560405161083b9190612367565b90815260200160405180910390206003018460405161085a9190612367565b9081526020016040518091039020600101805461087690612383565b80601f01602080910402602001604051908101604052809291908181526020018280546108a290612383565b80156108ef5780601f106108c4576101008083540402835291602001916108ef565b820191906000526020600020905b8154815290600101906020018083116108d257829003601f168201915b50505050509050604051806060016040528085815260200183815260200182815250925050505b92915050565b8060028660405161092d9190612367565b90815260200160405180910390206003018560405161094c9190612367565b90815260200160405180910390206003016000856001600160a01b03166001600160a01b03168152602001908152602001600020600301836040516109919190612367565b908152604051908190036020019020600701555050505050565b60606002846040516109bd9190612367565b9081526020016040518091039020600301836040516109dc9190612367565b90815260200160405180910390206003016000836001600160a01b03166001600160a01b031681526020019081526020016000206000018054610a1e90612383565b80601f0160208091040260200160405190810160405280929190818152602001828054610a4a90612383565b8015610a975780601f10610a6c57610100808354040283529160200191610a97565b820191906000526020600020905b815481529060010190602001808311610a7a57829003601f168201915b505050505090509392505050565b610aad611abe565b6000600283604051610abf9190612367565b9081526040519081900360200190208054610ad990612383565b80601f0160208091040260200160405190810160405280929190818152602001828054610b0590612383565b8015610b525780601f10610b2757610100808354040283529160200191610b52565b820191906000526020600020905b815481529060010190602001808311610b3557829003601f168201915b505050505090506000600284604051610b6b9190612367565b90815260200160405180910390206001018054610b8790612383565b80601f0160208091040260200160405190810160405280929190818152602001828054610bb390612383565b8015610c005780601f10610bd557610100808354040283529160200191610c00565b820191906000526020600020905b815481529060010190602001808311610be357829003601f168201915b5050604080516060810182529889526020890196909652505050918401919091525090919050565b6000546001600160a01b03163314610c3f57600080fd5b81600284604051610c509190612367565b90815260405190819003602001902090610c6a9082612403565b5080600284604051610c7c9190612367565b90815260200160405180910390206001019081610c999190612403565b506001805480820182556000919091527fb10e2d527612073b26eecdfd717e6a320cf44b4afac2b0732d9fcbe2b7fa0cf601610cd58482612403565b507f446828a13c0c0941cd2e81b91f1da8d8cc3ed47aea90d147858252ebcb0dcb40838383604051610d099392919061251a565b60405180910390a1505050565b60606001805480602002602001604051908101604052809291908181526020016000905b82821015610de6578382906000526020600020018054610d5990612383565b80601f0160208091040260200160405190810160405280929190818152602001828054610d8590612383565b8015610dd25780601f10610da757610100808354040283529160200191610dd2565b820191906000526020600020905b815481529060010190602001808311610db557829003601f168201915b505050505081526020019060010190610d3a565b50505050905090565b6060600283604051610e019190612367565b908152602001604051809103902060030182604051610e209190612367565b9081526040805191829003602090810183206002018054808302850183019093528284529190830182828015610e7f57602002820191906000526020600020905b81546001600160a01b03168152600190910190602001808311610e61575b5050505050905092915050565b610e94611ae5565b610e9c611b03565b610ea4611b03565b600080600289604051610eb79190612367565b908152602001604051809103902060030188604051610ed69190612367565b90815260200160405180910390206003016000886001600160a01b03166001600160a01b0316815260200190815260200160002060030186604051610f1b9190612367565b9081526040805191829003602001822060e0830190915281608081018260038282826020028201915b815481526020019060010190808311610f44575050509183525050604080518082019182905260209092019190600384019060029082845b815481526020019060010190808311610f7c575050509183525050604080518082019182905260209092019190600584019060029082845b815481526020019060010190808311610fb4575050509183525050600791909101546020918201528151908201516040830151606090930151919c909b50919950975095505050505050565b60606002826040516110129190612367565b9081526020016040518091039020600201805480602002602001604051908101604052809291908181526020016000905b828210156110ef57838290600052602060002001805461106290612383565b80601f016020809104026020016040519081016040528092919081815260200182805461108e90612383565b80156110db5780601f106110b0576101008083540402835291602001916110db565b820191906000526020600020905b8154815290600101906020018083116110be57829003601f168201915b505050505081526020019060010190611043565b505050509050919050565b82828260005b6002846040516111109190612367565b90815260200160405180910390206003018360405161112f9190612367565b9081526040519081900360200190206002015481101561142757816001600160a01b03166002856040516111639190612367565b9081526020016040518091039020600301846040516111829190612367565b908152602001604051809103902060020182815481106111a4576111a461255d565b6000918252602090912001546001600160a01b031603611415576000805b6002896040516111d29190612367565b9081526020016040518091039020600301886040516111f19190612367565b908152604080516020928190038301902033600090815260039091019092529020600201548110156113bd57600060028a60405161122f9190612367565b90815260200160405180910390206003018960405161124e9190612367565b90815260200160405180910390206003016000336001600160a01b03166001600160a01b0316815260200190815260200160002060020182815481106112965761129661255d565b9060005260206000200180546112ab90612383565b80601f01602080910402602001604051908101604052809291908181526020018280546112d790612383565b80156113245780601f106112f957610100808354040283529160200191611324565b820191906000526020600020905b81548152906001019060200180831161130757829003601f168201915b5050505050905060028a60405161133b9190612367565b90815260200160405180910390206003018960405161135a9190612367565b9081526040805191829003602090810183203360009081526003918201909252919020019061138a908390612367565b908152602001604051809103902060070154836113a79190612589565b92505080806113b59061259c565b9150506111c2565b50806002896040516113cf9190612367565b9081526020016040518091039020600301886040516113ee9190612367565b90815260408051602092819003830190203360009081526003909101909252902060010155505b8061141f8161259c565b915050611100565b5060405162461bcd60e51b815260206004820152602760248201527f566f7573206e27657465732070617320756e20506c61796572206465206365746044820152667465207465616d60c81b606482015260840160405180910390fd5b606080611490336119e7565b6000805b6002856040516114a49190612367565b9081526040519081900360200190206002015481101561169b5760006002866040516114d09190612367565b908152602001604051809103902060020182815481106114f2576114f261255d565b90600052602060002001805461150790612383565b80601f016020809104026020016040519081016040528092919081815260200182805461153390612383565b80156115805780601f1061155557610100808354040283529160200191611580565b820191906000526020600020905b81548152906001019060200180831161156357829003601f168201915b5050505050905060005b60028760405161159a9190612367565b9081526020016040518091039020600301826040516115b99190612367565b9081526040519081900360200190206002015481101561168657336001600160a01b03166002886040516115ed9190612367565b90815260200160405180910390206003018360405161160c9190612367565b9081526020016040518091039020600201828154811061162e5761162e61255d565b6000918252602090912001546001600160a01b031603611674578185858151811061165b5761165b61255d565b6020908102919091010152611671600185612589565b93505b8061167e8161259c565b91505061158a565b505080806116939061259c565b915050611494565b50909392505050565b60608060006116b284611484565b905060005b815181101561169b5760005b6002866040516116d39190612367565b90815260405190819003602001902060020154811015611889576002866040516116fd9190612367565b9081526020016040518091039020600201818154811061171f5761171f61255d565b9060005260206000200160405160200161173991906125b5565b604051602081830303815290604052805190602001208383815181106117615761176161255d565b60200260200101516040516020016117799190612367565b6040516020818303038152906040528051906020012014611877576002866040516117a49190612367565b908152602001604051809103902060020181815481106117c6576117c661255d565b9060005260206000200180546117db90612383565b80601f016020809104026020016040519081016040528092919081815260200182805461180790612383565b80156118545780601f1061182957610100808354040283529160200191611854565b820191906000526020600020905b81548152906001019060200180831161183757829003601f168201915b505050505084838151811061186b5761186b61255d565b60200260200101819052505b806118818161259c565b9150506116c3565b50806118948161259c565b9150506116b7565b60006002846040516118ae9190612367565b9081526020016040518091039020600301836040516118cd9190612367565b90815260200160405180910390206003016000836001600160a01b03166001600160a01b031681526020019081526020016000206001015490509392505050565b60005b6002836040516119219190612367565b9081526020016040518091039020600301826040516119409190612367565b908152604051908190036020019020600201548110156119e257600060028460405161196c9190612367565b90815260200160405180910390206003018360405161198b9190612367565b908152602001604051809103902060020182815481106119ad576119ad61255d565b6000918252602090912001546001600160a01b031690506119cf8484836110fa565b50806119da8161259c565b915050611911565b505050565b6040516001600160a01b0382166024820152611a2f9060440160408051601f198184030181529190526020810180516001600160e01b031663161765e160e11b179052611a32565b50565b80516a636f6e736f6c652e6c6f67602083016000808483855afa5050505050565b8260028101928215611a81579160200282015b82811115611a81578251825591602001919060010190611a66565b50611a8d929150611b21565b5090565b8260038101928215611a815791602002820182811115611a81578251825591602001919060010190611a66565b60405180606001604052806003905b6060815260200190600190039081611acd5790505090565b60405180606001604052806003906020820280368337509192915050565b60405180604001604052806002906020820280368337509192915050565b5b80821115611a8d5760008155600101611b22565b634e487b7160e01b600052604160045260246000fd5b600082601f830112611b5d57600080fd5b81356001600160401b0380821115611b7757611b77611b36565b604051601f8301601f19908116603f01168101908282118183101715611b9f57611b9f611b36565b81604052838152866020858801011115611bb857600080fd5b836020870160208301376000602085830101528094505050505092915050565b80356001600160a01b0381168114611bef57600080fd5b919050565b6000604051606081018181106001600160401b0382111715611c1857611c18611b36565b6040529050806060830184811115611c2f57600080fd5b835b81811015611c49578035835260209283019201611c31565b50505092915050565b600082601f830112611c6357600080fd5b604051604081018181106001600160401b0382111715611c8557611c85611b36565b8060405250806040840185811115611c9c57600080fd5b845b81811015611cb6578035835260209283019201611c9e565b509195945050505050565b600080600080600060c08688031215611cd957600080fd5b85356001600160401b0380821115611cf057600080fd5b611cfc89838a01611b4c565b96506020880135915080821115611d1257600080fd5b611d1e89838a01611b4c565b9550611d2c60408901611bd8565b94506060880135915080821115611d4257600080fd5b50611d4f88828901611b4c565b925050611d5f8760808801611c52565b90509295509295909350565b60008060008060808587031215611d8157600080fd5b84356001600160401b0380821115611d9857600080fd5b611da488838901611b4c565b95506020870135915080821115611dba57600080fd5b611dc688838901611b4c565b94506040870135915080821115611ddc57600080fd5b611de888838901611b4c565b93506060870135915080821115611dfe57600080fd5b50611e0b87828801611b4c565b91505092959194509250565b6000806000806000806101208789031215611e3157600080fd5b86356001600160401b0380821115611e4857600080fd5b611e548a838b01611b4c565b97506020890135915080821115611e6a57600080fd5b611e768a838b01611b4c565b9650611e8460408a01611bd8565b95506060890135915080821115611e9a57600080fd5b50611ea789828a01611b4c565b93505087609f880112611eb957600080fd5b611ec68860808901611bf4565b9150611ed58860e08901611c52565b90509295509295509295565b600080600060608486031215611ef657600080fd5b83356001600160401b0380821115611f0d57600080fd5b611f1987838801611b4c565b94506020860135915080821115611f2f57600080fd5b611f3b87838801611b4c565b93506040860135915080821115611f5157600080fd5b50611f5e86828701611b4c565b9150509250925092565b60008060408385031215611f7b57600080fd5b82356001600160401b0380821115611f9257600080fd5b611f9e86838701611b4c565b93506020850135915080821115611fb457600080fd5b50611fc185828601611b4c565b9150509250929050565b60005b83811015611fe6578181015183820152602001611fce565b50506000910152565b60008151808452612007816020860160208601611fcb565b601f01601f19169290920160200192915050565b60208082526000906080830183820185845b600381101561205c57601f1987850301835261204a848351611fef565b9350918401919084019060010161202d565b50919695505050505050565b600080600080600060a0868803121561208057600080fd5b85356001600160401b038082111561209757600080fd5b6120a389838a01611b4c565b965060208801359150808211156120b957600080fd5b6120c589838a01611b4c565b95506120d360408901611bd8565b945060608801359150808211156120e957600080fd5b506120f688828901611b4c565b95989497509295608001359392505050565b60008060006060848603121561211d57600080fd5b83356001600160401b038082111561213457600080fd5b61214087838801611b4c565b9450602086013591508082111561215657600080fd5b5061216386828701611b4c565b92505061217260408501611bd8565b90509250925092565b60208152600061218e6020830184611fef565b9392505050565b6000602082840312156121a757600080fd5b81356001600160401b038111156121bd57600080fd5b6121c984828501611b4c565b949350505050565b6000602080830181845280855180835260408601915060408160051b870101925083870160005b8281101561222657603f19888603018452612214858351611fef565b945092850192908501906001016121f8565b5092979650505050505050565b6020808252825182820181905260009190848201906040850190845b818110156122745783516001600160a01b03168352928401929184019160010161224f565b50909695505050505050565b6000806000806080858703121561229657600080fd5b84356001600160401b03808211156122ad57600080fd5b6122b988838901611b4c565b955060208701359150808211156122cf57600080fd5b6122db88838901611b4c565b9450611de860408801611bd8565b8060005b600281101561230c5781518452602093840193909101906001016122ed565b50505050565b6101008101818660005b600381101561233b57815183526020928301929091019060010161231c565b50505061234b60608301866122e9565b61235860a08301856122e9565b8260e083015295945050505050565b60008251612379818460208701611fcb565b9190910192915050565b600181811c9082168061239757607f821691505b6020821081036123b757634e487b7160e01b600052602260045260246000fd5b50919050565b601f8211156119e257600081815260208120601f850160051c810160208610156123e45750805b601f850160051c820191505b818110156103ab578281556001016123f0565b81516001600160401b0381111561241c5761241c611b36565b6124308161242a8454612383565b846123bd565b602080601f831160018114612465576000841561244d5750858301515b600019600386901b1c1916600185901b1785556103ab565b600085815260208120601f198616915b8281101561249457888601518255948401946001909101908401612475565b50858210156124b25787850151600019600388901b60f8161c191681555b5050505050600190811b01905550565b6080815260006124d56080830187611fef565b82810360208401526124e78187611fef565b905082810360408401526124fb8186611fef565b9050828103606084015261250f8185611fef565b979650505050505050565b60608152600061252d6060830186611fef565b828103602084015261253f8186611fef565b905082810360408401526125538185611fef565b9695505050505050565b634e487b7160e01b600052603260045260246000fd5b634e487b7160e01b600052601160045260246000fd5b8082018082111561091657610916612573565b6000600182016125ae576125ae612573565b5060010190565b60008083546125c381612383565b600182811680156125db57600181146125f05761261f565b60ff198416875282151583028701945061261f565b8760005260208060002060005b858110156126165781548a8201529084019082016125fd565b50505082870194505b5092969550505050505056fea264697066735822122016d156a7766ee9af07f1a3c95807fa1f5e5b62797d4858b755982c8439b68be164736f6c63430008110033",
  "linkReferences": {},
  "deployedLinkReferences": {}
}