{
  "_format": "hh-sol-artifact-1",
  "contractName": "MonPetitProno",
  "sourceName": "contracts/PetitProno.sol",
  "abi": [
    {
      "inputs": [],
      "stateMutability": "nonpayable",
      "type": "constructor"
    },
    {
      "anonymous": false,
      "inputs": [
        {
          "indexed": false,
          "internalType": "string",
          "name": "_LeagueId",
          "type": "string"
        },
        {
          "indexed": false,
          "internalType": "string",
          "name": "_League_name",
          "type": "string"
        },
        {
          "indexed": false,
          "internalType": "string",
          "name": "_ipfs",
          "type": "string"
        }
      ],
      "name": "NewLeague",
      "type": "event"
    },
    {
      "anonymous": false,
      "inputs": [
        {
          "indexed": false,
          "internalType": "string",
          "name": "_LeagueId",
          "type": "string"
        },
        {
          "indexed": false,
          "internalType": "string",
          "name": "_TeamId",
          "type": "string"
        },
        {
          "indexed": false,
          "internalType": "string",
          "name": "_Team_name",
          "type": "string"
        },
        {
          "indexed": false,
          "internalType": "string",
          "name": "_ipfs",
          "type": "string"
        }
      ],
      "name": "NewTeam",
      "type": "event"
    },
    {
      "inputs": [
        {
          "internalType": "string",
          "name": "_LeagueId",
          "type": "string"
        },
        {
          "internalType": "string",
          "name": "_TeamId",
          "type": "string"
        },
        {
          "internalType": "address",
          "name": "_walletId",
          "type": "address"
        },
        {
          "internalType": "string",
          "name": "_matchId",
          "type": "string"
        },
        {
          "internalType": "uint256[3]",
          "name": "_odds",
          "type": "uint256[3]"
        },
        {
          "internalType": "uint256[2]",
          "name": "_prono",
          "type": "uint256[2]"
        }
      ],
      "name": "addForecast",
      "outputs": [],
      "stateMutability": "nonpayable",
      "type": "function"
    },
    {
      "inputs": [
        {
          "internalType": "string",
          "name": "_LeagueId",
          "type": "string"
        },
        {
          "internalType": "string",
          "name": "_League_name",
          "type": "string"
        },
        {
          "internalType": "string",
          "name": "_ipfs",
          "type": "string"
        }
      ],
      "name": "addLeague",
      "outputs": [],
      "stateMutability": "nonpayable",
      "type": "function"
    },
    {
      "inputs": [
        {
          "internalType": "string",
          "name": "_LeagueId",
          "type": "string"
        },
        {
          "internalType": "string",
          "name": "_TeamId",
          "type": "string"
        },
        {
          "internalType": "string",
          "name": "_Player_name",
          "type": "string"
        }
      ],
      "name": "addPlayer",
      "outputs": [],
      "stateMutability": "nonpayable",
      "type": "function"
    },
    {
      "inputs": [
        {
          "internalType": "string",
          "name": "_LeagueId",
          "type": "string"
        },
        {
          "internalType": "string",
          "name": "_TeamId",
          "type": "string"
        },
        {
          "internalType": "string",
          "name": "_Teame_Name",
          "type": "string"
        },
        {
          "internalType": "string",
          "name": "_Player_name",
          "type": "string"
        },
        {
          "internalType": "string",
          "name": "_ipfs",
          "type": "string"
        }
      ],
      "name": "addTeam",
      "outputs": [],
      "stateMutability": "nonpayable",
      "type": "function"
    },
    {
      "inputs": [
        {
          "internalType": "string",
          "name": "_LeagueId",
          "type": "string"
        },
        {
          "internalType": "string",
          "name": "_TeamId",
          "type": "string"
        }
      ],
      "name": "getAllPlayerAddrFromOneTeam",
      "outputs": [
        {
          "internalType": "address[]",
          "name": "",
          "type": "address[]"
        }
      ],
      "stateMutability": "view",
      "type": "function"
    },
    {
      "inputs": [
        {
          "internalType": "string",
          "name": "_LeagueId",
          "type": "string"
        },
        {
          "internalType": "string",
          "name": "_TeamId",
          "type": "string"
        },
        {
          "internalType": "address",
          "name": "_walletId",
          "type": "address"
        },
        {
          "internalType": "string",
          "name": "_matchId",
          "type": "string"
        }
      ],
      "name": "getForecast",
      "outputs": [
        {
          "internalType": "uint256[3]",
          "name": "",
          "type": "uint256[3]"
        },
        {
          "internalType": "uint256[2]",
          "name": "",
          "type": "uint256[2]"
        },
        {
          "internalType": "uint256[2]",
          "name": "",
          "type": "uint256[2]"
        },
        {
          "internalType": "uint256",
          "name": "",
          "type": "uint256"
        }
      ],
      "stateMutability": "view",
      "type": "function"
    },
    {
      "inputs": [
        {
          "internalType": "string",
          "name": "_LeagueId",
          "type": "string"
        }
      ],
      "name": "getFreeTeamFromOneLeague",
      "outputs": [
        {
          "internalType": "string[]",
          "name": "",
          "type": "string[]"
        }
      ],
      "stateMutability": "view",
      "type": "function"
    },
    {
      "inputs": [
        {
          "internalType": "string",
          "name": "_LeagueId",
          "type": "string"
        }
      ],
      "name": "getLeagueById",
      "outputs": [
        {
          "internalType": "string[3]",
          "name": "",
          "type": "string[3]"
        }
      ],
      "stateMutability": "view",
      "type": "function"
    },
    {
      "inputs": [],
      "name": "getLeaguesID",
      "outputs": [
        {
          "internalType": "string[]",
          "name": "",
          "type": "string[]"
        }
      ],
      "stateMutability": "view",
      "type": "function"
    },
    {
      "inputs": [
        {
          "internalType": "string",
          "name": "_LeagueId",
          "type": "string"
        }
      ],
      "name": "getMyTeamFromOneLeague",
      "outputs": [
        {
          "internalType": "string[]",
          "name": "",
          "type": "string[]"
        }
      ],
      "stateMutability": "view",
      "type": "function"
    },
    {
      "inputs": [
        {
          "internalType": "string",
          "name": "_LeagueId",
          "type": "string"
        },
        {
          "internalType": "string",
          "name": "_TeamId",
          "type": "string"
        },
        {
          "internalType": "address",
          "name": "_walletId",
          "type": "address"
        }
      ],
      "name": "getPlayerScore",
      "outputs": [
        {
          "internalType": "uint256",
          "name": "",
          "type": "uint256"
        }
      ],
      "stateMutability": "view",
      "type": "function"
    },
    {
      "inputs": [
        {
          "internalType": "string",
          "name": "_LeagueId",
          "type": "string"
        },
        {
          "internalType": "string",
          "name": "_TeamId",
          "type": "string"
        },
        {
          "internalType": "address",
          "name": "_walletId",
          "type": "address"
        }
      ],
      "name": "getPlayername",
      "outputs": [
        {
          "internalType": "string",
          "name": "",
          "type": "string"
        }
      ],
      "stateMutability": "view",
      "type": "function"
    },
    {
      "inputs": [
        {
          "internalType": "string",
          "name": "_LeagueId",
          "type": "string"
        }
      ],
      "name": "getTeamsIdFromOneLeague",
      "outputs": [
        {
          "internalType": "string[]",
          "name": "",
          "type": "string[]"
        }
      ],
      "stateMutability": "view",
      "type": "function"
    },
    {
      "inputs": [
        {
          "internalType": "string",
          "name": "_LeagueId",
          "type": "string"
        },
        {
          "internalType": "string",
          "name": "_TeamId",
          "type": "string"
        }
      ],
      "name": "getTeamsInfos",
      "outputs": [
        {
          "internalType": "string[3]",
          "name": "",
          "type": "string[3]"
        }
      ],
      "stateMutability": "view",
      "type": "function"
    },
    {
      "inputs": [],
      "name": "owner",
      "outputs": [
        {
          "internalType": "address",
          "name": "",
          "type": "address"
        }
      ],
      "stateMutability": "view",
      "type": "function"
    },
    {
      "inputs": [
        {
          "internalType": "string",
          "name": "_LeagueId",
          "type": "string"
        },
        {
          "internalType": "string",
          "name": "_TeamId",
          "type": "string"
        },
        {
          "internalType": "address",
          "name": "_walletId",
          "type": "address"
        },
        {
          "internalType": "string",
          "name": "_matchId",
          "type": "string"
        },
        {
          "internalType": "uint256",
          "name": "_PointNb",
          "type": "uint256"
        }
      ],
      "name": "setForecastPointNb",
      "outputs": [],
      "stateMutability": "nonpayable",
      "type": "function"
    },
    {
      "inputs": [
        {
          "internalType": "string",
          "name": "_LeagueId",
          "type": "string"
        },
        {
          "internalType": "string",
          "name": "_TeamId",
          "type": "string"
        },
        {
          "internalType": "address",
          "name": "_walletId",
          "type": "address"
        },
        {
          "internalType": "string",
          "name": "_matchId",
          "type": "string"
        },
        {
          "internalType": "uint256[2]",
          "name": "_prono",
          "type": "uint256[2]"
        }
      ],
      "name": "setForecastProno",
      "outputs": [],
      "stateMutability": "nonpayable",
      "type": "function"
    },
    {
      "inputs": [
        {
          "internalType": "string",
          "name": "_LeagueId",
          "type": "string"
        },
        {
          "internalType": "string",
          "name": "_TeamId",
          "type": "string"
        },
        {
          "internalType": "address",
          "name": "_walletId",
          "type": "address"
        },
        {
          "internalType": "string",
          "name": "_matchId",
          "type": "string"
        },
        {
          "internalType": "uint256[2]",
          "name": "_result",
          "type": "uint256[2]"
        }
      ],
      "name": "setForecastResult",
      "outputs": [],
      "stateMutability": "nonpayable",
      "type": "function"
    },
    {
      "inputs": [
        {
          "internalType": "string",
          "name": "_LeagueId",
          "type": "string"
        },
        {
          "internalType": "string",
          "name": "_TeamId",
          "type": "string"
        }
      ],
      "name": "updateAllScore",
      "outputs": [],
      "stateMutability": "nonpayable",
      "type": "function"
    },
    {
      "inputs": [
        {
          "internalType": "string",
          "name": "_LeagueId",
          "type": "string"
        },
        {
          "internalType": "string",
          "name": "_TeamId",
          "type": "string"
        },
        {
          "internalType": "address",
          "name": "_walletId",
          "type": "address"
        }
      ],
      "name": "updateScore",
      "outputs": [],
      "stateMutability": "nonpayable",
      "type": "function"
    }
  ],
  "bytecode": "0x608060405234801561001057600080fd5b50600080546001600160a01b03191633179055612976806100326000396000f3fe608060405234801561001057600080fd5b506004361061012c5760003560e01c8063a9b756ce116100ad578063ce649e6211610071578063ce649e62146102aa578063d5e79a13146102bd578063f10efc50146102d0578063f254a8fd146102e3578063f5aad87a1461030457600080fd5b8063a9b756ce1461022c578063b0a5e4bd1461023f578063b581130314610254578063b99298d814610274578063c34901d91461029757600080fd5b8063513a7beb116100f4578063513a7beb146101925780636808efb2146101bb5780637e141c44146101ce5780638a3baacd146101ee5780638da5cb5b1461020157600080fd5b8063138ab2c31461013157806333a26f8614610146578063344f41b3146101595780633cdf244b1461016c57806345c7a7451461017f575b600080fd5b61014461013f366004611ea5565b610317565b005b610144610154366004611ea5565b6103b3565b610144610167366004611f4f565b610447565b61014461017a366004612019565b610574565b61014461018d3660046120ea565b61069b565b6101a56101a0366004612171565b61081b565b6040516101b29190612224565b60405180910390f35b6101446101c9366004612271565b6109e1565b6101e16101dc366004612311565b610a70565b6040516101b29190612384565b6101a56101fc36600461239e565b610b6a565b600054610214906001600160a01b031681565b6040516001600160a01b0390911681526020016101b2565b61014461023a3660046120ea565b610ced565b610247610dce565b6040516101b291906123da565b610267610262366004612171565b610ea7565b6040516101b2919061243c565b610287610282366004612489565b610f44565b6040516101b2949392919061254a565b6102476102a536600461239e565b6110b8565b6101446102b8366004612311565b6111b2565b6102476102cb36600461239e565b61153c565b6102476102de36600461239e565b61184e565b6102f66102f1366004612311565b611aec565b6040519081526020016101b2565b610144610312366004612171565b611b5e565b80600286604051610328919061259f565b908152602001604051809103902060030185604051610347919061259f565b90815260200160405180910390206003016000856001600160a01b03166001600160a01b031681526020019081526020016000206003018360405161038c919061259f565b90815260200160405180910390206005019060026103ab929190611c37565b505050505050565b806002866040516103c4919061259f565b9081526020016040518091039020600301856040516103e3919061259f565b90815260200160405180910390206003016000856001600160a01b03166001600160a01b0316815260200190815260200160002060030183604051610428919061259f565b90815260200160405180910390206003019060026103ab929190611c37565b81600287604051610458919061259f565b908152602001604051809103902060030186604051610477919061259f565b90815260200160405180910390206003016000866001600160a01b03166001600160a01b03168152602001908152602001600020600301846040516104bc919061259f565b9081526040519081900360200190206104d6916003611c75565b50806002876040516104e8919061259f565b908152602001604051809103902060030186604051610507919061259f565b90815260200160405180910390206003016000866001600160a01b03166001600160a01b031681526020019081526020016000206003018460405161054c919061259f565b908152602001604051809103902060030190600261056b929190611c37565b50505050505050565b82600286604051610585919061259f565b9081526020016040518091039020600301856040516105a4919061259f565b908152604051908190036020019020906105be908261263b565b50806002866040516105d0919061259f565b9081526020016040518091039020600301856040516105ef919061259f565b9081526020016040518091039020600101908161060c919061263b565b5060028560405161061d919061259f565b90815260405160209181900382019020600201805460018101825560009182529190200161064b858261263b565b5061065785858461069b565b7ff7bdee82c7ae87e45cf2bf70b1dbcfc8ac7aa0bdc001f00320842715e72c0a9d8585858460405161068c94939291906126fa565b60405180910390a15050505050565b806002846040516106ac919061259f565b9081526020016040518091039020600301836040516106cb919061259f565b908152604080516020928190038301902033600090815260039091019092529020906106f7908261263b565b50600283604051610708919061259f565b908152602001604051809103902060030182604051610727919061259f565b908152604051908190036020908101822060029081018054600181018255600091825292902090910180546001600160a01b031916331790557ff7bdee82c7ae87e45cf2bf70b1dbcfc8ac7aa0bdc001f00320842715e72c0a9d918591859161079190849061259f565b9081526020016040518091039020600301856040516107b0919061259f565b908152604051908190036020018120906002906107ce90899061259f565b9081526020016040518091039020600301866040516107ed919061259f565b908152602001604051809103902060010160405161080e94939291906127cf565b60405180910390a1505050565b610823611ca2565b6000600284604051610835919061259f565b908152602001604051809103902060030183604051610854919061259f565b908152604051908190036020019020805461086e906125bb565b80601f016020809104026020016040519081016040528092919081815260200182805461089a906125bb565b80156108e75780601f106108bc576101008083540402835291602001916108e7565b820191906000526020600020905b8154815290600101906020018083116108ca57829003601f168201915b505050505090506000600285604051610900919061259f565b90815260200160405180910390206003018460405161091f919061259f565b9081526020016040518091039020600101805461093b906125bb565b80601f0160208091040260200160405190810160405280929190818152602001828054610967906125bb565b80156109b45780601f10610989576101008083540402835291602001916109b4565b820191906000526020600020905b81548152906001019060200180831161099757829003601f168201915b50505050509050604051806060016040528085815260200183815260200182815250925050505b92915050565b806002866040516109f2919061259f565b908152602001604051809103902060030185604051610a11919061259f565b90815260200160405180910390206003016000856001600160a01b03166001600160a01b0316815260200190815260200160002060030183604051610a56919061259f565b908152604051908190036020019020600701555050505050565b6060600284604051610a82919061259f565b908152602001604051809103902060030183604051610aa1919061259f565b90815260200160405180910390206003016000836001600160a01b03166001600160a01b031681526020019081526020016000206000018054610ae3906125bb565b80601f0160208091040260200160405190810160405280929190818152602001828054610b0f906125bb565b8015610b5c5780601f10610b3157610100808354040283529160200191610b5c565b820191906000526020600020905b815481529060010190602001808311610b3f57829003601f168201915b505050505090509392505050565b610b72611ca2565b6000600283604051610b84919061259f565b9081526040519081900360200190208054610b9e906125bb565b80601f0160208091040260200160405190810160405280929190818152602001828054610bca906125bb565b8015610c175780601f10610bec57610100808354040283529160200191610c17565b820191906000526020600020905b815481529060010190602001808311610bfa57829003601f168201915b505050505090506000600284604051610c30919061259f565b90815260200160405180910390206001018054610c4c906125bb565b80601f0160208091040260200160405190810160405280929190818152602001828054610c78906125bb565b8015610cc55780601f10610c9a57610100808354040283529160200191610cc5565b820191906000526020600020905b815481529060010190602001808311610ca857829003601f168201915b5050604080516060810182529889526020890196909652505050918401919091525090919050565b6000546001600160a01b03163314610d0457600080fd5b81600284604051610d15919061259f565b90815260405190819003602001902090610d2f908261263b565b5080600284604051610d41919061259f565b90815260200160405180910390206001019081610d5e919061263b565b506001805480820182556000919091527fb10e2d527612073b26eecdfd717e6a320cf44b4afac2b0732d9fcbe2b7fa0cf601610d9a848261263b565b507f446828a13c0c0941cd2e81b91f1da8d8cc3ed47aea90d147858252ebcb0dcb4083838360405161080e9392919061281c565b60606001805480602002602001604051908101604052809291908181526020016000905b82821015610e9e578382906000526020600020018054610e11906125bb565b80601f0160208091040260200160405190810160405280929190818152602001828054610e3d906125bb565b8015610e8a5780601f10610e5f57610100808354040283529160200191610e8a565b820191906000526020600020905b815481529060010190602001808311610e6d57829003601f168201915b505050505081526020019060010190610df2565b50505050905090565b6060600283604051610eb9919061259f565b908152602001604051809103902060030182604051610ed8919061259f565b9081526040805191829003602090810183206002018054808302850183019093528284529190830182828015610f3757602002820191906000526020600020905b81546001600160a01b03168152600190910190602001808311610f19575b5050505050905092915050565b610f4c611cc9565b610f54611ce7565b610f5c611ce7565b600080600289604051610f6f919061259f565b908152602001604051809103902060030188604051610f8e919061259f565b90815260200160405180910390206003016000886001600160a01b03166001600160a01b0316815260200190815260200160002060030186604051610fd3919061259f565b9081526040805191829003602001822060e0830190915281608081018260038282826020028201915b815481526020019060010190808311610ffc575050509183525050604080518082019182905260209092019190600384019060029082845b815481526020019060010190808311611034575050509183525050604080518082019182905260209092019190600584019060029082845b81548152602001906001019080831161106c575050509183525050600791909101546020918201528151908201516040830151606090930151919c909b50919950975095505050505050565b60606002826040516110ca919061259f565b9081526020016040518091039020600201805480602002602001604051908101604052809291908181526020016000905b828210156111a757838290600052602060002001805461111a906125bb565b80601f0160208091040260200160405190810160405280929190818152602001828054611146906125bb565b80156111935780601f1061116857610100808354040283529160200191611193565b820191906000526020600020905b81548152906001019060200180831161117657829003601f168201915b5050505050815260200190600101906110fb565b505050509050919050565b82828260005b6002846040516111c8919061259f565b9081526020016040518091039020600301836040516111e7919061259f565b908152604051908190036020019020600201548110156114df57816001600160a01b031660028560405161121b919061259f565b90815260200160405180910390206003018460405161123a919061259f565b9081526020016040518091039020600201828154811061125c5761125c61285f565b6000918252602090912001546001600160a01b0316036114cd576000805b60028960405161128a919061259f565b9081526020016040518091039020600301886040516112a9919061259f565b9081526040805160209281900383019020336000908152600390910190925290206002015481101561147557600060028a6040516112e7919061259f565b908152602001604051809103902060030189604051611306919061259f565b90815260200160405180910390206003016000336001600160a01b03166001600160a01b03168152602001908152602001600020600201828154811061134e5761134e61285f565b906000526020600020018054611363906125bb565b80601f016020809104026020016040519081016040528092919081815260200182805461138f906125bb565b80156113dc5780601f106113b1576101008083540402835291602001916113dc565b820191906000526020600020905b8154815290600101906020018083116113bf57829003601f168201915b5050505050905060028a6040516113f3919061259f565b908152602001604051809103902060030189604051611412919061259f565b9081526040805191829003602090810183203360009081526003918201909252919020019061144290839061259f565b9081526020016040518091039020600701548361145f919061288b565b925050808061146d9061289e565b91505061127a565b5080600289604051611487919061259f565b9081526020016040518091039020600301886040516114a6919061259f565b90815260408051602092819003830190203360009081526003909101909252902060010155505b806114d78161289e565b9150506111b8565b5060405162461bcd60e51b815260206004820152602760248201527f566f7573206e27657465732070617320756e20506c61796572206465206365746044820152667465207465616d60c81b606482015260840160405180910390fd5b60606000600283604051611550919061259f565b9081526040519081900360200190206002015490506000816001600160401b0381111561157f5761157f611d1a565b6040519080825280602002602001820160405280156115b257816020015b606081526020019060019003908161159d5790505b5090506000805b8381101561179e5760006002876040516115d3919061259f565b908152602001604051809103902060020182815481106115f5576115f561285f565b90600052602060002001805461160a906125bb565b80601f0160208091040260200160405190810160405280929190818152602001828054611636906125bb565b80156116835780601f1061165857610100808354040283529160200191611683565b820191906000526020600020905b81548152906001019060200180831161166657829003601f168201915b5050505050905060005b60028860405161169d919061259f565b9081526020016040518091039020600301826040516116bc919061259f565b9081526040519081900360200190206002015481101561178957336001600160a01b03166002896040516116f0919061259f565b90815260200160405180910390206003018360405161170f919061259f565b908152602001604051809103902060020182815481106117315761173161285f565b6000918252602090912001546001600160a01b031603611777578185858151811061175e5761175e61285f565b602090810291909101015261177460018561288b565b93505b806117818161289e565b91505061168d565b505080806117969061289e565b9150506115b9565b506000816001600160401b038111156117b9576117b9611d1a565b6040519080825280602002602001820160405280156117ec57816020015b60608152602001906001900390816117d75790505b50905060005b828110156118445783818151811061180c5761180c61285f565b60200260200101518282815181106118265761182661285f565b6020026020010181905250808061183c9061289e565b9150506117f2565b5095945050505050565b6060600061185b8361153c565b905060008151600285604051611871919061259f565b9081526040519081900360200190206002015461188e91906128b7565b6001600160401b038111156118a5576118a5611d1a565b6040519080825280602002602001820160405280156118d857816020015b60608152602001906001900390816118c35790505b5090506000805b6002866040516118ef919061259f565b90815260405190819003602001902060020154811015611ae2576000805b85518110156119d457600288604051611926919061259f565b908152602001604051809103902060020183815481106119485761194861285f565b9060005260206000200160405160200161196291906128ca565b6040516020818303038152906040528051906020012086828151811061198a5761198a61285f565b60200260200101516040516020016119a2919061259f565b60405160208183030381529060405280519060200120036119c257600191505b806119cc8161289e565b91505061190d565b50801515600003611acf576002876040516119ef919061259f565b90815260200160405180910390206002018281548110611a1157611a1161285f565b906000526020600020018054611a26906125bb565b80601f0160208091040260200160405190810160405280929190818152602001828054611a52906125bb565b8015611a9f5780601f10611a7457610100808354040283529160200191611a9f565b820191906000526020600020905b815481529060010190602001808311611a8257829003601f168201915b5050505050848481518110611ab657611ab661285f565b6020908102919091010152611acc60018461288b565b92505b5080611ada8161289e565b9150506118df565b5090949350505050565b6000600284604051611afe919061259f565b908152602001604051809103902060030183604051611b1d919061259f565b90815260200160405180910390206003016000836001600160a01b03166001600160a01b031681526020019081526020016000206001015490509392505050565b60005b600283604051611b71919061259f565b908152602001604051809103902060030182604051611b90919061259f565b90815260405190819003602001902060020154811015611c32576000600284604051611bbc919061259f565b908152602001604051809103902060030183604051611bdb919061259f565b90815260200160405180910390206002018281548110611bfd57611bfd61285f565b6000918252602090912001546001600160a01b03169050611c1f8484836111b2565b5080611c2a8161289e565b915050611b61565b505050565b8260028101928215611c65579160200282015b82811115611c65578251825591602001919060010190611c4a565b50611c71929150611d05565b5090565b8260038101928215611c655791602002820182811115611c65578251825591602001919060010190611c4a565b60405180606001604052806003905b6060815260200190600190039081611cb15790505090565b60405180606001604052806003906020820280368337509192915050565b60405180604001604052806002906020820280368337509192915050565b5b80821115611c715760008155600101611d06565b634e487b7160e01b600052604160045260246000fd5b600082601f830112611d4157600080fd5b81356001600160401b0380821115611d5b57611d5b611d1a565b604051601f8301601f19908116603f01168101908282118183101715611d8357611d83611d1a565b81604052838152866020858801011115611d9c57600080fd5b836020870160208301376000602085830101528094505050505092915050565b80356001600160a01b0381168114611dd357600080fd5b919050565b6000604051606081018181106001600160401b0382111715611dfc57611dfc611d1a565b6040529050806060830184811115611e1357600080fd5b835b81811015611e2d578035835260209283019201611e15565b50505092915050565b600082601f830112611e4757600080fd5b604051604081018181106001600160401b0382111715611e6957611e69611d1a565b8060405250806040840185811115611e8057600080fd5b845b81811015611e9a578035835260209283019201611e82565b509195945050505050565b600080600080600060c08688031215611ebd57600080fd5b85356001600160401b0380821115611ed457600080fd5b611ee089838a01611d30565b96506020880135915080821115611ef657600080fd5b611f0289838a01611d30565b9550611f1060408901611dbc565b94506060880135915080821115611f2657600080fd5b50611f3388828901611d30565b925050611f438760808801611e36565b90509295509295909350565b6000806000806000806101208789031215611f6957600080fd5b86356001600160401b0380821115611f8057600080fd5b611f8c8a838b01611d30565b97506020890135915080821115611fa257600080fd5b611fae8a838b01611d30565b9650611fbc60408a01611dbc565b95506060890135915080821115611fd257600080fd5b50611fdf89828a01611d30565b93505087609f880112611ff157600080fd5b611ffe8860808901611dd8565b915061200d8860e08901611e36565b90509295509295509295565b600080600080600060a0868803121561203157600080fd5b85356001600160401b038082111561204857600080fd5b61205489838a01611d30565b9650602088013591508082111561206a57600080fd5b61207689838a01611d30565b9550604088013591508082111561208c57600080fd5b61209889838a01611d30565b945060608801359150808211156120ae57600080fd5b6120ba89838a01611d30565b935060808801359150808211156120d057600080fd5b506120dd88828901611d30565b9150509295509295909350565b6000806000606084860312156120ff57600080fd5b83356001600160401b038082111561211657600080fd5b61212287838801611d30565b9450602086013591508082111561213857600080fd5b61214487838801611d30565b9350604086013591508082111561215a57600080fd5b5061216786828701611d30565b9150509250925092565b6000806040838503121561218457600080fd5b82356001600160401b038082111561219b57600080fd5b6121a786838701611d30565b935060208501359150808211156121bd57600080fd5b506121ca85828601611d30565b9150509250929050565b60005b838110156121ef5781810151838201526020016121d7565b50506000910152565b600081518084526122108160208601602086016121d4565b601f01601f19169290920160200192915050565b60208082526000906080830183820185845b600381101561226557601f198785030183526122538483516121f8565b93509184019190840190600101612236565b50919695505050505050565b600080600080600060a0868803121561228957600080fd5b85356001600160401b03808211156122a057600080fd5b6122ac89838a01611d30565b965060208801359150808211156122c257600080fd5b6122ce89838a01611d30565b95506122dc60408901611dbc565b945060608801359150808211156122f257600080fd5b506122ff88828901611d30565b95989497509295608001359392505050565b60008060006060848603121561232657600080fd5b83356001600160401b038082111561233d57600080fd5b61234987838801611d30565b9450602086013591508082111561235f57600080fd5b5061236c86828701611d30565b92505061237b60408501611dbc565b90509250925092565b60208152600061239760208301846121f8565b9392505050565b6000602082840312156123b057600080fd5b81356001600160401b038111156123c657600080fd5b6123d284828501611d30565b949350505050565b6000602080830181845280855180835260408601915060408160051b870101925083870160005b8281101561242f57603f1988860301845261241d8583516121f8565b94509285019290850190600101612401565b5092979650505050505050565b6020808252825182820181905260009190848201906040850190845b8181101561247d5783516001600160a01b031683529284019291840191600101612458565b50909695505050505050565b6000806000806080858703121561249f57600080fd5b84356001600160401b03808211156124b657600080fd5b6124c288838901611d30565b955060208701359150808211156124d857600080fd5b6124e488838901611d30565b94506124f260408801611dbc565b9350606087013591508082111561250857600080fd5b5061251587828801611d30565b91505092959194509250565b8060005b6002811015612544578151845260209384019390910190600101612525565b50505050565b6101008101818660005b6003811015612573578151835260209283019290910190600101612554565b5050506125836060830186612521565b61259060a0830185612521565b8260e083015295945050505050565b600082516125b18184602087016121d4565b9190910192915050565b600181811c908216806125cf57607f821691505b6020821081036125ef57634e487b7160e01b600052602260045260246000fd5b50919050565b601f821115611c3257600081815260208120601f850160051c8101602086101561261c5750805b601f850160051c820191505b818110156103ab57828155600101612628565b81516001600160401b0381111561265457612654611d1a565b6126688161266284546125bb565b846125f5565b602080601f83116001811461269d57600084156126855750858301515b600019600386901b1c1916600185901b1785556103ab565b600085815260208120601f198616915b828110156126cc578886015182559484019460019091019084016126ad565b50858210156126ea5787850151600019600388901b60f8161c191681555b5050505050600190811b01905550565b60808152600061270d60808301876121f8565b828103602084015261271f81876121f8565b9050828103604084015261273381866121f8565b9050828103606084015261274781856121f8565b979650505050505050565b6000815461275f816125bb565b80855260206001838116801561277c5760018114612796576127c4565b60ff1985168884015283151560051b8801830195506127c4565b866000528260002060005b858110156127bc5781548a82018601529083019084016127a1565b890184019650505b505050505092915050565b6080815260006127e260808301876121f8565b82810360208401526127f481876121f8565b905082810360408401526128088186612752565b905082810360608401526127478185612752565b60608152600061282f60608301866121f8565b828103602084015261284181866121f8565b9050828103604084015261285581856121f8565b9695505050505050565b634e487b7160e01b600052603260045260246000fd5b634e487b7160e01b600052601160045260246000fd5b808201808211156109db576109db612875565b6000600182016128b0576128b0612875565b5060010190565b818103818111156109db576109db612875565b60008083546128d8816125bb565b600182811680156128f0576001811461290557612934565b60ff1984168752821515830287019450612934565b8760005260208060002060005b8581101561292b5781548a820152908401908201612912565b50505082870194505b5092969550505050505056fea2646970667358221220e82d885ccc9df6a593a94f47ebdd9c43dab3cff7482828cbc73e75b5c47e760964736f6c63430008110033",
  "linkReferences": {},
  "deployedLinkReferences": {}
}