{
  "_format": "hh-sol-artifact-1",
  "contractName": "MonPetitProno",
  "sourceName": "contracts/PetitProno.sol",
  "abi": [
    {
      "inputs": [],
      "stateMutability": "nonpayable",
      "type": "constructor"
    },
    {
      "anonymous": false,
      "inputs": [
        {
          "indexed": false,
          "internalType": "string",
          "name": "_LeagueId",
          "type": "string"
        },
        {
          "indexed": false,
          "internalType": "string",
          "name": "_League_name",
          "type": "string"
        },
        {
          "indexed": false,
          "internalType": "string",
          "name": "_ipfs",
          "type": "string"
        }
      ],
      "name": "NewLeague",
      "type": "event"
    },
    {
      "anonymous": false,
      "inputs": [
        {
          "indexed": false,
          "internalType": "string",
          "name": "_LeagueId",
          "type": "string"
        },
        {
          "indexed": false,
          "internalType": "string",
          "name": "_TeamId",
          "type": "string"
        },
        {
          "indexed": false,
          "internalType": "string",
          "name": "_Team_name",
          "type": "string"
        },
        {
          "indexed": false,
          "internalType": "string",
          "name": "_ipfs",
          "type": "string"
        }
      ],
      "name": "NewTeam",
      "type": "event"
    },
    {
      "inputs": [
        {
          "internalType": "string",
          "name": "_LeagueId",
          "type": "string"
        },
        {
          "internalType": "string",
          "name": "_TeamId",
          "type": "string"
        },
        {
          "internalType": "address",
          "name": "_walletId",
          "type": "address"
        },
        {
          "internalType": "string",
          "name": "_matchId",
          "type": "string"
        },
        {
          "internalType": "uint256[3]",
          "name": "_odds",
          "type": "uint256[3]"
        },
        {
          "internalType": "uint256[2]",
          "name": "_prono",
          "type": "uint256[2]"
        }
      ],
      "name": "addForecast",
      "outputs": [],
      "stateMutability": "nonpayable",
      "type": "function"
    },
    {
      "inputs": [
        {
          "internalType": "string",
          "name": "_LeagueId",
          "type": "string"
        },
        {
          "internalType": "string",
          "name": "_League_name",
          "type": "string"
        },
        {
          "internalType": "string",
          "name": "_ipfs",
          "type": "string"
        }
      ],
      "name": "addLeague",
      "outputs": [],
      "stateMutability": "nonpayable",
      "type": "function"
    },
    {
      "inputs": [
        {
          "internalType": "string",
          "name": "_LeagueId",
          "type": "string"
        },
        {
          "internalType": "string",
          "name": "_TeamId",
          "type": "string"
        },
        {
          "internalType": "string",
          "name": "_Player_name",
          "type": "string"
        }
      ],
      "name": "addPlayer",
      "outputs": [],
      "stateMutability": "nonpayable",
      "type": "function"
    },
    {
      "inputs": [
        {
          "internalType": "string",
          "name": "_LeagueId",
          "type": "string"
        },
        {
          "internalType": "string",
          "name": "_TeamId",
          "type": "string"
        },
        {
          "internalType": "string",
          "name": "_Teame_Name",
          "type": "string"
        },
        {
          "internalType": "string",
          "name": "_Player_name",
          "type": "string"
        },
        {
          "internalType": "string",
          "name": "_ipfs",
          "type": "string"
        }
      ],
      "name": "addTeam",
      "outputs": [],
      "stateMutability": "nonpayable",
      "type": "function"
    },
    {
      "inputs": [
        {
          "internalType": "string",
          "name": "_LeagueId",
          "type": "string"
        },
        {
          "internalType": "string",
          "name": "_TeamId",
          "type": "string"
        }
      ],
      "name": "getAllPlayerAddrFromOneTeam",
      "outputs": [
        {
          "internalType": "address[]",
          "name": "",
          "type": "address[]"
        }
      ],
      "stateMutability": "view",
      "type": "function"
    },
    {
      "inputs": [
        {
          "internalType": "string",
          "name": "_LeagueId",
          "type": "string"
        },
        {
          "internalType": "string",
          "name": "_TeamId",
          "type": "string"
        },
        {
          "internalType": "address",
          "name": "_walletId",
          "type": "address"
        },
        {
          "internalType": "string",
          "name": "_matchId",
          "type": "string"
        }
      ],
      "name": "getForecast",
      "outputs": [
        {
          "internalType": "uint256[3]",
          "name": "",
          "type": "uint256[3]"
        },
        {
          "internalType": "uint256[2]",
          "name": "",
          "type": "uint256[2]"
        },
        {
          "internalType": "uint256[2]",
          "name": "",
          "type": "uint256[2]"
        },
        {
          "internalType": "uint256",
          "name": "",
          "type": "uint256"
        }
      ],
      "stateMutability": "view",
      "type": "function"
    },
    {
      "inputs": [
        {
          "internalType": "string",
          "name": "_LeagueId",
          "type": "string"
        }
      ],
      "name": "getFreeTeamFromOneLeague",
      "outputs": [
        {
          "internalType": "string[]",
          "name": "",
          "type": "string[]"
        }
      ],
      "stateMutability": "view",
      "type": "function"
    },
    {
      "inputs": [
        {
          "internalType": "string",
          "name": "_LeagueId",
          "type": "string"
        }
      ],
      "name": "getLeagueById",
      "outputs": [
        {
          "internalType": "string[3]",
          "name": "",
          "type": "string[3]"
        }
      ],
      "stateMutability": "view",
      "type": "function"
    },
    {
      "inputs": [],
      "name": "getLeaguesID",
      "outputs": [
        {
          "internalType": "string[]",
          "name": "",
          "type": "string[]"
        }
      ],
      "stateMutability": "view",
      "type": "function"
    },
    {
      "inputs": [
        {
          "internalType": "string",
          "name": "_LeagueId",
          "type": "string"
        }
      ],
      "name": "getMyTeamFromOneLeague",
      "outputs": [
        {
          "internalType": "string[]",
          "name": "",
          "type": "string[]"
        }
      ],
      "stateMutability": "view",
      "type": "function"
    },
    {
      "inputs": [
        {
          "internalType": "string",
          "name": "_LeagueId",
          "type": "string"
        },
        {
          "internalType": "string",
          "name": "_TeamId",
          "type": "string"
        },
        {
          "internalType": "address",
          "name": "_walletId",
          "type": "address"
        }
      ],
      "name": "getPlayerScore",
      "outputs": [
        {
          "internalType": "uint256",
          "name": "",
          "type": "uint256"
        }
      ],
      "stateMutability": "view",
      "type": "function"
    },
    {
      "inputs": [
        {
          "internalType": "string",
          "name": "_LeagueId",
          "type": "string"
        },
        {
          "internalType": "string",
          "name": "_TeamId",
          "type": "string"
        },
        {
          "internalType": "address",
          "name": "_walletId",
          "type": "address"
        }
      ],
      "name": "getPlayername",
      "outputs": [
        {
          "internalType": "string",
          "name": "",
          "type": "string"
        }
      ],
      "stateMutability": "view",
      "type": "function"
    },
    {
      "inputs": [
        {
          "internalType": "string",
          "name": "_LeagueId",
          "type": "string"
        }
      ],
      "name": "getTeamsIdFromOneLeague",
      "outputs": [
        {
          "internalType": "string[]",
          "name": "",
          "type": "string[]"
        }
      ],
      "stateMutability": "view",
      "type": "function"
    },
    {
      "inputs": [
        {
          "internalType": "string",
          "name": "_LeagueId",
          "type": "string"
        },
        {
          "internalType": "string",
          "name": "_TeamId",
          "type": "string"
        }
      ],
      "name": "getTeamsInfos",
      "outputs": [
        {
          "internalType": "string[3]",
          "name": "",
          "type": "string[3]"
        }
      ],
      "stateMutability": "view",
      "type": "function"
    },
    {
      "inputs": [],
      "name": "owner",
      "outputs": [
        {
          "internalType": "address",
          "name": "",
          "type": "address"
        }
      ],
      "stateMutability": "view",
      "type": "function"
    },
    {
      "inputs": [
        {
          "internalType": "string",
          "name": "_LeagueId",
          "type": "string"
        },
        {
          "internalType": "string",
          "name": "_TeamId",
          "type": "string"
        },
        {
          "internalType": "address",
          "name": "_walletId",
          "type": "address"
        },
        {
          "internalType": "string",
          "name": "_matchId",
          "type": "string"
        },
        {
          "internalType": "uint256",
          "name": "_PointNb",
          "type": "uint256"
        }
      ],
      "name": "setForecastPointNb",
      "outputs": [],
      "stateMutability": "nonpayable",
      "type": "function"
    },
    {
      "inputs": [
        {
          "internalType": "string",
          "name": "_LeagueId",
          "type": "string"
        },
        {
          "internalType": "string",
          "name": "_TeamId",
          "type": "string"
        },
        {
          "internalType": "address",
          "name": "_walletId",
          "type": "address"
        },
        {
          "internalType": "string",
          "name": "_matchId",
          "type": "string"
        },
        {
          "internalType": "uint256[2]",
          "name": "_prono",
          "type": "uint256[2]"
        }
      ],
      "name": "setForecastProno",
      "outputs": [],
      "stateMutability": "nonpayable",
      "type": "function"
    },
    {
      "inputs": [
        {
          "internalType": "string",
          "name": "_LeagueId",
          "type": "string"
        },
        {
          "internalType": "string",
          "name": "_TeamId",
          "type": "string"
        },
        {
          "internalType": "address",
          "name": "_walletId",
          "type": "address"
        },
        {
          "internalType": "string",
          "name": "_matchId",
          "type": "string"
        },
        {
          "internalType": "uint256[2]",
          "name": "_result",
          "type": "uint256[2]"
        }
      ],
      "name": "setForecastResult",
      "outputs": [],
      "stateMutability": "nonpayable",
      "type": "function"
    },
    {
      "inputs": [
        {
          "internalType": "string",
          "name": "_LeagueId",
          "type": "string"
        },
        {
          "internalType": "string",
          "name": "_TeamId",
          "type": "string"
        }
      ],
      "name": "updateAllScore",
      "outputs": [],
      "stateMutability": "nonpayable",
      "type": "function"
    },
    {
      "inputs": [
        {
          "internalType": "string",
          "name": "_LeagueId",
          "type": "string"
        },
        {
          "internalType": "string",
          "name": "_TeamId",
          "type": "string"
        },
        {
          "internalType": "address",
          "name": "_walletId",
          "type": "address"
        }
      ],
      "name": "updateScore",
      "outputs": [],
      "stateMutability": "nonpayable",
      "type": "function"
    }
  ],
  "bytecode": "0x608060405234801561001057600080fd5b50600080546001600160a01b03191633179055612800806100326000396000f3fe608060405234801561001057600080fd5b506004361061012c5760003560e01c8063a9b756ce116100ad578063ce649e6211610071578063ce649e62146102aa578063d5e79a13146102bd578063f10efc50146102d0578063f254a8fd146102e3578063f5aad87a1461030457600080fd5b8063a9b756ce1461022c578063b0a5e4bd1461023f578063b581130314610254578063b99298d814610274578063c34901d91461029757600080fd5b8063513a7beb116100f4578063513a7beb146101925780636808efb2146101bb5780637e141c44146101ce5780638a3baacd146101ee5780638da5cb5b1461020157600080fd5b8063138ab2c31461013157806333a26f8614610146578063344f41b3146101595780633cdf244b1461016c57806345c7a7451461017f575b600080fd5b61014461013f366004611df9565b610317565b005b610144610154366004611df9565b6103b3565b610144610167366004611ea3565b610447565b61014461017a366004611f6d565b610574565b61014461018d36600461203e565b61069b565b6101a56101a03660046120c5565b610762565b6040516101b29190612178565b60405180910390f35b6101446101c93660046121c5565b610928565b6101e16101dc366004612265565b6109b7565b6040516101b291906122d8565b6101a56101fc3660046122f2565b610ab1565b600054610214906001600160a01b031681565b6040516001600160a01b0390911681526020016101b2565b61014461023a36600461203e565b610c34565b610247610d22565b6040516101b2919061232e565b6102676102623660046120c5565b610dfb565b6040516101b29190612390565b6102876102823660046123dd565b610e98565b6040516101b2949392919061249e565b6102476102a53660046122f2565b61100c565b6101446102b8366004612265565b611106565b6102476102cb3660046122f2565b611490565b6102476102de3660046122f2565b6117a2565b6102f66102f1366004612265565b611a40565b6040519081526020016101b2565b6101446103123660046120c5565b611ab2565b8060028660405161032891906124f3565b90815260200160405180910390206003018560405161034791906124f3565b90815260200160405180910390206003016000856001600160a01b03166001600160a01b031681526020019081526020016000206003018360405161038c91906124f3565b90815260200160405180910390206005019060026103ab929190611b8b565b505050505050565b806002866040516103c491906124f3565b9081526020016040518091039020600301856040516103e391906124f3565b90815260200160405180910390206003016000856001600160a01b03166001600160a01b031681526020019081526020016000206003018360405161042891906124f3565b90815260200160405180910390206003019060026103ab929190611b8b565b8160028760405161045891906124f3565b90815260200160405180910390206003018660405161047791906124f3565b90815260200160405180910390206003016000866001600160a01b03166001600160a01b03168152602001908152602001600020600301846040516104bc91906124f3565b9081526040519081900360200190206104d6916003611bc9565b50806002876040516104e891906124f3565b90815260200160405180910390206003018660405161050791906124f3565b90815260200160405180910390206003016000866001600160a01b03166001600160a01b031681526020019081526020016000206003018460405161054c91906124f3565b908152602001604051809103902060030190600261056b929190611b8b565b50505050505050565b8260028660405161058591906124f3565b9081526020016040518091039020600301856040516105a491906124f3565b908152604051908190036020019020906105be908261258f565b50806002866040516105d091906124f3565b9081526020016040518091039020600301856040516105ef91906124f3565b9081526020016040518091039020600101908161060c919061258f565b5060028560405161061d91906124f3565b90815260405160209181900382019020600201805460018101825560009182529190200161064b858261258f565b5061065785858461069b565b7ff7bdee82c7ae87e45cf2bf70b1dbcfc8ac7aa0bdc001f00320842715e72c0a9d8585858460405161068c949392919061264e565b60405180910390a15050505050565b806002846040516106ac91906124f3565b9081526020016040518091039020600301836040516106cb91906124f3565b908152604080516020928190038301902033600090815260039091019092529020906106f7908261258f565b5060028360405161070891906124f3565b90815260200160405180910390206003018260405161072791906124f3565b908152604051908190036020908101909120600201805460018101825560009182529190200180546001600160a01b03191633179055505050565b61076a611bf6565b600060028460405161077c91906124f3565b90815260200160405180910390206003018360405161079b91906124f3565b90815260405190819003602001902080546107b59061250f565b80601f01602080910402602001604051908101604052809291908181526020018280546107e19061250f565b801561082e5780601f106108035761010080835404028352916020019161082e565b820191906000526020600020905b81548152906001019060200180831161081157829003601f168201915b50505050509050600060028560405161084791906124f3565b90815260200160405180910390206003018460405161086691906124f3565b908152602001604051809103902060010180546108829061250f565b80601f01602080910402602001604051908101604052809291908181526020018280546108ae9061250f565b80156108fb5780601f106108d0576101008083540402835291602001916108fb565b820191906000526020600020905b8154815290600101906020018083116108de57829003601f168201915b50505050509050604051806060016040528085815260200183815260200182815250925050505b92915050565b8060028660405161093991906124f3565b90815260200160405180910390206003018560405161095891906124f3565b90815260200160405180910390206003016000856001600160a01b03166001600160a01b031681526020019081526020016000206003018360405161099d91906124f3565b908152604051908190036020019020600701555050505050565b60606002846040516109c991906124f3565b9081526020016040518091039020600301836040516109e891906124f3565b90815260200160405180910390206003016000836001600160a01b03166001600160a01b031681526020019081526020016000206000018054610a2a9061250f565b80601f0160208091040260200160405190810160405280929190818152602001828054610a569061250f565b8015610aa35780601f10610a7857610100808354040283529160200191610aa3565b820191906000526020600020905b815481529060010190602001808311610a8657829003601f168201915b505050505090509392505050565b610ab9611bf6565b6000600283604051610acb91906124f3565b9081526040519081900360200190208054610ae59061250f565b80601f0160208091040260200160405190810160405280929190818152602001828054610b119061250f565b8015610b5e5780601f10610b3357610100808354040283529160200191610b5e565b820191906000526020600020905b815481529060010190602001808311610b4157829003601f168201915b505050505090506000600284604051610b7791906124f3565b90815260200160405180910390206001018054610b939061250f565b80601f0160208091040260200160405190810160405280929190818152602001828054610bbf9061250f565b8015610c0c5780601f10610be157610100808354040283529160200191610c0c565b820191906000526020600020905b815481529060010190602001808311610bef57829003601f168201915b5050604080516060810182529889526020890196909652505050918401919091525090919050565b6000546001600160a01b03163314610c4b57600080fd5b81600284604051610c5c91906124f3565b90815260405190819003602001902090610c76908261258f565b5080600284604051610c8891906124f3565b90815260200160405180910390206001019081610ca5919061258f565b506001805480820182556000919091527fb10e2d527612073b26eecdfd717e6a320cf44b4afac2b0732d9fcbe2b7fa0cf601610ce1848261258f565b507f446828a13c0c0941cd2e81b91f1da8d8cc3ed47aea90d147858252ebcb0dcb40838383604051610d15939291906126a6565b60405180910390a1505050565b60606001805480602002602001604051908101604052809291908181526020016000905b82821015610df2578382906000526020600020018054610d659061250f565b80601f0160208091040260200160405190810160405280929190818152602001828054610d919061250f565b8015610dde5780601f10610db357610100808354040283529160200191610dde565b820191906000526020600020905b815481529060010190602001808311610dc157829003601f168201915b505050505081526020019060010190610d46565b50505050905090565b6060600283604051610e0d91906124f3565b908152602001604051809103902060030182604051610e2c91906124f3565b9081526040805191829003602090810183206002018054808302850183019093528284529190830182828015610e8b57602002820191906000526020600020905b81546001600160a01b03168152600190910190602001808311610e6d575b5050505050905092915050565b610ea0611c1d565b610ea8611c3b565b610eb0611c3b565b600080600289604051610ec391906124f3565b908152602001604051809103902060030188604051610ee291906124f3565b90815260200160405180910390206003016000886001600160a01b03166001600160a01b0316815260200190815260200160002060030186604051610f2791906124f3565b9081526040805191829003602001822060e0830190915281608081018260038282826020028201915b815481526020019060010190808311610f50575050509183525050604080518082019182905260209092019190600384019060029082845b815481526020019060010190808311610f88575050509183525050604080518082019182905260209092019190600584019060029082845b815481526020019060010190808311610fc0575050509183525050600791909101546020918201528151908201516040830151606090930151919c909b50919950975095505050505050565b606060028260405161101e91906124f3565b9081526020016040518091039020600201805480602002602001604051908101604052809291908181526020016000905b828210156110fb57838290600052602060002001805461106e9061250f565b80601f016020809104026020016040519081016040528092919081815260200182805461109a9061250f565b80156110e75780601f106110bc576101008083540402835291602001916110e7565b820191906000526020600020905b8154815290600101906020018083116110ca57829003601f168201915b50505050508152602001906001019061104f565b505050509050919050565b82828260005b60028460405161111c91906124f3565b90815260200160405180910390206003018360405161113b91906124f3565b9081526040519081900360200190206002015481101561143357816001600160a01b031660028560405161116f91906124f3565b90815260200160405180910390206003018460405161118e91906124f3565b908152602001604051809103902060020182815481106111b0576111b06126e9565b6000918252602090912001546001600160a01b031603611421576000805b6002896040516111de91906124f3565b9081526020016040518091039020600301886040516111fd91906124f3565b908152604080516020928190038301902033600090815260039091019092529020600201548110156113c957600060028a60405161123b91906124f3565b90815260200160405180910390206003018960405161125a91906124f3565b90815260200160405180910390206003016000336001600160a01b03166001600160a01b0316815260200190815260200160002060020182815481106112a2576112a26126e9565b9060005260206000200180546112b79061250f565b80601f01602080910402602001604051908101604052809291908181526020018280546112e39061250f565b80156113305780601f1061130557610100808354040283529160200191611330565b820191906000526020600020905b81548152906001019060200180831161131357829003601f168201915b5050505050905060028a60405161134791906124f3565b90815260200160405180910390206003018960405161136691906124f3565b908152604080519182900360209081018320336000908152600391820190925291902001906113969083906124f3565b908152602001604051809103902060070154836113b39190612715565b92505080806113c190612728565b9150506111ce565b50806002896040516113db91906124f3565b9081526020016040518091039020600301886040516113fa91906124f3565b90815260408051602092819003830190203360009081526003909101909252902060010155505b8061142b81612728565b91505061110c565b5060405162461bcd60e51b815260206004820152602760248201527f566f7573206e27657465732070617320756e20506c61796572206465206365746044820152667465207465616d60c81b606482015260840160405180910390fd5b606060006002836040516114a491906124f3565b9081526040519081900360200190206002015490506000816001600160401b038111156114d3576114d3611c6e565b60405190808252806020026020018201604052801561150657816020015b60608152602001906001900390816114f15790505b5090506000805b838110156116f257600060028760405161152791906124f3565b90815260200160405180910390206002018281548110611549576115496126e9565b90600052602060002001805461155e9061250f565b80601f016020809104026020016040519081016040528092919081815260200182805461158a9061250f565b80156115d75780601f106115ac576101008083540402835291602001916115d7565b820191906000526020600020905b8154815290600101906020018083116115ba57829003601f168201915b5050505050905060005b6002886040516115f191906124f3565b90815260200160405180910390206003018260405161161091906124f3565b908152604051908190036020019020600201548110156116dd57336001600160a01b031660028960405161164491906124f3565b90815260200160405180910390206003018360405161166391906124f3565b90815260200160405180910390206002018281548110611685576116856126e9565b6000918252602090912001546001600160a01b0316036116cb57818585815181106116b2576116b26126e9565b60209081029190910101526116c8600185612715565b93505b806116d581612728565b9150506115e1565b505080806116ea90612728565b91505061150d565b506000816001600160401b0381111561170d5761170d611c6e565b60405190808252806020026020018201604052801561174057816020015b606081526020019060019003908161172b5790505b50905060005b8281101561179857838181518110611760576117606126e9565b602002602001015182828151811061177a5761177a6126e9565b6020026020010181905250808061179090612728565b915050611746565b5095945050505050565b606060006117af83611490565b9050600081516002856040516117c591906124f3565b908152604051908190036020019020600201546117e29190612741565b6001600160401b038111156117f9576117f9611c6e565b60405190808252806020026020018201604052801561182c57816020015b60608152602001906001900390816118175790505b5090506000805b60028660405161184391906124f3565b90815260405190819003602001902060020154811015611a36576000805b85518110156119285760028860405161187a91906124f3565b9081526020016040518091039020600201838154811061189c5761189c6126e9565b906000526020600020016040516020016118b69190612754565b604051602081830303815290604052805190602001208682815181106118de576118de6126e9565b60200260200101516040516020016118f691906124f3565b604051602081830303815290604052805190602001200361191657600191505b8061192081612728565b915050611861565b50801515600003611a235760028760405161194391906124f3565b90815260200160405180910390206002018281548110611965576119656126e9565b90600052602060002001805461197a9061250f565b80601f01602080910402602001604051908101604052809291908181526020018280546119a69061250f565b80156119f35780601f106119c8576101008083540402835291602001916119f3565b820191906000526020600020905b8154815290600101906020018083116119d657829003601f168201915b5050505050848481518110611a0a57611a0a6126e9565b6020908102919091010152611a20600184612715565b92505b5080611a2e81612728565b915050611833565b5090949350505050565b6000600284604051611a5291906124f3565b908152602001604051809103902060030183604051611a7191906124f3565b90815260200160405180910390206003016000836001600160a01b03166001600160a01b031681526020019081526020016000206001015490509392505050565b60005b600283604051611ac591906124f3565b908152602001604051809103902060030182604051611ae491906124f3565b90815260405190819003602001902060020154811015611b86576000600284604051611b1091906124f3565b908152602001604051809103902060030183604051611b2f91906124f3565b90815260200160405180910390206002018281548110611b5157611b516126e9565b6000918252602090912001546001600160a01b03169050611b73848483611106565b5080611b7e81612728565b915050611ab5565b505050565b8260028101928215611bb9579160200282015b82811115611bb9578251825591602001919060010190611b9e565b50611bc5929150611c59565b5090565b8260038101928215611bb95791602002820182811115611bb9578251825591602001919060010190611b9e565b60405180606001604052806003905b6060815260200190600190039081611c055790505090565b60405180606001604052806003906020820280368337509192915050565b60405180604001604052806002906020820280368337509192915050565b5b80821115611bc55760008155600101611c5a565b634e487b7160e01b600052604160045260246000fd5b600082601f830112611c9557600080fd5b81356001600160401b0380821115611caf57611caf611c6e565b604051601f8301601f19908116603f01168101908282118183101715611cd757611cd7611c6e565b81604052838152866020858801011115611cf057600080fd5b836020870160208301376000602085830101528094505050505092915050565b80356001600160a01b0381168114611d2757600080fd5b919050565b6000604051606081018181106001600160401b0382111715611d5057611d50611c6e565b6040529050806060830184811115611d6757600080fd5b835b81811015611d81578035835260209283019201611d69565b50505092915050565b600082601f830112611d9b57600080fd5b604051604081018181106001600160401b0382111715611dbd57611dbd611c6e565b8060405250806040840185811115611dd457600080fd5b845b81811015611dee578035835260209283019201611dd6565b509195945050505050565b600080600080600060c08688031215611e1157600080fd5b85356001600160401b0380821115611e2857600080fd5b611e3489838a01611c84565b96506020880135915080821115611e4a57600080fd5b611e5689838a01611c84565b9550611e6460408901611d10565b94506060880135915080821115611e7a57600080fd5b50611e8788828901611c84565b925050611e978760808801611d8a565b90509295509295909350565b6000806000806000806101208789031215611ebd57600080fd5b86356001600160401b0380821115611ed457600080fd5b611ee08a838b01611c84565b97506020890135915080821115611ef657600080fd5b611f028a838b01611c84565b9650611f1060408a01611d10565b95506060890135915080821115611f2657600080fd5b50611f3389828a01611c84565b93505087609f880112611f4557600080fd5b611f528860808901611d2c565b9150611f618860e08901611d8a565b90509295509295509295565b600080600080600060a08688031215611f8557600080fd5b85356001600160401b0380821115611f9c57600080fd5b611fa889838a01611c84565b96506020880135915080821115611fbe57600080fd5b611fca89838a01611c84565b95506040880135915080821115611fe057600080fd5b611fec89838a01611c84565b9450606088013591508082111561200257600080fd5b61200e89838a01611c84565b9350608088013591508082111561202457600080fd5b5061203188828901611c84565b9150509295509295909350565b60008060006060848603121561205357600080fd5b83356001600160401b038082111561206a57600080fd5b61207687838801611c84565b9450602086013591508082111561208c57600080fd5b61209887838801611c84565b935060408601359150808211156120ae57600080fd5b506120bb86828701611c84565b9150509250925092565b600080604083850312156120d857600080fd5b82356001600160401b03808211156120ef57600080fd5b6120fb86838701611c84565b9350602085013591508082111561211157600080fd5b5061211e85828601611c84565b9150509250929050565b60005b8381101561214357818101518382015260200161212b565b50506000910152565b60008151808452612164816020860160208601612128565b601f01601f19169290920160200192915050565b60208082526000906080830183820185845b60038110156121b957601f198785030183526121a784835161214c565b9350918401919084019060010161218a565b50919695505050505050565b600080600080600060a086880312156121dd57600080fd5b85356001600160401b03808211156121f457600080fd5b61220089838a01611c84565b9650602088013591508082111561221657600080fd5b61222289838a01611c84565b955061223060408901611d10565b9450606088013591508082111561224657600080fd5b5061225388828901611c84565b95989497509295608001359392505050565b60008060006060848603121561227a57600080fd5b83356001600160401b038082111561229157600080fd5b61229d87838801611c84565b945060208601359150808211156122b357600080fd5b506122c086828701611c84565b9250506122cf60408501611d10565b90509250925092565b6020815260006122eb602083018461214c565b9392505050565b60006020828403121561230457600080fd5b81356001600160401b0381111561231a57600080fd5b61232684828501611c84565b949350505050565b6000602080830181845280855180835260408601915060408160051b870101925083870160005b8281101561238357603f1988860301845261237185835161214c565b94509285019290850190600101612355565b5092979650505050505050565b6020808252825182820181905260009190848201906040850190845b818110156123d15783516001600160a01b0316835292840192918401916001016123ac565b50909695505050505050565b600080600080608085870312156123f357600080fd5b84356001600160401b038082111561240a57600080fd5b61241688838901611c84565b9550602087013591508082111561242c57600080fd5b61243888838901611c84565b945061244660408801611d10565b9350606087013591508082111561245c57600080fd5b5061246987828801611c84565b91505092959194509250565b8060005b6002811015612498578151845260209384019390910190600101612479565b50505050565b6101008101818660005b60038110156124c75781518352602092830192909101906001016124a8565b5050506124d76060830186612475565b6124e460a0830185612475565b8260e083015295945050505050565b60008251612505818460208701612128565b9190910192915050565b600181811c9082168061252357607f821691505b60208210810361254357634e487b7160e01b600052602260045260246000fd5b50919050565b601f821115611b8657600081815260208120601f850160051c810160208610156125705750805b601f850160051c820191505b818110156103ab5782815560010161257c565b81516001600160401b038111156125a8576125a8611c6e565b6125bc816125b6845461250f565b84612549565b602080601f8311600181146125f157600084156125d95750858301515b600019600386901b1c1916600185901b1785556103ab565b600085815260208120601f198616915b8281101561262057888601518255948401946001909101908401612601565b508582101561263e5787850151600019600388901b60f8161c191681555b5050505050600190811b01905550565b608081526000612661608083018761214c565b8281036020840152612673818761214c565b90508281036040840152612687818661214c565b9050828103606084015261269b818561214c565b979650505050505050565b6060815260006126b9606083018661214c565b82810360208401526126cb818661214c565b905082810360408401526126df818561214c565b9695505050505050565b634e487b7160e01b600052603260045260246000fd5b634e487b7160e01b600052601160045260246000fd5b80820180821115610922576109226126ff565b60006001820161273a5761273a6126ff565b5060010190565b81810381811115610922576109226126ff565b60008083546127628161250f565b6001828116801561277a576001811461278f576127be565b60ff19841687528215158302870194506127be565b8760005260208060002060005b858110156127b55781548a82015290840190820161279c565b50505082870194505b5092969550505050505056fea2646970667358221220ae4777b566728a2f17799bfcefedb3395d3346606f71ca60f2ec3697e64be0bf64736f6c63430008110033",
  "linkReferences": {},
  "deployedLinkReferences": {}
}