{
  "_format": "hh-sol-artifact-1",
  "contractName": "MonPetitProno",
  "sourceName": "contracts/PetitProno.sol",
  "abi": [
    {
      "inputs": [],
      "stateMutability": "nonpayable",
      "type": "constructor"
    },
    {
      "anonymous": false,
      "inputs": [
        {
          "indexed": false,
          "internalType": "string",
          "name": "_LeagueId",
          "type": "string"
        },
        {
          "indexed": false,
          "internalType": "string",
          "name": "_ForecastId",
          "type": "string"
        }
      ],
      "name": "NewForecast",
      "type": "event"
    },
    {
      "anonymous": false,
      "inputs": [
        {
          "indexed": false,
          "internalType": "string",
          "name": "_LeagueId",
          "type": "string"
        },
        {
          "indexed": false,
          "internalType": "string",
          "name": "_League_name",
          "type": "string"
        }
      ],
      "name": "NewLeague",
      "type": "event"
    },
    {
      "anonymous": false,
      "inputs": [
        {
          "indexed": false,
          "internalType": "string",
          "name": "_LeagueId",
          "type": "string"
        },
        {
          "indexed": false,
          "internalType": "string",
          "name": "_TeamId",
          "type": "string"
        },
        {
          "indexed": false,
          "internalType": "string",
          "name": "_Team_name",
          "type": "string"
        }
      ],
      "name": "NewTeam",
      "type": "event"
    },
    {
      "inputs": [
        {
          "internalType": "string",
          "name": "_LeagueId",
          "type": "string"
        },
        {
          "internalType": "string",
          "name": "_matchId",
          "type": "string"
        },
        {
          "internalType": "string[2]",
          "name": "teams",
          "type": "string[2]"
        }
      ],
      "name": "addForecast",
      "outputs": [],
      "stateMutability": "nonpayable",
      "type": "function"
    },
    {
      "inputs": [
        {
          "internalType": "string",
          "name": "_LeagueId",
          "type": "string"
        },
        {
          "internalType": "string",
          "name": "_League_name",
          "type": "string"
        },
        {
          "internalType": "string",
          "name": "_ipfs",
          "type": "string"
        }
      ],
      "name": "addLeague",
      "outputs": [],
      "stateMutability": "nonpayable",
      "type": "function"
    },
    {
      "inputs": [
        {
          "internalType": "string",
          "name": "_LeagueId",
          "type": "string"
        },
        {
          "internalType": "string",
          "name": "_TeamId",
          "type": "string"
        },
        {
          "internalType": "string",
          "name": "_Player_name",
          "type": "string"
        }
      ],
      "name": "addPlayer",
      "outputs": [],
      "stateMutability": "nonpayable",
      "type": "function"
    },
    {
      "inputs": [
        {
          "internalType": "string",
          "name": "_LeagueId",
          "type": "string"
        },
        {
          "internalType": "string",
          "name": "_TeamId",
          "type": "string"
        },
        {
          "internalType": "string",
          "name": "_Teame_Name",
          "type": "string"
        },
        {
          "internalType": "string",
          "name": "_Player_name",
          "type": "string"
        },
        {
          "internalType": "string",
          "name": "_ipfs",
          "type": "string"
        }
      ],
      "name": "addTeam",
      "outputs": [],
      "stateMutability": "nonpayable",
      "type": "function"
    },
    {
      "inputs": [
        {
          "internalType": "string",
          "name": "_LeagueId",
          "type": "string"
        },
        {
          "internalType": "string",
          "name": "_TeamId",
          "type": "string"
        }
      ],
      "name": "getAllPlayerAddrFromOneTeam",
      "outputs": [
        {
          "internalType": "address[]",
          "name": "",
          "type": "address[]"
        }
      ],
      "stateMutability": "view",
      "type": "function"
    },
    {
      "inputs": [
        {
          "internalType": "string",
          "name": "_LeagueId",
          "type": "string"
        },
        {
          "internalType": "string",
          "name": "_TeamId",
          "type": "string"
        },
        {
          "internalType": "string",
          "name": "_matchId",
          "type": "string"
        }
      ],
      "name": "getForecast",
      "outputs": [
        {
          "internalType": "string[2]",
          "name": "",
          "type": "string[2]"
        },
        {
          "internalType": "uint256[2]",
          "name": "",
          "type": "uint256[2]"
        },
        {
          "internalType": "uint256[2]",
          "name": "",
          "type": "uint256[2]"
        },
        {
          "internalType": "uint256",
          "name": "",
          "type": "uint256"
        }
      ],
      "stateMutability": "view",
      "type": "function"
    },
    {
      "inputs": [
        {
          "internalType": "string",
          "name": "_LeagueId",
          "type": "string"
        },
        {
          "internalType": "string",
          "name": "_TeamId",
          "type": "string"
        }
      ],
      "name": "getForecastId",
      "outputs": [
        {
          "internalType": "string[]",
          "name": "",
          "type": "string[]"
        }
      ],
      "stateMutability": "view",
      "type": "function"
    },
    {
      "inputs": [
        {
          "internalType": "string",
          "name": "_LeagueId",
          "type": "string"
        }
      ],
      "name": "getFreeTeamFromOneLeague",
      "outputs": [
        {
          "internalType": "string[]",
          "name": "",
          "type": "string[]"
        }
      ],
      "stateMutability": "view",
      "type": "function"
    },
    {
      "inputs": [
        {
          "internalType": "string",
          "name": "_LeagueId",
          "type": "string"
        }
      ],
      "name": "getLeagueById",
      "outputs": [
        {
          "internalType": "string[3]",
          "name": "",
          "type": "string[3]"
        }
      ],
      "stateMutability": "view",
      "type": "function"
    },
    {
      "inputs": [],
      "name": "getLeaguesID",
      "outputs": [
        {
          "internalType": "string[]",
          "name": "",
          "type": "string[]"
        }
      ],
      "stateMutability": "view",
      "type": "function"
    },
    {
      "inputs": [
        {
          "internalType": "string",
          "name": "_LeagueId",
          "type": "string"
        }
      ],
      "name": "getMyTeamFromOneLeague",
      "outputs": [
        {
          "internalType": "string[]",
          "name": "",
          "type": "string[]"
        }
      ],
      "stateMutability": "view",
      "type": "function"
    },
    {
      "inputs": [
        {
          "internalType": "string",
          "name": "_LeagueId",
          "type": "string"
        },
        {
          "internalType": "string",
          "name": "_TeamId",
          "type": "string"
        },
        {
          "internalType": "address",
          "name": "_walletId",
          "type": "address"
        }
      ],
      "name": "getPlayerNameAndScore",
      "outputs": [
        {
          "internalType": "uint256",
          "name": "",
          "type": "uint256"
        }
      ],
      "stateMutability": "view",
      "type": "function"
    },
    {
      "inputs": [
        {
          "internalType": "string",
          "name": "_LeagueId",
          "type": "string"
        },
        {
          "internalType": "string",
          "name": "_TeamId",
          "type": "string"
        },
        {
          "internalType": "address",
          "name": "_walletId",
          "type": "address"
        }
      ],
      "name": "getPlayername",
      "outputs": [
        {
          "internalType": "string",
          "name": "",
          "type": "string"
        }
      ],
      "stateMutability": "view",
      "type": "function"
    },
    {
      "inputs": [
        {
          "internalType": "string",
          "name": "_LeagueId",
          "type": "string"
        }
      ],
      "name": "getTeamsIdFromOneLeague",
      "outputs": [
        {
          "internalType": "string[]",
          "name": "",
          "type": "string[]"
        }
      ],
      "stateMutability": "view",
      "type": "function"
    },
    {
      "inputs": [
        {
          "internalType": "string",
          "name": "_LeagueId",
          "type": "string"
        },
        {
          "internalType": "string",
          "name": "_TeamId",
          "type": "string"
        }
      ],
      "name": "getTeamsInfos",
      "outputs": [
        {
          "internalType": "string[3]",
          "name": "",
          "type": "string[3]"
        }
      ],
      "stateMutability": "view",
      "type": "function"
    },
    {
      "inputs": [],
      "name": "owner",
      "outputs": [
        {
          "internalType": "address",
          "name": "",
          "type": "address"
        }
      ],
      "stateMutability": "view",
      "type": "function"
    },
    {
      "inputs": [
        {
          "internalType": "string",
          "name": "_LeagueId",
          "type": "string"
        },
        {
          "internalType": "string",
          "name": "_TeamId",
          "type": "string"
        },
        {
          "internalType": "address",
          "name": "_walletId",
          "type": "address"
        },
        {
          "internalType": "string",
          "name": "_matchId",
          "type": "string"
        },
        {
          "internalType": "uint256",
          "name": "_PointNb",
          "type": "uint256"
        }
      ],
      "name": "setForecastPointNb",
      "outputs": [],
      "stateMutability": "nonpayable",
      "type": "function"
    },
    {
      "inputs": [
        {
          "internalType": "string",
          "name": "_LeagueId",
          "type": "string"
        },
        {
          "internalType": "string",
          "name": "_TeamId",
          "type": "string"
        },
        {
          "internalType": "address",
          "name": "_walletId",
          "type": "address"
        },
        {
          "internalType": "string",
          "name": "_matchId",
          "type": "string"
        },
        {
          "internalType": "uint256[2]",
          "name": "_prono",
          "type": "uint256[2]"
        }
      ],
      "name": "setForecastProno",
      "outputs": [],
      "stateMutability": "nonpayable",
      "type": "function"
    },
    {
      "inputs": [
        {
          "internalType": "string",
          "name": "_LeagueId",
          "type": "string"
        },
        {
          "internalType": "string",
          "name": "_TeamId",
          "type": "string"
        },
        {
          "internalType": "address",
          "name": "_walletId",
          "type": "address"
        },
        {
          "internalType": "string",
          "name": "_matchId",
          "type": "string"
        },
        {
          "internalType": "uint256[2]",
          "name": "_result",
          "type": "uint256[2]"
        }
      ],
      "name": "setForecastResult",
      "outputs": [],
      "stateMutability": "nonpayable",
      "type": "function"
    },
    {
      "inputs": [
        {
          "internalType": "string",
          "name": "_LeagueId",
          "type": "string"
        },
        {
          "internalType": "string",
          "name": "_TeamId",
          "type": "string"
        }
      ],
      "name": "updateAllScore",
      "outputs": [],
      "stateMutability": "nonpayable",
      "type": "function"
    },
    {
      "inputs": [
        {
          "internalType": "string",
          "name": "_LeagueId",
          "type": "string"
        },
        {
          "internalType": "string",
          "name": "_TeamId",
          "type": "string"
        },
        {
          "internalType": "address",
          "name": "_walletId",
          "type": "address"
        }
      ],
      "name": "updateScore",
      "outputs": [],
      "stateMutability": "nonpayable",
      "type": "function"
    }
  ],
  "bytecode": "0x608060405234801561001057600080fd5b50600080546001600160a01b03191633179055612c23806100326000396000f3fe608060405234801561001057600080fd5b50600436106101375760003560e01c80638da5cb5b116100b8578063c34901d91161007c578063c34901d9146102c3578063ce649e62146102d6578063d5e79a13146102e9578063f10efc50146102fc578063f4d85ecc1461030f578063f5aad87a1461032257600080fd5b80638da5cb5b1461023d57806393e353f314610268578063a9b756ce14610288578063b0a5e4bd1461029b578063b5811303146102a357600080fd5b8063513a7beb116100ff578063513a7beb146101b65780636808efb2146101d657806369cb9ea1146101e95780637e141c441461020a5780638a3baacd1461022a57600080fd5b8063138ab2c31461013c57806333a26f861461015157806335e35a4d146101645780633cdf244b1461019057806345c7a745146101a3575b600080fd5b61014f61014a3660046121ba565b610335565b005b61014f61015f3660046121ba565b6103d1565b6101776101723660046122a2565b610465565b60405161018794939291906123a2565b60405180910390f35b61014f61019e366004612417565b61064a565b61014f6101b13660046122a2565b61076f565b6101c96101c43660046124e8565b6108ab565b604051610187919061254b565b61014f6101e4366004612598565b610a71565b6101fc6101f7366004612638565b610b00565b604051908152602001610187565b61021d610218366004612638565b610b72565b60405161018791906126ab565b6101c96102383660046126c5565b610c6c565b600054610250906001600160a01b031681565b6040516001600160a01b039091168152602001610187565b61027b6102763660046124e8565b610def565b6040516101879190612701565b61014f6102963660046122a2565b610f11565b61027b610ff0565b6102b66102b13660046124e8565b6110c9565b6040516101879190612763565b61027b6102d13660046126c5565b611166565b61014f6102e4366004612638565b611260565b61027b6102f73660046126c5565b6115ea565b61027b61030a3660046126c5565b6118fc565b61014f61031d3660046127b0565b611b9a565b61014f6103303660046124e8565b611eaa565b806002866040516103469190612890565b9081526020016040518091039020600301856040516103659190612890565b90815260200160405180910390206003016000856001600160a01b03166001600160a01b03168152602001908152602001600020600301836040516103aa9190612890565b90815260200160405180910390206004019060026103c9929190611f83565b505050505050565b806002866040516103e29190612890565b9081526020016040518091039020600301856040516104019190612890565b90815260200160405180910390206003016000856001600160a01b03166001600160a01b03168152602001908152602001600020600301836040516104469190612890565b90815260200160405180910390206002019060026103c9929190611f83565b61046d611fc1565b610475611fe8565b61047d611fe8565b6000806002886040516104909190612890565b9081526020016040518091039020600301876040516104af9190612890565b908152604080519182900360209081018320336000908152600391820190925291902001906104df908890612890565b9081526040805191829003602001822060c0830190915281608081018260026000835b828210156105a5578382018054610518906128ac565b80601f0160208091040260200160405190810160405280929190818152602001828054610544906128ac565b80156105915780601f1061056657610100808354040283529160200191610591565b820191906000526020600020905b81548152906001019060200180831161057457829003601f168201915b505050505081526020019060010190610502565b5050509082525060408051808201918290526020909201919060028481019182845b8154815260200190600101908083116105c7575050509183525050604080518082019182905260209092019190600484019060029082845b8154815260200190600101908083116105ff575050509183525050600691909101546020918201528151908201516040830151606090930151919b909a509198509650945050505050565b8260028660405161065b9190612890565b90815260200160405180910390206003018560405161067a9190612890565b90815260405190819003602001902090610694908261292c565b50806002866040516106a69190612890565b9081526020016040518091039020600301856040516106c59190612890565b908152602001604051809103902060010190816106e2919061292c565b506002856040516106f39190612890565b908152604051602091819003820190206002018054600181018255600091825291902001610721858261292c565b5061072d85858461076f565b7fe3c7ad3e0a7039496bfdf53f2459da724adffa66091605f5a41831a1b318bdaa858585604051610760939291906129eb565b60405180910390a15050505050565b806002846040516107809190612890565b90815260200160405180910390206003018360405161079f9190612890565b908152604080516020928190038301902033600090815260039091019092529020906107cb908261292c565b506002836040516107dc9190612890565b9081526020016040518091039020600301826040516107fb9190612890565b908152604051908190036020908101822060029081018054600181018255600091825292902090910180546001600160a01b031916331790557fe3c7ad3e0a7039496bfdf53f2459da724adffa66091605f5a41831a1b318bdaa9185918591610865908490612890565b9081526020016040518091039020600301856040516108849190612890565b90815260405190819003602001812061089e939291612a2e565b60405180910390a1505050565b6108b3612006565b60006002846040516108c59190612890565b9081526020016040518091039020600301836040516108e49190612890565b90815260405190819003602001902080546108fe906128ac565b80601f016020809104026020016040519081016040528092919081815260200182805461092a906128ac565b80156109775780601f1061094c57610100808354040283529160200191610977565b820191906000526020600020905b81548152906001019060200180831161095a57829003601f168201915b5050505050905060006002856040516109909190612890565b9081526020016040518091039020600301846040516109af9190612890565b908152602001604051809103902060010180546109cb906128ac565b80601f01602080910402602001604051908101604052809291908181526020018280546109f7906128ac565b8015610a445780601f10610a1957610100808354040283529160200191610a44565b820191906000526020600020905b815481529060010190602001808311610a2757829003601f168201915b50505050509050604051806060016040528085815260200183815260200182815250925050505b92915050565b80600286604051610a829190612890565b908152602001604051809103902060030185604051610aa19190612890565b90815260200160405180910390206003016000856001600160a01b03166001600160a01b0316815260200190815260200160002060030183604051610ae69190612890565b908152604051908190036020019020600601555050505050565b6000600284604051610b129190612890565b908152602001604051809103902060030183604051610b319190612890565b90815260200160405180910390206003016000836001600160a01b03166001600160a01b031681526020019081526020016000206001015490509392505050565b6060600284604051610b849190612890565b908152602001604051809103902060030183604051610ba39190612890565b90815260200160405180910390206003016000836001600160a01b03166001600160a01b031681526020019081526020016000206000018054610be5906128ac565b80601f0160208091040260200160405190810160405280929190818152602001828054610c11906128ac565b8015610c5e5780601f10610c3357610100808354040283529160200191610c5e565b820191906000526020600020905b815481529060010190602001808311610c4157829003601f168201915b505050505090509392505050565b610c74612006565b6000600283604051610c869190612890565b9081526040519081900360200190208054610ca0906128ac565b80601f0160208091040260200160405190810160405280929190818152602001828054610ccc906128ac565b8015610d195780601f10610cee57610100808354040283529160200191610d19565b820191906000526020600020905b815481529060010190602001808311610cfc57829003601f168201915b505050505090506000600284604051610d329190612890565b90815260200160405180910390206001018054610d4e906128ac565b80601f0160208091040260200160405190810160405280929190818152602001828054610d7a906128ac565b8015610dc75780601f10610d9c57610100808354040283529160200191610dc7565b820191906000526020600020905b815481529060010190602001808311610daa57829003601f168201915b5050604080516060810182529889526020890196909652505050918401919091525090919050565b6060600283604051610e019190612890565b908152602001604051809103902060030182604051610e209190612890565b90815260408051918290036020908101832033600090815260039091018252828120600201805480840286018401909452838552929184015b82821015610f05578382906000526020600020018054610e78906128ac565b80601f0160208091040260200160405190810160405280929190818152602001828054610ea4906128ac565b8015610ef15780601f10610ec657610100808354040283529160200191610ef1565b820191906000526020600020905b815481529060010190602001808311610ed457829003601f168201915b505050505081526020019060010190610e59565b50505050905092915050565b6000546001600160a01b03163314610f2857600080fd5b81600284604051610f399190612890565b90815260405190819003602001902090610f53908261292c565b5080600284604051610f659190612890565b90815260200160405180910390206001019081610f82919061292c565b506001805480820182556000919091527fb10e2d527612073b26eecdfd717e6a320cf44b4afac2b0732d9fcbe2b7fa0cf601610fbe848261292c565b507f555b253affed0fbc45a98299974fb73cbb5e8e69293852d9bad2537ba127b194838360405161089e929190612ade565b60606001805480602002602001604051908101604052809291908181526020016000905b828210156110c0578382906000526020600020018054611033906128ac565b80601f016020809104026020016040519081016040528092919081815260200182805461105f906128ac565b80156110ac5780601f10611081576101008083540402835291602001916110ac565b820191906000526020600020905b81548152906001019060200180831161108f57829003601f168201915b505050505081526020019060010190611014565b50505050905090565b60606002836040516110db9190612890565b9081526020016040518091039020600301826040516110fa9190612890565b908152604080519182900360209081018320600201805480830285018301909352828452919083018282801561115957602002820191906000526020600020905b81546001600160a01b0316815260019091019060200180831161113b575b5050505050905092915050565b60606002826040516111789190612890565b9081526020016040518091039020600201805480602002602001604051908101604052809291908181526020016000905b828210156112555783829060005260206000200180546111c8906128ac565b80601f01602080910402602001604051908101604052809291908181526020018280546111f4906128ac565b80156112415780601f1061121657610100808354040283529160200191611241565b820191906000526020600020905b81548152906001019060200180831161122457829003601f168201915b5050505050815260200190600101906111a9565b505050509050919050565b82828260005b6002846040516112769190612890565b9081526020016040518091039020600301836040516112959190612890565b9081526040519081900360200190206002015481101561158d57816001600160a01b03166002856040516112c99190612890565b9081526020016040518091039020600301846040516112e89190612890565b9081526020016040518091039020600201828154811061130a5761130a612b0c565b6000918252602090912001546001600160a01b03160361157b576000805b6002896040516113389190612890565b9081526020016040518091039020600301886040516113579190612890565b9081526040805160209281900383019020336000908152600390910190925290206002015481101561152357600060028a6040516113959190612890565b9081526020016040518091039020600301896040516113b49190612890565b90815260200160405180910390206003016000336001600160a01b03166001600160a01b0316815260200190815260200160002060020182815481106113fc576113fc612b0c565b906000526020600020018054611411906128ac565b80601f016020809104026020016040519081016040528092919081815260200182805461143d906128ac565b801561148a5780601f1061145f5761010080835404028352916020019161148a565b820191906000526020600020905b81548152906001019060200180831161146d57829003601f168201915b5050505050905060028a6040516114a19190612890565b9081526020016040518091039020600301896040516114c09190612890565b908152604080519182900360209081018320336000908152600391820190925291902001906114f0908390612890565b9081526020016040518091039020600601548361150d9190612b38565b925050808061151b90612b4b565b915050611328565b50806002896040516115359190612890565b9081526020016040518091039020600301886040516115549190612890565b90815260408051602092819003830190203360009081526003909101909252902060010155505b8061158581612b4b565b915050611266565b5060405162461bcd60e51b815260206004820152602760248201527f566f7573206e27657465732070617320756e20506c61796572206465206365746044820152667465207465616d60c81b606482015260840160405180910390fd5b606060006002836040516115fe9190612890565b9081526040519081900360200190206002015490506000816001600160401b0381111561162d5761162d6120d4565b60405190808252806020026020018201604052801561166057816020015b606081526020019060019003908161164b5790505b5090506000805b8381101561184c5760006002876040516116819190612890565b908152602001604051809103902060020182815481106116a3576116a3612b0c565b9060005260206000200180546116b8906128ac565b80601f01602080910402602001604051908101604052809291908181526020018280546116e4906128ac565b80156117315780601f1061170657610100808354040283529160200191611731565b820191906000526020600020905b81548152906001019060200180831161171457829003601f168201915b5050505050905060005b60028860405161174b9190612890565b90815260200160405180910390206003018260405161176a9190612890565b9081526040519081900360200190206002015481101561183757336001600160a01b031660028960405161179e9190612890565b9081526020016040518091039020600301836040516117bd9190612890565b908152602001604051809103902060020182815481106117df576117df612b0c565b6000918252602090912001546001600160a01b031603611825578185858151811061180c5761180c612b0c565b6020908102919091010152611822600185612b38565b93505b8061182f81612b4b565b91505061173b565b5050808061184490612b4b565b915050611667565b506000816001600160401b03811115611867576118676120d4565b60405190808252806020026020018201604052801561189a57816020015b60608152602001906001900390816118855790505b50905060005b828110156118f2578381815181106118ba576118ba612b0c565b60200260200101518282815181106118d4576118d4612b0c565b602002602001018190525080806118ea90612b4b565b9150506118a0565b5095945050505050565b60606000611909836115ea565b90506000815160028560405161191f9190612890565b9081526040519081900360200190206002015461193c9190612b64565b6001600160401b03811115611953576119536120d4565b60405190808252806020026020018201604052801561198657816020015b60608152602001906001900390816119715790505b5090506000805b60028660405161199d9190612890565b90815260405190819003602001902060020154811015611b90576000805b8551811015611a82576002886040516119d49190612890565b908152602001604051809103902060020183815481106119f6576119f6612b0c565b90600052602060002001604051602001611a109190612b77565b60405160208183030381529060405280519060200120868281518110611a3857611a38612b0c565b6020026020010151604051602001611a509190612890565b6040516020818303038152906040528051906020012003611a7057600191505b80611a7a81612b4b565b9150506119bb565b50801515600003611b7d57600287604051611a9d9190612890565b90815260200160405180910390206002018281548110611abf57611abf612b0c565b906000526020600020018054611ad4906128ac565b80601f0160208091040260200160405190810160405280929190818152602001828054611b00906128ac565b8015611b4d5780601f10611b2257610100808354040283529160200191611b4d565b820191906000526020600020905b815481529060010190602001808311611b3057829003601f168201915b5050505050848481518110611b6457611b64612b0c565b6020908102919091010152611b7a600184612b38565b92505b5080611b8881612b4b565b91505061198d565b5090949350505050565b60005b600284604051611bad9190612890565b90815260405190819003602001902060020154811015611e78576000600285604051611bd99190612890565b90815260200160405180910390206002018281548110611bfb57611bfb612b0c565b906000526020600020018054611c10906128ac565b80601f0160208091040260200160405190810160405280929190818152602001828054611c3c906128ac565b8015611c895780601f10611c5e57610100808354040283529160200191611c89565b820191906000526020600020905b815481529060010190602001808311611c6c57829003601f168201915b5050505050905060005b600286604051611ca39190612890565b908152602001604051809103902060030182604051611cc29190612890565b90815260405190819003602001902060020154811015611e63576000600287604051611cee9190612890565b908152602001604051809103902060030183604051611d0d9190612890565b90815260200160405180910390206002018281548110611d2f57611d2f612b0c565b6000918252602090912001546040516001600160a01b039091169150600290611d59908990612890565b908152602001604051809103902060030183604051611d789190612890565b90815260408051602092819003830190206001600160a01b038416600090815260039091018352908120600201805460018101825590825291902001611dbe878261292c565b5084600288604051611dd09190612890565b908152602001604051809103902060030184604051611def9190612890565b90815260200160405180910390206003016000836001600160a01b03166001600160a01b0316815260200190815260200160002060030187604051611e349190612890565b908152604051908190036020019020611e4e916002612020565b50508080611e5b90612b4b565b915050611c93565b50508080611e7090612b4b565b915050611b9d565b507f4e80c7b6db5296234afebf7d99ec0eb65b0f2f38ff5dd3e26caba99d095e8a22838360405161089e929190612ade565b60005b600283604051611ebd9190612890565b908152602001604051809103902060030182604051611edc9190612890565b90815260405190819003602001902060020154811015611f7e576000600284604051611f089190612890565b908152602001604051809103902060030183604051611f279190612890565b90815260200160405180910390206002018281548110611f4957611f49612b0c565b6000918252602090912001546001600160a01b03169050611f6b848483611260565b5080611f7681612b4b565b915050611ead565b505050565b8260028101928215611fb1579160200282015b82811115611fb1578251825591602001919060010190611f96565b50611fbd929150612065565b5090565b60405180604001604052806002905b6060815260200190600190039081611fd05790505090565b60405180604001604052806002906020820280368337509192915050565b604080516060808201909252908152600260208201611fd0565b8260028101928215612059579160200282015b828111156120595782518290612049908261292c565b5091602001919060010190612033565b50611fbd92915061207a565b5b80821115611fbd5760008155600101612066565b80821115611fbd57600061208e8282612097565b5060010161207a565b5080546120a3906128ac565b6000825580601f106120b3575050565b601f0160209004906000526020600020908101906120d19190612065565b50565b634e487b7160e01b600052604160045260246000fd5b604080519081016001600160401b038111828210171561210c5761210c6120d4565b60405290565b600082601f83011261212357600080fd5b81356001600160401b038082111561213d5761213d6120d4565b604051601f8301601f19908116603f01168101908282118183101715612165576121656120d4565b8160405283815286602085880101111561217e57600080fd5b836020870160208301376000602085830101528094505050505092915050565b80356001600160a01b03811681146121b557600080fd5b919050565b600080600080600060c086880312156121d257600080fd5b85356001600160401b03808211156121e957600080fd5b6121f589838a01612112565b965060209150818801358181111561220c57600080fd5b6122188a828b01612112565b9650506122276040890161219e565b945060608801358181111561223b57600080fd5b6122478a828b01612112565b9450505087609f88011261225a57600080fd5b6122626120ea565b8060c089018a81111561227457600080fd5b60808a015b818110156122905780358452928401928401612279565b50508093505050509295509295909350565b6000806000606084860312156122b757600080fd5b83356001600160401b03808211156122ce57600080fd5b6122da87838801612112565b945060208601359150808211156122f057600080fd5b6122fc87838801612112565b9350604086013591508082111561231257600080fd5b5061231f86828701612112565b9150509250925092565b60005b8381101561234457818101518382015260200161232c565b50506000910152565b60008151808452612365816020860160208601612329565b601f01601f19169290920160200192915050565b8060005b600281101561239c57815184526020938401939091019060010161237d565b50505050565b60c0808252600090610100830190830187835b60028110156123e75760bf198685030183526123d284835161234d565b935060209283019291909101906001016123b5565b505050809150506123fb6020830186612379565b6124086060830185612379565b8260a083015295945050505050565b600080600080600060a0868803121561242f57600080fd5b85356001600160401b038082111561244657600080fd5b61245289838a01612112565b9650602088013591508082111561246857600080fd5b61247489838a01612112565b9550604088013591508082111561248a57600080fd5b61249689838a01612112565b945060608801359150808211156124ac57600080fd5b6124b889838a01612112565b935060808801359150808211156124ce57600080fd5b506124db88828901612112565b9150509295509295909350565b600080604083850312156124fb57600080fd5b82356001600160401b038082111561251257600080fd5b61251e86838701612112565b9350602085013591508082111561253457600080fd5b5061254185828601612112565b9150509250929050565b60208082526000906080830183820185845b600381101561258c57601f1987850301835261257a84835161234d565b9350918401919084019060010161255d565b50919695505050505050565b600080600080600060a086880312156125b057600080fd5b85356001600160401b03808211156125c757600080fd5b6125d389838a01612112565b965060208801359150808211156125e957600080fd5b6125f589838a01612112565b95506126036040890161219e565b9450606088013591508082111561261957600080fd5b5061262688828901612112565b95989497509295608001359392505050565b60008060006060848603121561264d57600080fd5b83356001600160401b038082111561266457600080fd5b61267087838801612112565b9450602086013591508082111561268657600080fd5b5061269386828701612112565b9250506126a26040850161219e565b90509250925092565b6020815260006126be602083018461234d565b9392505050565b6000602082840312156126d757600080fd5b81356001600160401b038111156126ed57600080fd5b6126f984828501612112565b949350505050565b6000602080830181845280855180835260408601915060408160051b870101925083870160005b8281101561275657603f1988860301845261274485835161234d565b94509285019290850190600101612728565b5092979650505050505050565b6020808252825182820181905260009190848201906040850190845b818110156127a45783516001600160a01b03168352928401929184019160010161277f565b50909695505050505050565b6000806000606084860312156127c557600080fd5b83356001600160401b03808211156127dc57600080fd5b6127e887838801612112565b94506020915081860135818111156127ff57600080fd5b61280b88828901612112565b94505060408601358181111561282057600080fd5b8601601f8101881361283157600080fd5b6128396120ea565b80604083018a81111561284b57600080fd5b835b8181101561287f578035868111156128655760008081fd5b6128718d828801612112565b85525092860192860161284d565b505080955050505050509250925092565b600082516128a2818460208701612329565b9190910192915050565b600181811c908216806128c057607f821691505b6020821081036128e057634e487b7160e01b600052602260045260246000fd5b50919050565b601f821115611f7e57600081815260208120601f850160051c8101602086101561290d5750805b601f850160051c820191505b818110156103c957828155600101612919565b81516001600160401b03811115612945576129456120d4565b6129598161295384546128ac565b846128e6565b602080601f83116001811461298e57600084156129765750858301515b600019600386901b1c1916600185901b1785556103c9565b600085815260208120601f198616915b828110156129bd5788860151825594840194600190910190840161299e565b50858210156129db5787850151600019600388901b60f8161c191681555b5050505050600190811b01905550565b6060815260006129fe606083018661234d565b8281036020840152612a10818661234d565b90508281036040840152612a24818561234d565b9695505050505050565b606081526000612a41606083018661234d565b602083820381850152612a54828761234d565b9150838203604085015260008554612a6b816128ac565b80855260018281168015612a865760018114612aa057612ace565b60ff1984168787015282151560051b870186019450612ace565b896000528560002060005b84811015612ac6578154898201890152908301908701612aab565b880187019550505b50929a9950505050505050505050565b604081526000612af1604083018561234d565b8281036020840152612b03818561234d565b95945050505050565b634e487b7160e01b600052603260045260246000fd5b634e487b7160e01b600052601160045260246000fd5b80820180821115610a6b57610a6b612b22565b600060018201612b5d57612b5d612b22565b5060010190565b81810381811115610a6b57610a6b612b22565b6000808354612b85816128ac565b60018281168015612b9d5760018114612bb257612be1565b60ff1984168752821515830287019450612be1565b8760005260208060002060005b85811015612bd85781548a820152908401908201612bbf565b50505082870194505b5092969550505050505056fea2646970667358221220a8b0f514a865d08b65a08c8df2de9696dfe71f6c7b774a90593257f78c96acea64736f6c63430008110033",
  "linkReferences": {},
  "deployedLinkReferences": {}
}