{
  "_format": "hh-sol-artifact-1",
  "contractName": "MonPetitProno",
  "sourceName": "contracts/PetitProno.sol",
  "abi": [
    {
      "inputs": [],
      "stateMutability": "nonpayable",
      "type": "constructor"
    },
    {
      "anonymous": false,
      "inputs": [
        {
          "indexed": false,
          "internalType": "string",
          "name": "_LeagueId",
          "type": "string"
        },
        {
          "indexed": false,
          "internalType": "uint256",
          "name": "_EndDate",
          "type": "uint256"
        },
        {
          "indexed": false,
          "internalType": "uint256",
          "name": "_matchDate",
          "type": "uint256"
        }
      ],
      "name": "EndDate",
      "type": "event"
    },
    {
      "anonymous": false,
      "inputs": [
        {
          "indexed": false,
          "internalType": "string",
          "name": "_LeagueId",
          "type": "string"
        },
        {
          "indexed": false,
          "internalType": "string",
          "name": "_matchId",
          "type": "string"
        }
      ],
      "name": "MatchAvailable",
      "type": "event"
    },
    {
      "anonymous": false,
      "inputs": [
        {
          "indexed": false,
          "internalType": "string",
          "name": "_LeagueId",
          "type": "string"
        },
        {
          "indexed": false,
          "internalType": "string",
          "name": "_ForecastId",
          "type": "string"
        }
      ],
      "name": "NewForecast",
      "type": "event"
    },
    {
      "anonymous": false,
      "inputs": [
        {
          "indexed": false,
          "internalType": "string",
          "name": "_LeagueId",
          "type": "string"
        },
        {
          "indexed": false,
          "internalType": "string",
          "name": "_League_name",
          "type": "string"
        }
      ],
      "name": "NewLeague",
      "type": "event"
    },
    {
      "anonymous": false,
      "inputs": [
        {
          "indexed": false,
          "internalType": "string",
          "name": "_LeagueId",
          "type": "string"
        },
        {
          "indexed": false,
          "internalType": "string",
          "name": "_TeamId",
          "type": "string"
        },
        {
          "indexed": false,
          "internalType": "string",
          "name": "_Team_name",
          "type": "string"
        }
      ],
      "name": "NewTeam",
      "type": "event"
    },
    {
      "inputs": [
        {
          "internalType": "string",
          "name": "_LeagueId",
          "type": "string"
        },
        {
          "internalType": "string",
          "name": "_matchId",
          "type": "string"
        },
        {
          "internalType": "string[2]",
          "name": "teams",
          "type": "string[2]"
        },
        {
          "internalType": "uint256",
          "name": "_endDate",
          "type": "uint256"
        }
      ],
      "name": "addForecast",
      "outputs": [],
      "stateMutability": "nonpayable",
      "type": "function"
    },
    {
      "inputs": [
        {
          "internalType": "string",
          "name": "_LeagueId",
          "type": "string"
        },
        {
          "internalType": "string",
          "name": "_League_name",
          "type": "string"
        },
        {
          "internalType": "string",
          "name": "_ipfs",
          "type": "string"
        }
      ],
      "name": "addLeague",
      "outputs": [],
      "stateMutability": "nonpayable",
      "type": "function"
    },
    {
      "inputs": [
        {
          "internalType": "string",
          "name": "_LeagueId",
          "type": "string"
        },
        {
          "internalType": "string",
          "name": "_TeamId",
          "type": "string"
        },
        {
          "internalType": "string",
          "name": "_Player_name",
          "type": "string"
        }
      ],
      "name": "addPlayer",
      "outputs": [],
      "stateMutability": "nonpayable",
      "type": "function"
    },
    {
      "inputs": [
        {
          "internalType": "string",
          "name": "_LeagueId",
          "type": "string"
        },
        {
          "internalType": "string",
          "name": "_TeamId",
          "type": "string"
        },
        {
          "internalType": "string",
          "name": "_Teame_Name",
          "type": "string"
        },
        {
          "internalType": "string",
          "name": "_Player_name",
          "type": "string"
        },
        {
          "internalType": "string",
          "name": "_ipfs",
          "type": "string"
        }
      ],
      "name": "addTeam",
      "outputs": [],
      "stateMutability": "nonpayable",
      "type": "function"
    },
    {
      "inputs": [
        {
          "internalType": "string",
          "name": "_LeagueId",
          "type": "string"
        },
        {
          "internalType": "string",
          "name": "_TeamId",
          "type": "string"
        }
      ],
      "name": "getAllPlayerAddrFromOneTeam",
      "outputs": [
        {
          "internalType": "address[]",
          "name": "",
          "type": "address[]"
        }
      ],
      "stateMutability": "view",
      "type": "function"
    },
    {
      "inputs": [
        {
          "internalType": "string",
          "name": "_LeagueId",
          "type": "string"
        },
        {
          "internalType": "string",
          "name": "_TeamId",
          "type": "string"
        },
        {
          "internalType": "string",
          "name": "_matchId",
          "type": "string"
        }
      ],
      "name": "getForecast",
      "outputs": [
        {
          "internalType": "string[2]",
          "name": "",
          "type": "string[2]"
        },
        {
          "internalType": "uint256[2]",
          "name": "",
          "type": "uint256[2]"
        },
        {
          "internalType": "uint256[2]",
          "name": "",
          "type": "uint256[2]"
        },
        {
          "internalType": "uint256",
          "name": "",
          "type": "uint256"
        },
        {
          "internalType": "uint256",
          "name": "",
          "type": "uint256"
        },
        {
          "internalType": "enum MonPetitProno.Time",
          "name": "",
          "type": "uint8"
        }
      ],
      "stateMutability": "view",
      "type": "function"
    },
    {
      "inputs": [
        {
          "internalType": "string",
          "name": "_LeagueId",
          "type": "string"
        },
        {
          "internalType": "string",
          "name": "_TeamId",
          "type": "string"
        }
      ],
      "name": "getForecastId",
      "outputs": [
        {
          "internalType": "string[]",
          "name": "",
          "type": "string[]"
        }
      ],
      "stateMutability": "view",
      "type": "function"
    },
    {
      "inputs": [
        {
          "internalType": "string",
          "name": "_LeagueId",
          "type": "string"
        },
        {
          "internalType": "string",
          "name": "_TeamId",
          "type": "string"
        },
        {
          "internalType": "string",
          "name": "_matchId",
          "type": "string"
        }
      ],
      "name": "getForecastPointNb",
      "outputs": [
        {
          "internalType": "uint256",
          "name": "",
          "type": "uint256"
        }
      ],
      "stateMutability": "view",
      "type": "function"
    },
    {
      "inputs": [
        {
          "internalType": "string",
          "name": "_LeagueId",
          "type": "string"
        }
      ],
      "name": "getFreeTeamFromOneLeague",
      "outputs": [
        {
          "internalType": "string[]",
          "name": "",
          "type": "string[]"
        }
      ],
      "stateMutability": "view",
      "type": "function"
    },
    {
      "inputs": [
        {
          "internalType": "string",
          "name": "_LeagueId",
          "type": "string"
        }
      ],
      "name": "getLeagueById",
      "outputs": [
        {
          "internalType": "string[3]",
          "name": "",
          "type": "string[3]"
        }
      ],
      "stateMutability": "view",
      "type": "function"
    },
    {
      "inputs": [],
      "name": "getLeaguesID",
      "outputs": [
        {
          "internalType": "string[]",
          "name": "",
          "type": "string[]"
        }
      ],
      "stateMutability": "view",
      "type": "function"
    },
    {
      "inputs": [
        {
          "internalType": "string",
          "name": "_LeagueId",
          "type": "string"
        }
      ],
      "name": "getMyTeamFromOneLeague",
      "outputs": [
        {
          "internalType": "string[]",
          "name": "",
          "type": "string[]"
        }
      ],
      "stateMutability": "view",
      "type": "function"
    },
    {
      "inputs": [
        {
          "internalType": "string",
          "name": "_LeagueId",
          "type": "string"
        },
        {
          "internalType": "string",
          "name": "_TeamId",
          "type": "string"
        },
        {
          "internalType": "address",
          "name": "_walletId",
          "type": "address"
        }
      ],
      "name": "getPlayerInfo",
      "outputs": [
        {
          "internalType": "string",
          "name": "",
          "type": "string"
        },
        {
          "internalType": "uint256",
          "name": "",
          "type": "uint256"
        }
      ],
      "stateMutability": "view",
      "type": "function"
    },
    {
      "inputs": [
        {
          "internalType": "string",
          "name": "_LeagueId",
          "type": "string"
        }
      ],
      "name": "getTeamsIdFromOneLeague",
      "outputs": [
        {
          "internalType": "string[]",
          "name": "",
          "type": "string[]"
        }
      ],
      "stateMutability": "view",
      "type": "function"
    },
    {
      "inputs": [
        {
          "internalType": "string",
          "name": "_LeagueId",
          "type": "string"
        },
        {
          "internalType": "string",
          "name": "_TeamId",
          "type": "string"
        }
      ],
      "name": "getTeamsInfos",
      "outputs": [
        {
          "internalType": "string[3]",
          "name": "",
          "type": "string[3]"
        }
      ],
      "stateMutability": "view",
      "type": "function"
    },
    {
      "inputs": [],
      "name": "owner",
      "outputs": [
        {
          "internalType": "address",
          "name": "",
          "type": "address"
        }
      ],
      "stateMutability": "view",
      "type": "function"
    },
    {
      "inputs": [
        {
          "internalType": "string",
          "name": "_LeagueId",
          "type": "string"
        },
        {
          "internalType": "string",
          "name": "_TeamId",
          "type": "string"
        },
        {
          "internalType": "address",
          "name": "_walletId",
          "type": "address"
        },
        {
          "internalType": "string",
          "name": "_matchId",
          "type": "string"
        },
        {
          "internalType": "uint256",
          "name": "_PointNb",
          "type": "uint256"
        }
      ],
      "name": "setForecastPointNb",
      "outputs": [],
      "stateMutability": "nonpayable",
      "type": "function"
    },
    {
      "inputs": [
        {
          "internalType": "string",
          "name": "_LeagueId",
          "type": "string"
        },
        {
          "internalType": "string",
          "name": "_TeamId",
          "type": "string"
        },
        {
          "internalType": "string",
          "name": "_matchId",
          "type": "string"
        },
        {
          "internalType": "uint256[2]",
          "name": "_prono",
          "type": "uint256[2]"
        }
      ],
      "name": "setForecastProno",
      "outputs": [],
      "stateMutability": "nonpayable",
      "type": "function"
    },
    {
      "inputs": [
        {
          "internalType": "string",
          "name": "_LeagueId",
          "type": "string"
        },
        {
          "internalType": "string",
          "name": "_TeamId",
          "type": "string"
        },
        {
          "internalType": "address",
          "name": "_walletId",
          "type": "address"
        },
        {
          "internalType": "string",
          "name": "_matchId",
          "type": "string"
        },
        {
          "internalType": "uint256[2]",
          "name": "_result",
          "type": "uint256[2]"
        }
      ],
      "name": "setForecastResult",
      "outputs": [],
      "stateMutability": "nonpayable",
      "type": "function"
    },
    {
      "inputs": [
        {
          "internalType": "string",
          "name": "_LeagueId",
          "type": "string"
        },
        {
          "internalType": "string",
          "name": "_TeamId",
          "type": "string"
        }
      ],
      "name": "updateScore",
      "outputs": [],
      "stateMutability": "nonpayable",
      "type": "function"
    },
    {
      "inputs": [
        {
          "internalType": "string",
          "name": "_LeagueId",
          "type": "string"
        },
        {
          "internalType": "string",
          "name": "_matchId",
          "type": "string"
        }
      ],
      "name": "updateTime",
      "outputs": [],
      "stateMutability": "nonpayable",
      "type": "function"
    }
  ],
  "bytecode": "0x608060405234801561001057600080fd5b50600080546001600160a01b03191633179055613342806100326000396000f3fe608060405234801561001057600080fd5b50600436106101375760003560e01c80638da5cb5b116100b8578063b58113031161007c578063b5811303146102ab578063c34901d9146102cb578063d5e79a13146102de578063d73fd548146102f1578063f10efc5014610304578063f399684a1461031757600080fd5b80638da5cb5b1461023257806393e353f31461025d57806395bdb5101461027d578063a9b756ce14610290578063b0a5e4bd146102a357600080fd5b806345c7a745116100ff57806345c7a745146101c6578063513a7beb146101d95780636808efb2146101f957806375c253771461020c5780638a3baacd1461021f57600080fd5b80630a59169a1461013c578063138ab2c31461016657806323e2fdf81461017b57806335e35a4d1461018e5780633cdf244b146101b3575b600080fd5b61014f61014a3660046127c2565b610338565b60405161015d929190612885565b60405180910390f35b6101796101743660046128f7565b61049c565b005b6101796101893660046129a1565b610538565b6101a161019c366004612a04565b6108de565b60405161015d96959493929190612ac4565b6101796101c1366004612b66565b610b1b565b6101796101d4366004612a04565b610c40565b6101ec6101e73660046129a1565b610d7c565b60405161015d9190612c37565b610179610207366004612c84565b610f42565b61017961021a366004612d24565b610fd1565b6101ec61022d366004612e09565b6115d4565b600054610245906001600160a01b031681565b6040516001600160a01b03909116815260200161015d565b61027061026b3660046129a1565b611757565b60405161015d9190612e45565b61017961028b3660046129a1565b611879565b61017961029e366004612a04565b611ad3565b610270611bb2565b6102be6102b93660046129a1565b611c8b565b60405161015d9190612ea7565b6102706102d9366004612e09565b611d28565b6102706102ec366004612e09565b611e22565b6101796102ff366004612ef4565b612134565b610270610312366004612e09565b612271565b61032a610325366004612a04565b61250f565b60405190815260200161015d565b606060008060028660405161034d9190612f8d565b90815260200160405180910390206003018560405161036c9190612f8d565b90815260200160405180910390206003016000856001600160a01b03166001600160a01b0316815260200190815260200160002060000180546103ae90612fa9565b80601f01602080910402602001604051908101604052809291908181526020018280546103da90612fa9565b80156104275780601f106103fc57610100808354040283529160200191610427565b820191906000526020600020905b81548152906001019060200180831161040a57829003601f168201915b5050505050905060006002876040516104409190612f8d565b90815260200160405180910390206003018660405161045f9190612f8d565b90815260408051602092819003830190206001600160a01b0397909716600090815260039097019091529094206001015490969095509350505050565b806002866040516104ad9190612f8d565b9081526020016040518091039020600301856040516104cc9190612f8d565b90815260200160405180910390206003016000856001600160a01b03166001600160a01b03168152602001908152602001600020600301836040516105119190612f8d565b908152602001604051809103902060040190600261053092919061258b565b505050505050565b60005b60028360405161054b9190612f8d565b908152604051908190036020019020600201548110156108d95760006002846040516105779190612f8d565b9081526020016040518091039020600201828154811061059957610599612fe3565b9060005260206000200180546105ae90612fa9565b80601f01602080910402602001604051908101604052809291908181526020018280546105da90612fa9565b80156106275780601f106105fc57610100808354040283529160200191610627565b820191906000526020600020905b81548152906001019060200180831161060a57829003601f168201915b5050505050905060005b6002856040516106419190612f8d565b9081526020016040518091039020600301826040516106609190612f8d565b908152604051908190036020019020600201548110156108c457600060028660405161068c9190612f8d565b9081526020016040518091039020600301836040516106ab9190612f8d565b908152602001604051809103902060020182815481106106cd576106cd612fe3565b6000918252602090912001546040516001600160a01b0390911691506002906106f7908890612f8d565b9081526020016040518091039020600301836040516107169190612f8d565b90815260408051918290036020908101832033600090815260039182019092529190200190610746908790612f8d565b90815260200160405180910390206007015443101561080a5760006002876040516107719190612f8d565b9081526020016040518091039020600301846040516107909190612f8d565b90815260200160405180910390206003016000836001600160a01b03166001600160a01b03168152602001908152602001600020600301866040516107d59190612f8d565b908152604051908190036020019020600901805460ff19166001838181111561080057610800612aae565b02179055506108b1565b600160028760405161081c9190612f8d565b90815260200160405180910390206003018460405161083b9190612f8d565b90815260200160405180910390206003016000836001600160a01b03166001600160a01b03168152602001908152602001600020600301866040516108809190612f8d565b908152604051908190036020019020600901805460ff1916600183818111156108ab576108ab612aae565b02179055505b50806108bc8161300f565b915050610631565b505080806108d19061300f565b91505061053b565b505050565b6108e66125c9565b6108ee6125f0565b6108f66125f0565b60008060008060028a60405161090c9190612f8d565b90815260200160405180910390206003018960405161092b9190612f8d565b9081526040805191829003602090810183203360009081526003918201909252919020019061095b908a90612f8d565b9081526040805191829003602001822061012083019091528160e081018260026000835b82821015610a2257838201805461099590612fa9565b80601f01602080910402602001604051908101604052809291908181526020018280546109c190612fa9565b8015610a0e5780601f106109e357610100808354040283529160200191610a0e565b820191906000526020600020905b8154815290600101906020018083116109f157829003601f168201915b50505050508152602001906001019061097f565b5050509082525060408051808201918290526020909201919060028481019182845b815481526020019060010190808311610a44575050509183525050604080518082019182905260209092019190600484019060029082845b815481526020019060010190808311610a7c575050509183525050600682015460208201526007820154604082015260088201546060820152600982015460809091019060ff166001811115610ad457610ad4612aae565b6001811115610ae557610ae5612aae565b905250805160208201516040830151606084015160a085015160c090950151939f929e50909c509a509198509650945050505050565b82600286604051610b2c9190612f8d565b908152602001604051809103902060030185604051610b4b9190612f8d565b90815260405190819003602001902090610b65908261306e565b5080600286604051610b779190612f8d565b908152602001604051809103902060030185604051610b969190612f8d565b90815260200160405180910390206001019081610bb3919061306e565b50600285604051610bc49190612f8d565b908152604051602091819003820190206002018054600181018255600091825291902001610bf2858261306e565b50610bfe858584610c40565b7fe3c7ad3e0a7039496bfdf53f2459da724adffa66091605f5a41831a1b318bdaa858585604051610c319392919061312d565b60405180910390a15050505050565b80600284604051610c519190612f8d565b908152602001604051809103902060030183604051610c709190612f8d565b90815260408051602092819003830190203360009081526003909101909252902090610c9c908261306e565b50600283604051610cad9190612f8d565b908152602001604051809103902060030182604051610ccc9190612f8d565b908152604051908190036020908101822060029081018054600181018255600091825292902090910180546001600160a01b031916331790557fe3c7ad3e0a7039496bfdf53f2459da724adffa66091605f5a41831a1b318bdaa9185918591610d36908490612f8d565b908152602001604051809103902060030185604051610d559190612f8d565b908152604051908190036020018120610d6f939291613170565b60405180910390a1505050565b610d8461260e565b6000600284604051610d969190612f8d565b908152602001604051809103902060030183604051610db59190612f8d565b9081526040519081900360200190208054610dcf90612fa9565b80601f0160208091040260200160405190810160405280929190818152602001828054610dfb90612fa9565b8015610e485780601f10610e1d57610100808354040283529160200191610e48565b820191906000526020600020905b815481529060010190602001808311610e2b57829003601f168201915b505050505090506000600285604051610e619190612f8d565b908152602001604051809103902060030184604051610e809190612f8d565b90815260200160405180910390206001018054610e9c90612fa9565b80601f0160208091040260200160405190810160405280929190818152602001828054610ec890612fa9565b8015610f155780601f10610eea57610100808354040283529160200191610f15565b820191906000526020600020905b815481529060010190602001808311610ef857829003601f168201915b50505050509050604051806060016040528085815260200183815260200182815250925050505b92915050565b80600286604051610f539190612f8d565b908152602001604051809103902060030185604051610f729190612f8d565b90815260200160405180910390206003016000856001600160a01b03166001600160a01b0316815260200190815260200160002060030183604051610fb79190612f8d565b908152604051908190036020019020600601555050505050565b808042106110255760405162461bcd60e51b815260206004820152601e60248201527f456e642064617465206d75737420626520696e20746865206675747572650000604482015260640160405180910390fd5b600060056110334285613220565b61103d9190613233565b6110479043613255565b905060005b60028760405161105c9190612f8d565b908152604051908190036020019020600201548110156115925760006002886040516110889190612f8d565b908152602001604051809103902060020182815481106110aa576110aa612fe3565b9060005260206000200180546110bf90612fa9565b80601f01602080910402602001604051908101604052809291908181526020018280546110eb90612fa9565b80156111385780601f1061110d57610100808354040283529160200191611138565b820191906000526020600020905b81548152906001019060200180831161111b57829003601f168201915b5050505050905060005b6002896040516111529190612f8d565b9081526020016040518091039020600301826040516111719190612f8d565b9081526040519081900360200190206002015481101561157d57600060028a60405161119d9190612f8d565b9081526020016040518091039020600301836040516111bc9190612f8d565b908152602001604051809103902060020182815481106111de576111de612fe3565b6000918252602090912001546040516001600160a01b039091169150600290611208908c90612f8d565b9081526020016040518091039020600301836040516112279190612f8d565b90815260408051602092819003830190206001600160a01b03841660009081526003909101835290812060020180546001810182559082529190200161126d8a8261306e565b508460028b60405161127f9190612f8d565b90815260200160405180910390206003018460405161129e9190612f8d565b90815260200160405180910390206003016000836001600160a01b03166001600160a01b031681526020019081526020016000206003018a6040516112e39190612f8d565b9081526020016040518091039020600701819055508760028b6040516113099190612f8d565b9081526020016040518091039020600301846040516113289190612f8d565b90815260200160405180910390206003016000836001600160a01b03166001600160a01b031681526020019081526020016000206003018a60405161136d9190612f8d565b908152604051908190036020019020611387916002612628565b508660028b6040516113999190612f8d565b9081526020016040518091039020600301846040516113b89190612f8d565b90815260200160405180910390206003016000836001600160a01b03166001600160a01b031681526020019081526020016000206003018a6040516113fd9190612f8d565b90815260405190819003602001902060080155438511156114c357600060028b60405161142a9190612f8d565b9081526020016040518091039020600301846040516114499190612f8d565b90815260200160405180910390206003016000836001600160a01b03166001600160a01b031681526020019081526020016000206003018a60405161148e9190612f8d565b908152604051908190036020019020600901805460ff1916600183818111156114b9576114b9612aae565b021790555061156a565b600160028b6040516114d59190612f8d565b9081526020016040518091039020600301846040516114f49190612f8d565b90815260200160405180910390206003016000836001600160a01b03166001600160a01b031681526020019081526020016000206003018a6040516115399190612f8d565b908152604051908190036020019020600901805460ff19166001838181111561156457611564612aae565b02179055505b50806115758161300f565b915050611142565b5050808061158a9061300f565b91505061104c565b507f4e80c7b6db5296234afebf7d99ec0eb65b0f2f38ff5dd3e26caba99d095e8a2286866040516115c4929190613268565b60405180910390a1505050505050565b6115dc61260e565b60006002836040516115ee9190612f8d565b908152604051908190036020019020805461160890612fa9565b80601f016020809104026020016040519081016040528092919081815260200182805461163490612fa9565b80156116815780601f1061165657610100808354040283529160200191611681565b820191906000526020600020905b81548152906001019060200180831161166457829003601f168201915b50505050509050600060028460405161169a9190612f8d565b908152602001604051809103902060010180546116b690612fa9565b80601f01602080910402602001604051908101604052809291908181526020018280546116e290612fa9565b801561172f5780601f106117045761010080835404028352916020019161172f565b820191906000526020600020905b81548152906001019060200180831161171257829003601f168201915b5050604080516060810182529889526020890196909652505050918401919091525090919050565b60606002836040516117699190612f8d565b9081526020016040518091039020600301826040516117889190612f8d565b90815260408051918290036020908101832033600090815260039091018252828120600201805480840286018401909452838552929184015b8282101561186d5783829060005260206000200180546117e090612fa9565b80601f016020809104026020016040519081016040528092919081815260200182805461180c90612fa9565b80156118595780601f1061182e57610100808354040283529160200191611859565b820191906000526020600020905b81548152906001019060200180831161183c57829003601f168201915b5050505050815260200190600101906117c1565b50505050905092915050565b6000805b60028460405161188d9190612f8d565b9081526020016040518091039020600301836040516118ac9190612f8d565b90815260408051602092819003830190203360009081526003909101909252902060020154811015611a785760006002856040516118ea9190612f8d565b9081526020016040518091039020600301846040516119099190612f8d565b90815260200160405180910390206003016000336001600160a01b03166001600160a01b03168152602001908152602001600020600201828154811061195157611951612fe3565b90600052602060002001805461196690612fa9565b80601f016020809104026020016040519081016040528092919081815260200182805461199290612fa9565b80156119df5780601f106119b4576101008083540402835291602001916119df565b820191906000526020600020905b8154815290600101906020018083116119c257829003601f168201915b505050505090506002856040516119f69190612f8d565b908152602001604051809103902060030184604051611a159190612f8d565b90815260408051918290036020908101832033600090815260039182019092529190200190611a45908390612f8d565b90815260200160405180910390206006015483611a629190613255565b9250508080611a709061300f565b91505061187d565b5080600284604051611a8a9190612f8d565b908152602001604051809103902060030183604051611aa99190612f8d565b90815260408051602092819003830190203360009081526003909101909252902060010155505050565b6000546001600160a01b03163314611aea57600080fd5b81600284604051611afb9190612f8d565b90815260405190819003602001902090611b15908261306e565b5080600284604051611b279190612f8d565b90815260200160405180910390206001019081611b44919061306e565b506001805480820182556000919091527fb10e2d527612073b26eecdfd717e6a320cf44b4afac2b0732d9fcbe2b7fa0cf601611b80848261306e565b507f555b253affed0fbc45a98299974fb73cbb5e8e69293852d9bad2537ba127b1948383604051610d6f929190613268565b60606001805480602002602001604051908101604052809291908181526020016000905b82821015611c82578382906000526020600020018054611bf590612fa9565b80601f0160208091040260200160405190810160405280929190818152602001828054611c2190612fa9565b8015611c6e5780601f10611c4357610100808354040283529160200191611c6e565b820191906000526020600020905b815481529060010190602001808311611c5157829003601f168201915b505050505081526020019060010190611bd6565b50505050905090565b6060600283604051611c9d9190612f8d565b908152602001604051809103902060030182604051611cbc9190612f8d565b9081526040805191829003602090810183206002018054808302850183019093528284529190830182828015611d1b57602002820191906000526020600020905b81546001600160a01b03168152600190910190602001808311611cfd575b5050505050905092915050565b6060600282604051611d3a9190612f8d565b9081526020016040518091039020600201805480602002602001604051908101604052809291908181526020016000905b82821015611e17578382906000526020600020018054611d8a90612fa9565b80601f0160208091040260200160405190810160405280929190818152602001828054611db690612fa9565b8015611e035780601f10611dd857610100808354040283529160200191611e03565b820191906000526020600020905b815481529060010190602001808311611de657829003601f168201915b505050505081526020019060010190611d6b565b505050509050919050565b60606000600283604051611e369190612f8d565b9081526040519081900360200190206002015490506000816001600160401b03811115611e6557611e656126dc565b604051908082528060200260200182016040528015611e9857816020015b6060815260200190600190039081611e835790505b5090506000805b83811015612084576000600287604051611eb99190612f8d565b90815260200160405180910390206002018281548110611edb57611edb612fe3565b906000526020600020018054611ef090612fa9565b80601f0160208091040260200160405190810160405280929190818152602001828054611f1c90612fa9565b8015611f695780601f10611f3e57610100808354040283529160200191611f69565b820191906000526020600020905b815481529060010190602001808311611f4c57829003601f168201915b5050505050905060005b600288604051611f839190612f8d565b908152602001604051809103902060030182604051611fa29190612f8d565b9081526040519081900360200190206002015481101561206f57336001600160a01b0316600289604051611fd69190612f8d565b908152602001604051809103902060030183604051611ff59190612f8d565b9081526020016040518091039020600201828154811061201757612017612fe3565b6000918252602090912001546001600160a01b03160361205d578185858151811061204457612044612fe3565b602090810291909101015261205a600185613255565b93505b806120678161300f565b915050611f73565b5050808061207c9061300f565b915050611e9f565b506000816001600160401b0381111561209f5761209f6126dc565b6040519080825280602002602001820160405280156120d257816020015b60608152602001906001900390816120bd5790505b50905060005b8281101561212a578381815181106120f2576120f2612fe3565b602002602001015182828151811061210c5761210c612fe3565b602002602001018190525080806121229061300f565b9150506120d8565b5095945050505050565b6002846040516121449190612f8d565b9081526020016040518091039020600301836040516121639190612f8d565b90815260408051918290036020908101832033600090815260039182019092529190200190612193908490612f8d565b90815260200160405180910390206007015443101561223157806002856040516121bd9190612f8d565b9081526020016040518091039020600301846040516121dc9190612f8d565b9081526040805191829003602090810183203360009081526003918201909252919020019061220c908590612f8d565b908152602001604051809103902060020190600261222b92919061258b565b5061226b565b7f17aa2d4dbac46edf6407347f5fdf731be0a94966a788a2a89efa5e4d2cd26fd38483604051612262929190613268565b60405180910390a15b50505050565b6060600061227e83611e22565b9050600081516002856040516122949190612f8d565b908152604051908190036020019020600201546122b19190613220565b6001600160401b038111156122c8576122c86126dc565b6040519080825280602002602001820160405280156122fb57816020015b60608152602001906001900390816122e65790505b5090506000805b6002866040516123129190612f8d565b90815260405190819003602001902060020154811015612505576000805b85518110156123f7576002886040516123499190612f8d565b9081526020016040518091039020600201838154811061236b5761236b612fe3565b906000526020600020016040516020016123859190613296565b604051602081830303815290604052805190602001208682815181106123ad576123ad612fe3565b60200260200101516040516020016123c59190612f8d565b60405160208183030381529060405280519060200120036123e557600191505b806123ef8161300f565b915050612330565b508015156000036124f2576002876040516124129190612f8d565b9081526020016040518091039020600201828154811061243457612434612fe3565b90600052602060002001805461244990612fa9565b80601f016020809104026020016040519081016040528092919081815260200182805461247590612fa9565b80156124c25780601f10612497576101008083540402835291602001916124c2565b820191906000526020600020905b8154815290600101906020018083116124a557829003601f168201915b50505050508484815181106124d9576124d9612fe3565b60209081029190910101526124ef600184613255565b92505b50806124fd8161300f565b915050612302565b5090949350505050565b60006002846040516125219190612f8d565b9081526020016040518091039020600301836040516125409190612f8d565b90815260408051918290036020908101832033600090815260039182019092529190200190612570908490612f8d565b90815260200160405180910390206006015490509392505050565b82600281019282156125b9579160200282015b828111156125b957825182559160200191906001019061259e565b506125c592915061266d565b5090565b60405180604001604052806002905b60608152602001906001900390816125d85790505090565b60405180604001604052806002906020820280368337509192915050565b6040805160608082019092529081526002602082016125d8565b8260028101928215612661579160200282015b828111156126615782518290612651908261306e565b509160200191906001019061263b565b506125c5929150612682565b5b808211156125c5576000815560010161266e565b808211156125c5576000612696828261269f565b50600101612682565b5080546126ab90612fa9565b6000825580601f106126bb575050565b601f0160209004906000526020600020908101906126d9919061266d565b50565b634e487b7160e01b600052604160045260246000fd5b604080519081016001600160401b0381118282101715612714576127146126dc565b60405290565b600082601f83011261272b57600080fd5b81356001600160401b0380821115612745576127456126dc565b604051601f8301601f19908116603f0116810190828211818310171561276d5761276d6126dc565b8160405283815286602085880101111561278657600080fd5b836020870160208301376000602085830101528094505050505092915050565b80356001600160a01b03811681146127bd57600080fd5b919050565b6000806000606084860312156127d757600080fd5b83356001600160401b03808211156127ee57600080fd5b6127fa8783880161271a565b9450602086013591508082111561281057600080fd5b5061281d8682870161271a565b92505061282c604085016127a6565b90509250925092565b60005b83811015612850578181015183820152602001612838565b50506000910152565b60008151808452612871816020860160208601612835565b601f01601f19169290920160200192915050565b6040815260006128986040830185612859565b90508260208301529392505050565b600082601f8301126128b857600080fd5b6128c06126f2565b8060408401858111156128d257600080fd5b845b818110156128ec5780358452602093840193016128d4565b509095945050505050565b600080600080600060c0868803121561290f57600080fd5b85356001600160401b038082111561292657600080fd5b61293289838a0161271a565b9650602088013591508082111561294857600080fd5b61295489838a0161271a565b9550612962604089016127a6565b9450606088013591508082111561297857600080fd5b506129858882890161271a565b92505061299587608088016128a7565b90509295509295909350565b600080604083850312156129b457600080fd5b82356001600160401b03808211156129cb57600080fd5b6129d78683870161271a565b935060208501359150808211156129ed57600080fd5b506129fa8582860161271a565b9150509250929050565b600080600060608486031215612a1957600080fd5b83356001600160401b0380821115612a3057600080fd5b612a3c8783880161271a565b94506020860135915080821115612a5257600080fd5b612a5e8783880161271a565b93506040860135915080821115612a7457600080fd5b50612a818682870161271a565b9150509250925092565b8060005b600281101561226b578151845260209384019390910190600101612a8f565b634e487b7160e01b600052602160045260246000fd5b6101008082526000908201610140830189835b6002811015612b0a5760ff19868403018452612af4838351612859565b6020948501949093509190910190600101612ad7565b50508092505050612b1e6020830188612a8b565b612b2b6060830187612a8b565b8460a08301528360c083015260028310612b5557634e487b7160e01b600052602160045260246000fd5b8260e0830152979650505050505050565b600080600080600060a08688031215612b7e57600080fd5b85356001600160401b0380821115612b9557600080fd5b612ba189838a0161271a565b96506020880135915080821115612bb757600080fd5b612bc389838a0161271a565b95506040880135915080821115612bd957600080fd5b612be589838a0161271a565b94506060880135915080821115612bfb57600080fd5b612c0789838a0161271a565b93506080880135915080821115612c1d57600080fd5b50612c2a8882890161271a565b9150509295509295909350565b60208082526000906080830183820185845b6003811015612c7857601f19878503018352612c66848351612859565b93509184019190840190600101612c49565b50919695505050505050565b600080600080600060a08688031215612c9c57600080fd5b85356001600160401b0380821115612cb357600080fd5b612cbf89838a0161271a565b96506020880135915080821115612cd557600080fd5b612ce189838a0161271a565b9550612cef604089016127a6565b94506060880135915080821115612d0557600080fd5b50612d128882890161271a565b95989497509295608001359392505050565b60008060008060808587031215612d3a57600080fd5b84356001600160401b0380821115612d5157600080fd5b612d5d8883890161271a565b9550602091508187013581811115612d7457600080fd5b612d8089828a0161271a565b955050604087013581811115612d9557600080fd5b8701601f81018913612da657600080fd5b612dae6126f2565b80604083018b811115612dc057600080fd5b835b81811015612df457803586811115612dda5760008081fd5b612de68e82880161271a565b855250928601928601612dc2565b50989b979a5098606001359750505050505050565b600060208284031215612e1b57600080fd5b81356001600160401b03811115612e3157600080fd5b612e3d8482850161271a565b949350505050565b6000602080830181845280855180835260408601915060408160051b870101925083870160005b82811015612e9a57603f19888603018452612e88858351612859565b94509285019290850190600101612e6c565b5092979650505050505050565b6020808252825182820181905260009190848201906040850190845b81811015612ee85783516001600160a01b031683529284019291840191600101612ec3565b50909695505050505050565b60008060008060a08587031215612f0a57600080fd5b84356001600160401b0380821115612f2157600080fd5b612f2d8883890161271a565b95506020870135915080821115612f4357600080fd5b612f4f8883890161271a565b94506040870135915080821115612f6557600080fd5b50612f728782880161271a565b925050612f8286606087016128a7565b905092959194509250565b60008251612f9f818460208701612835565b9190910192915050565b600181811c90821680612fbd57607f821691505b602082108103612fdd57634e487b7160e01b600052602260045260246000fd5b50919050565b634e487b7160e01b600052603260045260246000fd5b634e487b7160e01b600052601160045260246000fd5b60006001820161302157613021612ff9565b5060010190565b601f8211156108d957600081815260208120601f850160051c8101602086101561304f5750805b601f850160051c820191505b818110156105305782815560010161305b565b81516001600160401b03811115613087576130876126dc565b61309b816130958454612fa9565b84613028565b602080601f8311600181146130d057600084156130b85750858301515b600019600386901b1c1916600185901b178555610530565b600085815260208120601f198616915b828110156130ff578886015182559484019460019091019084016130e0565b508582101561311d5787850151600019600388901b60f8161c191681555b5050505050600190811b01905550565b6060815260006131406060830186612859565b82810360208401526131528186612859565b905082810360408401526131668185612859565b9695505050505050565b6060815260006131836060830186612859565b6020838203818501526131968287612859565b91508382036040850152600085546131ad81612fa9565b808552600182811680156131c857600181146131e257613210565b60ff1984168787015282151560051b870186019450613210565b896000528560002060005b848110156132085781548982018901529083019087016131ed565b880187019550505b50929a9950505050505050505050565b81810381811115610f3c57610f3c612ff9565b60008261325057634e487b7160e01b600052601260045260246000fd5b500490565b80820180821115610f3c57610f3c612ff9565b60408152600061327b6040830185612859565b828103602084015261328d8185612859565b95945050505050565b60008083546132a481612fa9565b600182811680156132bc57600181146132d157613300565b60ff1984168752821515830287019450613300565b8760005260208060002060005b858110156132f75781548a8201529084019082016132de565b50505082870194505b5092969550505050505056fea2646970667358221220286d6464e123c6b10c78cd34f1b6adfc68452befe0b55863a87af950c11cf6e664736f6c63430008110033",
  "linkReferences": {},
  "deployedLinkReferences": {}
}