{
  "_format": "hh-sol-artifact-1",
  "contractName": "PetitProno",
  "sourceName": "contracts/PetitProno.sol",
  "abi": [
    {
      "inputs": [],
      "stateMutability": "nonpayable",
      "type": "constructor"
    },
    {
      "anonymous": false,
      "inputs": [
        {
          "indexed": false,
          "internalType": "string",
          "name": "_LeagueId",
          "type": "string"
        },
        {
          "indexed": false,
          "internalType": "uint256",
          "name": "_EndDate",
          "type": "uint256"
        },
        {
          "indexed": false,
          "internalType": "uint256",
          "name": "_matchDate",
          "type": "uint256"
        }
      ],
      "name": "EndDate",
      "type": "event"
    },
    {
      "anonymous": false,
      "inputs": [
        {
          "indexed": false,
          "internalType": "string",
          "name": "_LeagueId",
          "type": "string"
        },
        {
          "indexed": false,
          "internalType": "string",
          "name": "_matchId",
          "type": "string"
        }
      ],
      "name": "MatchAvailable",
      "type": "event"
    },
    {
      "anonymous": false,
      "inputs": [
        {
          "indexed": false,
          "internalType": "string",
          "name": "_LeagueId",
          "type": "string"
        },
        {
          "indexed": false,
          "internalType": "string",
          "name": "_ForecastId",
          "type": "string"
        }
      ],
      "name": "NewForecast",
      "type": "event"
    },
    {
      "anonymous": false,
      "inputs": [
        {
          "indexed": false,
          "internalType": "string",
          "name": "_LeagueId",
          "type": "string"
        },
        {
          "indexed": false,
          "internalType": "string",
          "name": "_League_name",
          "type": "string"
        }
      ],
      "name": "NewLeague",
      "type": "event"
    },
    {
      "anonymous": false,
      "inputs": [
        {
          "indexed": false,
          "internalType": "string",
          "name": "_LeagueId",
          "type": "string"
        },
        {
          "indexed": false,
          "internalType": "string",
          "name": "_TeamId",
          "type": "string"
        },
        {
          "indexed": false,
          "internalType": "string",
          "name": "_Team_name",
          "type": "string"
        }
      ],
      "name": "NewTeam",
      "type": "event"
    },
    {
      "inputs": [
        {
          "internalType": "string",
          "name": "_LeagueId",
          "type": "string"
        },
        {
          "internalType": "string",
          "name": "_matchId",
          "type": "string"
        },
        {
          "internalType": "string[2]",
          "name": "teams",
          "type": "string[2]"
        },
        {
          "internalType": "uint256",
          "name": "_endDate",
          "type": "uint256"
        }
      ],
      "name": "addForecast",
      "outputs": [],
      "stateMutability": "nonpayable",
      "type": "function"
    },
    {
      "inputs": [
        {
          "internalType": "string",
          "name": "_LeagueId",
          "type": "string"
        },
        {
          "internalType": "string",
          "name": "_League_name",
          "type": "string"
        },
        {
          "internalType": "string",
          "name": "_ipfs",
          "type": "string"
        }
      ],
      "name": "addLeague",
      "outputs": [],
      "stateMutability": "nonpayable",
      "type": "function"
    },
    {
      "inputs": [
        {
          "internalType": "string",
          "name": "_LeagueId",
          "type": "string"
        },
        {
          "internalType": "string",
          "name": "_TeamId",
          "type": "string"
        },
        {
          "internalType": "string",
          "name": "_Player_name",
          "type": "string"
        }
      ],
      "name": "addPlayer",
      "outputs": [],
      "stateMutability": "nonpayable",
      "type": "function"
    },
    {
      "inputs": [
        {
          "internalType": "string",
          "name": "_LeagueId",
          "type": "string"
        },
        {
          "internalType": "string",
          "name": "_TeamId",
          "type": "string"
        },
        {
          "internalType": "string",
          "name": "_Teame_Name",
          "type": "string"
        },
        {
          "internalType": "string",
          "name": "_Player_name",
          "type": "string"
        },
        {
          "internalType": "string",
          "name": "_ipfs",
          "type": "string"
        }
      ],
      "name": "addTeam",
      "outputs": [],
      "stateMutability": "nonpayable",
      "type": "function"
    },
    {
      "inputs": [
        {
          "internalType": "string",
          "name": "_LeagueId",
          "type": "string"
        },
        {
          "internalType": "string",
          "name": "_TeamId",
          "type": "string"
        },
        {
          "internalType": "address",
          "name": "_walletId",
          "type": "address"
        },
        {
          "internalType": "string",
          "name": "_matchId",
          "type": "string"
        }
      ],
      "name": "calculatePoint",
      "outputs": [],
      "stateMutability": "nonpayable",
      "type": "function"
    },
    {
      "inputs": [
        {
          "internalType": "address",
          "name": "_newOwner",
          "type": "address"
        }
      ],
      "name": "changeOwner",
      "outputs": [],
      "stateMutability": "nonpayable",
      "type": "function"
    },
    {
      "inputs": [],
      "name": "get",
      "outputs": [
        {
          "internalType": "string",
          "name": "",
          "type": "string"
        },
        {
          "internalType": "uint256",
          "name": "",
          "type": "uint256"
        }
      ],
      "stateMutability": "view",
      "type": "function"
    },
    {
      "inputs": [
        {
          "internalType": "string",
          "name": "_LeagueId",
          "type": "string"
        },
        {
          "internalType": "string",
          "name": "_TeamId",
          "type": "string"
        }
      ],
      "name": "getAllPlayerAddrFromOneTeam",
      "outputs": [
        {
          "internalType": "address[]",
          "name": "",
          "type": "address[]"
        }
      ],
      "stateMutability": "view",
      "type": "function"
    },
    {
      "inputs": [
        {
          "internalType": "string",
          "name": "_LeagueId",
          "type": "string"
        },
        {
          "internalType": "string",
          "name": "_TeamId",
          "type": "string"
        },
        {
          "internalType": "string",
          "name": "_matchId",
          "type": "string"
        }
      ],
      "name": "getForecast",
      "outputs": [
        {
          "internalType": "string[2]",
          "name": "",
          "type": "string[2]"
        },
        {
          "internalType": "uint256[2]",
          "name": "",
          "type": "uint256[2]"
        },
        {
          "internalType": "uint256[2]",
          "name": "",
          "type": "uint256[2]"
        },
        {
          "internalType": "uint256",
          "name": "",
          "type": "uint256"
        },
        {
          "internalType": "uint256",
          "name": "",
          "type": "uint256"
        },
        {
          "internalType": "enum PetitProno.Time",
          "name": "",
          "type": "uint8"
        },
        {
          "internalType": "bool",
          "name": "",
          "type": "bool"
        }
      ],
      "stateMutability": "view",
      "type": "function"
    },
    {
      "inputs": [
        {
          "internalType": "string",
          "name": "_LeagueId",
          "type": "string"
        },
        {
          "internalType": "string",
          "name": "_TeamId",
          "type": "string"
        }
      ],
      "name": "getForecastId",
      "outputs": [
        {
          "internalType": "string[]",
          "name": "",
          "type": "string[]"
        }
      ],
      "stateMutability": "view",
      "type": "function"
    },
    {
      "inputs": [
        {
          "internalType": "string",
          "name": "_LeagueId",
          "type": "string"
        },
        {
          "internalType": "string",
          "name": "_TeamId",
          "type": "string"
        },
        {
          "internalType": "string",
          "name": "_matchId",
          "type": "string"
        }
      ],
      "name": "getForecastOracleId",
      "outputs": [
        {
          "internalType": "bytes32",
          "name": "",
          "type": "bytes32"
        }
      ],
      "stateMutability": "view",
      "type": "function"
    },
    {
      "inputs": [
        {
          "internalType": "string",
          "name": "_LeagueId",
          "type": "string"
        },
        {
          "internalType": "string",
          "name": "_TeamId",
          "type": "string"
        },
        {
          "internalType": "string",
          "name": "_matchId",
          "type": "string"
        }
      ],
      "name": "getForecastPointNb",
      "outputs": [
        {
          "internalType": "uint256",
          "name": "",
          "type": "uint256"
        }
      ],
      "stateMutability": "view",
      "type": "function"
    },
    {
      "inputs": [
        {
          "internalType": "string",
          "name": "_LeagueId",
          "type": "string"
        }
      ],
      "name": "getFreeTeamFromOneLeague",
      "outputs": [
        {
          "internalType": "string[]",
          "name": "",
          "type": "string[]"
        }
      ],
      "stateMutability": "view",
      "type": "function"
    },
    {
      "inputs": [
        {
          "internalType": "string",
          "name": "_LeagueId",
          "type": "string"
        }
      ],
      "name": "getLeagueById",
      "outputs": [
        {
          "internalType": "string[3]",
          "name": "",
          "type": "string[3]"
        }
      ],
      "stateMutability": "view",
      "type": "function"
    },
    {
      "inputs": [],
      "name": "getLeaguesID",
      "outputs": [
        {
          "internalType": "string[]",
          "name": "",
          "type": "string[]"
        }
      ],
      "stateMutability": "view",
      "type": "function"
    },
    {
      "inputs": [
        {
          "internalType": "string",
          "name": "_LeagueId",
          "type": "string"
        }
      ],
      "name": "getMyTeamFromOneLeague",
      "outputs": [
        {
          "internalType": "string[]",
          "name": "",
          "type": "string[]"
        }
      ],
      "stateMutability": "view",
      "type": "function"
    },
    {
      "inputs": [
        {
          "internalType": "bytes32",
          "name": "_oracleId",
          "type": "bytes32"
        }
      ],
      "name": "getOracleData",
      "outputs": [
        {
          "internalType": "string",
          "name": "",
          "type": "string"
        }
      ],
      "stateMutability": "nonpayable",
      "type": "function"
    },
    {
      "inputs": [
        {
          "internalType": "string",
          "name": "_LeagueId",
          "type": "string"
        },
        {
          "internalType": "string",
          "name": "_TeamId",
          "type": "string"
        },
        {
          "internalType": "address",
          "name": "_walletId",
          "type": "address"
        }
      ],
      "name": "getPlayerInfo",
      "outputs": [
        {
          "internalType": "string",
          "name": "",
          "type": "string"
        },
        {
          "internalType": "uint256",
          "name": "",
          "type": "uint256"
        }
      ],
      "stateMutability": "view",
      "type": "function"
    },
    {
      "inputs": [
        {
          "internalType": "string",
          "name": "_LeagueId",
          "type": "string"
        }
      ],
      "name": "getTeamsIdFromOneLeague",
      "outputs": [
        {
          "internalType": "string[]",
          "name": "",
          "type": "string[]"
        }
      ],
      "stateMutability": "view",
      "type": "function"
    },
    {
      "inputs": [
        {
          "internalType": "string",
          "name": "_LeagueId",
          "type": "string"
        },
        {
          "internalType": "string",
          "name": "_TeamId",
          "type": "string"
        }
      ],
      "name": "getTeamsInfos",
      "outputs": [
        {
          "internalType": "string[3]",
          "name": "",
          "type": "string[3]"
        }
      ],
      "stateMutability": "view",
      "type": "function"
    },
    {
      "inputs": [],
      "name": "owner",
      "outputs": [
        {
          "internalType": "address",
          "name": "",
          "type": "address"
        }
      ],
      "stateMutability": "view",
      "type": "function"
    },
    {
      "inputs": [
        {
          "internalType": "string",
          "name": "_LeagueId",
          "type": "string"
        },
        {
          "internalType": "string",
          "name": "_TeamId",
          "type": "string"
        },
        {
          "internalType": "string",
          "name": "_matchId",
          "type": "string"
        },
        {
          "internalType": "bytes32",
          "name": "_OracleId",
          "type": "bytes32"
        }
      ],
      "name": "setForecastOracleId",
      "outputs": [],
      "stateMutability": "nonpayable",
      "type": "function"
    },
    {
      "inputs": [
        {
          "internalType": "string",
          "name": "_LeagueId",
          "type": "string"
        },
        {
          "internalType": "string",
          "name": "_TeamId",
          "type": "string"
        },
        {
          "internalType": "address",
          "name": "_walletId",
          "type": "address"
        },
        {
          "internalType": "string",
          "name": "_matchId",
          "type": "string"
        },
        {
          "internalType": "uint256",
          "name": "_PointNb",
          "type": "uint256"
        }
      ],
      "name": "setForecastPointNb",
      "outputs": [],
      "stateMutability": "nonpayable",
      "type": "function"
    },
    {
      "inputs": [
        {
          "internalType": "string",
          "name": "_LeagueId",
          "type": "string"
        },
        {
          "internalType": "string",
          "name": "_TeamId",
          "type": "string"
        },
        {
          "internalType": "string",
          "name": "_matchId",
          "type": "string"
        },
        {
          "internalType": "uint256[2]",
          "name": "_prono",
          "type": "uint256[2]"
        }
      ],
      "name": "setForecastProno",
      "outputs": [],
      "stateMutability": "nonpayable",
      "type": "function"
    },
    {
      "inputs": [
        {
          "internalType": "string",
          "name": "_LeagueId",
          "type": "string"
        },
        {
          "internalType": "string",
          "name": "_matchId",
          "type": "string"
        },
        {
          "internalType": "uint256[2]",
          "name": "_result",
          "type": "uint256[2]"
        }
      ],
      "name": "setForecastResult",
      "outputs": [],
      "stateMutability": "nonpayable",
      "type": "function"
    },
    {
      "inputs": [
        {
          "internalType": "string",
          "name": "_LeagueId",
          "type": "string"
        },
        {
          "internalType": "string",
          "name": "_TeamId",
          "type": "string"
        }
      ],
      "name": "updateScore",
      "outputs": [],
      "stateMutability": "nonpayable",
      "type": "function"
    },
    {
      "inputs": [
        {
          "internalType": "string",
          "name": "_LeagueId",
          "type": "string"
        },
        {
          "internalType": "string",
          "name": "_matchId",
          "type": "string"
        }
      ],
      "name": "updateTime",
      "outputs": [],
      "stateMutability": "nonpayable",
      "type": "function"
    }
  ],
  "bytecode": "0x6080604052600280546001600160a01b03191673456891c78077d31f70ca027a46d68f84a2b814d417905534801561003657600080fd5b50600380546001600160a01b031916331790556147f0806100586000396000f3fe608060405234801561001057600080fd5b50600436106101a95760003560e01c806393e353f3116100f9578063b5e4b81311610097578063d73fd54811610071578063d73fd548146103cf578063f10efc50146103e2578063f399684a146103f5578063fb97e9be1461040857600080fd5b8063b5e4b81314610389578063c34901d9146103a9578063d5e79a13146103bc57600080fd5b8063a9b756ce116100d3578063a9b756ce1461033b578063b0a5e4bd1461034e578063b1447e9f14610356578063b58113031461036957600080fd5b806393e353f3146102f557806395bdb51014610315578063a6f9dae11461032857600080fd5b8063513a7beb116101665780636d4ce63c116101405780636d4ce63c1461029c57806375c25377146102a45780638a3baacd146102b75780638da5cb5b146102ca57600080fd5b8063513a7beb146102565780636439ca61146102765780636808efb21461028957600080fd5b806305fddcc8146101ae5780630a59169a146101d457806323e2fdf8146101f557806335e35a4d1461020a5780633cdf244b1461023057806345c7a74514610243575b600080fd5b6101c16101bc366004613aa7565b61041b565b6040519081526020015b60405180910390f35b6101e76101e2366004613b4a565b610497565b6040516101cb929190613c0d565b610208610203366004613c2f565b6105fb565b005b61021d610218366004613aa7565b6109a7565b6040516101cb9796959493929190613ccb565b61020861023e366004613d7e565b610c06565b610208610251366004613aa7565b610d2b565b610269610264366004613c2f565b61176f565b6040516101cb9190613e4f565b610208610284366004613e9c565b611935565b610208610297366004613f2b565b6119c5565b6101e7611a54565b6102086102b2366004613fcb565b611af0565b6102696102c53660046140b0565b6121b6565b6003546102dd906001600160a01b031681565b6040516001600160a01b0390911681526020016101cb565b610308610303366004613c2f565b61233b565b6040516101cb91906140ec565b610208610323366004613c2f565b61245d565b61020861033636600461414e565b6126b7565b610208610349366004613aa7565b6126f0565b6103086127d3565b6102086103643660046141c0565b6128ac565b61037c610377366004613c2f565b612c5b565b6040516101cb919061422b565b61039c610397366004614278565b612cf8565b6040516101cb9190614291565b6103086103b73660046140b0565b612d8d565b6103086103ca3660046140b0565b612e87565b6102086103dd3660046142a4565b613199565b6103086103f03660046140b0565b6132df565b6101c1610403366004613aa7565b61357d565b61020861041636600461433d565b6135f9565b600060058460405161042d91906143d5565b90815260200160405180910390206004018360405161044c91906143d5565b9081526040805191829003602090810183203360009081526003918201909252919020019061047c9084906143d5565b90815260200160405180910390206008015490509392505050565b60606000806005866040516104ac91906143d5565b9081526020016040518091039020600401856040516104cb91906143d5565b90815260200160405180910390206003016000856001600160a01b03166001600160a01b03168152602001908152602001600020600001805461050d906143f1565b80601f0160208091040260200160405190810160405280929190818152602001828054610539906143f1565b80156105865780601f1061055b57610100808354040283529160200191610586565b820191906000526020600020905b81548152906001019060200180831161056957829003601f168201915b50505050509050600060058760405161059f91906143d5565b9081526020016040518091039020600401866040516105be91906143d5565b90815260408051602092819003830190206001600160a01b0397909716600090815260039097019091529094206001015490969095509350505050565b60005b60058360405161060e91906143d5565b908152604051908190036020019020600301548110156109a257600060058460405161063a91906143d5565b9081526020016040518091039020600301828154811061065c5761065c61442b565b906000526020600020018054610671906143f1565b80601f016020809104026020016040519081016040528092919081815260200182805461069d906143f1565b80156106ea5780601f106106bf576101008083540402835291602001916106ea565b820191906000526020600020905b8154815290600101906020018083116106cd57829003601f168201915b5050505050905060005b60058560405161070491906143d5565b90815260200160405180910390206004018260405161072391906143d5565b9081526040519081900360200190206002015481101561098d57600060058660405161074f91906143d5565b90815260200160405180910390206004018360405161076e91906143d5565b908152602001604051809103902060020182815481106107905761079061442b565b6000918252602090912001546040516001600160a01b0390911691506005906107ba9088906143d5565b9081526020016040518091039020600401836040516107d991906143d5565b908152604080519182900360209081018320336000908152600391820190925291902001906108099087906143d5565b9081526020016040518091039020600701544210156108d057600060058760405161083491906143d5565b90815260200160405180910390206004018460405161085391906143d5565b90815260200160405180910390206003016000836001600160a01b03166001600160a01b031681526020019081526020016000206003018660405161089891906143d5565b908152604051908190036020019020600901805461ff0019166101008360018111156108c6576108c6613cb5565b021790555061097a565b60016005876040516108e291906143d5565b90815260200160405180910390206004018460405161090191906143d5565b90815260200160405180910390206003016000836001600160a01b03166001600160a01b031681526020019081526020016000206003018660405161094691906143d5565b908152604051908190036020019020600901805461ff00191661010083600181111561097457610974613cb5565b02179055505b508061098581614457565b9150506106f4565b5050808061099a90614457565b9150506105fe565b505050565b6109af613838565b6109b761385f565b6109bf61385f565b600080600080600060058b6040516109d791906143d5565b90815260200160405180910390206004018a6040516109f691906143d5565b90815260408051918290036020908101832033600090815260039182019092529190200190610a26908b906143d5565b9081526040805191829003602001822061014083019091528161010081018260026000835b82821015610aee578382018054610a61906143f1565b80601f0160208091040260200160405190810160405280929190818152602001828054610a8d906143f1565b8015610ada5780601f10610aaf57610100808354040283529160200191610ada565b820191906000526020600020905b815481529060010190602001808311610abd57829003601f168201915b505050505081526020019060010190610a4b565b5050509082525060408051808201918290526020909201919060028481019182845b815481526020019060010190808311610b10575050509183525050604080518082019182905260209092019190600484019060029082845b815481526020019060010190808311610b48575050509183525050600682015460208201526007820154604082015260088201546060820152600982015460ff8082161515608084015260a090920191610100909104166001811115610bb057610bb0613cb5565b6001811115610bc157610bc1613cb5565b815250509050806000015181602001518260400151836060015184608001518560e001518660c001519750975097509750975097509750509397509397509397909450565b82600586604051610c1791906143d5565b908152602001604051809103902060040185604051610c3691906143d5565b90815260405190819003602001902090610c5090826144be565b5080600586604051610c6291906143d5565b908152602001604051809103902060040185604051610c8191906143d5565b90815260200160405180910390206001019081610c9e91906144be565b50600585604051610caf91906143d5565b908152604051602091819003820190206003018054600181018255600091825291902001610cdd85826144be565b50610ce9858584610d2b565b7fe3c7ad3e0a7039496bfdf53f2459da724adffa66091605f5a41831a1b318bdaa858585604051610d1c9392919061457d565b60405180910390a15050505050565b80600584604051610d3c91906143d5565b908152602001604051809103902060040183604051610d5b91906143d5565b90815260408051602092819003830190203360009081526003909101909252902090610d8790826144be565b50600583604051610d9891906143d5565b908152602001604051809103902060040182604051610db791906143d5565b9081526040519081900360209081018220600201805460018101825560009182529190200180546001600160a01b03191633179055600590610dfa9085906143d5565b90815260405160209181900382018120610e16929091016145c0565b604051602081830303815290604052805190602001206000146116f6576000600584604051610e4591906143d5565b9081526040519081900360200190208054610e5f906143f1565b80601f0160208091040260200160405190810160405280929190818152602001828054610e8b906143f1565b8015610ed85780601f10610ead57610100808354040283529160200191610ed8565b820191906000526020600020905b815481529060010190602001808311610ebb57829003601f168201915b5050505050905060005b600585604051610ef291906143d5565b908152602001604051809103902060040182604051610f1191906143d5565b9081526040805160209281900383019020600380546001600160a01b0316600090815291019092529020600201548110156116f3576000600586604051610f5891906143d5565b908152602001604051809103902060040183604051610f7791906143d5565b9081526040805160209281900383019020600380546001600160a01b0316600090815291019092529020600201805483908110610fb657610fb661442b565b906000526020600020018054610fcb906143f1565b80601f0160208091040260200160405190810160405280929190818152602001828054610ff7906143f1565b80156110445780601f1061101957610100808354040283529160200191611044565b820191906000526020600020905b81548152906001019060200180831161102757829003601f168201915b50505050509050600060058760405161105d91906143d5565b90815260200160405180910390206004018460405161107c91906143d5565b908152604080519182900360209081018320600380546001600160a01b031660009081529181019092529190912001906110b79084906143d5565b9081526040805191829003602001822061014083019091528161010081018260026000835b8282101561117f5783820180546110f2906143f1565b80601f016020809104026020016040519081016040528092919081815260200182805461111e906143f1565b801561116b5780601f106111405761010080835404028352916020019161116b565b820191906000526020600020905b81548152906001019060200180831161114e57829003601f168201915b5050505050815260200190600101906110dc565b5050509082525060408051808201918290526020909201919060028481019182845b8154815260200190600101908083116111a1575050509183525050604080518082019182905260209092019190600484019060029082845b8154815260200190600101908083116111d9575050509183525050600682015460208201526007820154604082015260088201546060820152600982015460ff8082161515608084015260a09092019161010090910416600181111561124157611241613cb5565b600181111561125257611252613cb5565b81525050905060058760405161126891906143d5565b90815260200160405180910390206004018660405161128791906143d5565b9081526040805160209281900383019020336000908152600390910183529081206002018054600181018255908252919020016112c483826144be565b5080516040516005906112d8908a906143d5565b9081526020016040518091039020600401876040516112f791906143d5565b908152604080519182900360209081018320336000908152600391820190925291902001906113279085906143d5565b90815260405190819003602001902061134191600261387d565b50604080518082018252606480825260208201529051600590611365908a906143d5565b90815260200160405180910390206004018760405161138491906143d5565b908152604080519182900360209081018320336000908152600391820190925291902001906113b49085906143d5565b90815260200160405180910390206002019060026113d39291906138c6565b5080604001516005886040516113e991906143d5565b90815260200160405180910390206004018760405161140891906143d5565b908152604080519182900360209081018320336000908152600391820190925291902001906114389085906143d5565b9081526020016040518091039020600401906002611457929190613905565b50600060058860405161146a91906143d5565b90815260200160405180910390206004018760405161148991906143d5565b908152604080519182900360209081018320336000908152600391820190925291902001906114b99085906143d5565b90815260200160405180910390206006018190555080608001516005886040516114e391906143d5565b90815260200160405180910390206004018760405161150291906143d5565b908152604080519182900360209081018320336000908152600391820190925291902001906115329085906143d5565b9081526020016040518091039020600701819055508060a0015160058860405161155c91906143d5565b90815260200160405180910390206004018760405161157b91906143d5565b908152604080519182900360209081018320336000908152600391820190925291902001906115ab9085906143d5565b9081526020016040518091039020600801819055508060c001516005886040516115d591906143d5565b9081526020016040518091039020600401876040516115f491906143d5565b908152604080519182900360209081018320336000908152600391820190925291902001906116249085906143d5565b908152604051908190036020018120600901805492151560ff199093169290921790915560e08201519060059061165c908a906143d5565b90815260200160405180910390206004018760405161167b91906143d5565b908152604080519182900360209081018320336000908152600391820190925291902001906116ab9085906143d5565b908152604051908190036020019020600901805461ff0019166101008360018111156116d9576116d9613cb5565b0217905550505080806116eb90614457565b915050610ee2565b50505b7fe3c7ad3e0a7039496bfdf53f2459da724adffa66091605f5a41831a1b318bdaa838360058660405161172991906143d5565b90815260200160405180910390206004018560405161174891906143d5565b908152604051908190036020018120611762939291614636565b60405180910390a1505050565b611777613933565b600060058460405161178991906143d5565b9081526020016040518091039020600401836040516117a891906143d5565b90815260405190819003602001902080546117c2906143f1565b80601f01602080910402602001604051908101604052809291908181526020018280546117ee906143f1565b801561183b5780601f106118105761010080835404028352916020019161183b565b820191906000526020600020905b81548152906001019060200180831161181e57829003601f168201915b50505050509050600060058560405161185491906143d5565b90815260200160405180910390206004018460405161187391906143d5565b9081526020016040518091039020600101805461188f906143f1565b80601f01602080910402602001604051908101604052809291908181526020018280546118bb906143f1565b80156119085780601f106118dd57610100808354040283529160200191611908565b820191906000526020600020905b8154815290600101906020018083116118eb57829003601f168201915b50505050509050604051806060016040528085815260200183815260200182815250925050505b92915050565b6003546001600160a01b0316331461194c57600080fd5b8060058560405161195d91906143d5565b90815260200160405180910390206004018460405161197c91906143d5565b908152604080519182900360209081018320336000908152600391820190925291902001906119ac9085906143d5565b9081526040519081900360200190206008015550505050565b806005866040516119d691906143d5565b9081526020016040518091039020600401856040516119f591906143d5565b90815260200160405180910390206003016000856001600160a01b03166001600160a01b0316815260200190815260200160002060030183604051611a3a91906143d5565b908152604051908190036020019020600601555050505050565b6060600080600154818054611a68906143f1565b80601f0160208091040260200160405190810160405280929190818152602001828054611a94906143f1565b8015611ae15780601f10611ab657610100808354040283529160200191611ae1565b820191906000526020600020905b815481529060010190602001808311611ac457829003601f168201915b50505050509150915091509091565b6003546001600160a01b03163314611b0757600080fd5b80804210611b5b5760405162461bcd60e51b815260206004820152601e60248201527f456e642064617465206d75737420626520696e20746865206675747572650000604482015260640160405180910390fd5b60005b600586604051611b6e91906143d5565b90815260405190819003602001902060030154811015612184576000600587604051611b9a91906143d5565b90815260200160405180910390206003018281548110611bbc57611bbc61442b565b906000526020600020018054611bd1906143f1565b80601f0160208091040260200160405190810160405280929190818152602001828054611bfd906143f1565b8015611c4a5780601f10611c1f57610100808354040283529160200191611c4a565b820191906000526020600020905b815481529060010190602001808311611c2d57829003601f168201915b5050505050905060005b600588604051611c6491906143d5565b908152602001604051809103902060040182604051611c8391906143d5565b9081526040519081900360200190206002015481101561216f576000600589604051611caf91906143d5565b908152602001604051809103902060040183604051611cce91906143d5565b90815260200160405180910390206002018281548110611cf057611cf061442b565b6000918252602090912001546003546001600160a01b0391821692501681148015611d2557506003546001600160a01b031633145b15611d57578260058a604051611d3b91906143d5565b90815260405190819003602001902090611d5590826144be565b505b600589604051611d6791906143d5565b908152602001604051809103902060040183604051611d8691906143d5565b90815260408051602092819003830190206001600160a01b038416600090815260039091018352908120600201805460018101825590825291902001611dcc89826144be565b508660058a604051611dde91906143d5565b908152602001604051809103902060040184604051611dfd91906143d5565b90815260200160405180910390206003016000836001600160a01b03166001600160a01b0316815260200190815260200160002060030189604051611e4291906143d5565b908152604051908190036020019020611e5c91600261387d565b50604080518082018252606480825260208201529051600590611e80908c906143d5565b908152602001604051809103902060040184604051611e9f91906143d5565b90815260200160405180910390206003016000836001600160a01b03166001600160a01b0316815260200190815260200160002060030189604051611ee491906143d5565b9081526020016040518091039020600201906002611f039291906138c6565b50600060058a604051611f1691906143d5565b908152602001604051809103902060040184604051611f3591906143d5565b90815260200160405180910390206003016000836001600160a01b03166001600160a01b0316815260200190815260200160002060030189604051611f7a91906143d5565b9081526020016040518091039020600601819055508560058a604051611fa091906143d5565b908152602001604051809103902060040184604051611fbf91906143d5565b90815260200160405180910390206003016000836001600160a01b03166001600160a01b031681526020019081526020016000206003018960405161200491906143d5565b908152602001604051809103902060070181905550600060058a60405161202b91906143d5565b90815260200160405180910390206004018460405161204a91906143d5565b90815260200160405180910390206003016000836001600160a01b03166001600160a01b031681526020019081526020016000206003018960405161208f91906143d5565b908152604051908190036020018120600901805492151560ff19909316929092179091556000906005906120c4908c906143d5565b9081526020016040518091039020600401846040516120e391906143d5565b90815260200160405180910390206003016000836001600160a01b03166001600160a01b031681526020019081526020016000206003018960405161212891906143d5565b908152604051908190036020019020600901805461ff00191661010083600181111561215657612156613cb5565b021790555050808061216790614457565b915050611c54565b5050808061217c90614457565b915050611b5e565b507f4e80c7b6db5296234afebf7d99ec0eb65b0f2f38ff5dd3e26caba99d095e8a228585604051610d1c9291906146e6565b6121be613933565b60006005836040516121d091906143d5565b908152602001604051809103902060010180546121ec906143f1565b80601f0160208091040260200160405190810160405280929190818152602001828054612218906143f1565b80156122655780601f1061223a57610100808354040283529160200191612265565b820191906000526020600020905b81548152906001019060200180831161224857829003601f168201915b50505050509050600060058460405161227e91906143d5565b9081526020016040518091039020600201805461229a906143f1565b80601f01602080910402602001604051908101604052809291908181526020018280546122c6906143f1565b80156123135780601f106122e857610100808354040283529160200191612313565b820191906000526020600020905b8154815290600101906020018083116122f657829003601f168201915b5050604080516060810182529889526020890196909652505050918401919091525090919050565b606060058360405161234d91906143d5565b90815260200160405180910390206004018260405161236c91906143d5565b90815260408051918290036020908101832033600090815260039091018252828120600201805480840286018401909452838552929184015b828210156124515783829060005260206000200180546123c4906143f1565b80601f01602080910402602001604051908101604052809291908181526020018280546123f0906143f1565b801561243d5780601f106124125761010080835404028352916020019161243d565b820191906000526020600020905b81548152906001019060200180831161242057829003601f168201915b5050505050815260200190600101906123a5565b50505050905092915050565b6000805b60058460405161247191906143d5565b90815260200160405180910390206004018360405161249091906143d5565b9081526040805160209281900383019020336000908152600390910190925290206002015481101561265c5760006005856040516124ce91906143d5565b9081526020016040518091039020600401846040516124ed91906143d5565b90815260200160405180910390206003016000336001600160a01b03166001600160a01b0316815260200190815260200160002060020182815481106125355761253561442b565b90600052602060002001805461254a906143f1565b80601f0160208091040260200160405190810160405280929190818152602001828054612576906143f1565b80156125c35780601f10612598576101008083540402835291602001916125c3565b820191906000526020600020905b8154815290600101906020018083116125a657829003601f168201915b505050505090506005856040516125da91906143d5565b9081526020016040518091039020600401846040516125f991906143d5565b908152604080519182900360209081018320336000908152600391820190925291902001906126299083906143d5565b908152602001604051809103902060060154836126469190614714565b925050808061265490614457565b915050612461565b508060058460405161266e91906143d5565b90815260200160405180910390206004018360405161268d91906143d5565b90815260408051602092819003830190203360009081526003909101909252902060010155505050565b6003546001600160a01b031633146126ce57600080fd5b600380546001600160a01b0319166001600160a01b0392909216919091179055565b6003546001600160a01b0316331461270757600080fd5b8160058460405161271891906143d5565b9081526020016040518091039020600101908161273591906144be565b508060058460405161274791906143d5565b9081526020016040518091039020600201908161276491906144be565b50600480546001810182556000919091527f8a35acfbc15ff81a39ae7d344fd709f28e8600b4aa8c65c6b64bfe7fe36bd19b016127a184826144be565b507f555b253affed0fbc45a98299974fb73cbb5e8e69293852d9bad2537ba127b19483836040516117629291906146e6565b60606004805480602002602001604051908101604052809291908181526020016000905b828210156128a3578382906000526020600020018054612816906143f1565b80601f0160208091040260200160405190810160405280929190818152602001828054612842906143f1565b801561288f5780601f106128645761010080835404028352916020019161288f565b820191906000526020600020905b81548152906001019060200180831161287257829003601f168201915b5050505050815260200190600101906127f7565b50505050905090565b6128b683836105fb565b60005b6005846040516128c991906143d5565b90815260405190819003602001902060030154811015612c555760006005856040516128f591906143d5565b908152602001604051809103902060030182815481106129175761291761442b565b90600052602060002001805461292c906143f1565b80601f0160208091040260200160405190810160405280929190818152602001828054612958906143f1565b80156129a55780601f1061297a576101008083540402835291602001916129a5565b820191906000526020600020905b81548152906001019060200180831161298857829003601f168201915b5050505050905060005b6005866040516129bf91906143d5565b9081526020016040518091039020600401826040516129de91906143d5565b90815260405190819003602001902060020154811015612c40576000600587604051612a0a91906143d5565b908152602001604051809103902060040183604051612a2991906143d5565b90815260200160405180910390206002018281548110612a4b57612a4b61442b565b6000918252602090912001546040516001600160a01b039091169150600590612a759089906143d5565b908152602001604051809103902060040183604051612a9491906143d5565b90815260200160405180910390206003016000826001600160a01b03166001600160a01b0316815260200190815260200160002060030186604051612ad991906143d5565b908152602001604051809103902060070154421115612c2d5784600588604051612b0391906143d5565b908152602001604051809103902060040184604051612b2291906143d5565b90815260200160405180910390206003016000836001600160a01b03166001600160a01b0316815260200190815260200160002060030187604051612b6791906143d5565b9081526020016040518091039020600401906002612b86929190613905565b50612b93878483896135f9565b6001600588604051612ba591906143d5565b908152602001604051809103902060040184604051612bc491906143d5565b90815260200160405180910390206003016000836001600160a01b03166001600160a01b0316815260200190815260200160002060030187604051612c0991906143d5565b908152604051908190036020019020600901805491151560ff199092169190911790555b5080612c3881614457565b9150506129af565b50508080612c4d90614457565b9150506128b9565b50505050565b6060600583604051612c6d91906143d5565b908152602001604051809103902060040182604051612c8c91906143d5565b9081526040805191829003602090810183206002018054808302850183019093528284529190830182828015612ceb57602002820191906000526020600020905b81546001600160a01b03168152600190910190602001808311612ccd575b5050505050905092915050565b600254604051634c373c8d60e11b8152600481018390526060916001600160a01b0316906000908190839063986e791a90602401600060405180830381865afa158015612d49573d6000803e3d6000fd5b505050506040513d6000823e601f3d908101601f19168201604052612d719190810190614727565b90925090506000612d8283826144be565b506001559392505050565b6060600582604051612d9f91906143d5565b9081526020016040518091039020600301805480602002602001604051908101604052809291908181526020016000905b82821015612e7c578382906000526020600020018054612def906143f1565b80601f0160208091040260200160405190810160405280929190818152602001828054612e1b906143f1565b8015612e685780601f10612e3d57610100808354040283529160200191612e68565b820191906000526020600020905b815481529060010190602001808311612e4b57829003601f168201915b505050505081526020019060010190612dd0565b505050509050919050565b60606000600583604051612e9b91906143d5565b9081526040519081900360200190206003015490506000816001600160401b03811115612eca57612eca6139bc565b604051908082528060200260200182016040528015612efd57816020015b6060815260200190600190039081612ee85790505b5090506000805b838110156130e9576000600587604051612f1e91906143d5565b90815260200160405180910390206003018281548110612f4057612f4061442b565b906000526020600020018054612f55906143f1565b80601f0160208091040260200160405190810160405280929190818152602001828054612f81906143f1565b8015612fce5780601f10612fa357610100808354040283529160200191612fce565b820191906000526020600020905b815481529060010190602001808311612fb157829003601f168201915b5050505050905060005b600588604051612fe891906143d5565b90815260200160405180910390206004018260405161300791906143d5565b908152604051908190036020019020600201548110156130d457336001600160a01b031660058960405161303b91906143d5565b90815260200160405180910390206004018360405161305a91906143d5565b9081526020016040518091039020600201828154811061307c5761307c61442b565b6000918252602090912001546001600160a01b0316036130c257818585815181106130a9576130a961442b565b60209081029190910101526130bf600185614714565b93505b806130cc81614457565b915050612fd8565b505080806130e190614457565b915050612f04565b506000816001600160401b03811115613104576131046139bc565b60405190808252806020026020018201604052801561313757816020015b60608152602001906001900390816131225790505b50905060005b8281101561318f578381815181106131575761315761442b565b60200260200101518282815181106131715761317161442b565b6020026020010181905250808061318790614457565b91505061313d565b5095945050505050565b6005846040516131a991906143d5565b9081526020016040518091039020600401836040516131c891906143d5565b908152604080519182900360209081018320336000908152600391820190925291902001906131f89084906143d5565b908152602001604051809103902060070154421015613296578060058560405161322291906143d5565b90815260200160405180910390206004018460405161324191906143d5565b908152604080519182900360209081018320336000908152600391820190925291902001906132719085906143d5565b9081526020016040518091039020600201906002613290929190613905565b50612c55565b6132a084836105fb565b7f17aa2d4dbac46edf6407347f5fdf731be0a94966a788a2a89efa5e4d2cd26fd384836040516132d19291906146e6565b60405180910390a150505050565b606060006132ec83612e87565b90506000815160058560405161330291906143d5565b9081526040519081900360200190206003015461331f91906147a7565b6001600160401b03811115613336576133366139bc565b60405190808252806020026020018201604052801561336957816020015b60608152602001906001900390816133545790505b5090506000805b60058660405161338091906143d5565b90815260405190819003602001902060030154811015613573576000805b8551811015613465576005886040516133b791906143d5565b908152602001604051809103902060030183815481106133d9576133d961442b565b906000526020600020016040516020016133f391906145c0565b6040516020818303038152906040528051906020012086828151811061341b5761341b61442b565b602002602001015160405160200161343391906143d5565b604051602081830303815290604052805190602001200361345357600191505b8061345d81614457565b91505061339e565b508015156000036135605760058760405161348091906143d5565b908152602001604051809103902060030182815481106134a2576134a261442b565b9060005260206000200180546134b7906143f1565b80601f01602080910402602001604051908101604052809291908181526020018280546134e3906143f1565b80156135305780601f1061350557610100808354040283529160200191613530565b820191906000526020600020905b81548152906001019060200180831161351357829003601f168201915b50505050508484815181106135475761354761442b565b602090810291909101015261355d600184614714565b92505b508061356b81614457565b915050613370565b5090949350505050565b600060058460405161358f91906143d5565b9081526020016040518091039020600401836040516135ae91906143d5565b908152604080519182900360209081018320336000908152600391820190925291902001906135de9084906143d5565b90815260200160405180910390206006015490509392505050565b600060058560405161360b91906143d5565b90815260200160405180910390206004018460405161362a91906143d5565b90815260200160405180910390206003016000846001600160a01b03166001600160a01b031681526020019081526020016000206003018260405161366f91906143d5565b9081526040805191829003602001822082820190915260040160028282826020028201915b815481526020019060010190808311613694575050505050905060006005866040516136c091906143d5565b9081526020016040518091039020600401856040516136df91906143d5565b90815260200160405180910390206003016000856001600160a01b03166001600160a01b031681526020019081526020016000206003018360405161372491906143d5565b908152604080519182900360200182208282019182905260029081019182845b81548152602001906001019080831161374457505050505090506000816000600281106137735761377361442b565b602002015160641415801561378d57506020820151606414155b1561382f57815183511480156137aa575060208083015190840151145b156137b757506003613822565b602083015183511180156137cf575060208201518251115b156137dc57506001613822565b602083015183511080156137f4575060208201518251105b1561380157506001613822565b60208301518351148015613819575060208201518251145b15613822575060015b61382f87878787856119c5565b50505050505050565b60405180604001604052806002905b60608152602001906001900390816138475790505090565b60405180604001604052806002906020820280368337509192915050565b82600281019282156138b6579160200282015b828111156138b657825182906138a690826144be565b5091602001919060010190613890565b506138c292915061394d565b5090565b82600281019282156138f9579160200282015b828111156138f9578251829060ff169055916020019190600101906138d9565b506138c292915061396a565b82600281019282156138f9579160200282015b828111156138f9578251825591602001919060010190613918565b604080516060808201909252908152600260208201613847565b808211156138c2576000613961828261397f565b5060010161394d565b5b808211156138c2576000815560010161396b565b50805461398b906143f1565b6000825580601f1061399b575050565b601f0160209004906000526020600020908101906139b9919061396a565b50565b634e487b7160e01b600052604160045260246000fd5b604080519081016001600160401b03811182821017156139f4576139f46139bc565b60405290565b604051601f8201601f191681016001600160401b0381118282101715613a2257613a226139bc565b604052919050565b60006001600160401b03821115613a4357613a436139bc565b50601f01601f191660200190565b600082601f830112613a6257600080fd5b8135613a75613a7082613a2a565b6139fa565b818152846020838601011115613a8a57600080fd5b816020850160208301376000918101602001919091529392505050565b600080600060608486031215613abc57600080fd5b83356001600160401b0380821115613ad357600080fd5b613adf87838801613a51565b94506020860135915080821115613af557600080fd5b613b0187838801613a51565b93506040860135915080821115613b1757600080fd5b50613b2486828701613a51565b9150509250925092565b80356001600160a01b0381168114613b4557600080fd5b919050565b600080600060608486031215613b5f57600080fd5b83356001600160401b0380821115613b7657600080fd5b613b8287838801613a51565b94506020860135915080821115613b9857600080fd5b50613ba586828701613a51565b925050613bb460408501613b2e565b90509250925092565b60005b83811015613bd8578181015183820152602001613bc0565b50506000910152565b60008151808452613bf9816020860160208601613bbd565b601f01601f19169290920160200192915050565b604081526000613c206040830185613be1565b90508260208301529392505050565b60008060408385031215613c4257600080fd5b82356001600160401b0380821115613c5957600080fd5b613c6586838701613a51565b93506020850135915080821115613c7b57600080fd5b50613c8885828601613a51565b9150509250929050565b8060005b6002811015612c55578151845260209384019390910190600101613c96565b634e487b7160e01b600052602160045260246000fd5b610120808252600090820161016083018a835b6002811015613d125761011f19868403018452613cfc838351613be1565b6020948501949093509190910190600101613cde565b50508092505050613d266020830189613c92565b613d336060830188613c92565b8560a08301528460c083015260028410613d5d57634e487b7160e01b600052602160045260246000fd5b8360e0830152613d7261010083018415159052565b98975050505050505050565b600080600080600060a08688031215613d9657600080fd5b85356001600160401b0380821115613dad57600080fd5b613db989838a01613a51565b96506020880135915080821115613dcf57600080fd5b613ddb89838a01613a51565b95506040880135915080821115613df157600080fd5b613dfd89838a01613a51565b94506060880135915080821115613e1357600080fd5b613e1f89838a01613a51565b93506080880135915080821115613e3557600080fd5b50613e4288828901613a51565b9150509295509295909350565b60208082526000906080830183820185845b6003811015613e9057601f19878503018352613e7e848351613be1565b93509184019190840190600101613e61565b50919695505050505050565b60008060008060808587031215613eb257600080fd5b84356001600160401b0380821115613ec957600080fd5b613ed588838901613a51565b95506020870135915080821115613eeb57600080fd5b613ef788838901613a51565b94506040870135915080821115613f0d57600080fd5b50613f1a87828801613a51565b949793965093946060013593505050565b600080600080600060a08688031215613f4357600080fd5b85356001600160401b0380821115613f5a57600080fd5b613f6689838a01613a51565b96506020880135915080821115613f7c57600080fd5b613f8889838a01613a51565b9550613f9660408901613b2e565b94506060880135915080821115613fac57600080fd5b50613fb988828901613a51565b95989497509295608001359392505050565b60008060008060808587031215613fe157600080fd5b84356001600160401b0380821115613ff857600080fd5b61400488838901613a51565b955060209150818701358181111561401b57600080fd5b61402789828a01613a51565b95505060408701358181111561403c57600080fd5b8701601f8101891361404d57600080fd5b6140556139d2565b80604083018b81111561406757600080fd5b835b8181101561409b578035868111156140815760008081fd5b61408d8e828801613a51565b855250928601928601614069565b50989b979a5098606001359750505050505050565b6000602082840312156140c257600080fd5b81356001600160401b038111156140d857600080fd5b6140e484828501613a51565b949350505050565b6000602080830181845280855180835260408601915060408160051b870101925083870160005b8281101561414157603f1988860301845261412f858351613be1565b94509285019290850190600101614113565b5092979650505050505050565b60006020828403121561416057600080fd5b61416982613b2e565b9392505050565b600082601f83011261418157600080fd5b6141896139d2565b80604084018581111561419b57600080fd5b845b818110156141b557803584526020938401930161419d565b509095945050505050565b6000806000608084860312156141d557600080fd5b83356001600160401b03808211156141ec57600080fd5b6141f887838801613a51565b9450602086013591508082111561420e57600080fd5b5061421b86828701613a51565b925050613bb48560408601614170565b6020808252825182820181905260009190848201906040850190845b8181101561426c5783516001600160a01b031683529284019291840191600101614247565b50909695505050505050565b60006020828403121561428a57600080fd5b5035919050565b6020815260006141696020830184613be1565b60008060008060a085870312156142ba57600080fd5b84356001600160401b03808211156142d157600080fd5b6142dd88838901613a51565b955060208701359150808211156142f357600080fd5b6142ff88838901613a51565b9450604087013591508082111561431557600080fd5b5061432287828801613a51565b9250506143328660608701614170565b905092959194509250565b6000806000806080858703121561435357600080fd5b84356001600160401b038082111561436a57600080fd5b61437688838901613a51565b9550602087013591508082111561438c57600080fd5b61439888838901613a51565b94506143a660408801613b2e565b935060608701359150808211156143bc57600080fd5b506143c987828801613a51565b91505092959194509250565b600082516143e7818460208701613bbd565b9190910192915050565b600181811c9082168061440557607f821691505b60208210810361442557634e487b7160e01b600052602260045260246000fd5b50919050565b634e487b7160e01b600052603260045260246000fd5b634e487b7160e01b600052601160045260246000fd5b60006001820161446957614469614441565b5060010190565b601f8211156109a257600081815260208120601f850160051c810160208610156144975750805b601f850160051c820191505b818110156144b6578281556001016144a3565b505050505050565b81516001600160401b038111156144d7576144d76139bc565b6144eb816144e584546143f1565b84614470565b602080601f83116001811461452057600084156145085750858301515b600019600386901b1c1916600185901b1785556144b6565b600085815260208120601f198616915b8281101561454f57888601518255948401946001909101908401614530565b508582101561456d5787850151600019600388901b60f8161c191681555b5050505050600190811b01905550565b6060815260006145906060830186613be1565b82810360208401526145a28186613be1565b905082810360408401526145b68185613be1565b9695505050505050565b60008083546145ce816143f1565b600182811680156145e657600181146145fb5761462a565b60ff198416875282151583028701945061462a565b8760005260208060002060005b858110156146215781548a820152908401908201614608565b50505082870194505b50929695505050505050565b6060815260006146496060830186613be1565b60208382038185015261465c8287613be1565b9150838203604085015260008554614673816143f1565b8085526001828116801561468e57600181146146a8576146d6565b60ff1984168787015282151560051b8701860194506146d6565b896000528560002060005b848110156146ce5781548982018901529083019087016146b3565b880187019550505b50929a9950505050505050505050565b6040815260006146f96040830185613be1565b828103602084015261470b8185613be1565b95945050505050565b8082018082111561192f5761192f614441565b6000806040838503121561473a57600080fd5b82516001600160401b0381111561475057600080fd5b8301601f8101851361476157600080fd5b805161476f613a7082613a2a565b81815286602083850101111561478457600080fd5b614795826020830160208601613bbd565b60209590950151949694955050505050565b8181038181111561192f5761192f61444156fea264697066735822122029f5fa3cf2217d4bf689356729c50359076fbbe69668dc943495d5439cb8390b64736f6c63430008110033",
  "linkReferences": {},
  "deployedLinkReferences": {}
}