{
  "_format": "hh-sol-artifact-1",
  "contractName": "PetitProno",
  "sourceName": "contracts/PetitProno.sol",
  "abi": [
    {
      "inputs": [],
      "stateMutability": "nonpayable",
      "type": "constructor"
    },
    {
      "anonymous": false,
      "inputs": [
        {
          "indexed": false,
          "internalType": "string",
          "name": "_LeagueId",
          "type": "string"
        },
        {
          "indexed": false,
          "internalType": "uint256",
          "name": "_EndDate",
          "type": "uint256"
        },
        {
          "indexed": false,
          "internalType": "uint256",
          "name": "_matchDate",
          "type": "uint256"
        }
      ],
      "name": "EndDate",
      "type": "event"
    },
    {
      "anonymous": false,
      "inputs": [
        {
          "indexed": false,
          "internalType": "string",
          "name": "_LeagueId",
          "type": "string"
        },
        {
          "indexed": false,
          "internalType": "string",
          "name": "_matchId",
          "type": "string"
        }
      ],
      "name": "MatchAvailable",
      "type": "event"
    },
    {
      "anonymous": false,
      "inputs": [
        {
          "indexed": false,
          "internalType": "string",
          "name": "_LeagueId",
          "type": "string"
        },
        {
          "indexed": false,
          "internalType": "string",
          "name": "_ForecastId",
          "type": "string"
        }
      ],
      "name": "NewForecast",
      "type": "event"
    },
    {
      "anonymous": false,
      "inputs": [
        {
          "indexed": false,
          "internalType": "string",
          "name": "_LeagueId",
          "type": "string"
        },
        {
          "indexed": false,
          "internalType": "string",
          "name": "_League_name",
          "type": "string"
        }
      ],
      "name": "NewLeague",
      "type": "event"
    },
    {
      "anonymous": false,
      "inputs": [
        {
          "indexed": false,
          "internalType": "string",
          "name": "_LeagueId",
          "type": "string"
        },
        {
          "indexed": false,
          "internalType": "string",
          "name": "_TeamId",
          "type": "string"
        },
        {
          "indexed": false,
          "internalType": "string",
          "name": "_Team_name",
          "type": "string"
        }
      ],
      "name": "NewTeam",
      "type": "event"
    },
    {
      "inputs": [
        {
          "internalType": "string",
          "name": "_LeagueId",
          "type": "string"
        },
        {
          "internalType": "string",
          "name": "_matchId",
          "type": "string"
        },
        {
          "internalType": "string[2]",
          "name": "teams",
          "type": "string[2]"
        },
        {
          "internalType": "uint256",
          "name": "_endDate",
          "type": "uint256"
        }
      ],
      "name": "addForecast",
      "outputs": [],
      "stateMutability": "nonpayable",
      "type": "function"
    },
    {
      "inputs": [
        {
          "internalType": "string",
          "name": "_LeagueId",
          "type": "string"
        },
        {
          "internalType": "string",
          "name": "_League_name",
          "type": "string"
        },
        {
          "internalType": "string",
          "name": "_ipfs",
          "type": "string"
        }
      ],
      "name": "addLeague",
      "outputs": [],
      "stateMutability": "nonpayable",
      "type": "function"
    },
    {
      "inputs": [
        {
          "internalType": "string",
          "name": "_LeagueId",
          "type": "string"
        },
        {
          "internalType": "string",
          "name": "_TeamId",
          "type": "string"
        },
        {
          "internalType": "string",
          "name": "_Player_name",
          "type": "string"
        }
      ],
      "name": "addPlayer",
      "outputs": [],
      "stateMutability": "nonpayable",
      "type": "function"
    },
    {
      "inputs": [
        {
          "internalType": "string",
          "name": "_LeagueId",
          "type": "string"
        },
        {
          "internalType": "string",
          "name": "_TeamId",
          "type": "string"
        },
        {
          "internalType": "string",
          "name": "_Teame_Name",
          "type": "string"
        },
        {
          "internalType": "string",
          "name": "_Player_name",
          "type": "string"
        },
        {
          "internalType": "string",
          "name": "_ipfs",
          "type": "string"
        }
      ],
      "name": "addTeam",
      "outputs": [],
      "stateMutability": "nonpayable",
      "type": "function"
    },
    {
      "inputs": [],
      "name": "get",
      "outputs": [
        {
          "internalType": "string",
          "name": "",
          "type": "string"
        },
        {
          "internalType": "uint256",
          "name": "",
          "type": "uint256"
        }
      ],
      "stateMutability": "view",
      "type": "function"
    },
    {
      "inputs": [
        {
          "internalType": "string",
          "name": "_LeagueId",
          "type": "string"
        },
        {
          "internalType": "string",
          "name": "_TeamId",
          "type": "string"
        }
      ],
      "name": "getAllPlayerAddrFromOneTeam",
      "outputs": [
        {
          "internalType": "address[]",
          "name": "",
          "type": "address[]"
        }
      ],
      "stateMutability": "view",
      "type": "function"
    },
    {
      "inputs": [
        {
          "internalType": "string",
          "name": "_LeagueId",
          "type": "string"
        },
        {
          "internalType": "string",
          "name": "_TeamId",
          "type": "string"
        },
        {
          "internalType": "string",
          "name": "_matchId",
          "type": "string"
        }
      ],
      "name": "getForecast",
      "outputs": [
        {
          "internalType": "string[2]",
          "name": "",
          "type": "string[2]"
        },
        {
          "internalType": "uint256[2]",
          "name": "",
          "type": "uint256[2]"
        },
        {
          "internalType": "uint256[2]",
          "name": "",
          "type": "uint256[2]"
        },
        {
          "internalType": "uint256",
          "name": "",
          "type": "uint256"
        },
        {
          "internalType": "uint256",
          "name": "",
          "type": "uint256"
        },
        {
          "internalType": "enum PetitProno.Time",
          "name": "",
          "type": "uint8"
        },
        {
          "internalType": "bool",
          "name": "",
          "type": "bool"
        }
      ],
      "stateMutability": "view",
      "type": "function"
    },
    {
      "inputs": [
        {
          "internalType": "string",
          "name": "_LeagueId",
          "type": "string"
        },
        {
          "internalType": "string",
          "name": "_TeamId",
          "type": "string"
        }
      ],
      "name": "getForecastId",
      "outputs": [
        {
          "internalType": "string[]",
          "name": "",
          "type": "string[]"
        }
      ],
      "stateMutability": "view",
      "type": "function"
    },
    {
      "inputs": [
        {
          "internalType": "string",
          "name": "_LeagueId",
          "type": "string"
        },
        {
          "internalType": "string",
          "name": "_TeamId",
          "type": "string"
        },
        {
          "internalType": "string",
          "name": "_matchId",
          "type": "string"
        }
      ],
      "name": "getForecastOracleId",
      "outputs": [
        {
          "internalType": "bytes32",
          "name": "",
          "type": "bytes32"
        }
      ],
      "stateMutability": "view",
      "type": "function"
    },
    {
      "inputs": [
        {
          "internalType": "string",
          "name": "_LeagueId",
          "type": "string"
        },
        {
          "internalType": "string",
          "name": "_TeamId",
          "type": "string"
        },
        {
          "internalType": "string",
          "name": "_matchId",
          "type": "string"
        }
      ],
      "name": "getForecastPointNb",
      "outputs": [
        {
          "internalType": "uint256",
          "name": "",
          "type": "uint256"
        }
      ],
      "stateMutability": "view",
      "type": "function"
    },
    {
      "inputs": [
        {
          "internalType": "string",
          "name": "_LeagueId",
          "type": "string"
        }
      ],
      "name": "getFreeTeamFromOneLeague",
      "outputs": [
        {
          "internalType": "string[]",
          "name": "",
          "type": "string[]"
        }
      ],
      "stateMutability": "view",
      "type": "function"
    },
    {
      "inputs": [
        {
          "internalType": "string",
          "name": "_LeagueId",
          "type": "string"
        }
      ],
      "name": "getLeagueById",
      "outputs": [
        {
          "internalType": "string[3]",
          "name": "",
          "type": "string[3]"
        }
      ],
      "stateMutability": "view",
      "type": "function"
    },
    {
      "inputs": [],
      "name": "getLeaguesID",
      "outputs": [
        {
          "internalType": "string[]",
          "name": "",
          "type": "string[]"
        }
      ],
      "stateMutability": "view",
      "type": "function"
    },
    {
      "inputs": [
        {
          "internalType": "string",
          "name": "_LeagueId",
          "type": "string"
        }
      ],
      "name": "getMyTeamFromOneLeague",
      "outputs": [
        {
          "internalType": "string[]",
          "name": "",
          "type": "string[]"
        }
      ],
      "stateMutability": "view",
      "type": "function"
    },
    {
      "inputs": [
        {
          "internalType": "bytes32",
          "name": "_oracleId",
          "type": "bytes32"
        }
      ],
      "name": "getOracleData",
      "outputs": [
        {
          "internalType": "string",
          "name": "",
          "type": "string"
        }
      ],
      "stateMutability": "nonpayable",
      "type": "function"
    },
    {
      "inputs": [
        {
          "internalType": "string",
          "name": "_LeagueId",
          "type": "string"
        },
        {
          "internalType": "string",
          "name": "_TeamId",
          "type": "string"
        },
        {
          "internalType": "address",
          "name": "_walletId",
          "type": "address"
        }
      ],
      "name": "getPlayerInfo",
      "outputs": [
        {
          "internalType": "string",
          "name": "",
          "type": "string"
        },
        {
          "internalType": "uint256",
          "name": "",
          "type": "uint256"
        }
      ],
      "stateMutability": "view",
      "type": "function"
    },
    {
      "inputs": [
        {
          "internalType": "string",
          "name": "_LeagueId",
          "type": "string"
        }
      ],
      "name": "getTeamsIdFromOneLeague",
      "outputs": [
        {
          "internalType": "string[]",
          "name": "",
          "type": "string[]"
        }
      ],
      "stateMutability": "view",
      "type": "function"
    },
    {
      "inputs": [
        {
          "internalType": "string",
          "name": "_LeagueId",
          "type": "string"
        },
        {
          "internalType": "string",
          "name": "_TeamId",
          "type": "string"
        }
      ],
      "name": "getTeamsInfos",
      "outputs": [
        {
          "internalType": "string[3]",
          "name": "",
          "type": "string[3]"
        }
      ],
      "stateMutability": "view",
      "type": "function"
    },
    {
      "inputs": [],
      "name": "owner",
      "outputs": [
        {
          "internalType": "address",
          "name": "",
          "type": "address"
        }
      ],
      "stateMutability": "view",
      "type": "function"
    },
    {
      "inputs": [
        {
          "internalType": "string",
          "name": "_LeagueId",
          "type": "string"
        },
        {
          "internalType": "string",
          "name": "_TeamId",
          "type": "string"
        },
        {
          "internalType": "string",
          "name": "_matchId",
          "type": "string"
        },
        {
          "internalType": "bytes32",
          "name": "_OracleId",
          "type": "bytes32"
        }
      ],
      "name": "setForecastOracleId",
      "outputs": [],
      "stateMutability": "nonpayable",
      "type": "function"
    },
    {
      "inputs": [
        {
          "internalType": "string",
          "name": "_LeagueId",
          "type": "string"
        },
        {
          "internalType": "string",
          "name": "_TeamId",
          "type": "string"
        },
        {
          "internalType": "string",
          "name": "_matchId",
          "type": "string"
        },
        {
          "internalType": "uint256",
          "name": "_PointNb",
          "type": "uint256"
        }
      ],
      "name": "setForecastPointNb",
      "outputs": [],
      "stateMutability": "nonpayable",
      "type": "function"
    },
    {
      "inputs": [
        {
          "internalType": "string",
          "name": "_LeagueId",
          "type": "string"
        },
        {
          "internalType": "string",
          "name": "_TeamId",
          "type": "string"
        },
        {
          "internalType": "string",
          "name": "_matchId",
          "type": "string"
        },
        {
          "internalType": "uint256[2]",
          "name": "_prono",
          "type": "uint256[2]"
        }
      ],
      "name": "setForecastProno",
      "outputs": [],
      "stateMutability": "nonpayable",
      "type": "function"
    },
    {
      "inputs": [
        {
          "internalType": "string",
          "name": "_LeagueId",
          "type": "string"
        },
        {
          "internalType": "string",
          "name": "_matchId",
          "type": "string"
        },
        {
          "internalType": "uint256[2]",
          "name": "_result",
          "type": "uint256[2]"
        }
      ],
      "name": "setForecastResult",
      "outputs": [],
      "stateMutability": "nonpayable",
      "type": "function"
    },
    {
      "inputs": [
        {
          "internalType": "string",
          "name": "_LeagueId",
          "type": "string"
        },
        {
          "internalType": "string",
          "name": "_TeamId",
          "type": "string"
        }
      ],
      "name": "updateScore",
      "outputs": [],
      "stateMutability": "nonpayable",
      "type": "function"
    },
    {
      "inputs": [
        {
          "internalType": "string",
          "name": "_LeagueId",
          "type": "string"
        },
        {
          "internalType": "string",
          "name": "_matchId",
          "type": "string"
        }
      ],
      "name": "updateTime",
      "outputs": [],
      "stateMutability": "nonpayable",
      "type": "function"
    }
  ],
  "bytecode": "0x6080604052600280546001600160a01b03191673456891c78077d31f70ca027a46d68f84a2b814d417905534801561003657600080fd5b50600380546001600160a01b03191633179055614317806100586000396000f3fe608060405234801561001057600080fd5b50600436106101735760003560e01c806393e353f3116100de578063b5e4b81311610097578063d5e79a1311610071578063d5e79a1314610373578063d73fd54814610386578063f10efc5014610399578063f399684a146103ac57600080fd5b8063b5e4b8131461032d578063c34901d91461034d578063c83d3a521461036057600080fd5b806393e353f3146102ac57806395bdb510146102cc578063a9b756ce146102df578063b0a5e4bd146102f2578063b1447e9f146102fa578063b58113031461030d57600080fd5b8063513a7beb11610130578063513a7beb146102205780636439ca61146102405780636d4ce63c1461025357806375c253771461025b5780638a3baacd1461026e5780638da5cb5b1461028157600080fd5b806305fddcc8146101785780630a59169a1461019e57806323e2fdf8146101bf57806335e35a4d146101d45780633cdf244b146101fa57806345c7a7451461020d575b600080fd5b61018b610186366004613724565b6103bf565b6040519081526020015b60405180910390f35b6101b16101ac3660046137ab565b61043b565b60405161019592919061387e565b6101d26101cd3660046138a0565b61059f565b005b6101e76101e2366004613724565b61094b565b604051610195979695949392919061393c565b6101d26102083660046139ef565b610baa565b6101d261021b366004613724565b610ccf565b61023361022e3660046138a0565b611713565b6040516101959190613ac0565b6101d261024e366004613b0d565b6118d9565b6101b1611969565b6101d2610269366004613b9c565b611a05565b61023361027c366004613c81565b6120cb565b600354610294906001600160a01b031681565b6040516001600160a01b039091168152602001610195565b6102bf6102ba3660046138a0565b612250565b6040516101959190613cbd565b6101d26102da3660046138a0565b612372565b6101d26102ed366004613724565b6125cc565b6102bf6126af565b6101d2610308366004613d6f565b612788565b61032061031b3660046138a0565b612a9e565b6040516101959190613de3565b61034061033b366004613e30565b612b3b565b6040516101959190613e49565b6102bf61035b366004613c81565b612bd0565b6101d261036e366004613b0d565b612cca565b6102bf610381366004613c81565b612d43565b6101d2610394366004613e63565b613055565b6102bf6103a7366004613c81565b61319b565b61018b6103ba366004613724565b613439565b60006005846040516103d19190613efc565b9081526020016040518091039020600401836040516103f09190613efc565b90815260408051918290036020908101832033600090815260039182019092529190200190610420908490613efc565b90815260200160405180910390206008015490509392505050565b60606000806005866040516104509190613efc565b90815260200160405180910390206004018560405161046f9190613efc565b90815260200160405180910390206003016000856001600160a01b03166001600160a01b0316815260200190815260200160002060000180546104b190613f18565b80601f01602080910402602001604051908101604052809291908181526020018280546104dd90613f18565b801561052a5780601f106104ff5761010080835404028352916020019161052a565b820191906000526020600020905b81548152906001019060200180831161050d57829003601f168201915b5050505050905060006005876040516105439190613efc565b9081526020016040518091039020600401866040516105629190613efc565b90815260408051602092819003830190206001600160a01b0397909716600090815260039097019091529094206001015490969095509350505050565b60005b6005836040516105b29190613efc565b908152604051908190036020019020600301548110156109465760006005846040516105de9190613efc565b9081526020016040518091039020600301828154811061060057610600613f52565b90600052602060002001805461061590613f18565b80601f016020809104026020016040519081016040528092919081815260200182805461064190613f18565b801561068e5780601f106106635761010080835404028352916020019161068e565b820191906000526020600020905b81548152906001019060200180831161067157829003601f168201915b5050505050905060005b6005856040516106a89190613efc565b9081526020016040518091039020600401826040516106c79190613efc565b908152604051908190036020019020600201548110156109315760006005866040516106f39190613efc565b9081526020016040518091039020600401836040516107129190613efc565b9081526020016040518091039020600201828154811061073457610734613f52565b6000918252602090912001546040516001600160a01b03909116915060059061075e908890613efc565b90815260200160405180910390206004018360405161077d9190613efc565b908152604080519182900360209081018320336000908152600391820190925291902001906107ad908790613efc565b9081526020016040518091039020600701544210156108745760006005876040516107d89190613efc565b9081526020016040518091039020600401846040516107f79190613efc565b90815260200160405180910390206003016000836001600160a01b03166001600160a01b031681526020019081526020016000206003018660405161083c9190613efc565b908152604051908190036020019020600901805461ff00191661010083600181111561086a5761086a613926565b021790555061091e565b60016005876040516108869190613efc565b9081526020016040518091039020600401846040516108a59190613efc565b90815260200160405180910390206003016000836001600160a01b03166001600160a01b03168152602001908152602001600020600301866040516108ea9190613efc565b908152604051908190036020019020600901805461ff00191661010083600181111561091857610918613926565b02179055505b508061092981613f7e565b915050610698565b5050808061093e90613f7e565b9150506105a2565b505050565b6109536134b5565b61095b6134dc565b6109636134dc565b600080600080600060058b60405161097b9190613efc565b90815260200160405180910390206004018a60405161099a9190613efc565b908152604080519182900360209081018320336000908152600391820190925291902001906109ca908b90613efc565b9081526040805191829003602001822061014083019091528161010081018260026000835b82821015610a92578382018054610a0590613f18565b80601f0160208091040260200160405190810160405280929190818152602001828054610a3190613f18565b8015610a7e5780601f10610a5357610100808354040283529160200191610a7e565b820191906000526020600020905b815481529060010190602001808311610a6157829003601f168201915b5050505050815260200190600101906109ef565b5050509082525060408051808201918290526020909201919060028481019182845b815481526020019060010190808311610ab4575050509183525050604080518082019182905260209092019190600484019060029082845b815481526020019060010190808311610aec575050509183525050600682015460208201526007820154604082015260088201546060820152600982015460ff8082161515608084015260a090920191610100909104166001811115610b5457610b54613926565b6001811115610b6557610b65613926565b815250509050806000015181602001518260400151836060015184608001518560e001518660c001519750975097509750975097509750509397509397509397909450565b82600586604051610bbb9190613efc565b908152602001604051809103902060040185604051610bda9190613efc565b90815260405190819003602001902090610bf49082613fe5565b5080600586604051610c069190613efc565b908152602001604051809103902060040185604051610c259190613efc565b90815260200160405180910390206001019081610c429190613fe5565b50600585604051610c539190613efc565b908152604051602091819003820190206003018054600181018255600091825291902001610c818582613fe5565b50610c8d858584610ccf565b7fe3c7ad3e0a7039496bfdf53f2459da724adffa66091605f5a41831a1b318bdaa858585604051610cc0939291906140a4565b60405180910390a15050505050565b80600584604051610ce09190613efc565b908152602001604051809103902060040183604051610cff9190613efc565b90815260408051602092819003830190203360009081526003909101909252902090610d2b9082613fe5565b50600583604051610d3c9190613efc565b908152602001604051809103902060040182604051610d5b9190613efc565b9081526040519081900360209081018220600201805460018101825560009182529190200180546001600160a01b03191633179055600590610d9e908590613efc565b90815260405160209181900382018120610dba929091016140e7565b6040516020818303038152906040528051906020012060001461169a576000600584604051610de99190613efc565b9081526040519081900360200190208054610e0390613f18565b80601f0160208091040260200160405190810160405280929190818152602001828054610e2f90613f18565b8015610e7c5780601f10610e5157610100808354040283529160200191610e7c565b820191906000526020600020905b815481529060010190602001808311610e5f57829003601f168201915b5050505050905060005b600585604051610e969190613efc565b908152602001604051809103902060040182604051610eb59190613efc565b9081526040805160209281900383019020600380546001600160a01b031660009081529101909252902060020154811015611697576000600586604051610efc9190613efc565b908152602001604051809103902060040183604051610f1b9190613efc565b9081526040805160209281900383019020600380546001600160a01b0316600090815291019092529020600201805483908110610f5a57610f5a613f52565b906000526020600020018054610f6f90613f18565b80601f0160208091040260200160405190810160405280929190818152602001828054610f9b90613f18565b8015610fe85780601f10610fbd57610100808354040283529160200191610fe8565b820191906000526020600020905b815481529060010190602001808311610fcb57829003601f168201915b5050505050905060006005876040516110019190613efc565b9081526020016040518091039020600401846040516110209190613efc565b908152604080519182900360209081018320600380546001600160a01b0316600090815291810190925291909120019061105b908490613efc565b9081526040805191829003602001822061014083019091528161010081018260026000835b8282101561112357838201805461109690613f18565b80601f01602080910402602001604051908101604052809291908181526020018280546110c290613f18565b801561110f5780601f106110e45761010080835404028352916020019161110f565b820191906000526020600020905b8154815290600101906020018083116110f257829003601f168201915b505050505081526020019060010190611080565b5050509082525060408051808201918290526020909201919060028481019182845b815481526020019060010190808311611145575050509183525050604080518082019182905260209092019190600484019060029082845b81548152602001906001019080831161117d575050509183525050600682015460208201526007820154604082015260088201546060820152600982015460ff8082161515608084015260a0909201916101009091041660018111156111e5576111e5613926565b60018111156111f6576111f6613926565b81525050905060058760405161120c9190613efc565b90815260200160405180910390206004018660405161122b9190613efc565b9081526040805160209281900383019020336000908152600390910183529081206002018054600181018255908252919020016112688382613fe5565b50805160405160059061127c908a90613efc565b90815260200160405180910390206004018760405161129b9190613efc565b908152604080519182900360209081018320336000908152600391820190925291902001906112cb908590613efc565b9081526040519081900360200190206112e59160026134fa565b50604080518082018252606480825260208201529051600590611309908a90613efc565b9081526020016040518091039020600401876040516113289190613efc565b90815260408051918290036020908101832033600090815260039182019092529190200190611358908590613efc565b9081526020016040518091039020600201906002611377929190613543565b50806040015160058860405161138d9190613efc565b9081526020016040518091039020600401876040516113ac9190613efc565b908152604080519182900360209081018320336000908152600391820190925291902001906113dc908590613efc565b90815260200160405180910390206004019060026113fb929190613582565b50600060058860405161140e9190613efc565b90815260200160405180910390206004018760405161142d9190613efc565b9081526040805191829003602090810183203360009081526003918201909252919020019061145d908590613efc565b90815260200160405180910390206006018190555080608001516005886040516114879190613efc565b9081526020016040518091039020600401876040516114a69190613efc565b908152604080519182900360209081018320336000908152600391820190925291902001906114d6908590613efc565b9081526020016040518091039020600701819055508060a001516005886040516115009190613efc565b90815260200160405180910390206004018760405161151f9190613efc565b9081526040805191829003602090810183203360009081526003918201909252919020019061154f908590613efc565b9081526020016040518091039020600801819055508060c001516005886040516115799190613efc565b9081526020016040518091039020600401876040516115989190613efc565b908152604080519182900360209081018320336000908152600391820190925291902001906115c8908590613efc565b908152604051908190036020018120600901805492151560ff199093169290921790915560e082015190600590611600908a90613efc565b90815260200160405180910390206004018760405161161f9190613efc565b9081526040805191829003602090810183203360009081526003918201909252919020019061164f908590613efc565b908152604051908190036020019020600901805461ff00191661010083600181111561167d5761167d613926565b02179055505050808061168f90613f7e565b915050610e86565b50505b7fe3c7ad3e0a7039496bfdf53f2459da724adffa66091605f5a41831a1b318bdaa83836005866040516116cd9190613efc565b9081526020016040518091039020600401856040516116ec9190613efc565b90815260405190819003602001812061170693929161415d565b60405180910390a1505050565b61171b6135b0565b600060058460405161172d9190613efc565b90815260200160405180910390206004018360405161174c9190613efc565b908152604051908190036020019020805461176690613f18565b80601f016020809104026020016040519081016040528092919081815260200182805461179290613f18565b80156117df5780601f106117b4576101008083540402835291602001916117df565b820191906000526020600020905b8154815290600101906020018083116117c257829003601f168201915b5050505050905060006005856040516117f89190613efc565b9081526020016040518091039020600401846040516118179190613efc565b9081526020016040518091039020600101805461183390613f18565b80601f016020809104026020016040519081016040528092919081815260200182805461185f90613f18565b80156118ac5780601f10611881576101008083540402835291602001916118ac565b820191906000526020600020905b81548152906001019060200180831161188f57829003601f168201915b50505050509050604051806060016040528085815260200183815260200182815250925050505b92915050565b6003546001600160a01b031633146118f057600080fd5b806005856040516119019190613efc565b9081526020016040518091039020600401846040516119209190613efc565b90815260408051918290036020908101832033600090815260039182019092529190200190611950908590613efc565b9081526040519081900360200190206008015550505050565b606060008060015481805461197d90613f18565b80601f01602080910402602001604051908101604052809291908181526020018280546119a990613f18565b80156119f65780601f106119cb576101008083540402835291602001916119f6565b820191906000526020600020905b8154815290600101906020018083116119d957829003601f168201915b50505050509150915091509091565b6003546001600160a01b03163314611a1c57600080fd5b80804210611a705760405162461bcd60e51b815260206004820152601e60248201527f456e642064617465206d75737420626520696e20746865206675747572650000604482015260640160405180910390fd5b60005b600586604051611a839190613efc565b90815260405190819003602001902060030154811015612099576000600587604051611aaf9190613efc565b90815260200160405180910390206003018281548110611ad157611ad1613f52565b906000526020600020018054611ae690613f18565b80601f0160208091040260200160405190810160405280929190818152602001828054611b1290613f18565b8015611b5f5780601f10611b3457610100808354040283529160200191611b5f565b820191906000526020600020905b815481529060010190602001808311611b4257829003601f168201915b5050505050905060005b600588604051611b799190613efc565b908152602001604051809103902060040182604051611b989190613efc565b90815260405190819003602001902060020154811015612084576000600589604051611bc49190613efc565b908152602001604051809103902060040183604051611be39190613efc565b90815260200160405180910390206002018281548110611c0557611c05613f52565b6000918252602090912001546003546001600160a01b0391821692501681148015611c3a57506003546001600160a01b031633145b15611c6c578260058a604051611c509190613efc565b90815260405190819003602001902090611c6a9082613fe5565b505b600589604051611c7c9190613efc565b908152602001604051809103902060040183604051611c9b9190613efc565b90815260408051602092819003830190206001600160a01b038416600090815260039091018352908120600201805460018101825590825291902001611ce18982613fe5565b508660058a604051611cf39190613efc565b908152602001604051809103902060040184604051611d129190613efc565b90815260200160405180910390206003016000836001600160a01b03166001600160a01b0316815260200190815260200160002060030189604051611d579190613efc565b908152604051908190036020019020611d719160026134fa565b50604080518082018252606480825260208201529051600590611d95908c90613efc565b908152602001604051809103902060040184604051611db49190613efc565b90815260200160405180910390206003016000836001600160a01b03166001600160a01b0316815260200190815260200160002060030189604051611df99190613efc565b9081526020016040518091039020600201906002611e18929190613543565b50600060058a604051611e2b9190613efc565b908152602001604051809103902060040184604051611e4a9190613efc565b90815260200160405180910390206003016000836001600160a01b03166001600160a01b0316815260200190815260200160002060030189604051611e8f9190613efc565b9081526020016040518091039020600601819055508560058a604051611eb59190613efc565b908152602001604051809103902060040184604051611ed49190613efc565b90815260200160405180910390206003016000836001600160a01b03166001600160a01b0316815260200190815260200160002060030189604051611f199190613efc565b908152602001604051809103902060070181905550600060058a604051611f409190613efc565b908152602001604051809103902060040184604051611f5f9190613efc565b90815260200160405180910390206003016000836001600160a01b03166001600160a01b0316815260200190815260200160002060030189604051611fa49190613efc565b908152604051908190036020018120600901805492151560ff1990931692909217909155600090600590611fd9908c90613efc565b908152602001604051809103902060040184604051611ff89190613efc565b90815260200160405180910390206003016000836001600160a01b03166001600160a01b031681526020019081526020016000206003018960405161203d9190613efc565b908152604051908190036020019020600901805461ff00191661010083600181111561206b5761206b613926565b021790555050808061207c90613f7e565b915050611b69565b5050808061209190613f7e565b915050611a73565b507f4e80c7b6db5296234afebf7d99ec0eb65b0f2f38ff5dd3e26caba99d095e8a228585604051610cc092919061420d565b6120d36135b0565b60006005836040516120e59190613efc565b9081526020016040518091039020600101805461210190613f18565b80601f016020809104026020016040519081016040528092919081815260200182805461212d90613f18565b801561217a5780601f1061214f5761010080835404028352916020019161217a565b820191906000526020600020905b81548152906001019060200180831161215d57829003601f168201915b5050505050905060006005846040516121939190613efc565b908152602001604051809103902060020180546121af90613f18565b80601f01602080910402602001604051908101604052809291908181526020018280546121db90613f18565b80156122285780601f106121fd57610100808354040283529160200191612228565b820191906000526020600020905b81548152906001019060200180831161220b57829003601f168201915b5050604080516060810182529889526020890196909652505050918401919091525090919050565b60606005836040516122629190613efc565b9081526020016040518091039020600401826040516122819190613efc565b90815260408051918290036020908101832033600090815260039091018252828120600201805480840286018401909452838552929184015b828210156123665783829060005260206000200180546122d990613f18565b80601f016020809104026020016040519081016040528092919081815260200182805461230590613f18565b80156123525780601f1061232757610100808354040283529160200191612352565b820191906000526020600020905b81548152906001019060200180831161233557829003601f168201915b5050505050815260200190600101906122ba565b50505050905092915050565b6000805b6005846040516123869190613efc565b9081526020016040518091039020600401836040516123a59190613efc565b908152604080516020928190038301902033600090815260039091019092529020600201548110156125715760006005856040516123e39190613efc565b9081526020016040518091039020600401846040516124029190613efc565b90815260200160405180910390206003016000336001600160a01b03166001600160a01b03168152602001908152602001600020600201828154811061244a5761244a613f52565b90600052602060002001805461245f90613f18565b80601f016020809104026020016040519081016040528092919081815260200182805461248b90613f18565b80156124d85780601f106124ad576101008083540402835291602001916124d8565b820191906000526020600020905b8154815290600101906020018083116124bb57829003601f168201915b505050505090506005856040516124ef9190613efc565b90815260200160405180910390206004018460405161250e9190613efc565b9081526040805191829003602090810183203360009081526003918201909252919020019061253e908390613efc565b9081526020016040518091039020600601548361255b919061423b565b925050808061256990613f7e565b915050612376565b50806005846040516125839190613efc565b9081526020016040518091039020600401836040516125a29190613efc565b90815260408051602092819003830190203360009081526003909101909252902060010155505050565b6003546001600160a01b031633146125e357600080fd5b816005846040516125f49190613efc565b908152602001604051809103902060010190816126119190613fe5565b50806005846040516126239190613efc565b908152602001604051809103902060020190816126409190613fe5565b50600480546001810182556000919091527f8a35acfbc15ff81a39ae7d344fd709f28e8600b4aa8c65c6b64bfe7fe36bd19b0161267d8482613fe5565b507f555b253affed0fbc45a98299974fb73cbb5e8e69293852d9bad2537ba127b194838360405161170692919061420d565b60606004805480602002602001604051908101604052809291908181526020016000905b8282101561277f5783829060005260206000200180546126f290613f18565b80601f016020809104026020016040519081016040528092919081815260200182805461271e90613f18565b801561276b5780601f106127405761010080835404028352916020019161276b565b820191906000526020600020905b81548152906001019060200180831161274e57829003601f168201915b5050505050815260200190600101906126d3565b50505050905090565b612792838361059f565b60005b6005846040516127a59190613efc565b90815260405190819003602001902060030154811015612a985760006005856040516127d19190613efc565b908152602001604051809103902060030182815481106127f3576127f3613f52565b90600052602060002001805461280890613f18565b80601f016020809104026020016040519081016040528092919081815260200182805461283490613f18565b80156128815780601f1061285657610100808354040283529160200191612881565b820191906000526020600020905b81548152906001019060200180831161286457829003601f168201915b5050505050905060005b60058660405161289b9190613efc565b9081526020016040518091039020600401826040516128ba9190613efc565b90815260405190819003602001902060020154811015612a835760006005876040516128e69190613efc565b9081526020016040518091039020600401836040516129059190613efc565b9081526020016040518091039020600201828154811061292757612927613f52565b6000918252602090912001546040516001600160a01b0390911691508590600590612953908a90613efc565b9081526020016040518091039020600401846040516129729190613efc565b90815260200160405180910390206003016000836001600160a01b03166001600160a01b03168152602001908152602001600020600301876040516129b79190613efc565b90815260200160405180910390206004019060026129d6929190613582565b5060016005886040516129e99190613efc565b908152602001604051809103902060040184604051612a089190613efc565b90815260200160405180910390206003016000836001600160a01b03166001600160a01b0316815260200190815260200160002060030187604051612a4d9190613efc565b908152604051908190036020019020600901805491151560ff199092169190911790555080612a7b81613f7e565b91505061288b565b50508080612a9090613f7e565b915050612795565b50505050565b6060600583604051612ab09190613efc565b908152602001604051809103902060040182604051612acf9190613efc565b9081526040805191829003602090810183206002018054808302850183019093528284529190830182828015612b2e57602002820191906000526020600020905b81546001600160a01b03168152600190910190602001808311612b10575b5050505050905092915050565b600254604051634c373c8d60e11b8152600481018390526060916001600160a01b0316906000908190839063986e791a90602401600060405180830381865afa158015612b8c573d6000803e3d6000fd5b505050506040513d6000823e601f3d908101601f19168201604052612bb4919081019061424e565b90925090506000612bc58382613fe5565b506001559392505050565b6060600582604051612be29190613efc565b9081526020016040518091039020600301805480602002602001604051908101604052809291908181526020016000905b82821015612cbf578382906000526020600020018054612c3290613f18565b80601f0160208091040260200160405190810160405280929190818152602001828054612c5e90613f18565b8015612cab5780601f10612c8057610100808354040283529160200191612cab565b820191906000526020600020905b815481529060010190602001808311612c8e57829003601f168201915b505050505081526020019060010190612c13565b505050509050919050565b80600585604051612cdb9190613efc565b908152602001604051809103902060040184604051612cfa9190613efc565b90815260408051918290036020908101832033600090815260039182019092529190200190612d2a908590613efc565b9081526040519081900360200190206006015550505050565b60606000600583604051612d579190613efc565b9081526040519081900360200190206003015490506000816001600160401b03811115612d8657612d86613639565b604051908082528060200260200182016040528015612db957816020015b6060815260200190600190039081612da45790505b5090506000805b83811015612fa5576000600587604051612dda9190613efc565b90815260200160405180910390206003018281548110612dfc57612dfc613f52565b906000526020600020018054612e1190613f18565b80601f0160208091040260200160405190810160405280929190818152602001828054612e3d90613f18565b8015612e8a5780601f10612e5f57610100808354040283529160200191612e8a565b820191906000526020600020905b815481529060010190602001808311612e6d57829003601f168201915b5050505050905060005b600588604051612ea49190613efc565b908152602001604051809103902060040182604051612ec39190613efc565b90815260405190819003602001902060020154811015612f9057336001600160a01b0316600589604051612ef79190613efc565b908152602001604051809103902060040183604051612f169190613efc565b90815260200160405180910390206002018281548110612f3857612f38613f52565b6000918252602090912001546001600160a01b031603612f7e5781858581518110612f6557612f65613f52565b6020908102919091010152612f7b60018561423b565b93505b80612f8881613f7e565b915050612e94565b50508080612f9d90613f7e565b915050612dc0565b506000816001600160401b03811115612fc057612fc0613639565b604051908082528060200260200182016040528015612ff357816020015b6060815260200190600190039081612fde5790505b50905060005b8281101561304b5783818151811061301357613013613f52565b602002602001015182828151811061302d5761302d613f52565b6020026020010181905250808061304390613f7e565b915050612ff9565b5095945050505050565b6005846040516130659190613efc565b9081526020016040518091039020600401836040516130849190613efc565b908152604080519182900360209081018320336000908152600391820190925291902001906130b4908490613efc565b90815260200160405180910390206007015442101561315257806005856040516130de9190613efc565b9081526020016040518091039020600401846040516130fd9190613efc565b9081526040805191829003602090810183203360009081526003918201909252919020019061312d908590613efc565b908152602001604051809103902060020190600261314c929190613582565b50612a98565b61315c848361059f565b7f17aa2d4dbac46edf6407347f5fdf731be0a94966a788a2a89efa5e4d2cd26fd3848360405161318d92919061420d565b60405180910390a150505050565b606060006131a883612d43565b9050600081516005856040516131be9190613efc565b908152604051908190036020019020600301546131db91906142ce565b6001600160401b038111156131f2576131f2613639565b60405190808252806020026020018201604052801561322557816020015b60608152602001906001900390816132105790505b5090506000805b60058660405161323c9190613efc565b9081526040519081900360200190206003015481101561342f576000805b8551811015613321576005886040516132739190613efc565b9081526020016040518091039020600301838154811061329557613295613f52565b906000526020600020016040516020016132af91906140e7565b604051602081830303815290604052805190602001208682815181106132d7576132d7613f52565b60200260200101516040516020016132ef9190613efc565b604051602081830303815290604052805190602001200361330f57600191505b8061331981613f7e565b91505061325a565b5080151560000361341c5760058760405161333c9190613efc565b9081526020016040518091039020600301828154811061335e5761335e613f52565b90600052602060002001805461337390613f18565b80601f016020809104026020016040519081016040528092919081815260200182805461339f90613f18565b80156133ec5780601f106133c1576101008083540402835291602001916133ec565b820191906000526020600020905b8154815290600101906020018083116133cf57829003601f168201915b505050505084848151811061340357613403613f52565b602090810291909101015261341960018461423b565b92505b508061342781613f7e565b91505061322c565b5090949350505050565b600060058460405161344b9190613efc565b90815260200160405180910390206004018360405161346a9190613efc565b9081526040805191829003602090810183203360009081526003918201909252919020019061349a908490613efc565b90815260200160405180910390206006015490509392505050565b60405180604001604052806002905b60608152602001906001900390816134c45790505090565b60405180604001604052806002906020820280368337509192915050565b8260028101928215613533579160200282015b8281111561353357825182906135239082613fe5565b509160200191906001019061350d565b5061353f9291506135ca565b5090565b8260028101928215613576579160200282015b82811115613576578251829060ff16905591602001919060010190613556565b5061353f9291506135e7565b8260028101928215613576579160200282015b82811115613576578251825591602001919060010190613595565b6040805160608082019092529081526002602082016134c4565b8082111561353f5760006135de82826135fc565b506001016135ca565b5b8082111561353f57600081556001016135e8565b50805461360890613f18565b6000825580601f10613618575050565b601f01602090049060005260206000209081019061363691906135e7565b50565b634e487b7160e01b600052604160045260246000fd5b604080519081016001600160401b038111828210171561367157613671613639565b60405290565b604051601f8201601f191681016001600160401b038111828210171561369f5761369f613639565b604052919050565b60006001600160401b038211156136c0576136c0613639565b50601f01601f191660200190565b600082601f8301126136df57600080fd5b81356136f26136ed826136a7565b613677565b81815284602083860101111561370757600080fd5b816020850160208301376000918101602001919091529392505050565b60008060006060848603121561373957600080fd5b83356001600160401b038082111561375057600080fd5b61375c878388016136ce565b9450602086013591508082111561377257600080fd5b61377e878388016136ce565b9350604086013591508082111561379457600080fd5b506137a1868287016136ce565b9150509250925092565b6000806000606084860312156137c057600080fd5b83356001600160401b03808211156137d757600080fd5b6137e3878388016136ce565b945060208601359150808211156137f957600080fd5b50613806868287016136ce565b92505060408401356001600160a01b038116811461382357600080fd5b809150509250925092565b60005b83811015613849578181015183820152602001613831565b50506000910152565b6000815180845261386a81602086016020860161382e565b601f01601f19169290920160200192915050565b6040815260006138916040830185613852565b90508260208301529392505050565b600080604083850312156138b357600080fd5b82356001600160401b03808211156138ca57600080fd5b6138d6868387016136ce565b935060208501359150808211156138ec57600080fd5b506138f9858286016136ce565b9150509250929050565b8060005b6002811015612a98578151845260209384019390910190600101613907565b634e487b7160e01b600052602160045260246000fd5b610120808252600090820161016083018a835b60028110156139835761011f1986840301845261396d838351613852565b602094850194909350919091019060010161394f565b505080925050506139976020830189613903565b6139a46060830188613903565b8560a08301528460c0830152600284106139ce57634e487b7160e01b600052602160045260246000fd5b8360e08301526139e361010083018415159052565b98975050505050505050565b600080600080600060a08688031215613a0757600080fd5b85356001600160401b0380821115613a1e57600080fd5b613a2a89838a016136ce565b96506020880135915080821115613a4057600080fd5b613a4c89838a016136ce565b95506040880135915080821115613a6257600080fd5b613a6e89838a016136ce565b94506060880135915080821115613a8457600080fd5b613a9089838a016136ce565b93506080880135915080821115613aa657600080fd5b50613ab3888289016136ce565b9150509295509295909350565b60208082526000906080830183820185845b6003811015613b0157601f19878503018352613aef848351613852565b93509184019190840190600101613ad2565b50919695505050505050565b60008060008060808587031215613b2357600080fd5b84356001600160401b0380821115613b3a57600080fd5b613b46888389016136ce565b95506020870135915080821115613b5c57600080fd5b613b68888389016136ce565b94506040870135915080821115613b7e57600080fd5b50613b8b878288016136ce565b949793965093946060013593505050565b60008060008060808587031215613bb257600080fd5b84356001600160401b0380821115613bc957600080fd5b613bd5888389016136ce565b9550602091508187013581811115613bec57600080fd5b613bf889828a016136ce565b955050604087013581811115613c0d57600080fd5b8701601f81018913613c1e57600080fd5b613c2661364f565b80604083018b811115613c3857600080fd5b835b81811015613c6c57803586811115613c525760008081fd5b613c5e8e8288016136ce565b855250928601928601613c3a565b50989b979a5098606001359750505050505050565b600060208284031215613c9357600080fd5b81356001600160401b03811115613ca957600080fd5b613cb5848285016136ce565b949350505050565b6000602080830181845280855180835260408601915060408160051b870101925083870160005b82811015613d1257603f19888603018452613d00858351613852565b94509285019290850190600101613ce4565b5092979650505050505050565b600082601f830112613d3057600080fd5b613d3861364f565b806040840185811115613d4a57600080fd5b845b81811015613d64578035845260209384019301613d4c565b509095945050505050565b600080600060808486031215613d8457600080fd5b83356001600160401b0380821115613d9b57600080fd5b613da7878388016136ce565b94506020860135915080821115613dbd57600080fd5b50613dca868287016136ce565b925050613dda8560408601613d1f565b90509250925092565b6020808252825182820181905260009190848201906040850190845b81811015613e245783516001600160a01b031683529284019291840191600101613dff565b50909695505050505050565b600060208284031215613e4257600080fd5b5035919050565b602081526000613e5c6020830184613852565b9392505050565b60008060008060a08587031215613e7957600080fd5b84356001600160401b0380821115613e9057600080fd5b613e9c888389016136ce565b95506020870135915080821115613eb257600080fd5b613ebe888389016136ce565b94506040870135915080821115613ed457600080fd5b50613ee1878288016136ce565b925050613ef18660608701613d1f565b905092959194509250565b60008251613f0e81846020870161382e565b9190910192915050565b600181811c90821680613f2c57607f821691505b602082108103613f4c57634e487b7160e01b600052602260045260246000fd5b50919050565b634e487b7160e01b600052603260045260246000fd5b634e487b7160e01b600052601160045260246000fd5b600060018201613f9057613f90613f68565b5060010190565b601f82111561094657600081815260208120601f850160051c81016020861015613fbe5750805b601f850160051c820191505b81811015613fdd57828155600101613fca565b505050505050565b81516001600160401b03811115613ffe57613ffe613639565b6140128161400c8454613f18565b84613f97565b602080601f831160018114614047576000841561402f5750858301515b600019600386901b1c1916600185901b178555613fdd565b600085815260208120601f198616915b8281101561407657888601518255948401946001909101908401614057565b50858210156140945787850151600019600388901b60f8161c191681555b5050505050600190811b01905550565b6060815260006140b76060830186613852565b82810360208401526140c98186613852565b905082810360408401526140dd8185613852565b9695505050505050565b60008083546140f581613f18565b6001828116801561410d576001811461412257614151565b60ff1984168752821515830287019450614151565b8760005260208060002060005b858110156141485781548a82015290840190820161412f565b50505082870194505b50929695505050505050565b6060815260006141706060830186613852565b6020838203818501526141838287613852565b915083820360408501526000855461419a81613f18565b808552600182811680156141b557600181146141cf576141fd565b60ff1984168787015282151560051b8701860194506141fd565b896000528560002060005b848110156141f55781548982018901529083019087016141da565b880187019550505b50929a9950505050505050505050565b6040815260006142206040830185613852565b82810360208401526142328185613852565b95945050505050565b808201808211156118d3576118d3613f68565b6000806040838503121561426157600080fd5b82516001600160401b0381111561427757600080fd5b8301601f8101851361428857600080fd5b80516142966136ed826136a7565b8181528660208385010111156142ab57600080fd5b6142bc82602083016020860161382e565b60209590950151949694955050505050565b818103818111156118d3576118d3613f6856fea264697066735822122049428bd7271e5d905a513a3cf4302e7d57559698d02778c40a52f12b5db391c564736f6c63430008110033",
  "linkReferences": {},
  "deployedLinkReferences": {}
}