{
  "_format": "hh-sol-artifact-1",
  "contractName": "PetitProno",
  "sourceName": "contracts/PetitProno.sol",
  "abi": [
    {
      "inputs": [],
      "stateMutability": "nonpayable",
      "type": "constructor"
    },
    {
      "anonymous": false,
      "inputs": [
        {
          "indexed": false,
          "internalType": "string",
          "name": "_LeagueId",
          "type": "string"
        },
        {
          "indexed": false,
          "internalType": "string",
          "name": "_ForecastId",
          "type": "string"
        }
      ],
      "name": "NewForecast",
      "type": "event"
    },
    {
      "anonymous": false,
      "inputs": [
        {
          "indexed": false,
          "internalType": "string",
          "name": "_LeagueId",
          "type": "string"
        },
        {
          "indexed": false,
          "internalType": "string",
          "name": "_League_name",
          "type": "string"
        }
      ],
      "name": "NewLeague",
      "type": "event"
    },
    {
      "anonymous": false,
      "inputs": [
        {
          "indexed": false,
          "internalType": "string",
          "name": "_LeagueId",
          "type": "string"
        },
        {
          "indexed": false,
          "internalType": "string",
          "name": "_TeamId",
          "type": "string"
        },
        {
          "indexed": false,
          "internalType": "string",
          "name": "_Team_name",
          "type": "string"
        }
      ],
      "name": "NewTeam",
      "type": "event"
    },
    {
      "inputs": [
        {
          "internalType": "string",
          "name": "_LeagueId",
          "type": "string"
        },
        {
          "internalType": "string",
          "name": "_TeamId",
          "type": "string"
        }
      ],
      "name": "MintNFTPlayer",
      "outputs": [],
      "stateMutability": "nonpayable",
      "type": "function"
    },
    {
      "inputs": [
        {
          "internalType": "string",
          "name": "_LeagueId",
          "type": "string"
        },
        {
          "internalType": "string",
          "name": "_TeamId",
          "type": "string"
        },
        {
          "internalType": "uint256",
          "name": "rg",
          "type": "uint256"
        }
      ],
      "name": "MintNFTTeam",
      "outputs": [],
      "stateMutability": "nonpayable",
      "type": "function"
    },
    {
      "inputs": [
        {
          "internalType": "string",
          "name": "_LeagueId",
          "type": "string"
        }
      ],
      "name": "SortBestPlayers",
      "outputs": [],
      "stateMutability": "nonpayable",
      "type": "function"
    },
    {
      "inputs": [
        {
          "internalType": "string",
          "name": "_LeagueId",
          "type": "string"
        }
      ],
      "name": "SortBestTeams",
      "outputs": [],
      "stateMutability": "nonpayable",
      "type": "function"
    },
    {
      "inputs": [
        {
          "internalType": "string",
          "name": "_LeagueId",
          "type": "string"
        },
        {
          "internalType": "string",
          "name": "_matchId",
          "type": "string"
        },
        {
          "internalType": "string[2]",
          "name": "teams",
          "type": "string[2]"
        },
        {
          "internalType": "uint256",
          "name": "_endDate",
          "type": "uint256"
        }
      ],
      "name": "addForecast",
      "outputs": [],
      "stateMutability": "nonpayable",
      "type": "function"
    },
    {
      "inputs": [
        {
          "internalType": "string",
          "name": "_LeagueId",
          "type": "string"
        },
        {
          "internalType": "string",
          "name": "_League_name",
          "type": "string"
        },
        {
          "internalType": "string",
          "name": "_ipfs",
          "type": "string"
        }
      ],
      "name": "addLeague",
      "outputs": [],
      "stateMutability": "nonpayable",
      "type": "function"
    },
    {
      "inputs": [
        {
          "internalType": "string",
          "name": "_LeagueId",
          "type": "string"
        },
        {
          "internalType": "string",
          "name": "_TeamId",
          "type": "string"
        },
        {
          "internalType": "string",
          "name": "_Player_name",
          "type": "string"
        }
      ],
      "name": "addPlayer",
      "outputs": [],
      "stateMutability": "nonpayable",
      "type": "function"
    },
    {
      "inputs": [
        {
          "internalType": "string",
          "name": "_LeagueId",
          "type": "string"
        },
        {
          "internalType": "string",
          "name": "_TeamId",
          "type": "string"
        },
        {
          "internalType": "string",
          "name": "_Teame_Name",
          "type": "string"
        },
        {
          "internalType": "string",
          "name": "_Player_name",
          "type": "string"
        },
        {
          "internalType": "string",
          "name": "_ipfs",
          "type": "string"
        }
      ],
      "name": "addTeam",
      "outputs": [],
      "stateMutability": "nonpayable",
      "type": "function"
    },
    {
      "inputs": [
        {
          "internalType": "string",
          "name": "_LeagueId",
          "type": "string"
        },
        {
          "internalType": "string",
          "name": "_TeamId",
          "type": "string"
        },
        {
          "internalType": "address",
          "name": "_walletId",
          "type": "address"
        },
        {
          "internalType": "string",
          "name": "_matchId",
          "type": "string"
        }
      ],
      "name": "calculatePoint",
      "outputs": [],
      "stateMutability": "nonpayable",
      "type": "function"
    },
    {
      "inputs": [
        {
          "internalType": "string",
          "name": "_LeagueId",
          "type": "string"
        }
      ],
      "name": "calculateScore",
      "outputs": [],
      "stateMutability": "nonpayable",
      "type": "function"
    },
    {
      "inputs": [
        {
          "internalType": "address",
          "name": "_newOwner",
          "type": "address"
        }
      ],
      "name": "changeOwner",
      "outputs": [],
      "stateMutability": "nonpayable",
      "type": "function"
    },
    {
      "inputs": [
        {
          "internalType": "string",
          "name": "_LeagueId",
          "type": "string"
        }
      ],
      "name": "endLeague",
      "outputs": [],
      "stateMutability": "nonpayable",
      "type": "function"
    },
    {
      "inputs": [
        {
          "internalType": "string",
          "name": "_LeagueId",
          "type": "string"
        },
        {
          "internalType": "string",
          "name": "_TeamId",
          "type": "string"
        }
      ],
      "name": "getAllPlayerAddrFromOneTeam",
      "outputs": [
        {
          "internalType": "address[]",
          "name": "",
          "type": "address[]"
        }
      ],
      "stateMutability": "view",
      "type": "function"
    },
    {
      "inputs": [
        {
          "internalType": "string",
          "name": "_LeagueId",
          "type": "string"
        },
        {
          "internalType": "string",
          "name": "_TeamId",
          "type": "string"
        }
      ],
      "name": "getBestPlayers",
      "outputs": [
        {
          "internalType": "address[]",
          "name": "",
          "type": "address[]"
        }
      ],
      "stateMutability": "view",
      "type": "function"
    },
    {
      "inputs": [
        {
          "internalType": "string",
          "name": "_LeagueId",
          "type": "string"
        }
      ],
      "name": "getBestTeams",
      "outputs": [
        {
          "internalType": "string[]",
          "name": "",
          "type": "string[]"
        }
      ],
      "stateMutability": "view",
      "type": "function"
    },
    {
      "inputs": [
        {
          "internalType": "string",
          "name": "_LeagueId",
          "type": "string"
        },
        {
          "internalType": "string",
          "name": "_TeamId",
          "type": "string"
        },
        {
          "internalType": "string",
          "name": "_matchId",
          "type": "string"
        }
      ],
      "name": "getForecast",
      "outputs": [
        {
          "internalType": "string[2]",
          "name": "",
          "type": "string[2]"
        },
        {
          "internalType": "uint256[2]",
          "name": "",
          "type": "uint256[2]"
        },
        {
          "internalType": "uint256[2]",
          "name": "",
          "type": "uint256[2]"
        },
        {
          "internalType": "uint256",
          "name": "",
          "type": "uint256"
        },
        {
          "internalType": "uint256",
          "name": "",
          "type": "uint256"
        },
        {
          "internalType": "enum PetitProno.Time",
          "name": "",
          "type": "uint8"
        },
        {
          "internalType": "bool",
          "name": "",
          "type": "bool"
        }
      ],
      "stateMutability": "view",
      "type": "function"
    },
    {
      "inputs": [
        {
          "internalType": "string",
          "name": "_LeagueId",
          "type": "string"
        },
        {
          "internalType": "string",
          "name": "_TeamId",
          "type": "string"
        }
      ],
      "name": "getForecastId",
      "outputs": [
        {
          "internalType": "string[]",
          "name": "",
          "type": "string[]"
        }
      ],
      "stateMutability": "view",
      "type": "function"
    },
    {
      "inputs": [
        {
          "internalType": "string",
          "name": "_LeagueId",
          "type": "string"
        },
        {
          "internalType": "string",
          "name": "_TeamId",
          "type": "string"
        },
        {
          "internalType": "string",
          "name": "_matchId",
          "type": "string"
        }
      ],
      "name": "getForecastPointNb",
      "outputs": [
        {
          "internalType": "uint256",
          "name": "",
          "type": "uint256"
        }
      ],
      "stateMutability": "view",
      "type": "function"
    },
    {
      "inputs": [
        {
          "internalType": "string",
          "name": "_LeagueId",
          "type": "string"
        }
      ],
      "name": "getFreeTeamFromOneLeague",
      "outputs": [
        {
          "internalType": "string[]",
          "name": "",
          "type": "string[]"
        }
      ],
      "stateMutability": "view",
      "type": "function"
    },
    {
      "inputs": [
        {
          "internalType": "string",
          "name": "_LeagueId",
          "type": "string"
        }
      ],
      "name": "getLeagueById",
      "outputs": [
        {
          "internalType": "string[3]",
          "name": "",
          "type": "string[3]"
        }
      ],
      "stateMutability": "view",
      "type": "function"
    },
    {
      "inputs": [],
      "name": "getLeaguesID",
      "outputs": [
        {
          "internalType": "string[]",
          "name": "",
          "type": "string[]"
        }
      ],
      "stateMutability": "view",
      "type": "function"
    },
    {
      "inputs": [
        {
          "internalType": "string",
          "name": "_LeagueId",
          "type": "string"
        }
      ],
      "name": "getMyTeamFromOneLeague",
      "outputs": [
        {
          "internalType": "string[]",
          "name": "",
          "type": "string[]"
        }
      ],
      "stateMutability": "view",
      "type": "function"
    },
    {
      "inputs": [
        {
          "internalType": "string",
          "name": "_LeagueId",
          "type": "string"
        },
        {
          "internalType": "string",
          "name": "_TeamId",
          "type": "string"
        },
        {
          "internalType": "string",
          "name": "_matchId",
          "type": "string"
        }
      ],
      "name": "getNFTMint",
      "outputs": [
        {
          "internalType": "enum PetitProno.NFT_Mint",
          "name": "",
          "type": "uint8"
        }
      ],
      "stateMutability": "view",
      "type": "function"
    },
    {
      "inputs": [
        {
          "internalType": "string",
          "name": "_LeagueId",
          "type": "string"
        },
        {
          "internalType": "string",
          "name": "_TeamId",
          "type": "string"
        },
        {
          "internalType": "address",
          "name": "_walletId",
          "type": "address"
        }
      ],
      "name": "getPlayerInfo",
      "outputs": [
        {
          "internalType": "string",
          "name": "",
          "type": "string"
        },
        {
          "internalType": "uint256",
          "name": "",
          "type": "uint256"
        },
        {
          "internalType": "enum PetitProno.NFT_Mint[3]",
          "name": "",
          "type": "uint8[3]"
        },
        {
          "internalType": "enum PetitProno.NFT_Mint",
          "name": "",
          "type": "uint8"
        }
      ],
      "stateMutability": "view",
      "type": "function"
    },
    {
      "inputs": [
        {
          "internalType": "string",
          "name": "_LeagueId",
          "type": "string"
        }
      ],
      "name": "getTeamsIdFromOneLeague",
      "outputs": [
        {
          "internalType": "string[]",
          "name": "",
          "type": "string[]"
        }
      ],
      "stateMutability": "view",
      "type": "function"
    },
    {
      "inputs": [
        {
          "internalType": "string",
          "name": "_LeagueId",
          "type": "string"
        },
        {
          "internalType": "string",
          "name": "_TeamId",
          "type": "string"
        }
      ],
      "name": "getTeamsInfos",
      "outputs": [
        {
          "internalType": "string[3]",
          "name": "",
          "type": "string[3]"
        }
      ],
      "stateMutability": "view",
      "type": "function"
    },
    {
      "inputs": [
        {
          "internalType": "string",
          "name": "_LeagueId",
          "type": "string"
        }
      ],
      "name": "getTime",
      "outputs": [
        {
          "internalType": "enum PetitProno.Time",
          "name": "",
          "type": "uint8"
        }
      ],
      "stateMutability": "view",
      "type": "function"
    },
    {
      "inputs": [],
      "name": "owner",
      "outputs": [
        {
          "internalType": "address",
          "name": "",
          "type": "address"
        }
      ],
      "stateMutability": "view",
      "type": "function"
    },
    {
      "inputs": [
        {
          "internalType": "string",
          "name": "_LeagueId",
          "type": "string"
        },
        {
          "internalType": "string",
          "name": "_TeamId",
          "type": "string"
        },
        {
          "internalType": "address",
          "name": "_walletId",
          "type": "address"
        },
        {
          "internalType": "string",
          "name": "_matchId",
          "type": "string"
        },
        {
          "internalType": "uint256",
          "name": "_PointNb",
          "type": "uint256"
        }
      ],
      "name": "setForecastPointNb",
      "outputs": [],
      "stateMutability": "nonpayable",
      "type": "function"
    },
    {
      "inputs": [
        {
          "internalType": "string",
          "name": "_LeagueId",
          "type": "string"
        },
        {
          "internalType": "string",
          "name": "_TeamId",
          "type": "string"
        },
        {
          "internalType": "string",
          "name": "_matchId",
          "type": "string"
        },
        {
          "internalType": "uint256[2]",
          "name": "_prono",
          "type": "uint256[2]"
        }
      ],
      "name": "setForecastProno",
      "outputs": [],
      "stateMutability": "nonpayable",
      "type": "function"
    },
    {
      "inputs": [
        {
          "internalType": "string",
          "name": "_LeagueId",
          "type": "string"
        },
        {
          "internalType": "string",
          "name": "_matchId",
          "type": "string"
        },
        {
          "internalType": "uint256[2]",
          "name": "_result",
          "type": "uint256[2]"
        }
      ],
      "name": "setForecastResult",
      "outputs": [],
      "stateMutability": "nonpayable",
      "type": "function"
    },
    {
      "inputs": [
        {
          "internalType": "string",
          "name": "_LeagueId",
          "type": "string"
        },
        {
          "internalType": "string",
          "name": "_TeamId",
          "type": "string"
        },
        {
          "internalType": "string",
          "name": "_matchId",
          "type": "string"
        }
      ],
      "name": "setNFTMint",
      "outputs": [],
      "stateMutability": "nonpayable",
      "type": "function"
    },
    {
      "inputs": [
        {
          "internalType": "string",
          "name": "_LeagueId",
          "type": "string"
        },
        {
          "internalType": "string",
          "name": "_TeamId",
          "type": "string"
        }
      ],
      "name": "updateScore",
      "outputs": [],
      "stateMutability": "nonpayable",
      "type": "function"
    },
    {
      "inputs": [
        {
          "internalType": "string",
          "name": "_LeagueId",
          "type": "string"
        },
        {
          "internalType": "string",
          "name": "_matchId",
          "type": "string"
        }
      ],
      "name": "updateTime",
      "outputs": [],
      "stateMutability": "nonpayable",
      "type": "function"
    }
  ],
  "bytecode": "0x608060405234801561001057600080fd5b50600080546001600160a01b0319163317905561612f80620000336000396000f3fe608060405234801561001057600080fd5b50600436106102065760003560e01c80638da5cb5b1161011a578063b5811303116100ad578063d73fd5481161007c578063d73fd548146104ae578063f10efc50146104c1578063f399684a146104d4578063fb97e9be146104f5578063ff08464a1461050857600080fd5b8063b581130314610455578063c34901d914610468578063d533b2e31461047b578063d5e79a131461049b57600080fd5b8063a9b756ce116100e9578063a9b756ce14610407578063b0a5e4bd1461041a578063b1447e9f14610422578063b359cedd1461043557600080fd5b80638da5cb5b146103a357806393e353f3146103ce57806395bdb510146103e1578063a6f9dae1146103f457600080fd5b8063513a7beb1161019d57806368fe5e771161016c57806368fe5e771461034457806375c253771461035757806379a1cf251461036a5780638760bb5f1461037d5780638a3baacd1461039057600080fd5b8063513a7beb146102de578063581e567f146102fe5780636808efb214610311578063682c70e71461032457600080fd5b806323e2fdf8116101d957806323e2fdf81461027f57806335e35a4d146102925780633cdf244b146102b857806345c7a745146102cb57600080fd5b8063061fa93f1461020b5780630637fbad146102345780630a59169a146102495780631374c5d91461026c575b600080fd5b61021e610219366004615463565b61051b565b60405161022b91906154c6565b60405180910390f35b610247610242366004615513565b6105b9565b005b61025c61025736600461556b565b610855565b60405161022b9493929190615658565b61024761027a3660046156ba565b610aef565b61024761028d366004615463565b610c67565b6102a56102a03660046156ba565b611017565b60405161022b9796959493929190615774565b6102476102c636600461580a565b6112a5565b6102476102d93660046156ba565b6113ca565b6102f16102ec366004615463565b612033565b60405161022b91906158db565b61024761030c366004615513565b6121f5565b61024761031f366004615928565b612774565b610337610332366004615513565b612803565b60405161022b91906159c8565b610247610352366004615513565b6128fd565b610247610365366004615a2a565b612eb7565b610247610378366004615513565b613622565b61024761038b366004615b0f565b61367e565b6102f161039e366004615513565b6137ff565b6000546103b6906001600160a01b031681565b6040516001600160a01b03909116815260200161022b565b6103376103dc366004615463565b613984565b6102476103ef366004615463565b613aa6565b610247610402366004615b7b565b613e02565b6102476104153660046156ba565b613e3b565b610337613f5f565b610247610430366004615bed565b614038565b610448610443366004615513565b6143e1565b60405161022b9190615c58565b61021e610463366004615463565b61440f565b610337610476366004615513565b6144aa565b61048e6104893660046156ba565b614599565b60405161022b9190615c66565b6103376104a9366004615513565b61461f565b6102476104bc366004615c74565b614931565b6103376104cf366004615513565b614a38565b6104e76104e23660046156ba565b614cd6565b60405190815260200161022b565b610247610503366004615d0d565b614d52565b610247610516366004615463565b61503b565b606060028360405161052d9190615da5565b90815260200160405180910390206006018260405161054c9190615da5565b90815260408051918290036020908101832060030180548083028501830190935282845291908301828280156105ab57602002820191906000526020600020905b81546001600160a01b0316815260019091019060200180831161058d575b505050505090505b92915050565b60005b6002826040516105cc9190615da5565b908152604051908190036020019020600301548110156108515760006002836040516105f89190615da5565b9081526020016040518091039020600301828154811061061a5761061a615dc1565b90600052602060002001805461062f90615dd7565b80601f016020809104026020016040519081016040528092919081815260200182805461065b90615dd7565b80156106a85780601f1061067d576101008083540402835291602001916106a8565b820191906000526020600020905b81548152906001019060200180831161068b57829003601f168201915b5050505050905060006002846040516106c19190615da5565b9081526020016040518091039020600601826040516106e09190615da5565b9081526040519081900360200190206002015490506000805b828110156107f65760006002876040516107139190615da5565b9081526020016040518091039020600601856040516107329190615da5565b9081526020016040518091039020600201828154811061075457610754615dc1565b6000918252602090912001546040516001600160a01b03909116915060029061077e908990615da5565b90815260200160405180910390206006018560405161079d9190615da5565b90815260200160405180910390206005016000826001600160a01b03166001600160a01b0316815260200190815260200160002060010154836107e09190615e27565b92505080806107ee90615e3a565b9150506106f9565b50806002866040516108089190615da5565b9081526020016040518091039020600601846040516108279190615da5565b9081526040519081900360200190206004015550829150610849905081615e3a565b9150506105bc565b5050565b6060600061086161515c565b6000806002886040516108749190615da5565b9081526020016040518091039020600601876040516108939190615da5565b90815260200160405180910390206005016000876001600160a01b03166001600160a01b0316815260200190815260200160002060000180546108d590615dd7565b80601f016020809104026020016040519081016040528092919081815260200182805461090190615dd7565b801561094e5780601f106109235761010080835404028352916020019161094e565b820191906000526020600020905b81548152906001019060200180831161093157829003601f168201915b5050505050905060006002896040516109679190615da5565b9081526020016040518091039020600601886040516109869190615da5565b90815260200160405180910390206005016000886001600160a01b03166001600160a01b03168152602001908152602001600020600101549050600060028a6040516109d29190615da5565b9081526020016040518091039020600601896040516109f19190615da5565b90815260408051602092819003830181206001600160a01b038c166000908152600590910190935281832060608201928390529092600391820192908390855b82829054906101000a900460ff166002811115610a5057610a5061562e565b815260206001928301818104948501949093039092029101808411610a3157905050505050509050600060028b604051610a8a9190615da5565b90815260200160405180910390206006018a604051610aa99190615da5565b90815260408051602092819003830190206001600160a01b039b909b1660009081526005909b0190915290982060040154929a919950975060ff90911695509350505050565b6001600284604051610b019190615da5565b908152602001604051809103902060060183604051610b209190615da5565b90815260408051918290036020908101832033600090815260059182019092529190200190610b50908490615da5565b9081526040519081900360200190206008015460ff610100909104166002811115610b7d57610b7d61562e565b14610bcf5760405162461bcd60e51b815260206004820152601760248201527f4e4654206d696e74206973206e6f7420656e61626c656400000000000000000060448201526064015b60405180910390fd5b60028084604051610be09190615da5565b908152602001604051809103902060060183604051610bff9190615da5565b90815260408051918290036020908101832033600090815260059182019092529190200190610c2f908490615da5565b908152604051908190036020019020600801805461ff001916610100836002811115610c5d57610c5d61562e565b0217905550505050565b60005b600283604051610c7a9190615da5565b90815260405190819003602001902060030154811015611012576000600284604051610ca69190615da5565b90815260200160405180910390206003018281548110610cc857610cc8615dc1565b906000526020600020018054610cdd90615dd7565b80601f0160208091040260200160405190810160405280929190818152602001828054610d0990615dd7565b8015610d565780601f10610d2b57610100808354040283529160200191610d56565b820191906000526020600020905b815481529060010190602001808311610d3957829003601f168201915b5050505050905060005b600285604051610d709190615da5565b908152602001604051809103902060060182604051610d8f9190615da5565b90815260405190819003602001902060020154811015610ffd576000600286604051610dbb9190615da5565b908152602001604051809103902060060183604051610dda9190615da5565b90815260200160405180910390206002018281548110610dfc57610dfc615dc1565b6000918252602090912001546040516001600160a01b039091169150600290610e26908890615da5565b908152602001604051809103902060060183604051610e459190615da5565b90815260408051918290036020908101832033600090815260059182019092529190200190610e75908790615da5565b908152602001604051809103902060070154421015610f3e576000600287604051610ea09190615da5565b908152602001604051809103902060060184604051610ebf9190615da5565b90815260200160405180910390206005016000836001600160a01b03166001600160a01b0316815260200190815260200160002060050186604051610f049190615da5565b908152604051908190036020019020600801805462ff0000191662010000836001811115610f3457610f3461562e565b0217905550610fea565b6001600287604051610f509190615da5565b908152602001604051809103902060060184604051610f6f9190615da5565b90815260200160405180910390206005016000836001600160a01b03166001600160a01b0316815260200190815260200160002060050186604051610fb49190615da5565b908152604051908190036020019020600801805462ff0000191662010000836001811115610fe457610fe461562e565b02179055505b5080610ff581615e3a565b915050610d60565b5050808061100a90615e3a565b915050610c6a565b505050565b61101f61517a565b6110276151a1565b61102f6151a1565b600080600080600060028b6040516110479190615da5565b90815260200160405180910390206006018a6040516110669190615da5565b90815260408051918290036020908101832033600090815260059182019092529190200190611096908b90615da5565b9081526040805191829003602001822061014083019091528161010081018260026000835b8282101561115e5783820180546110d190615dd7565b80601f01602080910402602001604051908101604052809291908181526020018280546110fd90615dd7565b801561114a5780601f1061111f5761010080835404028352916020019161114a565b820191906000526020600020905b81548152906001019060200180831161112d57829003601f168201915b5050505050815260200190600101906110bb565b5050509082525060408051808201918290526020909201919060028481019182845b815481526020019060010190808311611180575050509183525050604080518082019182905260209092019190600484019060029082845b8154815260200190600101908083116111b85750505091835250506006820154602082015260078201546040820152600882015460ff808216151560608401526080909201916101009091041660028111156112165761121661562e565b60028111156112275761122761562e565b81526020016008820160029054906101000a900460ff16600181111561124f5761124f61562e565b60018111156112605761126061562e565b815250509050806000015181602001518260400151836060015184608001518560e001518660a001519750975097509750975097509750509397509397509397909450565b826002866040516112b69190615da5565b9081526020016040518091039020600601856040516112d59190615da5565b908152604051908190036020019020906112ef9082615e99565b50806002866040516113019190615da5565b9081526020016040518091039020600601856040516113209190615da5565b9081526020016040518091039020600101908161133d9190615e99565b5060028560405161134e9190615da5565b90815260405160209181900382019020600301805460018101825560009182529190200161137c8582615e99565b506113888585846113ca565b7fe3c7ad3e0a7039496bfdf53f2459da724adffa66091605f5a41831a1b318bdaa8585856040516113bb93929190615f58565b60405180910390a15050505050565b806002846040516113db9190615da5565b9081526020016040518091039020600601836040516113fa9190615da5565b908152604080516020928190038301902033600090815260059091019092529020906114269082615e99565b5060006002846040516114399190615da5565b9081526020016040518091039020600601836040516114589190615da5565b908152604080516020928190038301902033600090815260059091019092529020600301805460ff191660018360028111156114965761149661562e565b021790555060006002846040516114ad9190615da5565b9081526020016040518091039020600601836040516114cc9190615da5565b908152604080516020928190038301902033600090815260059091019092529020600301805461ff00191661010083600281111561150c5761150c61562e565b021790555060006002846040516115239190615da5565b9081526020016040518091039020600601836040516115429190615da5565b908152604080516020928190038301902033600090815260059091019092529020600301805462ff00001916620100008360028111156115845761158461562e565b0217905550600060028460405161159b9190615da5565b9081526020016040518091039020600601836040516115ba9190615da5565b908152604080516020928190038301902033600090815260059091019092529020600401805460ff191660018360028111156115f8576115f861562e565b021790555060028360405161160d9190615da5565b90815260200160405180910390206006018260405161162c9190615da5565b908152604051908190036020908101822060029081018054600181018255600091825292902090910180546001600160a01b0319163317905590611671908590615da5565b9081526040516020918190038201812061168d92909101615f9b565b60405160208183030381529060405280519060200120600014611fba5760006002846040516116bc9190615da5565b90815260405190819003602001902080546116d690615dd7565b80601f016020809104026020016040519081016040528092919081815260200182805461170290615dd7565b801561174f5780601f106117245761010080835404028352916020019161174f565b820191906000526020600020905b81548152906001019060200180831161173257829003601f168201915b5050505050905060005b6002856040516117699190615da5565b9081526020016040518091039020600601826040516117889190615da5565b9081526040805160209281900383019020600080546001600160a01b031681526005909101909252902060020154811015611fb75760006002866040516117cf9190615da5565b9081526020016040518091039020600601836040516117ee9190615da5565b9081526040805160209281900383019020600080546001600160a01b031681526005909101909252902060020180548390811061182d5761182d615dc1565b90600052602060002001805461184290615dd7565b80601f016020809104026020016040519081016040528092919081815260200182805461186e90615dd7565b80156118bb5780601f10611890576101008083540402835291602001916118bb565b820191906000526020600020905b81548152906001019060200180831161189e57829003601f168201915b5050505050905060006002876040516118d49190615da5565b9081526020016040518091039020600601846040516118f39190615da5565b908152604080519182900360209081018320600080546001600160a01b031681526005918201909252919020019061192c908490615da5565b9081526040805191829003602001822061014083019091528161010081018260026000835b828210156119f457838201805461196790615dd7565b80601f016020809104026020016040519081016040528092919081815260200182805461199390615dd7565b80156119e05780601f106119b5576101008083540402835291602001916119e0565b820191906000526020600020905b8154815290600101906020018083116119c357829003601f168201915b505050505081526020019060010190611951565b5050509082525060408051808201918290526020909201919060028481019182845b815481526020019060010190808311611a16575050509183525050604080518082019182905260209092019190600484019060029082845b815481526020019060010190808311611a4e5750505091835250506006820154602082015260078201546040820152600882015460ff80821615156060840152608090920191610100909104166002811115611aac57611aac61562e565b6002811115611abd57611abd61562e565b81526020016008820160029054906101000a900460ff166001811115611ae557611ae561562e565b6001811115611af657611af661562e565b815250509050600287604051611b0c9190615da5565b908152602001604051809103902060060186604051611b2b9190615da5565b908152604080516020928190038301902033600090815260059091018352908120600201805460018101825590825291902001611b688382615e99565b508051604051600290611b7c908a90615da5565b908152602001604051809103902060060187604051611b9b9190615da5565b90815260408051918290036020908101832033600090815260059182019092529190200190611bcb908590615da5565b908152604051908190036020019020611be59160026151bf565b50604080518082018252606480825260208201529051600290611c09908a90615da5565b908152602001604051809103902060060187604051611c289190615da5565b90815260408051918290036020908101832033600090815260059182019092529190200190611c58908590615da5565b9081526020016040518091039020600201906002611c77929190615208565b508060400151600288604051611c8d9190615da5565b908152602001604051809103902060060187604051611cac9190615da5565b90815260408051918290036020908101832033600090815260059182019092529190200190611cdc908590615da5565b9081526020016040518091039020600401906002611cfb929190615247565b506000600288604051611d0e9190615da5565b908152602001604051809103902060060187604051611d2d9190615da5565b90815260408051918290036020908101832033600090815260059182019092529190200190611d5d908590615da5565b9081526020016040518091039020600601819055508060800151600288604051611d879190615da5565b908152602001604051809103902060060187604051611da69190615da5565b90815260408051918290036020908101832033600090815260059182019092529190200190611dd6908590615da5565b9081526020016040518091039020600701819055508060a00151600288604051611e009190615da5565b908152602001604051809103902060060187604051611e1f9190615da5565b90815260408051918290036020908101832033600090815260059182019092529190200190611e4f908590615da5565b908152604051908190036020018120600801805492151560ff199093169290921790915560c082015190600290611e87908a90615da5565b908152602001604051809103902060060187604051611ea69190615da5565b90815260408051918290036020908101832033600090815260059182019092529190200190611ed6908590615da5565b908152604051908190036020019020600801805461ff001916610100836002811115611f0457611f0461562e565b02179055508060e00151600288604051611f1e9190615da5565b908152602001604051809103902060060187604051611f3d9190615da5565b90815260408051918290036020908101832033600090815260059182019092529190200190611f6d908590615da5565b908152604051908190036020019020600801805462ff0000191662010000836001811115611f9d57611f9d61562e565b021790555050508080611faf90615e3a565b915050611759565b50505b7fe3c7ad3e0a7039496bfdf53f2459da724adffa66091605f5a41831a1b318bdaa8383600286604051611fed9190615da5565b90815260200160405180910390206006018560405161200c9190615da5565b908152604051908190036020018120612026939291616011565b60405180910390a1505050565b61203b615275565b600060028460405161204d9190615da5565b90815260200160405180910390206006018360405161206c9190615da5565b908152604051908190036020019020805461208690615dd7565b80601f01602080910402602001604051908101604052809291908181526020018280546120b290615dd7565b80156120ff5780601f106120d4576101008083540402835291602001916120ff565b820191906000526020600020905b8154815290600101906020018083116120e257829003601f168201915b5050505050905060006002856040516121189190615da5565b9081526020016040518091039020600601846040516121379190615da5565b9081526020016040518091039020600101805461215390615dd7565b80601f016020809104026020016040519081016040528092919081815260200182805461217f90615dd7565b80156121cc5780601f106121a1576101008083540402835291602001916121cc565b820191906000526020600020905b8154815290600101906020018083116121af57829003601f168201915b505060408051606081018252988952602089019690965250505091840191909152509092915050565b6121fe816105b9565b60006002826040516122109190615da5565b9081526040519081900360200190206003015490506000816001600160401b0381111561223f5761223f615399565b60405190808252806020026020018201604052801561227257816020015b606081526020019060019003908161225d5790505b50905060005b8281101561237b5760006002856040516122929190615da5565b908152602001604051809103902060030182815481106122b4576122b4615dc1565b9060005260206000200180546122c990615dd7565b80601f01602080910402602001604051908101604052809291908181526020018280546122f590615dd7565b80156123425780601f1061231757610100808354040283529160200191612342565b820191906000526020600020905b81548152906001019060200180831161232557829003601f168201915b505050505090508083838151811061235c5761235c615dc1565b602002602001018190525050808061237390615e3a565b915050612278565b5060005b828110156124e65760005b838110156124d3576002856040516123a29190615da5565b90815260200160405180910390206006018382815181106123c5576123c5615dc1565b60200260200101516040516123da9190615da5565b9081526020016040518091039020600401546002866040516123fc9190615da5565b908152602001604051809103902060060184848151811061241f5761241f615dc1565b60200260200101516040516124349190615da5565b90815260200160405180910390206004015411156124c157600083838151811061246057612460615dc1565b6020026020010151905083828151811061247c5761247c615dc1565b602002602001015184848151811061249657612496615dc1565b6020026020010181905250808483815181106124b4576124b4615dc1565b6020026020010181905250505b806124cb81615e3a565b91505061238a565b50806124de81615e3a565b91505061237f565b5060408051600380825260808201909252600091816020015b60608152602001906001900390816124ff57905050905060005b60038110801561252857508381105b156127375782818151811061253f5761253f615dc1565b602002602001015182828151811061255957612559615dc1565b602002602001018190525060005b6002866040516125779190615da5565b908152602001604051809103902060060184838151811061259a5761259a615dc1565b60200260200101516040516125af9190615da5565b908152604051908190036020019020600201548110156127245760006002876040516125db9190615da5565b90815260200160405180910390206006018584815181106125fe576125fe615dc1565b60200260200101516040516126139190615da5565b9081526020016040518091039020600201828154811061263557612635615dc1565b6000918252602090912001546040516001600160a01b039091169150600190600290612662908a90615da5565b908152602001604051809103902060060186858151811061268557612685615dc1565b602002602001015160405161269a9190615da5565b90815260200160405180910390206005016000836001600160a01b03166001600160a01b0316815260200190815260200160002060030184600381106126e2576126e2615dc1565b602091828204019190066101000a81548160ff0219169083600281111561270b5761270b61562e565b021790555050808061271c90615e3a565b915050612567565b508061272f81615e3a565b915050612519565b816002866040516127489190615da5565b9081526020016040518091039020600501908051906020019061276c92919061528f565b505050505050565b806002866040516127859190615da5565b9081526020016040518091039020600601856040516127a49190615da5565b90815260200160405180910390206005016000856001600160a01b03166001600160a01b03168152602001908152602001600020600501836040516127e99190615da5565b908152604051908190036020019020600601555050505050565b60606002826040516128159190615da5565b9081526020016040518091039020600501805480602002602001604051908101604052809291908181526020016000905b828210156128f257838290600052602060002001805461286590615dd7565b80601f016020809104026020016040519081016040528092919081815260200182805461289190615dd7565b80156128de5780601f106128b3576101008083540402835291602001916128de565b820191906000526020600020905b8154815290600101906020018083116128c157829003601f168201915b505050505081526020019060010190612846565b505050509050919050565b60005b6002826040516129109190615da5565b9081526040519081900360200190206003015481101561085157600060028360405161293c9190615da5565b9081526020016040518091039020600301828154811061295e5761295e615dc1565b90600052602060002001805461297390615dd7565b80601f016020809104026020016040519081016040528092919081815260200182805461299f90615dd7565b80156129ec5780601f106129c1576101008083540402835291602001916129ec565b820191906000526020600020905b8154815290600101906020018083116129cf57829003601f168201915b505050505090506000600284604051612a059190615da5565b908152602001604051809103902060060182604051612a249190615da5565b9081526040519081900360200190206002015490506000816001600160401b03811115612a5357612a53615399565b604051908082528060200260200182016040528015612a7c578160200160208202803683370190505b50905060005b82811015612b3557600286604051612a9a9190615da5565b908152602001604051809103902060060184604051612ab99190615da5565b90815260200160405180910390206002018181548110612adb57612adb615dc1565b9060005260206000200160009054906101000a90046001600160a01b0316828281518110612b0b57612b0b615dc1565b6001600160a01b039092166020928302919091019091015280612b2d81615e3a565b915050612a82565b5060005b82811015612d165760005b83811015612d0357600287604051612b5c9190615da5565b908152602001604051809103902060060185604051612b7b9190615da5565b90815260200160405180910390206005016000848381518110612ba057612ba0615dc1565b60200260200101516001600160a01b03166001600160a01b0316815260200190815260200160002060010154600288604051612bdc9190615da5565b908152602001604051809103902060060186604051612bfb9190615da5565b90815260200160405180910390206005016000858581518110612c2057612c20615dc1565b60200260200101516001600160a01b03166001600160a01b03168152602001908152602001600020600101541115612cf1576000838381518110612c6657612c66615dc1565b60200260200101519050838281518110612c8257612c82615dc1565b6020026020010151848481518110612c9c57612c9c615dc1565b60200260200101906001600160a01b031690816001600160a01b03168152505080848381518110612ccf57612ccf615dc1565b60200260200101906001600160a01b031690816001600160a01b031681525050505b80612cfb81615e3a565b915050612b44565b5080612d0e81615e3a565b915050612b39565b50604080516003808252608082019092526000916020820160608036833701905050905060005b600381108015612d4c57508381105b15612e4a57828181518110612d6357612d63615dc1565b6020026020010151828281518110612d7d57612d7d615dc1565b60200260200101906001600160a01b031690816001600160a01b0316815250506001600288604051612daf9190615da5565b908152602001604051809103902060060186604051612dce9190615da5565b90815260200160405180910390206005016000858481518110612df357612df3615dc1565b6020908102919091018101516001600160a01b03168252810191909152604001600020600401805460ff19166001836002811115612e3357612e3361562e565b021790555080612e4281615e3a565b915050612d3d565b81600288604051612e5b9190615da5565b908152602001604051809103902060060186604051612e7a9190615da5565b90815260200160405180910390206003019080519060200190612e9e9291906152d5565b5050505050508080612eaf90615e3a565b915050612900565b6000546001600160a01b03163314612ece57600080fd5b80804210612f1e5760405162461bcd60e51b815260206004820152601e60248201527f456e642064617465206d75737420626520696e207468652066757475726500006044820152606401610bc6565b60005b600286604051612f319190615da5565b908152604051908190036020019020600301548110156135f0576000600287604051612f5d9190615da5565b90815260200160405180910390206003018281548110612f7f57612f7f615dc1565b906000526020600020018054612f9490615dd7565b80601f0160208091040260200160405190810160405280929190818152602001828054612fc090615dd7565b801561300d5780601f10612fe25761010080835404028352916020019161300d565b820191906000526020600020905b815481529060010190602001808311612ff057829003601f168201915b5050505050905060005b6002886040516130279190615da5565b9081526020016040518091039020600601826040516130469190615da5565b908152604051908190036020019020600201548110156135db5760006002896040516130729190615da5565b9081526020016040518091039020600601836040516130919190615da5565b908152602001604051809103902060020182815481106130b3576130b3615dc1565b600091825260208220015490546001600160a01b03918216925016811480156130e657506000546001600160a01b031633145b15613118578260028a6040516130fc9190615da5565b908152604051908190036020019020906131169082615e99565b505b6002896040516131289190615da5565b9081526020016040518091039020600601836040516131479190615da5565b90815260408051602092819003830190206001600160a01b03841660009081526005909101835290812060020180546001810182559082529190200161318d8982615e99565b508660028a60405161319f9190615da5565b9081526020016040518091039020600601846040516131be9190615da5565b90815260200160405180910390206005016000836001600160a01b03166001600160a01b03168152602001908152602001600020600501896040516132039190615da5565b90815260405190819003602001902061321d9160026151bf565b50604080518082018252606480825260208201529051600290613241908c90615da5565b9081526020016040518091039020600601846040516132609190615da5565b90815260200160405180910390206005016000836001600160a01b03166001600160a01b03168152602001908152602001600020600501896040516132a59190615da5565b90815260200160405180910390206002019060026132c4929190615208565b50600060028a6040516132d79190615da5565b9081526020016040518091039020600601846040516132f69190615da5565b90815260200160405180910390206005016000836001600160a01b03166001600160a01b031681526020019081526020016000206005018960405161333b9190615da5565b9081526020016040518091039020600601819055508560028a6040516133619190615da5565b9081526020016040518091039020600601846040516133809190615da5565b90815260200160405180910390206005016000836001600160a01b03166001600160a01b03168152602001908152602001600020600501896040516133c59190615da5565b908152602001604051809103902060070181905550600060028a6040516133ec9190615da5565b90815260200160405180910390206006018460405161340b9190615da5565b90815260200160405180910390206005016000836001600160a01b03166001600160a01b03168152602001908152602001600020600501896040516134509190615da5565b908152604051908190036020018120600801805492151560ff1990931692909217909155600090600290613485908c90615da5565b9081526020016040518091039020600601846040516134a49190615da5565b90815260200160405180910390206005016000836001600160a01b03166001600160a01b03168152602001908152602001600020600501896040516134e99190615da5565b908152604051908190036020019020600801805461ff0019166101008360028111156135175761351761562e565b0217905550600060028a60405161352e9190615da5565b90815260200160405180910390206006018460405161354d9190615da5565b90815260200160405180910390206005016000836001600160a01b03166001600160a01b03168152602001908152602001600020600501896040516135929190615da5565b908152604051908190036020019020600801805462ff00001916620100008360018111156135c2576135c261562e565b02179055505080806135d390615e3a565b915050613017565b505080806135e890615e3a565b915050612f21565b507f4e80c7b6db5296234afebf7d99ec0eb65b0f2f38ff5dd3e26caba99d095e8a2285856040516113bb9291906160c1565b6000546001600160a01b0316331461363957600080fd5b600160028260405161364b9190615da5565b908152604051908190036020019020600401805460ff1916600183818111156136765761367661562e565b021790555050565b60016002846040516136909190615da5565b9081526020016040518091039020600601836040516136af9190615da5565b90815260200160405180910390206005016000336001600160a01b03166001600160a01b0316815260200190815260200160002060030182600381106136f7576136f7615dc1565b602081049091015460ff601f9092166101000a900416600281111561371e5761371e61562e565b1461375e5760405162461bcd60e51b815260206004820152601060248201526f13919508185b1c9958591e481b5a5b9d60821b6044820152606401610bc6565b6002808460405161376f9190615da5565b90815260200160405180910390206006018360405161378e9190615da5565b90815260200160405180910390206005016000336001600160a01b03166001600160a01b0316815260200190815260200160002060030182600381106137d6576137d6615dc1565b602091828204019190066101000a81548160ff02191690836002811115610c5d57610c5d61562e565b613807615275565b60006002836040516138199190615da5565b9081526020016040518091039020600101805461383590615dd7565b80601f016020809104026020016040519081016040528092919081815260200182805461386190615dd7565b80156138ae5780601f10613883576101008083540402835291602001916138ae565b820191906000526020600020905b81548152906001019060200180831161389157829003601f168201915b5050505050905060006002846040516138c79190615da5565b908152602001604051809103902060020180546138e390615dd7565b80601f016020809104026020016040519081016040528092919081815260200182805461390f90615dd7565b801561395c5780601f106139315761010080835404028352916020019161395c565b820191906000526020600020905b81548152906001019060200180831161393f57829003601f168201915b5050604080516060810182529889526020890196909652505050918401919091525090919050565b60606002836040516139969190615da5565b9081526020016040518091039020600601826040516139b59190615da5565b90815260408051918290036020908101832033600090815260059091018252828120600201805480840286018401909452838552929184015b82821015613a9a578382906000526020600020018054613a0d90615dd7565b80601f0160208091040260200160405190810160405280929190818152602001828054613a3990615dd7565b8015613a865780601f10613a5b57610100808354040283529160200191613a86565b820191906000526020600020905b815481529060010190602001808311613a6957829003601f168201915b5050505050815260200190600101906139ee565b50505050905092915050565b6000600283604051613ab89190615da5565b908152602001604051809103902060060182604051613ad79190615da5565b90815260405190819003602001902060020154905060005b81811015613dfc576000600285604051613b099190615da5565b908152602001604051809103902060060184604051613b289190615da5565b90815260200160405180910390206002018281548110613b4a57613b4a615dc1565b60009182526020822001546001600160a01b03169150805b600287604051613b729190615da5565b908152602001604051809103902060060186604051613b919190615da5565b90815260408051602092819003830190206001600160a01b03861660009081526005909101909252902060020154811015613d7b576000600288604051613bd89190615da5565b908152602001604051809103902060060187604051613bf79190615da5565b90815260200160405180910390206005016000856001600160a01b03166001600160a01b031681526020019081526020016000206002018281548110613c3f57613c3f615dc1565b906000526020600020018054613c5490615dd7565b80601f0160208091040260200160405190810160405280929190818152602001828054613c8090615dd7565b8015613ccd5780601f10613ca257610100808354040283529160200191613ccd565b820191906000526020600020905b815481529060010190602001808311613cb057829003601f168201915b50505050509050600288604051613ce49190615da5565b908152602001604051809103902060060187604051613d039190615da5565b90815260200160405180910390206005016000856001600160a01b03166001600160a01b0316815260200190815260200160002060050181604051613d489190615da5565b90815260200160405180910390206006015483613d659190615e27565b9250508080613d7390615e3a565b915050613b62565b5080600287604051613d8d9190615da5565b908152602001604051809103902060060186604051613dac9190615da5565b90815260200160405180910390206005016000846001600160a01b03166001600160a01b031681526020019081526020016000206001018190555050508080613df490615e3a565b915050613aef565b50505050565b6000546001600160a01b03163314613e1957600080fd5b600080546001600160a01b0319166001600160a01b0392909216919091179055565b6000546001600160a01b03163314613e5257600080fd5b81600284604051613e639190615da5565b90815260200160405180910390206001019081613e809190615e99565b5080600284604051613e929190615da5565b90815260200160405180910390206002019081613eaf9190615e99565b506000600284604051613ec29190615da5565b908152604051908190036020019020600401805460ff191660018381811115613eed57613eed61562e565b02179055506001805480820182556000919091527fb10e2d527612073b26eecdfd717e6a320cf44b4afac2b0732d9fcbe2b7fa0cf601613f2d8482615e99565b507f555b253affed0fbc45a98299974fb73cbb5e8e69293852d9bad2537ba127b19483836040516120269291906160c1565b60606001805480602002602001604051908101604052809291908181526020016000905b8282101561402f578382906000526020600020018054613fa290615dd7565b80601f0160208091040260200160405190810160405280929190818152602001828054613fce90615dd7565b801561401b5780601f10613ff05761010080835404028352916020019161401b565b820191906000526020600020905b815481529060010190602001808311613ffe57829003601f168201915b505050505081526020019060010190613f83565b50505050905090565b6140428383610c67565b60005b6002846040516140559190615da5565b90815260405190819003602001902060030154811015613dfc5760006002856040516140819190615da5565b908152602001604051809103902060030182815481106140a3576140a3615dc1565b9060005260206000200180546140b890615dd7565b80601f01602080910402602001604051908101604052809291908181526020018280546140e490615dd7565b80156141315780601f1061410657610100808354040283529160200191614131565b820191906000526020600020905b81548152906001019060200180831161411457829003601f168201915b5050505050905060005b60028660405161414b9190615da5565b90815260200160405180910390206006018260405161416a9190615da5565b908152604051908190036020019020600201548110156143cc5760006002876040516141969190615da5565b9081526020016040518091039020600601836040516141b59190615da5565b908152602001604051809103902060020182815481106141d7576141d7615dc1565b6000918252602090912001546040516001600160a01b039091169150600290614201908990615da5565b9081526020016040518091039020600601836040516142209190615da5565b90815260200160405180910390206005016000826001600160a01b03166001600160a01b03168152602001908152602001600020600501866040516142659190615da5565b9081526020016040518091039020600701544211156143b9578460028860405161428f9190615da5565b9081526020016040518091039020600601846040516142ae9190615da5565b90815260200160405180910390206005016000836001600160a01b03166001600160a01b03168152602001908152602001600020600501876040516142f39190615da5565b9081526020016040518091039020600401906002614312929190615247565b5061431f87848389614d52565b60016002886040516143319190615da5565b9081526020016040518091039020600601846040516143509190615da5565b90815260200160405180910390206005016000836001600160a01b03166001600160a01b03168152602001908152602001600020600501876040516143959190615da5565b908152604051908190036020019020600801805491151560ff199092169190911790555b50806143c481615e3a565b91505061413b565b505080806143d990615e3a565b915050614045565b60006002826040516143f39190615da5565b9081526040519081900360200190206004015460ff1692915050565b60606002836040516144219190615da5565b9081526020016040518091039020600601826040516144409190615da5565b90815260408051918290036020908101832060020180548083028501830190935282845291908301828280156105ab576020028201919060005260206000209081546001600160a01b0316815260019091019060200180831161058d575050505050905092915050565b60606002826040516144bc9190615da5565b9081526020016040518091039020600301805480602002602001604051908101604052809291908181526020016000905b828210156128f257838290600052602060002001805461450c90615dd7565b80601f016020809104026020016040519081016040528092919081815260200182805461453890615dd7565b80156145855780601f1061455a57610100808354040283529160200191614585565b820191906000526020600020905b81548152906001019060200180831161456857829003601f168201915b5050505050815260200190600101906144ed565b60006002846040516145ab9190615da5565b9081526020016040518091039020600601836040516145ca9190615da5565b908152604080519182900360209081018320336000908152600591820190925291902001906145fa908490615da5565b9081526040519081900360200190206008015460ff6101009091041690509392505050565b606060006002836040516146339190615da5565b9081526040519081900360200190206003015490506000816001600160401b0381111561466257614662615399565b60405190808252806020026020018201604052801561469557816020015b60608152602001906001900390816146805790505b5090506000805b838110156148815760006002876040516146b69190615da5565b908152602001604051809103902060030182815481106146d8576146d8615dc1565b9060005260206000200180546146ed90615dd7565b80601f016020809104026020016040519081016040528092919081815260200182805461471990615dd7565b80156147665780601f1061473b57610100808354040283529160200191614766565b820191906000526020600020905b81548152906001019060200180831161474957829003601f168201915b5050505050905060005b6002886040516147809190615da5565b90815260200160405180910390206006018260405161479f9190615da5565b9081526040519081900360200190206002015481101561486c57336001600160a01b03166002896040516147d39190615da5565b9081526020016040518091039020600601836040516147f29190615da5565b9081526020016040518091039020600201828154811061481457614814615dc1565b6000918252602090912001546001600160a01b03160361485a578185858151811061484157614841615dc1565b6020908102919091010152614857600185615e27565b93505b8061486481615e3a565b915050614770565b5050808061487990615e3a565b91505061469c565b506000816001600160401b0381111561489c5761489c615399565b6040519080825280602002602001820160405280156148cf57816020015b60608152602001906001900390816148ba5790505b50905060005b82811015614927578381815181106148ef576148ef615dc1565b602002602001015182828151811061490957614909615dc1565b6020026020010181905250808061491f90615e3a565b9150506148d5565b5095945050505050565b6002846040516149419190615da5565b9081526020016040518091039020600601836040516149609190615da5565b90815260408051918290036020908101832033600090815260059182019092529190200190614990908490615da5565b908152602001604051809103902060070154421015614a2e57806002856040516149ba9190615da5565b9081526020016040518091039020600601846040516149d99190615da5565b90815260408051918290036020908101832033600090815260059182019092529190200190614a09908590615da5565b9081526020016040518091039020600201906002614a28929190615247565b50613dfc565b613dfc8483610c67565b60606000614a458361461f565b905060008151600285604051614a5b9190615da5565b90815260405190819003602001902060030154614a7891906160e6565b6001600160401b03811115614a8f57614a8f615399565b604051908082528060200260200182016040528015614ac257816020015b6060815260200190600190039081614aad5790505b5090506000805b600286604051614ad99190615da5565b90815260405190819003602001902060030154811015614ccc576000805b8551811015614bbe57600288604051614b109190615da5565b90815260200160405180910390206003018381548110614b3257614b32615dc1565b90600052602060002001604051602001614b4c9190615f9b565b60405160208183030381529060405280519060200120868281518110614b7457614b74615dc1565b6020026020010151604051602001614b8c9190615da5565b6040516020818303038152906040528051906020012003614bac57600191505b80614bb681615e3a565b915050614af7565b50801515600003614cb957600287604051614bd99190615da5565b90815260200160405180910390206003018281548110614bfb57614bfb615dc1565b906000526020600020018054614c1090615dd7565b80601f0160208091040260200160405190810160405280929190818152602001828054614c3c90615dd7565b8015614c895780601f10614c5e57610100808354040283529160200191614c89565b820191906000526020600020905b815481529060010190602001808311614c6c57829003601f168201915b5050505050848481518110614ca057614ca0615dc1565b6020908102919091010152614cb6600184615e27565b92505b5080614cc481615e3a565b915050614ac9565b5090949350505050565b6000600284604051614ce89190615da5565b908152602001604051809103902060060183604051614d079190615da5565b90815260408051918290036020908101832033600090815260059182019092529190200190614d37908490615da5565b90815260200160405180910390206006015490509392505050565b6000600285604051614d649190615da5565b908152602001604051809103902060060184604051614d839190615da5565b90815260200160405180910390206005016000846001600160a01b03166001600160a01b0316815260200190815260200160002060050182604051614dc89190615da5565b9081526040805191829003602001822082820190915260040160028282826020028201915b815481526020019060010190808311614ded57505050505090506000600286604051614e199190615da5565b908152602001604051809103902060060185604051614e389190615da5565b90815260200160405180910390206005016000856001600160a01b03166001600160a01b0316815260200190815260200160002060050183604051614e7d9190615da5565b908152604080519182900360200182208282019182905260029081019182845b815481526020019060010190808311614e9d5750505050509050600081600060028110614ecc57614ecc615dc1565b6020020151606414158015614ee657506020820151606414155b156150325781518351148015614f03575060208083015190840151145b15614fba576001600288604051614f1a9190615da5565b908152602001604051809103902060060187604051614f399190615da5565b90815260200160405180910390206005016000876001600160a01b03166001600160a01b0316815260200190815260200160002060050185604051614f7e9190615da5565b908152604051908190036020019020600801805461ff001916610100836002811115614fac57614fac61562e565b021790555060039050615025565b60208301518351118015614fd2575060208201518251115b15614fdf57506001615025565b60208301518351108015614ff7575060208201518251105b1561500457506001615025565b6020830151835114801561501c575060208201518251145b15615025575060015b6150328787878785612774565b50505050505050565b600160028360405161504d9190615da5565b90815260200160405180910390206006018260405161506c9190615da5565b9081526040805160209281900383019020336000908152600590910190925290206004015460ff1660028111156150a5576150a561562e565b146150e55760405162461bcd60e51b815260206004820152601060248201526f13919508185b1c9958591e481b5a5b9d60821b6044820152606401610bc6565b600280836040516150f69190615da5565b9081526020016040518091039020600601826040516151159190615da5565b908152604080516020928190038301902033600090815260059091019092529020600401805460ff191660018360028111156151535761515361562e565b02179055505050565b60405180606001604052806003906020820280368337509192915050565b60405180604001604052806002905b60608152602001906001900390816151895790505090565b60405180604001604052806002906020820280368337509192915050565b82600281019282156151f8579160200282015b828111156151f857825182906151e89082615e99565b50916020019190600101906151d2565b5061520492915061532a565b5090565b826002810192821561523b579160200282015b8281111561523b578251829060ff1690559160200191906001019061521b565b50615204929150615347565b826002810192821561523b579160200282015b8281111561523b57825182559160200191906001019061525a565b604080516060808201909252908152600260208201615189565b8280548282559060005260206000209081019282156151f8579160200282015b828111156151f857825182906152c59082615e99565b50916020019190600101906152af565b82805482825590600052602060002090810192821561523b579160200282015b8281111561523b57825182546001600160a01b0319166001600160a01b039091161782556020909201916001909101906152f5565b8082111561520457600061533e828261535c565b5060010161532a565b5b808211156152045760008155600101615348565b50805461536890615dd7565b6000825580601f10615378575050565b601f0160209004906000526020600020908101906153969190615347565b50565b634e487b7160e01b600052604160045260246000fd5b604080519081016001600160401b03811182821017156153d1576153d1615399565b60405290565b600082601f8301126153e857600080fd5b81356001600160401b038082111561540257615402615399565b604051601f8301601f19908116603f0116810190828211818310171561542a5761542a615399565b8160405283815286602085880101111561544357600080fd5b836020870160208301376000602085830101528094505050505092915050565b6000806040838503121561547657600080fd5b82356001600160401b038082111561548d57600080fd5b615499868387016153d7565b935060208501359150808211156154af57600080fd5b506154bc858286016153d7565b9150509250929050565b6020808252825182820181905260009190848201906040850190845b818110156155075783516001600160a01b0316835292840192918401916001016154e2565b50909695505050505050565b60006020828403121561552557600080fd5b81356001600160401b0381111561553b57600080fd5b615547848285016153d7565b949350505050565b80356001600160a01b038116811461556657600080fd5b919050565b60008060006060848603121561558057600080fd5b83356001600160401b038082111561559757600080fd5b6155a3878388016153d7565b945060208601359150808211156155b957600080fd5b506155c6868287016153d7565b9250506155d56040850161554f565b90509250925092565b60005b838110156155f95781810151838201526020016155e1565b50506000910152565b6000815180845261561a8160208601602086016155de565b601f01601f19169290920160200192915050565b634e487b7160e01b600052602160045260246000fd5b600381106156545761565461562e565b9052565b60c08152600061566b60c0830187615602565b905060208581840152604083018560005b60038110156156a057615690838351615644565b918301919083019060010161567c565b505050506156b160a0830184615644565b95945050505050565b6000806000606084860312156156cf57600080fd5b83356001600160401b03808211156156e657600080fd5b6156f2878388016153d7565b9450602086013591508082111561570857600080fd5b615714878388016153d7565b9350604086013591508082111561572a57600080fd5b50615737868287016153d7565b9150509250925092565b8060005b6002811015613dfc578151845260209384019390910190600101615745565b600281106156545761565461562e565b610120808252600090820161016083018a835b60028110156157bb5761011f198684030184526157a5838351615602565b6020948501949093509190910190600101615787565b505080925050506157cf6020830189615741565b6157dc6060830188615741565b8560a08301528460c08301526157f560e0830185615764565b82151561010083015298975050505050505050565b600080600080600060a0868803121561582257600080fd5b85356001600160401b038082111561583957600080fd5b61584589838a016153d7565b9650602088013591508082111561585b57600080fd5b61586789838a016153d7565b9550604088013591508082111561587d57600080fd5b61588989838a016153d7565b9450606088013591508082111561589f57600080fd5b6158ab89838a016153d7565b935060808801359150808211156158c157600080fd5b506158ce888289016153d7565b9150509295509295909350565b60208082526000906080830183820185845b600381101561591c57601f1987850301835261590a848351615602565b935091840191908401906001016158ed565b50919695505050505050565b600080600080600060a0868803121561594057600080fd5b85356001600160401b038082111561595757600080fd5b61596389838a016153d7565b9650602088013591508082111561597957600080fd5b61598589838a016153d7565b95506159936040890161554f565b945060608801359150808211156159a957600080fd5b506159b6888289016153d7565b95989497509295608001359392505050565b6000602080830181845280855180835260408601915060408160051b870101925083870160005b82811015615a1d57603f19888603018452615a0b858351615602565b945092850192908501906001016159ef565b5092979650505050505050565b60008060008060808587031215615a4057600080fd5b84356001600160401b0380821115615a5757600080fd5b615a63888389016153d7565b9550602091508187013581811115615a7a57600080fd5b615a8689828a016153d7565b955050604087013581811115615a9b57600080fd5b8701601f81018913615aac57600080fd5b615ab46153af565b80604083018b811115615ac657600080fd5b835b81811015615afa57803586811115615ae05760008081fd5b615aec8e8288016153d7565b855250928601928601615ac8565b50989b979a5098606001359750505050505050565b600080600060608486031215615b2457600080fd5b83356001600160401b0380821115615b3b57600080fd5b615b47878388016153d7565b94506020860135915080821115615b5d57600080fd5b50615b6a868287016153d7565b925050604084013590509250925092565b600060208284031215615b8d57600080fd5b615b968261554f565b9392505050565b600082601f830112615bae57600080fd5b615bb66153af565b806040840185811115615bc857600080fd5b845b81811015615be2578035845260209384019301615bca565b509095945050505050565b600080600060808486031215615c0257600080fd5b83356001600160401b0380821115615c1957600080fd5b615c25878388016153d7565b94506020860135915080821115615c3b57600080fd5b50615c48868287016153d7565b9250506155d58560408601615b9d565b602081016105b38284615764565b602081016105b38284615644565b60008060008060a08587031215615c8a57600080fd5b84356001600160401b0380821115615ca157600080fd5b615cad888389016153d7565b95506020870135915080821115615cc357600080fd5b615ccf888389016153d7565b94506040870135915080821115615ce557600080fd5b50615cf2878288016153d7565b925050615d028660608701615b9d565b905092959194509250565b60008060008060808587031215615d2357600080fd5b84356001600160401b0380821115615d3a57600080fd5b615d46888389016153d7565b95506020870135915080821115615d5c57600080fd5b615d68888389016153d7565b9450615d766040880161554f565b93506060870135915080821115615d8c57600080fd5b50615d99878288016153d7565b91505092959194509250565b60008251615db78184602087016155de565b9190910192915050565b634e487b7160e01b600052603260045260246000fd5b600181811c90821680615deb57607f821691505b602082108103615e0b57634e487b7160e01b600052602260045260246000fd5b50919050565b634e487b7160e01b600052601160045260246000fd5b808201808211156105b3576105b3615e11565b600060018201615e4c57615e4c615e11565b5060010190565b601f82111561101257600081815260208120601f850160051c81016020861015615e7a5750805b601f850160051c820191505b8181101561276c57828155600101615e86565b81516001600160401b03811115615eb257615eb2615399565b615ec681615ec08454615dd7565b84615e53565b602080601f831160018114615efb5760008415615ee35750858301515b600019600386901b1c1916600185901b17855561276c565b600085815260208120601f198616915b82811015615f2a57888601518255948401946001909101908401615f0b565b5085821015615f485787850151600019600388901b60f8161c191681555b5050505050600190811b01905550565b606081526000615f6b6060830186615602565b8281036020840152615f7d8186615602565b90508281036040840152615f918185615602565b9695505050505050565b6000808354615fa981615dd7565b60018281168015615fc15760018114615fd657616005565b60ff1984168752821515830287019450616005565b8760005260208060002060005b85811015615ffc5781548a820152908401908201615fe3565b50505082870194505b50929695505050505050565b6060815260006160246060830186615602565b6020838203818501526160378287615602565b915083820360408501526000855461604e81615dd7565b808552600182811680156160695760018114616083576160b1565b60ff1984168787015282151560051b8701860194506160b1565b896000528560002060005b848110156160a957815489820189015290830190870161608e565b880187019550505b50929a9950505050505050505050565b6040815260006160d46040830185615602565b82810360208401526156b18185615602565b818103818111156105b3576105b3615e1156fea26469706673582212209e3929aab693727069cb6e6f98553c9dfed8e24671d725f9850975831256197c64736f6c63430008110033",
  "linkReferences": {},
  "deployedLinkReferences": {}
}