{
  "_format": "hh-sol-artifact-1",
  "contractName": "PetitProno",
  "sourceName": "contracts/PetitProno.sol",
  "abi": [
    {
      "inputs": [],
      "stateMutability": "nonpayable",
      "type": "constructor"
    },
    {
      "anonymous": false,
      "inputs": [
        {
          "indexed": false,
          "internalType": "string",
          "name": "_LeagueId",
          "type": "string"
        },
        {
          "indexed": false,
          "internalType": "uint256",
          "name": "_EndDate",
          "type": "uint256"
        },
        {
          "indexed": false,
          "internalType": "uint256",
          "name": "_matchDate",
          "type": "uint256"
        }
      ],
      "name": "EndDate",
      "type": "event"
    },
    {
      "anonymous": false,
      "inputs": [
        {
          "indexed": false,
          "internalType": "string",
          "name": "_LeagueId",
          "type": "string"
        },
        {
          "indexed": false,
          "internalType": "string",
          "name": "_matchId",
          "type": "string"
        }
      ],
      "name": "MatchAvailable",
      "type": "event"
    },
    {
      "anonymous": false,
      "inputs": [
        {
          "indexed": false,
          "internalType": "string",
          "name": "_LeagueId",
          "type": "string"
        },
        {
          "indexed": false,
          "internalType": "string",
          "name": "_ForecastId",
          "type": "string"
        }
      ],
      "name": "NewForecast",
      "type": "event"
    },
    {
      "anonymous": false,
      "inputs": [
        {
          "indexed": false,
          "internalType": "string",
          "name": "_LeagueId",
          "type": "string"
        },
        {
          "indexed": false,
          "internalType": "string",
          "name": "_League_name",
          "type": "string"
        }
      ],
      "name": "NewLeague",
      "type": "event"
    },
    {
      "anonymous": false,
      "inputs": [
        {
          "indexed": false,
          "internalType": "string",
          "name": "_LeagueId",
          "type": "string"
        },
        {
          "indexed": false,
          "internalType": "string",
          "name": "_TeamId",
          "type": "string"
        },
        {
          "indexed": false,
          "internalType": "string",
          "name": "_Team_name",
          "type": "string"
        }
      ],
      "name": "NewTeam",
      "type": "event"
    },
    {
      "inputs": [
        {
          "internalType": "string",
          "name": "_LeagueId",
          "type": "string"
        },
        {
          "internalType": "string",
          "name": "_matchId",
          "type": "string"
        },
        {
          "internalType": "string[2]",
          "name": "teams",
          "type": "string[2]"
        },
        {
          "internalType": "uint256",
          "name": "_endDate",
          "type": "uint256"
        }
      ],
      "name": "addForecast",
      "outputs": [],
      "stateMutability": "nonpayable",
      "type": "function"
    },
    {
      "inputs": [
        {
          "internalType": "string",
          "name": "_LeagueId",
          "type": "string"
        },
        {
          "internalType": "string",
          "name": "_League_name",
          "type": "string"
        },
        {
          "internalType": "string",
          "name": "_ipfs",
          "type": "string"
        }
      ],
      "name": "addLeague",
      "outputs": [],
      "stateMutability": "nonpayable",
      "type": "function"
    },
    {
      "inputs": [
        {
          "internalType": "string",
          "name": "_LeagueId",
          "type": "string"
        },
        {
          "internalType": "string",
          "name": "_TeamId",
          "type": "string"
        },
        {
          "internalType": "string",
          "name": "_Player_name",
          "type": "string"
        }
      ],
      "name": "addPlayer",
      "outputs": [],
      "stateMutability": "nonpayable",
      "type": "function"
    },
    {
      "inputs": [
        {
          "internalType": "string",
          "name": "_LeagueId",
          "type": "string"
        },
        {
          "internalType": "string",
          "name": "_TeamId",
          "type": "string"
        },
        {
          "internalType": "string",
          "name": "_Teame_Name",
          "type": "string"
        },
        {
          "internalType": "string",
          "name": "_Player_name",
          "type": "string"
        },
        {
          "internalType": "string",
          "name": "_ipfs",
          "type": "string"
        }
      ],
      "name": "addTeam",
      "outputs": [],
      "stateMutability": "nonpayable",
      "type": "function"
    },
    {
      "inputs": [
        {
          "internalType": "string",
          "name": "_LeagueId",
          "type": "string"
        },
        {
          "internalType": "string",
          "name": "_TeamId",
          "type": "string"
        },
        {
          "internalType": "address",
          "name": "_walletId",
          "type": "address"
        },
        {
          "internalType": "string",
          "name": "_matchId",
          "type": "string"
        }
      ],
      "name": "calculatePoint",
      "outputs": [],
      "stateMutability": "nonpayable",
      "type": "function"
    },
    {
      "inputs": [
        {
          "internalType": "address",
          "name": "_newOwner",
          "type": "address"
        }
      ],
      "name": "changeOwner",
      "outputs": [],
      "stateMutability": "nonpayable",
      "type": "function"
    },
    {
      "inputs": [],
      "name": "get",
      "outputs": [
        {
          "internalType": "string",
          "name": "",
          "type": "string"
        },
        {
          "internalType": "uint256",
          "name": "",
          "type": "uint256"
        }
      ],
      "stateMutability": "view",
      "type": "function"
    },
    {
      "inputs": [
        {
          "internalType": "string",
          "name": "_LeagueId",
          "type": "string"
        },
        {
          "internalType": "string",
          "name": "_TeamId",
          "type": "string"
        }
      ],
      "name": "getAllPlayerAddrFromOneTeam",
      "outputs": [
        {
          "internalType": "address[]",
          "name": "",
          "type": "address[]"
        }
      ],
      "stateMutability": "view",
      "type": "function"
    },
    {
      "inputs": [
        {
          "internalType": "string",
          "name": "_LeagueId",
          "type": "string"
        },
        {
          "internalType": "string",
          "name": "_TeamId",
          "type": "string"
        },
        {
          "internalType": "string",
          "name": "_matchId",
          "type": "string"
        }
      ],
      "name": "getForecast",
      "outputs": [
        {
          "internalType": "string[2]",
          "name": "",
          "type": "string[2]"
        },
        {
          "internalType": "uint256[2]",
          "name": "",
          "type": "uint256[2]"
        },
        {
          "internalType": "uint256[2]",
          "name": "",
          "type": "uint256[2]"
        },
        {
          "internalType": "uint256",
          "name": "",
          "type": "uint256"
        },
        {
          "internalType": "uint256",
          "name": "",
          "type": "uint256"
        },
        {
          "internalType": "enum PetitProno.Time",
          "name": "",
          "type": "uint8"
        },
        {
          "internalType": "bool",
          "name": "",
          "type": "bool"
        }
      ],
      "stateMutability": "view",
      "type": "function"
    },
    {
      "inputs": [
        {
          "internalType": "string",
          "name": "_LeagueId",
          "type": "string"
        },
        {
          "internalType": "string",
          "name": "_TeamId",
          "type": "string"
        }
      ],
      "name": "getForecastId",
      "outputs": [
        {
          "internalType": "string[]",
          "name": "",
          "type": "string[]"
        }
      ],
      "stateMutability": "view",
      "type": "function"
    },
    {
      "inputs": [
        {
          "internalType": "string",
          "name": "_LeagueId",
          "type": "string"
        },
        {
          "internalType": "string",
          "name": "_TeamId",
          "type": "string"
        },
        {
          "internalType": "string",
          "name": "_matchId",
          "type": "string"
        }
      ],
      "name": "getForecastOracleId",
      "outputs": [
        {
          "internalType": "bytes32",
          "name": "",
          "type": "bytes32"
        }
      ],
      "stateMutability": "view",
      "type": "function"
    },
    {
      "inputs": [
        {
          "internalType": "string",
          "name": "_LeagueId",
          "type": "string"
        },
        {
          "internalType": "string",
          "name": "_TeamId",
          "type": "string"
        },
        {
          "internalType": "string",
          "name": "_matchId",
          "type": "string"
        }
      ],
      "name": "getForecastPointNb",
      "outputs": [
        {
          "internalType": "uint256",
          "name": "",
          "type": "uint256"
        }
      ],
      "stateMutability": "view",
      "type": "function"
    },
    {
      "inputs": [
        {
          "internalType": "string",
          "name": "_LeagueId",
          "type": "string"
        }
      ],
      "name": "getFreeTeamFromOneLeague",
      "outputs": [
        {
          "internalType": "string[]",
          "name": "",
          "type": "string[]"
        }
      ],
      "stateMutability": "view",
      "type": "function"
    },
    {
      "inputs": [
        {
          "internalType": "string",
          "name": "_LeagueId",
          "type": "string"
        }
      ],
      "name": "getLeagueById",
      "outputs": [
        {
          "internalType": "string[3]",
          "name": "",
          "type": "string[3]"
        }
      ],
      "stateMutability": "view",
      "type": "function"
    },
    {
      "inputs": [],
      "name": "getLeaguesID",
      "outputs": [
        {
          "internalType": "string[]",
          "name": "",
          "type": "string[]"
        }
      ],
      "stateMutability": "view",
      "type": "function"
    },
    {
      "inputs": [
        {
          "internalType": "string",
          "name": "_LeagueId",
          "type": "string"
        }
      ],
      "name": "getMyTeamFromOneLeague",
      "outputs": [
        {
          "internalType": "string[]",
          "name": "",
          "type": "string[]"
        }
      ],
      "stateMutability": "view",
      "type": "function"
    },
    {
      "inputs": [
        {
          "internalType": "string",
          "name": "_LeagueId",
          "type": "string"
        },
        {
          "internalType": "string",
          "name": "_TeamId",
          "type": "string"
        },
        {
          "internalType": "string",
          "name": "_matchId",
          "type": "string"
        }
      ],
      "name": "getNFTMint",
      "outputs": [
        {
          "internalType": "enum PetitProno.NFT_Mint",
          "name": "",
          "type": "uint8"
        }
      ],
      "stateMutability": "view",
      "type": "function"
    },
    {
      "inputs": [
        {
          "internalType": "bytes32",
          "name": "_oracleId",
          "type": "bytes32"
        }
      ],
      "name": "getOracleData",
      "outputs": [
        {
          "internalType": "string",
          "name": "",
          "type": "string"
        }
      ],
      "stateMutability": "nonpayable",
      "type": "function"
    },
    {
      "inputs": [
        {
          "internalType": "string",
          "name": "_LeagueId",
          "type": "string"
        },
        {
          "internalType": "string",
          "name": "_TeamId",
          "type": "string"
        },
        {
          "internalType": "address",
          "name": "_walletId",
          "type": "address"
        }
      ],
      "name": "getPlayerInfo",
      "outputs": [
        {
          "internalType": "string",
          "name": "",
          "type": "string"
        },
        {
          "internalType": "uint256",
          "name": "",
          "type": "uint256"
        }
      ],
      "stateMutability": "view",
      "type": "function"
    },
    {
      "inputs": [
        {
          "internalType": "string",
          "name": "_LeagueId",
          "type": "string"
        }
      ],
      "name": "getTeamsIdFromOneLeague",
      "outputs": [
        {
          "internalType": "string[]",
          "name": "",
          "type": "string[]"
        }
      ],
      "stateMutability": "view",
      "type": "function"
    },
    {
      "inputs": [
        {
          "internalType": "string",
          "name": "_LeagueId",
          "type": "string"
        },
        {
          "internalType": "string",
          "name": "_TeamId",
          "type": "string"
        }
      ],
      "name": "getTeamsInfos",
      "outputs": [
        {
          "internalType": "string[3]",
          "name": "",
          "type": "string[3]"
        }
      ],
      "stateMutability": "view",
      "type": "function"
    },
    {
      "inputs": [],
      "name": "owner",
      "outputs": [
        {
          "internalType": "address",
          "name": "",
          "type": "address"
        }
      ],
      "stateMutability": "view",
      "type": "function"
    },
    {
      "inputs": [
        {
          "internalType": "string",
          "name": "_LeagueId",
          "type": "string"
        },
        {
          "internalType": "string",
          "name": "_TeamId",
          "type": "string"
        },
        {
          "internalType": "string",
          "name": "_matchId",
          "type": "string"
        },
        {
          "internalType": "bytes32",
          "name": "_OracleId",
          "type": "bytes32"
        }
      ],
      "name": "setForecastOracleId",
      "outputs": [],
      "stateMutability": "nonpayable",
      "type": "function"
    },
    {
      "inputs": [
        {
          "internalType": "string",
          "name": "_LeagueId",
          "type": "string"
        },
        {
          "internalType": "string",
          "name": "_TeamId",
          "type": "string"
        },
        {
          "internalType": "address",
          "name": "_walletId",
          "type": "address"
        },
        {
          "internalType": "string",
          "name": "_matchId",
          "type": "string"
        },
        {
          "internalType": "uint256",
          "name": "_PointNb",
          "type": "uint256"
        }
      ],
      "name": "setForecastPointNb",
      "outputs": [],
      "stateMutability": "nonpayable",
      "type": "function"
    },
    {
      "inputs": [
        {
          "internalType": "string",
          "name": "_LeagueId",
          "type": "string"
        },
        {
          "internalType": "string",
          "name": "_TeamId",
          "type": "string"
        },
        {
          "internalType": "string",
          "name": "_matchId",
          "type": "string"
        },
        {
          "internalType": "uint256[2]",
          "name": "_prono",
          "type": "uint256[2]"
        }
      ],
      "name": "setForecastProno",
      "outputs": [],
      "stateMutability": "nonpayable",
      "type": "function"
    },
    {
      "inputs": [
        {
          "internalType": "string",
          "name": "_LeagueId",
          "type": "string"
        },
        {
          "internalType": "string",
          "name": "_matchId",
          "type": "string"
        },
        {
          "internalType": "uint256[2]",
          "name": "_result",
          "type": "uint256[2]"
        }
      ],
      "name": "setForecastResult",
      "outputs": [],
      "stateMutability": "nonpayable",
      "type": "function"
    },
    {
      "inputs": [
        {
          "internalType": "string",
          "name": "_LeagueId",
          "type": "string"
        },
        {
          "internalType": "string",
          "name": "_TeamId",
          "type": "string"
        },
        {
          "internalType": "string",
          "name": "_matchId",
          "type": "string"
        }
      ],
      "name": "setNFTMint",
      "outputs": [],
      "stateMutability": "nonpayable",
      "type": "function"
    },
    {
      "inputs": [
        {
          "internalType": "string",
          "name": "_LeagueId",
          "type": "string"
        },
        {
          "internalType": "string",
          "name": "_TeamId",
          "type": "string"
        }
      ],
      "name": "updateScore",
      "outputs": [],
      "stateMutability": "nonpayable",
      "type": "function"
    },
    {
      "inputs": [
        {
          "internalType": "string",
          "name": "_LeagueId",
          "type": "string"
        },
        {
          "internalType": "string",
          "name": "_matchId",
          "type": "string"
        }
      ],
      "name": "updateTime",
      "outputs": [],
      "stateMutability": "nonpayable",
      "type": "function"
    }
  ],
  "bytecode": "0x6080604052600280546001600160a01b03191673456891c78077d31f70ca027a46d68f84a2b814d417905534801561003657600080fd5b50600380546001600160a01b03191633179055614cb6806100586000396000f3fe608060405234801561001057600080fd5b50600436106101cf5760003560e01c806393e353f311610104578063b5e4b813116100a2578063d73fd54811610071578063d73fd54814610428578063f10efc501461043b578063f399684a1461044e578063fb97e9be1461046157600080fd5b8063b5e4b813146103c2578063c34901d9146103e2578063d533b2e3146103f5578063d5e79a131461041557600080fd5b8063a9b756ce116100de578063a9b756ce14610374578063b0a5e4bd14610387578063b1447e9f1461038f578063b5811303146103a257600080fd5b806393e353f31461032e57806395bdb5101461034e578063a6f9dae11461036157600080fd5b8063513a7beb116101715780636d4ce63c1161014b5780636d4ce63c146102d557806375c25377146102dd5780638a3baacd146102f05780638da5cb5b1461030357600080fd5b8063513a7beb1461028f5780636439ca61146102af5780636808efb2146102c257600080fd5b806323e2fdf8116101ad57806323e2fdf81461023057806335e35a4d146102435780633cdf244b1461026957806345c7a7451461027c57600080fd5b806305fddcc8146101d45780630a59169a146101fa5780631374c5d91461021b575b600080fd5b6101e76101e2366004613f61565b610474565b6040519081526020015b60405180910390f35b61020d610208366004614004565b6104f0565b6040516101f19291906140c7565b61022e610229366004613f61565b610654565b005b61022e61023e3660046140e9565b6107cd565b610256610251366004613f61565b610b7d565b6040516101f19796959493929190614185565b61022e61027736600461422a565b610e16565b61022e61028a366004613f61565b610f3b565b6102a261029d3660046140e9565b611a52565b6040516101f191906142fb565b61022e6102bd366004614348565b611c18565b61022e6102d03660046143d7565b611ca8565b61020d611d37565b61022e6102eb366004614477565b611dd3565b6102a26102fe36600461455c565b612540565b600354610316906001600160a01b031681565b6040516001600160a01b0390911681526020016101f1565b61034161033c3660046140e9565b6126c5565b6040516101f19190614598565b61022e61035c3660046140e9565b6127e7565b61022e61036f3660046145fa565b612a41565b61022e610382366004613f61565b612a7a565b610341612b5d565b61022e61039d36600461466c565b612c36565b6103b56103b03660046140e9565b612fe5565b6040516101f191906146d7565b6103d56103d0366004614724565b613082565b6040516101f1919061473d565b6103416103f036600461455c565b613117565b610408610403366004613f61565b613211565b6040516101f19190614750565b61034161042336600461455c565b613297565b61022e61043636600461476a565b6135a9565b61034161044936600461455c565b6136ef565b6101e761045c366004613f61565b61398d565b61022e61046f366004614803565b613a09565b6000600584604051610486919061489b565b9081526020016040518091039020600401836040516104a5919061489b565b908152604080519182900360209081018320336000908152600391820190925291902001906104d590849061489b565b90815260200160405180910390206008015490509392505050565b6060600080600586604051610505919061489b565b908152602001604051809103902060040185604051610524919061489b565b90815260200160405180910390206003016000856001600160a01b03166001600160a01b031681526020019081526020016000206000018054610566906148b7565b80601f0160208091040260200160405190810160405280929190818152602001828054610592906148b7565b80156105df5780601f106105b4576101008083540402835291602001916105df565b820191906000526020600020905b8154815290600101906020018083116105c257829003601f168201915b5050505050905060006005876040516105f8919061489b565b908152602001604051809103902060040186604051610617919061489b565b90815260408051602092819003830190206001600160a01b0397909716600090815260039097019091529094206001015490969095509350505050565b6001600584604051610666919061489b565b908152602001604051809103902060040183604051610685919061489b565b908152604080519182900360209081018320336000908152600391820190925291902001906106b590849061489b565b9081526040519081900360200190206009015460ff6101009091041660028111156106e2576106e261416f565b146107345760405162461bcd60e51b815260206004820152601760248201527f4e4654206d696e74206973206e6f7420656e61626c656400000000000000000060448201526064015b60405180910390fd5b6002600584604051610746919061489b565b908152602001604051809103902060040183604051610765919061489b565b9081526040805191829003602090810183203360009081526003918201909252919020019061079590849061489b565b908152604051908190036020019020600901805461ff0019166101008360028111156107c3576107c361416f565b0217905550505050565b60005b6005836040516107e0919061489b565b90815260405190819003602001902060030154811015610b7857600060058460405161080c919061489b565b9081526020016040518091039020600301828154811061082e5761082e6148f1565b906000526020600020018054610843906148b7565b80601f016020809104026020016040519081016040528092919081815260200182805461086f906148b7565b80156108bc5780601f10610891576101008083540402835291602001916108bc565b820191906000526020600020905b81548152906001019060200180831161089f57829003601f168201915b5050505050905060005b6005856040516108d6919061489b565b9081526020016040518091039020600401826040516108f5919061489b565b90815260405190819003602001902060020154811015610b63576000600586604051610921919061489b565b908152602001604051809103902060040183604051610940919061489b565b90815260200160405180910390206002018281548110610962576109626148f1565b6000918252602090912001546040516001600160a01b03909116915060059061098c90889061489b565b9081526020016040518091039020600401836040516109ab919061489b565b908152604080519182900360209081018320336000908152600391820190925291902001906109db90879061489b565b908152602001604051809103902060070154421015610aa4576000600587604051610a06919061489b565b908152602001604051809103902060040184604051610a25919061489b565b90815260200160405180910390206003016000836001600160a01b03166001600160a01b0316815260200190815260200160002060030186604051610a6a919061489b565b908152604051908190036020019020600901805462ff0000191662010000836001811115610a9a57610a9a61416f565b0217905550610b50565b6001600587604051610ab6919061489b565b908152602001604051809103902060040184604051610ad5919061489b565b90815260200160405180910390206003016000836001600160a01b03166001600160a01b0316815260200190815260200160002060030186604051610b1a919061489b565b908152604051908190036020019020600901805462ff0000191662010000836001811115610b4a57610b4a61416f565b02179055505b5080610b5b8161491d565b9150506108c6565b50508080610b709061491d565b9150506107d0565b505050565b610b85613cf2565b610b8d613d19565b610b95613d19565b600080600080600060058b604051610bad919061489b565b90815260200160405180910390206004018a604051610bcc919061489b565b90815260408051918290036020908101832033600090815260039182019092529190200190610bfc908b9061489b565b9081526040805191829003602001822061016083019091528161012081018260026000835b82821015610cc4578382018054610c37906148b7565b80601f0160208091040260200160405190810160405280929190818152602001828054610c63906148b7565b8015610cb05780601f10610c8557610100808354040283529160200191610cb0565b820191906000526020600020905b815481529060010190602001808311610c9357829003601f168201915b505050505081526020019060010190610c21565b5050509082525060408051808201918290526020909201919060028481019182845b815481526020019060010190808311610ce6575050509183525050604080518082019182905260209092019190600484019060029082845b815481526020019060010190808311610d1e575050509183525050600682015460208201526007820154604082015260088201546060820152600982015460ff8082161515608084015260a090920191610100909104166002811115610d8657610d8661416f565b6002811115610d9757610d9761416f565b81526020016009820160029054906101000a900460ff166001811115610dbf57610dbf61416f565b6001811115610dd057610dd061416f565b815250509050806000015181602001518260400151836060015184608001518561010001518660c001519750975097509750975097509750509397509397509397909450565b82600586604051610e27919061489b565b908152602001604051809103902060040185604051610e46919061489b565b90815260405190819003602001902090610e609082614984565b5080600586604051610e72919061489b565b908152602001604051809103902060040185604051610e91919061489b565b90815260200160405180910390206001019081610eae9190614984565b50600585604051610ebf919061489b565b908152604051602091819003820190206003018054600181018255600091825291902001610eed8582614984565b50610ef9858584610f3b565b7fe3c7ad3e0a7039496bfdf53f2459da724adffa66091605f5a41831a1b318bdaa858585604051610f2c93929190614a43565b60405180910390a15050505050565b80600584604051610f4c919061489b565b908152602001604051809103902060040183604051610f6b919061489b565b90815260408051602092819003830190203360009081526003909101909252902090610f979082614984565b50600583604051610fa8919061489b565b908152602001604051809103902060040182604051610fc7919061489b565b9081526040519081900360209081018220600201805460018101825560009182529190200180546001600160a01b0319163317905560059061100a90859061489b565b9081526040516020918190038201812061102692909101614a86565b604051602081830303815290604052805190602001206000146119d9576000600584604051611055919061489b565b908152604051908190036020019020805461106f906148b7565b80601f016020809104026020016040519081016040528092919081815260200182805461109b906148b7565b80156110e85780601f106110bd576101008083540402835291602001916110e8565b820191906000526020600020905b8154815290600101906020018083116110cb57829003601f168201915b5050505050905060005b600585604051611102919061489b565b908152602001604051809103902060040182604051611121919061489b565b9081526040805160209281900383019020600380546001600160a01b0316600090815291019092529020600201548110156119d6576000600586604051611168919061489b565b908152602001604051809103902060040183604051611187919061489b565b9081526040805160209281900383019020600380546001600160a01b03166000908152910190925290206002018054839081106111c6576111c66148f1565b9060005260206000200180546111db906148b7565b80601f0160208091040260200160405190810160405280929190818152602001828054611207906148b7565b80156112545780601f1061122957610100808354040283529160200191611254565b820191906000526020600020905b81548152906001019060200180831161123757829003601f168201915b50505050509050600060058760405161126d919061489b565b90815260200160405180910390206004018460405161128c919061489b565b908152604080519182900360209081018320600380546001600160a01b031660009081529181019092529190912001906112c790849061489b565b9081526040805191829003602001822061016083019091528161012081018260026000835b8282101561138f578382018054611302906148b7565b80601f016020809104026020016040519081016040528092919081815260200182805461132e906148b7565b801561137b5780601f106113505761010080835404028352916020019161137b565b820191906000526020600020905b81548152906001019060200180831161135e57829003601f168201915b5050505050815260200190600101906112ec565b5050509082525060408051808201918290526020909201919060028481019182845b8154815260200190600101908083116113b1575050509183525050604080518082019182905260209092019190600484019060029082845b8154815260200190600101908083116113e9575050509183525050600682015460208201526007820154604082015260088201546060820152600982015460ff8082161515608084015260a0909201916101009091041660028111156114515761145161416f565b60028111156114625761146261416f565b81526020016009820160029054906101000a900460ff16600181111561148a5761148a61416f565b600181111561149b5761149b61416f565b8152505090506005876040516114b1919061489b565b9081526020016040518091039020600401866040516114d0919061489b565b90815260408051602092819003830190203360009081526003909101835290812060020180546001810182559082529190200161150d8382614984565b508051604051600590611521908a9061489b565b908152602001604051809103902060040187604051611540919061489b565b9081526040805191829003602090810183203360009081526003918201909252919020019061157090859061489b565b90815260405190819003602001902061158a916002613d37565b506040805180820182526064808252602082015290516005906115ae908a9061489b565b9081526020016040518091039020600401876040516115cd919061489b565b908152604080519182900360209081018320336000908152600391820190925291902001906115fd90859061489b565b908152602001604051809103902060020190600261161c929190613d80565b508060400151600588604051611632919061489b565b908152602001604051809103902060040187604051611651919061489b565b9081526040805191829003602090810183203360009081526003918201909252919020019061168190859061489b565b90815260200160405180910390206004019060026116a0929190613dbf565b5060006005886040516116b3919061489b565b9081526020016040518091039020600401876040516116d2919061489b565b9081526040805191829003602090810183203360009081526003918201909252919020019061170290859061489b565b908152602001604051809103902060060181905550806080015160058860405161172c919061489b565b90815260200160405180910390206004018760405161174b919061489b565b9081526040805191829003602090810183203360009081526003918201909252919020019061177b90859061489b565b9081526020016040518091039020600701819055508060a001516005886040516117a5919061489b565b9081526020016040518091039020600401876040516117c4919061489b565b908152604080519182900360209081018320336000908152600391820190925291902001906117f490859061489b565b9081526020016040518091039020600801819055508060c0015160058860405161181e919061489b565b90815260200160405180910390206004018760405161183d919061489b565b9081526040805191829003602090810183203360009081526003918201909252919020019061186d90859061489b565b908152604051908190036020018120600901805492151560ff199093169290921790915560e0820151906005906118a5908a9061489b565b9081526020016040518091039020600401876040516118c4919061489b565b908152604080519182900360209081018320336000908152600391820190925291902001906118f490859061489b565b908152604051908190036020019020600901805461ff0019166101008360028111156119225761192261416f565b021790555080610100015160058860405161193d919061489b565b90815260200160405180910390206004018760405161195c919061489b565b9081526040805191829003602090810183203360009081526003918201909252919020019061198c90859061489b565b908152604051908190036020019020600901805462ff00001916620100008360018111156119bc576119bc61416f565b0217905550505080806119ce9061491d565b9150506110f2565b50505b7fe3c7ad3e0a7039496bfdf53f2459da724adffa66091605f5a41831a1b318bdaa8383600586604051611a0c919061489b565b908152602001604051809103902060040185604051611a2b919061489b565b908152604051908190036020018120611a45939291614afc565b60405180910390a1505050565b611a5a613ded565b6000600584604051611a6c919061489b565b908152602001604051809103902060040183604051611a8b919061489b565b9081526040519081900360200190208054611aa5906148b7565b80601f0160208091040260200160405190810160405280929190818152602001828054611ad1906148b7565b8015611b1e5780601f10611af357610100808354040283529160200191611b1e565b820191906000526020600020905b815481529060010190602001808311611b0157829003601f168201915b505050505090506000600585604051611b37919061489b565b908152602001604051809103902060040184604051611b56919061489b565b90815260200160405180910390206001018054611b72906148b7565b80601f0160208091040260200160405190810160405280929190818152602001828054611b9e906148b7565b8015611beb5780601f10611bc057610100808354040283529160200191611beb565b820191906000526020600020905b815481529060010190602001808311611bce57829003601f168201915b50505050509050604051806060016040528085815260200183815260200182815250925050505b92915050565b6003546001600160a01b03163314611c2f57600080fd5b80600585604051611c40919061489b565b908152602001604051809103902060040184604051611c5f919061489b565b90815260408051918290036020908101832033600090815260039182019092529190200190611c8f90859061489b565b9081526040519081900360200190206008015550505050565b80600586604051611cb9919061489b565b908152602001604051809103902060040185604051611cd8919061489b565b90815260200160405180910390206003016000856001600160a01b03166001600160a01b0316815260200190815260200160002060030183604051611d1d919061489b565b908152604051908190036020019020600601555050505050565b6060600080600154818054611d4b906148b7565b80601f0160208091040260200160405190810160405280929190818152602001828054611d77906148b7565b8015611dc45780601f10611d9957610100808354040283529160200191611dc4565b820191906000526020600020905b815481529060010190602001808311611da757829003601f168201915b50505050509150915091509091565b6003546001600160a01b03163314611dea57600080fd5b80804210611e3a5760405162461bcd60e51b815260206004820152601e60248201527f456e642064617465206d75737420626520696e20746865206675747572650000604482015260640161072b565b60005b600586604051611e4d919061489b565b9081526040519081900360200190206003015481101561250e576000600587604051611e79919061489b565b90815260200160405180910390206003018281548110611e9b57611e9b6148f1565b906000526020600020018054611eb0906148b7565b80601f0160208091040260200160405190810160405280929190818152602001828054611edc906148b7565b8015611f295780601f10611efe57610100808354040283529160200191611f29565b820191906000526020600020905b815481529060010190602001808311611f0c57829003601f168201915b5050505050905060005b600588604051611f43919061489b565b908152602001604051809103902060040182604051611f62919061489b565b908152604051908190036020019020600201548110156124f9576000600589604051611f8e919061489b565b908152602001604051809103902060040183604051611fad919061489b565b90815260200160405180910390206002018281548110611fcf57611fcf6148f1565b6000918252602090912001546003546001600160a01b039182169250168114801561200457506003546001600160a01b031633145b15612036578260058a60405161201a919061489b565b908152604051908190036020019020906120349082614984565b505b600589604051612046919061489b565b908152602001604051809103902060040183604051612065919061489b565b90815260408051602092819003830190206001600160a01b0384166000908152600390910183529081206002018054600181018255908252919020016120ab8982614984565b508660058a6040516120bd919061489b565b9081526020016040518091039020600401846040516120dc919061489b565b90815260200160405180910390206003016000836001600160a01b03166001600160a01b0316815260200190815260200160002060030189604051612121919061489b565b90815260405190819003602001902061213b916002613d37565b5060408051808201825260648082526020820152905160059061215f908c9061489b565b90815260200160405180910390206004018460405161217e919061489b565b90815260200160405180910390206003016000836001600160a01b03166001600160a01b03168152602001908152602001600020600301896040516121c3919061489b565b90815260200160405180910390206002019060026121e2929190613d80565b50600060058a6040516121f5919061489b565b908152602001604051809103902060040184604051612214919061489b565b90815260200160405180910390206003016000836001600160a01b03166001600160a01b0316815260200190815260200160002060030189604051612259919061489b565b9081526020016040518091039020600601819055508560058a60405161227f919061489b565b90815260200160405180910390206004018460405161229e919061489b565b90815260200160405180910390206003016000836001600160a01b03166001600160a01b03168152602001908152602001600020600301896040516122e3919061489b565b908152602001604051809103902060070181905550600060058a60405161230a919061489b565b908152602001604051809103902060040184604051612329919061489b565b90815260200160405180910390206003016000836001600160a01b03166001600160a01b031681526020019081526020016000206003018960405161236e919061489b565b908152604051908190036020018120600901805492151560ff19909316929092179091556000906005906123a3908c9061489b565b9081526020016040518091039020600401846040516123c2919061489b565b90815260200160405180910390206003016000836001600160a01b03166001600160a01b0316815260200190815260200160002060030189604051612407919061489b565b908152604051908190036020019020600901805461ff0019166101008360028111156124355761243561416f565b0217905550600060058a60405161244c919061489b565b90815260200160405180910390206004018460405161246b919061489b565b90815260200160405180910390206003016000836001600160a01b03166001600160a01b03168152602001908152602001600020600301896040516124b0919061489b565b908152604051908190036020019020600901805462ff00001916620100008360018111156124e0576124e061416f565b02179055505080806124f19061491d565b915050611f33565b505080806125069061491d565b915050611e3d565b507f4e80c7b6db5296234afebf7d99ec0eb65b0f2f38ff5dd3e26caba99d095e8a228585604051610f2c929190614bac565b612548613ded565b600060058360405161255a919061489b565b90815260200160405180910390206001018054612576906148b7565b80601f01602080910402602001604051908101604052809291908181526020018280546125a2906148b7565b80156125ef5780601f106125c4576101008083540402835291602001916125ef565b820191906000526020600020905b8154815290600101906020018083116125d257829003601f168201915b505050505090506000600584604051612608919061489b565b90815260200160405180910390206002018054612624906148b7565b80601f0160208091040260200160405190810160405280929190818152602001828054612650906148b7565b801561269d5780601f106126725761010080835404028352916020019161269d565b820191906000526020600020905b81548152906001019060200180831161268057829003601f168201915b5050604080516060810182529889526020890196909652505050918401919091525090919050565b60606005836040516126d7919061489b565b9081526020016040518091039020600401826040516126f6919061489b565b90815260408051918290036020908101832033600090815260039091018252828120600201805480840286018401909452838552929184015b828210156127db57838290600052602060002001805461274e906148b7565b80601f016020809104026020016040519081016040528092919081815260200182805461277a906148b7565b80156127c75780601f1061279c576101008083540402835291602001916127c7565b820191906000526020600020905b8154815290600101906020018083116127aa57829003601f168201915b50505050508152602001906001019061272f565b50505050905092915050565b6000805b6005846040516127fb919061489b565b90815260200160405180910390206004018360405161281a919061489b565b908152604080516020928190038301902033600090815260039091019092529020600201548110156129e6576000600585604051612858919061489b565b908152602001604051809103902060040184604051612877919061489b565b90815260200160405180910390206003016000336001600160a01b03166001600160a01b0316815260200190815260200160002060020182815481106128bf576128bf6148f1565b9060005260206000200180546128d4906148b7565b80601f0160208091040260200160405190810160405280929190818152602001828054612900906148b7565b801561294d5780601f106129225761010080835404028352916020019161294d565b820191906000526020600020905b81548152906001019060200180831161293057829003601f168201915b50505050509050600585604051612964919061489b565b908152602001604051809103902060040184604051612983919061489b565b908152604080519182900360209081018320336000908152600391820190925291902001906129b390839061489b565b908152602001604051809103902060060154836129d09190614bda565b92505080806129de9061491d565b9150506127eb565b50806005846040516129f8919061489b565b908152602001604051809103902060040183604051612a17919061489b565b90815260408051602092819003830190203360009081526003909101909252902060010155505050565b6003546001600160a01b03163314612a5857600080fd5b600380546001600160a01b0319166001600160a01b0392909216919091179055565b6003546001600160a01b03163314612a9157600080fd5b81600584604051612aa2919061489b565b90815260200160405180910390206001019081612abf9190614984565b5080600584604051612ad1919061489b565b90815260200160405180910390206002019081612aee9190614984565b50600480546001810182556000919091527f8a35acfbc15ff81a39ae7d344fd709f28e8600b4aa8c65c6b64bfe7fe36bd19b01612b2b8482614984565b507f555b253affed0fbc45a98299974fb73cbb5e8e69293852d9bad2537ba127b1948383604051611a45929190614bac565b60606004805480602002602001604051908101604052809291908181526020016000905b82821015612c2d578382906000526020600020018054612ba0906148b7565b80601f0160208091040260200160405190810160405280929190818152602001828054612bcc906148b7565b8015612c195780601f10612bee57610100808354040283529160200191612c19565b820191906000526020600020905b815481529060010190602001808311612bfc57829003601f168201915b505050505081526020019060010190612b81565b50505050905090565b612c4083836107cd565b60005b600584604051612c53919061489b565b90815260405190819003602001902060030154811015612fdf576000600585604051612c7f919061489b565b90815260200160405180910390206003018281548110612ca157612ca16148f1565b906000526020600020018054612cb6906148b7565b80601f0160208091040260200160405190810160405280929190818152602001828054612ce2906148b7565b8015612d2f5780601f10612d0457610100808354040283529160200191612d2f565b820191906000526020600020905b815481529060010190602001808311612d1257829003601f168201915b5050505050905060005b600586604051612d49919061489b565b908152602001604051809103902060040182604051612d68919061489b565b90815260405190819003602001902060020154811015612fca576000600587604051612d94919061489b565b908152602001604051809103902060040183604051612db3919061489b565b90815260200160405180910390206002018281548110612dd557612dd56148f1565b6000918252602090912001546040516001600160a01b039091169150600590612dff90899061489b565b908152602001604051809103902060040183604051612e1e919061489b565b90815260200160405180910390206003016000826001600160a01b03166001600160a01b0316815260200190815260200160002060030186604051612e63919061489b565b908152602001604051809103902060070154421115612fb75784600588604051612e8d919061489b565b908152602001604051809103902060040184604051612eac919061489b565b90815260200160405180910390206003016000836001600160a01b03166001600160a01b0316815260200190815260200160002060030187604051612ef1919061489b565b9081526020016040518091039020600401906002612f10929190613dbf565b50612f1d87848389613a09565b6001600588604051612f2f919061489b565b908152602001604051809103902060040184604051612f4e919061489b565b90815260200160405180910390206003016000836001600160a01b03166001600160a01b0316815260200190815260200160002060030187604051612f93919061489b565b908152604051908190036020019020600901805491151560ff199092169190911790555b5080612fc28161491d565b915050612d39565b50508080612fd79061491d565b915050612c43565b50505050565b6060600583604051612ff7919061489b565b908152602001604051809103902060040182604051613016919061489b565b908152604080519182900360209081018320600201805480830285018301909352828452919083018282801561307557602002820191906000526020600020905b81546001600160a01b03168152600190910190602001808311613057575b5050505050905092915050565b600254604051634c373c8d60e11b8152600481018390526060916001600160a01b0316906000908190839063986e791a90602401600060405180830381865afa1580156130d3573d6000803e3d6000fd5b505050506040513d6000823e601f3d908101601f191682016040526130fb9190810190614bed565b9092509050600061310c8382614984565b506001559392505050565b6060600582604051613129919061489b565b9081526020016040518091039020600301805480602002602001604051908101604052809291908181526020016000905b82821015613206578382906000526020600020018054613179906148b7565b80601f01602080910402602001604051908101604052809291908181526020018280546131a5906148b7565b80156131f25780601f106131c7576101008083540402835291602001916131f2565b820191906000526020600020905b8154815290600101906020018083116131d557829003601f168201915b50505050508152602001906001019061315a565b505050509050919050565b6000600584604051613223919061489b565b908152602001604051809103902060040183604051613242919061489b565b9081526040805191829003602090810183203360009081526003918201909252919020019061327290849061489b565b9081526040519081900360200190206009015460ff6101009091041690509392505050565b606060006005836040516132ab919061489b565b9081526040519081900360200190206003015490506000816001600160401b038111156132da576132da613e76565b60405190808252806020026020018201604052801561330d57816020015b60608152602001906001900390816132f85790505b5090506000805b838110156134f957600060058760405161332e919061489b565b90815260200160405180910390206003018281548110613350576133506148f1565b906000526020600020018054613365906148b7565b80601f0160208091040260200160405190810160405280929190818152602001828054613391906148b7565b80156133de5780601f106133b3576101008083540402835291602001916133de565b820191906000526020600020905b8154815290600101906020018083116133c157829003601f168201915b5050505050905060005b6005886040516133f8919061489b565b908152602001604051809103902060040182604051613417919061489b565b908152604051908190036020019020600201548110156134e457336001600160a01b031660058960405161344b919061489b565b90815260200160405180910390206004018360405161346a919061489b565b9081526020016040518091039020600201828154811061348c5761348c6148f1565b6000918252602090912001546001600160a01b0316036134d257818585815181106134b9576134b96148f1565b60209081029190910101526134cf600185614bda565b93505b806134dc8161491d565b9150506133e8565b505080806134f19061491d565b915050613314565b506000816001600160401b0381111561351457613514613e76565b60405190808252806020026020018201604052801561354757816020015b60608152602001906001900390816135325790505b50905060005b8281101561359f57838181518110613567576135676148f1565b6020026020010151828281518110613581576135816148f1565b602002602001018190525080806135979061491d565b91505061354d565b5095945050505050565b6005846040516135b9919061489b565b9081526020016040518091039020600401836040516135d8919061489b565b9081526040805191829003602090810183203360009081526003918201909252919020019061360890849061489b565b9081526020016040518091039020600701544210156136a65780600585604051613632919061489b565b908152602001604051809103902060040184604051613651919061489b565b9081526040805191829003602090810183203360009081526003918201909252919020019061368190859061489b565b90815260200160405180910390206002019060026136a0929190613dbf565b50612fdf565b6136b084836107cd565b7f17aa2d4dbac46edf6407347f5fdf731be0a94966a788a2a89efa5e4d2cd26fd384836040516136e1929190614bac565b60405180910390a150505050565b606060006136fc83613297565b905060008151600585604051613712919061489b565b9081526040519081900360200190206003015461372f9190614c6d565b6001600160401b0381111561374657613746613e76565b60405190808252806020026020018201604052801561377957816020015b60608152602001906001900390816137645790505b5090506000805b600586604051613790919061489b565b90815260405190819003602001902060030154811015613983576000805b8551811015613875576005886040516137c7919061489b565b908152602001604051809103902060030183815481106137e9576137e96148f1565b906000526020600020016040516020016138039190614a86565b6040516020818303038152906040528051906020012086828151811061382b5761382b6148f1565b6020026020010151604051602001613843919061489b565b604051602081830303815290604052805190602001200361386357600191505b8061386d8161491d565b9150506137ae565b5080151560000361397057600587604051613890919061489b565b908152602001604051809103902060030182815481106138b2576138b26148f1565b9060005260206000200180546138c7906148b7565b80601f01602080910402602001604051908101604052809291908181526020018280546138f3906148b7565b80156139405780601f1061391557610100808354040283529160200191613940565b820191906000526020600020905b81548152906001019060200180831161392357829003601f168201915b5050505050848481518110613957576139576148f1565b602090810291909101015261396d600184614bda565b92505b508061397b8161491d565b915050613780565b5090949350505050565b600060058460405161399f919061489b565b9081526020016040518091039020600401836040516139be919061489b565b908152604080519182900360209081018320336000908152600391820190925291902001906139ee90849061489b565b90815260200160405180910390206006015490509392505050565b6000600585604051613a1b919061489b565b908152602001604051809103902060040184604051613a3a919061489b565b90815260200160405180910390206003016000846001600160a01b03166001600160a01b0316815260200190815260200160002060030182604051613a7f919061489b565b9081526040805191829003602001822082820190915260040160028282826020028201915b815481526020019060010190808311613aa457505050505090506000600586604051613ad0919061489b565b908152602001604051809103902060040185604051613aef919061489b565b90815260200160405180910390206003016000856001600160a01b03166001600160a01b0316815260200190815260200160002060030183604051613b34919061489b565b908152604080519182900360200182208282019182905260029081019182845b815481526020019060010190808311613b545750505050509050600081600060028110613b8357613b836148f1565b6020020151606414158015613b9d57506020820151606414155b15613ce95781518351148015613bba575060208083015190840151145b15613c71576001600588604051613bd1919061489b565b908152602001604051809103902060040187604051613bf0919061489b565b90815260200160405180910390206003016000876001600160a01b03166001600160a01b0316815260200190815260200160002060030185604051613c35919061489b565b908152604051908190036020019020600901805461ff001916610100836002811115613c6357613c6361416f565b021790555060039050613cdc565b60208301518351118015613c89575060208201518251115b15613c9657506001613cdc565b60208301518351108015613cae575060208201518251105b15613cbb57506001613cdc565b60208301518351148015613cd3575060208201518251145b15613cdc575060015b613ce98787878785611ca8565b50505050505050565b60405180604001604052806002905b6060815260200190600190039081613d015790505090565b60405180604001604052806002906020820280368337509192915050565b8260028101928215613d70579160200282015b82811115613d705782518290613d609082614984565b5091602001919060010190613d4a565b50613d7c929150613e07565b5090565b8260028101928215613db3579160200282015b82811115613db3578251829060ff16905591602001919060010190613d93565b50613d7c929150613e24565b8260028101928215613db3579160200282015b82811115613db3578251825591602001919060010190613dd2565b604080516060808201909252908152600260208201613d01565b80821115613d7c576000613e1b8282613e39565b50600101613e07565b5b80821115613d7c5760008155600101613e25565b508054613e45906148b7565b6000825580601f10613e55575050565b601f016020900490600052602060002090810190613e739190613e24565b50565b634e487b7160e01b600052604160045260246000fd5b604080519081016001600160401b0381118282101715613eae57613eae613e76565b60405290565b604051601f8201601f191681016001600160401b0381118282101715613edc57613edc613e76565b604052919050565b60006001600160401b03821115613efd57613efd613e76565b50601f01601f191660200190565b600082601f830112613f1c57600080fd5b8135613f2f613f2a82613ee4565b613eb4565b818152846020838601011115613f4457600080fd5b816020850160208301376000918101602001919091529392505050565b600080600060608486031215613f7657600080fd5b83356001600160401b0380821115613f8d57600080fd5b613f9987838801613f0b565b94506020860135915080821115613faf57600080fd5b613fbb87838801613f0b565b93506040860135915080821115613fd157600080fd5b50613fde86828701613f0b565b9150509250925092565b80356001600160a01b0381168114613fff57600080fd5b919050565b60008060006060848603121561401957600080fd5b83356001600160401b038082111561403057600080fd5b61403c87838801613f0b565b9450602086013591508082111561405257600080fd5b5061405f86828701613f0b565b92505061406e60408501613fe8565b90509250925092565b60005b8381101561409257818101518382015260200161407a565b50506000910152565b600081518084526140b3816020860160208601614077565b601f01601f19169290920160200192915050565b6040815260006140da604083018561409b565b90508260208301529392505050565b600080604083850312156140fc57600080fd5b82356001600160401b038082111561411357600080fd5b61411f86838701613f0b565b9350602085013591508082111561413557600080fd5b5061414285828601613f0b565b9150509250929050565b8060005b6002811015612fdf578151845260209384019390910190600101614150565b634e487b7160e01b600052602160045260246000fd5b610120808252600090820161016083018a835b60028110156141cc5761011f198684030184526141b683835161409b565b6020948501949093509190910190600101614198565b505080925050506141e0602083018961414c565b6141ed606083018861414c565b8560a08301528460c0830152600284106142095761420961416f565b8360e083015261421e61010083018415159052565b98975050505050505050565b600080600080600060a0868803121561424257600080fd5b85356001600160401b038082111561425957600080fd5b61426589838a01613f0b565b9650602088013591508082111561427b57600080fd5b61428789838a01613f0b565b9550604088013591508082111561429d57600080fd5b6142a989838a01613f0b565b945060608801359150808211156142bf57600080fd5b6142cb89838a01613f0b565b935060808801359150808211156142e157600080fd5b506142ee88828901613f0b565b9150509295509295909350565b60208082526000906080830183820185845b600381101561433c57601f1987850301835261432a84835161409b565b9350918401919084019060010161430d565b50919695505050505050565b6000806000806080858703121561435e57600080fd5b84356001600160401b038082111561437557600080fd5b61438188838901613f0b565b9550602087013591508082111561439757600080fd5b6143a388838901613f0b565b945060408701359150808211156143b957600080fd5b506143c687828801613f0b565b949793965093946060013593505050565b600080600080600060a086880312156143ef57600080fd5b85356001600160401b038082111561440657600080fd5b61441289838a01613f0b565b9650602088013591508082111561442857600080fd5b61443489838a01613f0b565b955061444260408901613fe8565b9450606088013591508082111561445857600080fd5b5061446588828901613f0b565b95989497509295608001359392505050565b6000806000806080858703121561448d57600080fd5b84356001600160401b03808211156144a457600080fd5b6144b088838901613f0b565b95506020915081870135818111156144c757600080fd5b6144d389828a01613f0b565b9550506040870135818111156144e857600080fd5b8701601f810189136144f957600080fd5b614501613e8c565b80604083018b81111561451357600080fd5b835b818110156145475780358681111561452d5760008081fd5b6145398e828801613f0b565b855250928601928601614515565b50989b979a5098606001359750505050505050565b60006020828403121561456e57600080fd5b81356001600160401b0381111561458457600080fd5b61459084828501613f0b565b949350505050565b6000602080830181845280855180835260408601915060408160051b870101925083870160005b828110156145ed57603f198886030184526145db85835161409b565b945092850192908501906001016145bf565b5092979650505050505050565b60006020828403121561460c57600080fd5b61461582613fe8565b9392505050565b600082601f83011261462d57600080fd5b614635613e8c565b80604084018581111561464757600080fd5b845b81811015614661578035845260209384019301614649565b509095945050505050565b60008060006080848603121561468157600080fd5b83356001600160401b038082111561469857600080fd5b6146a487838801613f0b565b945060208601359150808211156146ba57600080fd5b506146c786828701613f0b565b92505061406e856040860161461c565b6020808252825182820181905260009190848201906040850190845b818110156147185783516001600160a01b0316835292840192918401916001016146f3565b50909695505050505050565b60006020828403121561473657600080fd5b5035919050565b602081526000614615602083018461409b565b60208101600383106147645761476461416f565b91905290565b60008060008060a0858703121561478057600080fd5b84356001600160401b038082111561479757600080fd5b6147a388838901613f0b565b955060208701359150808211156147b957600080fd5b6147c588838901613f0b565b945060408701359150808211156147db57600080fd5b506147e887828801613f0b565b9250506147f8866060870161461c565b905092959194509250565b6000806000806080858703121561481957600080fd5b84356001600160401b038082111561483057600080fd5b61483c88838901613f0b565b9550602087013591508082111561485257600080fd5b61485e88838901613f0b565b945061486c60408801613fe8565b9350606087013591508082111561488257600080fd5b5061488f87828801613f0b565b91505092959194509250565b600082516148ad818460208701614077565b9190910192915050565b600181811c908216806148cb57607f821691505b6020821081036148eb57634e487b7160e01b600052602260045260246000fd5b50919050565b634e487b7160e01b600052603260045260246000fd5b634e487b7160e01b600052601160045260246000fd5b60006001820161492f5761492f614907565b5060010190565b601f821115610b7857600081815260208120601f850160051c8101602086101561495d5750805b601f850160051c820191505b8181101561497c57828155600101614969565b505050505050565b81516001600160401b0381111561499d5761499d613e76565b6149b1816149ab84546148b7565b84614936565b602080601f8311600181146149e657600084156149ce5750858301515b600019600386901b1c1916600185901b17855561497c565b600085815260208120601f198616915b82811015614a15578886015182559484019460019091019084016149f6565b5085821015614a335787850151600019600388901b60f8161c191681555b5050505050600190811b01905550565b606081526000614a56606083018661409b565b8281036020840152614a68818661409b565b90508281036040840152614a7c818561409b565b9695505050505050565b6000808354614a94816148b7565b60018281168015614aac5760018114614ac157614af0565b60ff1984168752821515830287019450614af0565b8760005260208060002060005b85811015614ae75781548a820152908401908201614ace565b50505082870194505b50929695505050505050565b606081526000614b0f606083018661409b565b602083820381850152614b22828761409b565b9150838203604085015260008554614b39816148b7565b80855260018281168015614b545760018114614b6e57614b9c565b60ff1984168787015282151560051b870186019450614b9c565b896000528560002060005b84811015614b94578154898201890152908301908701614b79565b880187019550505b50929a9950505050505050505050565b604081526000614bbf604083018561409b565b8281036020840152614bd1818561409b565b95945050505050565b80820180821115611c1257611c12614907565b60008060408385031215614c0057600080fd5b82516001600160401b03811115614c1657600080fd5b8301601f81018513614c2757600080fd5b8051614c35613f2a82613ee4565b818152866020838501011115614c4a57600080fd5b614c5b826020830160208601614077565b60209590950151949694955050505050565b81810381811115611c1257611c1261490756fea2646970667358221220a9dfe00f8a864f2894cbc12eaa700728ad86dbb2bf4d262a5c66d846b5aa8c4164736f6c63430008110033",
  "linkReferences": {},
  "deployedLinkReferences": {}
}