{
  "_format": "hh-sol-artifact-1",
  "contractName": "PetitProno",
  "sourceName": "contracts/PetitProno.sol",
  "abi": [
    {
      "inputs": [],
      "stateMutability": "nonpayable",
      "type": "constructor"
    },
    {
      "anonymous": false,
      "inputs": [
        {
          "indexed": false,
          "internalType": "string",
          "name": "_LeagueId",
          "type": "string"
        },
        {
          "indexed": false,
          "internalType": "uint256",
          "name": "_EndDate",
          "type": "uint256"
        },
        {
          "indexed": false,
          "internalType": "uint256",
          "name": "_matchDate",
          "type": "uint256"
        }
      ],
      "name": "EndDate",
      "type": "event"
    },
    {
      "anonymous": false,
      "inputs": [
        {
          "indexed": false,
          "internalType": "string",
          "name": "_LeagueId",
          "type": "string"
        },
        {
          "indexed": false,
          "internalType": "string",
          "name": "_matchId",
          "type": "string"
        }
      ],
      "name": "MatchAvailable",
      "type": "event"
    },
    {
      "anonymous": false,
      "inputs": [
        {
          "indexed": false,
          "internalType": "string",
          "name": "_LeagueId",
          "type": "string"
        },
        {
          "indexed": false,
          "internalType": "string",
          "name": "_ForecastId",
          "type": "string"
        }
      ],
      "name": "NewForecast",
      "type": "event"
    },
    {
      "anonymous": false,
      "inputs": [
        {
          "indexed": false,
          "internalType": "string",
          "name": "_LeagueId",
          "type": "string"
        },
        {
          "indexed": false,
          "internalType": "string",
          "name": "_League_name",
          "type": "string"
        }
      ],
      "name": "NewLeague",
      "type": "event"
    },
    {
      "anonymous": false,
      "inputs": [
        {
          "indexed": false,
          "internalType": "string",
          "name": "_LeagueId",
          "type": "string"
        },
        {
          "indexed": false,
          "internalType": "string",
          "name": "_TeamId",
          "type": "string"
        },
        {
          "indexed": false,
          "internalType": "string",
          "name": "_Team_name",
          "type": "string"
        }
      ],
      "name": "NewTeam",
      "type": "event"
    },
    {
      "inputs": [
        {
          "internalType": "string",
          "name": "_LeagueId",
          "type": "string"
        },
        {
          "internalType": "string",
          "name": "_matchId",
          "type": "string"
        },
        {
          "internalType": "string[2]",
          "name": "teams",
          "type": "string[2]"
        },
        {
          "internalType": "uint256",
          "name": "_endDate",
          "type": "uint256"
        }
      ],
      "name": "addForecast",
      "outputs": [],
      "stateMutability": "nonpayable",
      "type": "function"
    },
    {
      "inputs": [
        {
          "internalType": "string",
          "name": "_LeagueId",
          "type": "string"
        },
        {
          "internalType": "string",
          "name": "_League_name",
          "type": "string"
        },
        {
          "internalType": "string",
          "name": "_ipfs",
          "type": "string"
        }
      ],
      "name": "addLeague",
      "outputs": [],
      "stateMutability": "nonpayable",
      "type": "function"
    },
    {
      "inputs": [
        {
          "internalType": "string",
          "name": "_LeagueId",
          "type": "string"
        },
        {
          "internalType": "string",
          "name": "_TeamId",
          "type": "string"
        },
        {
          "internalType": "string",
          "name": "_Player_name",
          "type": "string"
        }
      ],
      "name": "addPlayer",
      "outputs": [],
      "stateMutability": "nonpayable",
      "type": "function"
    },
    {
      "inputs": [
        {
          "internalType": "string",
          "name": "_LeagueId",
          "type": "string"
        },
        {
          "internalType": "string",
          "name": "_TeamId",
          "type": "string"
        },
        {
          "internalType": "string",
          "name": "_Teame_Name",
          "type": "string"
        },
        {
          "internalType": "string",
          "name": "_Player_name",
          "type": "string"
        },
        {
          "internalType": "string",
          "name": "_ipfs",
          "type": "string"
        }
      ],
      "name": "addTeam",
      "outputs": [],
      "stateMutability": "nonpayable",
      "type": "function"
    },
    {
      "inputs": [],
      "name": "get",
      "outputs": [
        {
          "internalType": "string",
          "name": "",
          "type": "string"
        },
        {
          "internalType": "uint256",
          "name": "",
          "type": "uint256"
        }
      ],
      "stateMutability": "view",
      "type": "function"
    },
    {
      "inputs": [
        {
          "internalType": "string",
          "name": "_LeagueId",
          "type": "string"
        },
        {
          "internalType": "string",
          "name": "_TeamId",
          "type": "string"
        }
      ],
      "name": "getAllPlayerAddrFromOneTeam",
      "outputs": [
        {
          "internalType": "address[]",
          "name": "",
          "type": "address[]"
        }
      ],
      "stateMutability": "view",
      "type": "function"
    },
    {
      "inputs": [
        {
          "internalType": "string",
          "name": "_LeagueId",
          "type": "string"
        },
        {
          "internalType": "string",
          "name": "_TeamId",
          "type": "string"
        },
        {
          "internalType": "string",
          "name": "_matchId",
          "type": "string"
        }
      ],
      "name": "getForecast",
      "outputs": [
        {
          "internalType": "string[2]",
          "name": "",
          "type": "string[2]"
        },
        {
          "internalType": "uint256[2]",
          "name": "",
          "type": "uint256[2]"
        },
        {
          "internalType": "uint256[2]",
          "name": "",
          "type": "uint256[2]"
        },
        {
          "internalType": "uint256",
          "name": "",
          "type": "uint256"
        },
        {
          "internalType": "uint256",
          "name": "",
          "type": "uint256"
        },
        {
          "internalType": "enum PetitProno.Time",
          "name": "",
          "type": "uint8"
        }
      ],
      "stateMutability": "view",
      "type": "function"
    },
    {
      "inputs": [
        {
          "internalType": "string",
          "name": "_LeagueId",
          "type": "string"
        },
        {
          "internalType": "string",
          "name": "_TeamId",
          "type": "string"
        }
      ],
      "name": "getForecastId",
      "outputs": [
        {
          "internalType": "string[]",
          "name": "",
          "type": "string[]"
        }
      ],
      "stateMutability": "view",
      "type": "function"
    },
    {
      "inputs": [
        {
          "internalType": "string",
          "name": "_LeagueId",
          "type": "string"
        },
        {
          "internalType": "string",
          "name": "_TeamId",
          "type": "string"
        },
        {
          "internalType": "string",
          "name": "_matchId",
          "type": "string"
        }
      ],
      "name": "getForecastOracleId",
      "outputs": [
        {
          "internalType": "bytes32",
          "name": "",
          "type": "bytes32"
        }
      ],
      "stateMutability": "view",
      "type": "function"
    },
    {
      "inputs": [
        {
          "internalType": "string",
          "name": "_LeagueId",
          "type": "string"
        },
        {
          "internalType": "string",
          "name": "_TeamId",
          "type": "string"
        },
        {
          "internalType": "string",
          "name": "_matchId",
          "type": "string"
        }
      ],
      "name": "getForecastPointNb",
      "outputs": [
        {
          "internalType": "uint256",
          "name": "",
          "type": "uint256"
        }
      ],
      "stateMutability": "view",
      "type": "function"
    },
    {
      "inputs": [
        {
          "internalType": "string",
          "name": "_LeagueId",
          "type": "string"
        }
      ],
      "name": "getFreeTeamFromOneLeague",
      "outputs": [
        {
          "internalType": "string[]",
          "name": "",
          "type": "string[]"
        }
      ],
      "stateMutability": "view",
      "type": "function"
    },
    {
      "inputs": [
        {
          "internalType": "string",
          "name": "_LeagueId",
          "type": "string"
        }
      ],
      "name": "getLeagueById",
      "outputs": [
        {
          "internalType": "string[3]",
          "name": "",
          "type": "string[3]"
        }
      ],
      "stateMutability": "view",
      "type": "function"
    },
    {
      "inputs": [],
      "name": "getLeaguesID",
      "outputs": [
        {
          "internalType": "string[]",
          "name": "",
          "type": "string[]"
        }
      ],
      "stateMutability": "view",
      "type": "function"
    },
    {
      "inputs": [
        {
          "internalType": "string",
          "name": "_LeagueId",
          "type": "string"
        }
      ],
      "name": "getMyTeamFromOneLeague",
      "outputs": [
        {
          "internalType": "string[]",
          "name": "",
          "type": "string[]"
        }
      ],
      "stateMutability": "view",
      "type": "function"
    },
    {
      "inputs": [
        {
          "internalType": "bytes32",
          "name": "_oracleId",
          "type": "bytes32"
        }
      ],
      "name": "getOracleData",
      "outputs": [
        {
          "internalType": "string",
          "name": "",
          "type": "string"
        }
      ],
      "stateMutability": "nonpayable",
      "type": "function"
    },
    {
      "inputs": [
        {
          "internalType": "string",
          "name": "_LeagueId",
          "type": "string"
        },
        {
          "internalType": "string",
          "name": "_TeamId",
          "type": "string"
        },
        {
          "internalType": "address",
          "name": "_walletId",
          "type": "address"
        }
      ],
      "name": "getPlayerInfo",
      "outputs": [
        {
          "internalType": "string",
          "name": "",
          "type": "string"
        },
        {
          "internalType": "uint256",
          "name": "",
          "type": "uint256"
        }
      ],
      "stateMutability": "view",
      "type": "function"
    },
    {
      "inputs": [
        {
          "internalType": "string",
          "name": "_LeagueId",
          "type": "string"
        }
      ],
      "name": "getTeamsIdFromOneLeague",
      "outputs": [
        {
          "internalType": "string[]",
          "name": "",
          "type": "string[]"
        }
      ],
      "stateMutability": "view",
      "type": "function"
    },
    {
      "inputs": [
        {
          "internalType": "string",
          "name": "_LeagueId",
          "type": "string"
        },
        {
          "internalType": "string",
          "name": "_TeamId",
          "type": "string"
        }
      ],
      "name": "getTeamsInfos",
      "outputs": [
        {
          "internalType": "string[3]",
          "name": "",
          "type": "string[3]"
        }
      ],
      "stateMutability": "view",
      "type": "function"
    },
    {
      "inputs": [],
      "name": "owner",
      "outputs": [
        {
          "internalType": "address",
          "name": "",
          "type": "address"
        }
      ],
      "stateMutability": "view",
      "type": "function"
    },
    {
      "inputs": [
        {
          "internalType": "string",
          "name": "_LeagueId",
          "type": "string"
        },
        {
          "internalType": "string",
          "name": "_TeamId",
          "type": "string"
        },
        {
          "internalType": "string",
          "name": "_matchId",
          "type": "string"
        },
        {
          "internalType": "bytes32",
          "name": "_OracleId",
          "type": "bytes32"
        }
      ],
      "name": "setForecastOracleId",
      "outputs": [],
      "stateMutability": "nonpayable",
      "type": "function"
    },
    {
      "inputs": [
        {
          "internalType": "string",
          "name": "_LeagueId",
          "type": "string"
        },
        {
          "internalType": "string",
          "name": "_TeamId",
          "type": "string"
        },
        {
          "internalType": "address",
          "name": "_walletId",
          "type": "address"
        },
        {
          "internalType": "string",
          "name": "_matchId",
          "type": "string"
        },
        {
          "internalType": "uint256",
          "name": "_PointNb",
          "type": "uint256"
        }
      ],
      "name": "setForecastPointNb",
      "outputs": [],
      "stateMutability": "nonpayable",
      "type": "function"
    },
    {
      "inputs": [
        {
          "internalType": "string",
          "name": "_LeagueId",
          "type": "string"
        },
        {
          "internalType": "string",
          "name": "_TeamId",
          "type": "string"
        },
        {
          "internalType": "string",
          "name": "_matchId",
          "type": "string"
        },
        {
          "internalType": "uint256[2]",
          "name": "_prono",
          "type": "uint256[2]"
        }
      ],
      "name": "setForecastProno",
      "outputs": [],
      "stateMutability": "nonpayable",
      "type": "function"
    },
    {
      "inputs": [
        {
          "internalType": "string",
          "name": "_LeagueId",
          "type": "string"
        },
        {
          "internalType": "string",
          "name": "_TeamId",
          "type": "string"
        },
        {
          "internalType": "address",
          "name": "_walletId",
          "type": "address"
        },
        {
          "internalType": "string",
          "name": "_matchId",
          "type": "string"
        },
        {
          "internalType": "uint256[2]",
          "name": "_result",
          "type": "uint256[2]"
        }
      ],
      "name": "setForecastResult",
      "outputs": [],
      "stateMutability": "nonpayable",
      "type": "function"
    },
    {
      "inputs": [
        {
          "internalType": "string",
          "name": "_LeagueId",
          "type": "string"
        },
        {
          "internalType": "string",
          "name": "_TeamId",
          "type": "string"
        }
      ],
      "name": "updateScore",
      "outputs": [],
      "stateMutability": "nonpayable",
      "type": "function"
    },
    {
      "inputs": [
        {
          "internalType": "string",
          "name": "_LeagueId",
          "type": "string"
        },
        {
          "internalType": "string",
          "name": "_matchId",
          "type": "string"
        }
      ],
      "name": "updateTime",
      "outputs": [],
      "stateMutability": "nonpayable",
      "type": "function"
    }
  ],
  "bytecode": "0x6080604052600280546001600160a01b03191673456891c78077d31f70ca027a46d68f84a2b814d417905534801561003657600080fd5b50600380546001600160a01b03191633179055613773806100586000396000f3fe608060405234801561001057600080fd5b50600436106101735760003560e01c80638a3baacd116100de578063b581130311610097578063d5e79a1311610071578063d5e79a1314610372578063d73fd54814610385578063f10efc5014610398578063f399684a146103ab57600080fd5b8063b58113031461031f578063b5e4b8131461033f578063c34901d91461035f57600080fd5b80638a3baacd146102935780638da5cb5b146102a657806393e353f3146102d157806395bdb510146102f1578063a9b756ce14610304578063b0a5e4bd1461031757600080fd5b806345c7a7451161013057806345c7a7451461021f578063513a7beb146102325780636439ca61146102525780636808efb2146102655780636d4ce63c1461027857806375c253771461028057600080fd5b806305fddcc8146101785780630a59169a1461019e578063138ab2c3146101bf57806323e2fdf8146101d457806335e35a4d146101e75780633cdf244b1461020c575b600080fd5b61018b610186366004612a95565b6103be565b6040519081526020015b60405180910390f35b6101b16101ac366004612b38565b61043a565b604051610195929190612bfb565b6101d26101cd366004612c6d565b61059e565b005b6101d26101e2366004612d17565b61063a565b6101fa6101f5366004612a95565b6109e0565b60405161019596959493929190612db3565b6101d261021a366004612e55565b610c28565b6101d261022d366004612a95565b610d4d565b610245610240366004612d17565b610e88565b6040516101959190612f26565b6101d2610260366004612f73565b61104e565b6101d2610273366004613002565b6110de565b6101b161116d565b6101d261028e3660046130a2565b611209565b6102456102a1366004613187565b61180c565b6003546102b9906001600160a01b031681565b6040516001600160a01b039091168152602001610195565b6102e46102df366004612d17565b61198f565b60405161019591906131c3565b6101d26102ff366004612d17565b611ab1565b6101d2610312366004612a95565b611d0b565b6102e4611deb565b61033261032d366004612d17565b611ec4565b6040516101959190613225565b61035261034d366004613272565b611f61565b604051610195919061328b565b6102e461036d366004613187565b611ff6565b6102e4610380366004613187565b6120f0565b6101d26103933660046132a5565b612402565b6102e46103a6366004613187565b61253f565b61018b6103b9366004612a95565b6127dd565b60006005846040516103d0919061333e565b9081526020016040518091039020600301836040516103ef919061333e565b9081526040805191829003602090810183203360009081526003918201909252919020019061041f90849061333e565b90815260200160405180910390206008015490509392505050565b606060008060058660405161044f919061333e565b90815260200160405180910390206003018560405161046e919061333e565b90815260200160405180910390206003016000856001600160a01b03166001600160a01b0316815260200190815260200160002060000180546104b09061335a565b80601f01602080910402602001604051908101604052809291908181526020018280546104dc9061335a565b80156105295780601f106104fe57610100808354040283529160200191610529565b820191906000526020600020905b81548152906001019060200180831161050c57829003601f168201915b505050505090506000600587604051610542919061333e565b908152602001604051809103902060030186604051610561919061333e565b90815260408051602092819003830190206001600160a01b0397909716600090815260039097019091529094206001015490969095509350505050565b806005866040516105af919061333e565b9081526020016040518091039020600301856040516105ce919061333e565b90815260200160405180910390206003016000856001600160a01b03166001600160a01b0316815260200190815260200160002060030183604051610613919061333e565b9081526020016040518091039020600401906002610632929190612859565b505050505050565b60005b60058360405161064d919061333e565b908152604051908190036020019020600201548110156109db576000600584604051610679919061333e565b9081526020016040518091039020600201828154811061069b5761069b613394565b9060005260206000200180546106b09061335a565b80601f01602080910402602001604051908101604052809291908181526020018280546106dc9061335a565b80156107295780601f106106fe57610100808354040283529160200191610729565b820191906000526020600020905b81548152906001019060200180831161070c57829003601f168201915b5050505050905060005b600585604051610743919061333e565b908152602001604051809103902060030182604051610762919061333e565b908152604051908190036020019020600201548110156109c657600060058660405161078e919061333e565b9081526020016040518091039020600301836040516107ad919061333e565b908152602001604051809103902060020182815481106107cf576107cf613394565b6000918252602090912001546040516001600160a01b0390911691506005906107f990889061333e565b908152602001604051809103902060030183604051610818919061333e565b9081526040805191829003602090810183203360009081526003918201909252919020019061084890879061333e565b90815260200160405180910390206007015443101561090c576000600587604051610873919061333e565b908152602001604051809103902060030184604051610892919061333e565b90815260200160405180910390206003016000836001600160a01b03166001600160a01b03168152602001908152602001600020600301866040516108d7919061333e565b908152604051908190036020019020600a01805460ff19166001838181111561090257610902612d9d565b02179055506109b3565b600160058760405161091e919061333e565b90815260200160405180910390206003018460405161093d919061333e565b90815260200160405180910390206003016000836001600160a01b03166001600160a01b0316815260200190815260200160002060030186604051610982919061333e565b908152604051908190036020019020600a01805460ff1916600183818111156109ad576109ad612d9d565b02179055505b50806109be816133c0565b915050610733565b505080806109d3906133c0565b91505061063d565b505050565b6109e8612897565b6109f06128be565b6109f86128be565b60008060008060058a604051610a0e919061333e565b908152602001604051809103902060030189604051610a2d919061333e565b90815260408051918290036020908101832033600090815260039182019092529190200190610a5d908a9061333e565b9081526040805191829003602001822061014083019091528161010081018260026000835b82821015610b25578382018054610a989061335a565b80601f0160208091040260200160405190810160405280929190818152602001828054610ac49061335a565b8015610b115780601f10610ae657610100808354040283529160200191610b11565b820191906000526020600020905b815481529060010190602001808311610af457829003601f168201915b505050505081526020019060010190610a82565b5050509082525060408051808201918290526020909201919060028481019182845b815481526020019060010190808311610b47575050509183525050604080518082019182905260209092019190600484019060029082845b815481526020019060010190808311610b7f57505050918352505060068201546020820152600782015460408201526008820154606082015260098201546080820152600a82015460a09091019060ff166001811115610be157610be1612d9d565b6001811115610bf257610bf2612d9d565b905250805160208201516040830151606084015160c085015160e090950151939f929e50909c509a509198509650945050505050565b82600586604051610c39919061333e565b908152602001604051809103902060030185604051610c58919061333e565b90815260405190819003602001902090610c72908261341f565b5080600586604051610c84919061333e565b908152602001604051809103902060030185604051610ca3919061333e565b90815260200160405180910390206001019081610cc0919061341f565b50600585604051610cd1919061333e565b908152604051602091819003820190206002018054600181018255600091825291902001610cff858261341f565b50610d0b858584610d4d565b7fe3c7ad3e0a7039496bfdf53f2459da724adffa66091605f5a41831a1b318bdaa858585604051610d3e939291906134de565b60405180910390a15050505050565b80600584604051610d5e919061333e565b908152602001604051809103902060030183604051610d7d919061333e565b90815260408051602092819003830190203360009081526003909101909252902090610da9908261341f565b50600583604051610dba919061333e565b908152602001604051809103902060030182604051610dd9919061333e565b9081526040519081900360209081018220600201805460018101825560009182529190200180546001600160a01b031916331790557fe3c7ad3e0a7039496bfdf53f2459da724adffa66091605f5a41831a1b318bdaa9084908490600590610e4290849061333e565b908152602001604051809103902060030185604051610e61919061333e565b908152604051908190036020018120610e7b939291613521565b60405180910390a1505050565b610e906128dc565b6000600584604051610ea2919061333e565b908152602001604051809103902060030183604051610ec1919061333e565b9081526040519081900360200190208054610edb9061335a565b80601f0160208091040260200160405190810160405280929190818152602001828054610f079061335a565b8015610f545780601f10610f2957610100808354040283529160200191610f54565b820191906000526020600020905b815481529060010190602001808311610f3757829003601f168201915b505050505090506000600585604051610f6d919061333e565b908152602001604051809103902060030184604051610f8c919061333e565b90815260200160405180910390206001018054610fa89061335a565b80601f0160208091040260200160405190810160405280929190818152602001828054610fd49061335a565b80156110215780601f10610ff657610100808354040283529160200191611021565b820191906000526020600020905b81548152906001019060200180831161100457829003601f168201915b50505050509050604051806060016040528085815260200183815260200182815250925050505b92915050565b6003546001600160a01b0316331461106557600080fd5b80600585604051611076919061333e565b908152602001604051809103902060030184604051611095919061333e565b908152604080519182900360209081018320336000908152600391820190925291902001906110c590859061333e565b9081526040519081900360200190206008015550505050565b806005866040516110ef919061333e565b90815260200160405180910390206003018560405161110e919061333e565b90815260200160405180910390206003016000856001600160a01b03166001600160a01b0316815260200190815260200160002060030183604051611153919061333e565b908152604051908190036020019020600601555050505050565b60606000806001548180546111819061335a565b80601f01602080910402602001604051908101604052809291908181526020018280546111ad9061335a565b80156111fa5780601f106111cf576101008083540402835291602001916111fa565b820191906000526020600020905b8154815290600101906020018083116111dd57829003601f168201915b50505050509150915091509091565b8080421061125d5760405162461bcd60e51b815260206004820152601e60248201527f456e642064617465206d75737420626520696e20746865206675747572650000604482015260640160405180910390fd5b6000600561126b42856135d1565b61127591906135e4565b61127f9043613606565b905060005b600587604051611294919061333e565b908152604051908190036020019020600201548110156117ca5760006005886040516112c0919061333e565b908152602001604051809103902060020182815481106112e2576112e2613394565b9060005260206000200180546112f79061335a565b80601f01602080910402602001604051908101604052809291908181526020018280546113239061335a565b80156113705780601f1061134557610100808354040283529160200191611370565b820191906000526020600020905b81548152906001019060200180831161135357829003601f168201915b5050505050905060005b60058960405161138a919061333e565b9081526020016040518091039020600301826040516113a9919061333e565b908152604051908190036020019020600201548110156117b557600060058a6040516113d5919061333e565b9081526020016040518091039020600301836040516113f4919061333e565b9081526020016040518091039020600201828154811061141657611416613394565b6000918252602090912001546040516001600160a01b039091169150600590611440908c9061333e565b90815260200160405180910390206003018360405161145f919061333e565b90815260408051602092819003830190206001600160a01b0384166000908152600390910183529081206002018054600181018255908252919020016114a58a8261341f565b508460058b6040516114b7919061333e565b9081526020016040518091039020600301846040516114d6919061333e565b90815260200160405180910390206003016000836001600160a01b03166001600160a01b031681526020019081526020016000206003018a60405161151b919061333e565b9081526020016040518091039020600701819055508760058b604051611541919061333e565b908152602001604051809103902060030184604051611560919061333e565b90815260200160405180910390206003016000836001600160a01b03166001600160a01b031681526020019081526020016000206003018a6040516115a5919061333e565b9081526040519081900360200190206115bf9160026128f6565b508660058b6040516115d1919061333e565b9081526020016040518091039020600301846040516115f0919061333e565b90815260200160405180910390206003016000836001600160a01b03166001600160a01b031681526020019081526020016000206003018a604051611635919061333e565b90815260405190819003602001902060090155438511156116fb57600060058b604051611662919061333e565b908152602001604051809103902060030184604051611681919061333e565b90815260200160405180910390206003016000836001600160a01b03166001600160a01b031681526020019081526020016000206003018a6040516116c6919061333e565b908152604051908190036020019020600a01805460ff1916600183818111156116f1576116f1612d9d565b02179055506117a2565b600160058b60405161170d919061333e565b90815260200160405180910390206003018460405161172c919061333e565b90815260200160405180910390206003016000836001600160a01b03166001600160a01b031681526020019081526020016000206003018a604051611771919061333e565b908152604051908190036020019020600a01805460ff19166001838181111561179c5761179c612d9d565b02179055505b50806117ad816133c0565b91505061137a565b505080806117c2906133c0565b915050611284565b507f4e80c7b6db5296234afebf7d99ec0eb65b0f2f38ff5dd3e26caba99d095e8a2286866040516117fc929190613619565b60405180910390a1505050505050565b6118146128dc565b6000600583604051611826919061333e565b90815260405190819003602001902080546118409061335a565b80601f016020809104026020016040519081016040528092919081815260200182805461186c9061335a565b80156118b95780601f1061188e576101008083540402835291602001916118b9565b820191906000526020600020905b81548152906001019060200180831161189c57829003601f168201915b5050505050905060006005846040516118d2919061333e565b908152602001604051809103902060010180546118ee9061335a565b80601f016020809104026020016040519081016040528092919081815260200182805461191a9061335a565b80156119675780601f1061193c57610100808354040283529160200191611967565b820191906000526020600020905b81548152906001019060200180831161194a57829003601f168201915b5050604080516060810182529889526020890196909652505050918401919091525090919050565b60606005836040516119a1919061333e565b9081526020016040518091039020600301826040516119c0919061333e565b90815260408051918290036020908101832033600090815260039091018252828120600201805480840286018401909452838552929184015b82821015611aa5578382906000526020600020018054611a189061335a565b80601f0160208091040260200160405190810160405280929190818152602001828054611a449061335a565b8015611a915780601f10611a6657610100808354040283529160200191611a91565b820191906000526020600020905b815481529060010190602001808311611a7457829003601f168201915b5050505050815260200190600101906119f9565b50505050905092915050565b6000805b600584604051611ac5919061333e565b908152602001604051809103902060030183604051611ae4919061333e565b90815260408051602092819003830190203360009081526003909101909252902060020154811015611cb0576000600585604051611b22919061333e565b908152602001604051809103902060030184604051611b41919061333e565b90815260200160405180910390206003016000336001600160a01b03166001600160a01b031681526020019081526020016000206002018281548110611b8957611b89613394565b906000526020600020018054611b9e9061335a565b80601f0160208091040260200160405190810160405280929190818152602001828054611bca9061335a565b8015611c175780601f10611bec57610100808354040283529160200191611c17565b820191906000526020600020905b815481529060010190602001808311611bfa57829003601f168201915b50505050509050600585604051611c2e919061333e565b908152602001604051809103902060030184604051611c4d919061333e565b90815260408051918290036020908101832033600090815260039182019092529190200190611c7d90839061333e565b90815260200160405180910390206006015483611c9a9190613606565b9250508080611ca8906133c0565b915050611ab5565b5080600584604051611cc2919061333e565b908152602001604051809103902060030183604051611ce1919061333e565b90815260408051602092819003830190203360009081526003909101909252902060010155505050565b6003546001600160a01b03163314611d2257600080fd5b81600584604051611d33919061333e565b90815260405190819003602001902090611d4d908261341f565b5080600584604051611d5f919061333e565b90815260200160405180910390206001019081611d7c919061341f565b50600480546001810182556000919091527f8a35acfbc15ff81a39ae7d344fd709f28e8600b4aa8c65c6b64bfe7fe36bd19b01611db9848261341f565b507f555b253affed0fbc45a98299974fb73cbb5e8e69293852d9bad2537ba127b1948383604051610e7b929190613619565b60606004805480602002602001604051908101604052809291908181526020016000905b82821015611ebb578382906000526020600020018054611e2e9061335a565b80601f0160208091040260200160405190810160405280929190818152602001828054611e5a9061335a565b8015611ea75780601f10611e7c57610100808354040283529160200191611ea7565b820191906000526020600020905b815481529060010190602001808311611e8a57829003601f168201915b505050505081526020019060010190611e0f565b50505050905090565b6060600583604051611ed6919061333e565b908152602001604051809103902060030182604051611ef5919061333e565b9081526040805191829003602090810183206002018054808302850183019093528284529190830182828015611f5457602002820191906000526020600020905b81546001600160a01b03168152600190910190602001808311611f36575b5050505050905092915050565b600254604051634c373c8d60e11b8152600481018390526060916001600160a01b0316906000908190839063986e791a90602401600060405180830381865afa158015611fb2573d6000803e3d6000fd5b505050506040513d6000823e601f3d908101601f19168201604052611fda9190810190613647565b90925090506000611feb838261341f565b506001559392505050565b6060600582604051612008919061333e565b9081526020016040518091039020600201805480602002602001604051908101604052809291908181526020016000905b828210156120e55783829060005260206000200180546120589061335a565b80601f01602080910402602001604051908101604052809291908181526020018280546120849061335a565b80156120d15780601f106120a6576101008083540402835291602001916120d1565b820191906000526020600020905b8154815290600101906020018083116120b457829003601f168201915b505050505081526020019060010190612039565b505050509050919050565b60606000600583604051612104919061333e565b9081526040519081900360200190206002015490506000816001600160401b03811115612133576121336129aa565b60405190808252806020026020018201604052801561216657816020015b60608152602001906001900390816121515790505b5090506000805b83811015612352576000600587604051612187919061333e565b908152602001604051809103902060020182815481106121a9576121a9613394565b9060005260206000200180546121be9061335a565b80601f01602080910402602001604051908101604052809291908181526020018280546121ea9061335a565b80156122375780601f1061220c57610100808354040283529160200191612237565b820191906000526020600020905b81548152906001019060200180831161221a57829003601f168201915b5050505050905060005b600588604051612251919061333e565b908152602001604051809103902060030182604051612270919061333e565b9081526040519081900360200190206002015481101561233d57336001600160a01b03166005896040516122a4919061333e565b9081526020016040518091039020600301836040516122c3919061333e565b908152602001604051809103902060020182815481106122e5576122e5613394565b6000918252602090912001546001600160a01b03160361232b578185858151811061231257612312613394565b6020908102919091010152612328600185613606565b93505b80612335816133c0565b915050612241565b5050808061234a906133c0565b91505061216d565b506000816001600160401b0381111561236d5761236d6129aa565b6040519080825280602002602001820160405280156123a057816020015b606081526020019060019003908161238b5790505b50905060005b828110156123f8578381815181106123c0576123c0613394565b60200260200101518282815181106123da576123da613394565b602002602001018190525080806123f0906133c0565b9150506123a6565b5095945050505050565b600584604051612412919061333e565b908152602001604051809103902060030183604051612431919061333e565b9081526040805191829003602090810183203360009081526003918201909252919020019061246190849061333e565b9081526020016040518091039020600701544310156124ff578060058560405161248b919061333e565b9081526020016040518091039020600301846040516124aa919061333e565b908152604080519182900360209081018320336000908152600391820190925291902001906124da90859061333e565b90815260200160405180910390206002019060026124f9929190612859565b50612539565b7f17aa2d4dbac46edf6407347f5fdf731be0a94966a788a2a89efa5e4d2cd26fd38483604051612530929190613619565b60405180910390a15b50505050565b6060600061254c836120f0565b905060008151600585604051612562919061333e565b9081526040519081900360200190206002015461257f91906135d1565b6001600160401b03811115612596576125966129aa565b6040519080825280602002602001820160405280156125c957816020015b60608152602001906001900390816125b45790505b5090506000805b6005866040516125e0919061333e565b908152604051908190036020019020600201548110156127d3576000805b85518110156126c557600588604051612617919061333e565b9081526020016040518091039020600201838154811061263957612639613394565b9060005260206000200160405160200161265391906136c7565b6040516020818303038152906040528051906020012086828151811061267b5761267b613394565b6020026020010151604051602001612693919061333e565b60405160208183030381529060405280519060200120036126b357600191505b806126bd816133c0565b9150506125fe565b508015156000036127c0576005876040516126e0919061333e565b9081526020016040518091039020600201828154811061270257612702613394565b9060005260206000200180546127179061335a565b80601f01602080910402602001604051908101604052809291908181526020018280546127439061335a565b80156127905780601f1061276557610100808354040283529160200191612790565b820191906000526020600020905b81548152906001019060200180831161277357829003601f168201915b50505050508484815181106127a7576127a7613394565b60209081029190910101526127bd600184613606565b92505b50806127cb816133c0565b9150506125d0565b5090949350505050565b60006005846040516127ef919061333e565b90815260200160405180910390206003018360405161280e919061333e565b9081526040805191829003602090810183203360009081526003918201909252919020019061283e90849061333e565b90815260200160405180910390206006015490509392505050565b8260028101928215612887579160200282015b8281111561288757825182559160200191906001019061286c565b5061289392915061293b565b5090565b60405180604001604052806002905b60608152602001906001900390816128a65790505090565b60405180604001604052806002906020820280368337509192915050565b6040805160608082019092529081526002602082016128a6565b826002810192821561292f579160200282015b8281111561292f578251829061291f908261341f565b5091602001919060010190612909565b50612893929150612950565b5b80821115612893576000815560010161293c565b80821115612893576000612964828261296d565b50600101612950565b5080546129799061335a565b6000825580601f10612989575050565b601f0160209004906000526020600020908101906129a7919061293b565b50565b634e487b7160e01b600052604160045260246000fd5b604080519081016001600160401b03811182821017156129e2576129e26129aa565b60405290565b604051601f8201601f191681016001600160401b0381118282101715612a1057612a106129aa565b604052919050565b60006001600160401b03821115612a3157612a316129aa565b50601f01601f191660200190565b600082601f830112612a5057600080fd5b8135612a63612a5e82612a18565b6129e8565b818152846020838601011115612a7857600080fd5b816020850160208301376000918101602001919091529392505050565b600080600060608486031215612aaa57600080fd5b83356001600160401b0380821115612ac157600080fd5b612acd87838801612a3f565b94506020860135915080821115612ae357600080fd5b612aef87838801612a3f565b93506040860135915080821115612b0557600080fd5b50612b1286828701612a3f565b9150509250925092565b80356001600160a01b0381168114612b3357600080fd5b919050565b600080600060608486031215612b4d57600080fd5b83356001600160401b0380821115612b6457600080fd5b612b7087838801612a3f565b94506020860135915080821115612b8657600080fd5b50612b9386828701612a3f565b925050612ba260408501612b1c565b90509250925092565b60005b83811015612bc6578181015183820152602001612bae565b50506000910152565b60008151808452612be7816020860160208601612bab565b601f01601f19169290920160200192915050565b604081526000612c0e6040830185612bcf565b90508260208301529392505050565b600082601f830112612c2e57600080fd5b612c366129c0565b806040840185811115612c4857600080fd5b845b81811015612c62578035845260209384019301612c4a565b509095945050505050565b600080600080600060c08688031215612c8557600080fd5b85356001600160401b0380821115612c9c57600080fd5b612ca889838a01612a3f565b96506020880135915080821115612cbe57600080fd5b612cca89838a01612a3f565b9550612cd860408901612b1c565b94506060880135915080821115612cee57600080fd5b50612cfb88828901612a3f565b925050612d0b8760808801612c1d565b90509295509295909350565b60008060408385031215612d2a57600080fd5b82356001600160401b0380821115612d4157600080fd5b612d4d86838701612a3f565b93506020850135915080821115612d6357600080fd5b50612d7085828601612a3f565b9150509250929050565b8060005b6002811015612539578151845260209384019390910190600101612d7e565b634e487b7160e01b600052602160045260246000fd5b6101008082526000908201610140830189835b6002811015612df95760ff19868403018452612de3838351612bcf565b6020948501949093509190910190600101612dc6565b50508092505050612e0d6020830188612d7a565b612e1a6060830187612d7a565b8460a08301528360c083015260028310612e4457634e487b7160e01b600052602160045260246000fd5b8260e0830152979650505050505050565b600080600080600060a08688031215612e6d57600080fd5b85356001600160401b0380821115612e8457600080fd5b612e9089838a01612a3f565b96506020880135915080821115612ea657600080fd5b612eb289838a01612a3f565b95506040880135915080821115612ec857600080fd5b612ed489838a01612a3f565b94506060880135915080821115612eea57600080fd5b612ef689838a01612a3f565b93506080880135915080821115612f0c57600080fd5b50612f1988828901612a3f565b9150509295509295909350565b60208082526000906080830183820185845b6003811015612f6757601f19878503018352612f55848351612bcf565b93509184019190840190600101612f38565b50919695505050505050565b60008060008060808587031215612f8957600080fd5b84356001600160401b0380821115612fa057600080fd5b612fac88838901612a3f565b95506020870135915080821115612fc257600080fd5b612fce88838901612a3f565b94506040870135915080821115612fe457600080fd5b50612ff187828801612a3f565b949793965093946060013593505050565b600080600080600060a0868803121561301a57600080fd5b85356001600160401b038082111561303157600080fd5b61303d89838a01612a3f565b9650602088013591508082111561305357600080fd5b61305f89838a01612a3f565b955061306d60408901612b1c565b9450606088013591508082111561308357600080fd5b5061309088828901612a3f565b95989497509295608001359392505050565b600080600080608085870312156130b857600080fd5b84356001600160401b03808211156130cf57600080fd5b6130db88838901612a3f565b95506020915081870135818111156130f257600080fd5b6130fe89828a01612a3f565b95505060408701358181111561311357600080fd5b8701601f8101891361312457600080fd5b61312c6129c0565b80604083018b81111561313e57600080fd5b835b81811015613172578035868111156131585760008081fd5b6131648e828801612a3f565b855250928601928601613140565b50989b979a5098606001359750505050505050565b60006020828403121561319957600080fd5b81356001600160401b038111156131af57600080fd5b6131bb84828501612a3f565b949350505050565b6000602080830181845280855180835260408601915060408160051b870101925083870160005b8281101561321857603f19888603018452613206858351612bcf565b945092850192908501906001016131ea565b5092979650505050505050565b6020808252825182820181905260009190848201906040850190845b818110156132665783516001600160a01b031683529284019291840191600101613241565b50909695505050505050565b60006020828403121561328457600080fd5b5035919050565b60208152600061329e6020830184612bcf565b9392505050565b60008060008060a085870312156132bb57600080fd5b84356001600160401b03808211156132d257600080fd5b6132de88838901612a3f565b955060208701359150808211156132f457600080fd5b61330088838901612a3f565b9450604087013591508082111561331657600080fd5b5061332387828801612a3f565b9250506133338660608701612c1d565b905092959194509250565b60008251613350818460208701612bab565b9190910192915050565b600181811c9082168061336e57607f821691505b60208210810361338e57634e487b7160e01b600052602260045260246000fd5b50919050565b634e487b7160e01b600052603260045260246000fd5b634e487b7160e01b600052601160045260246000fd5b6000600182016133d2576133d26133aa565b5060010190565b601f8211156109db57600081815260208120601f850160051c810160208610156134005750805b601f850160051c820191505b818110156106325782815560010161340c565b81516001600160401b03811115613438576134386129aa565b61344c81613446845461335a565b846133d9565b602080601f83116001811461348157600084156134695750858301515b600019600386901b1c1916600185901b178555610632565b600085815260208120601f198616915b828110156134b057888601518255948401946001909101908401613491565b50858210156134ce5787850151600019600388901b60f8161c191681555b5050505050600190811b01905550565b6060815260006134f16060830186612bcf565b82810360208401526135038186612bcf565b905082810360408401526135178185612bcf565b9695505050505050565b6060815260006135346060830186612bcf565b6020838203818501526135478287612bcf565b915083820360408501526000855461355e8161335a565b808552600182811680156135795760018114613593576135c1565b60ff1984168787015282151560051b8701860194506135c1565b896000528560002060005b848110156135b957815489820189015290830190870161359e565b880187019550505b50929a9950505050505050505050565b81810381811115611048576110486133aa565b60008261360157634e487b7160e01b600052601260045260246000fd5b500490565b80820180821115611048576110486133aa565b60408152600061362c6040830185612bcf565b828103602084015261363e8185612bcf565b95945050505050565b6000806040838503121561365a57600080fd5b82516001600160401b0381111561367057600080fd5b8301601f8101851361368157600080fd5b805161368f612a5e82612a18565b8181528660208385010111156136a457600080fd5b6136b5826020830160208601612bab565b60209590950151949694955050505050565b60008083546136d58161335a565b600182811680156136ed576001811461370257613731565b60ff1984168752821515830287019450613731565b8760005260208060002060005b858110156137285781548a82015290840190820161370f565b50505082870194505b5092969550505050505056fea2646970667358221220551053e0655b03552860c6373e3ea38ce124cea1a36e4d4f021791fd8cd993e164736f6c63430008110033",
  "linkReferences": {},
  "deployedLinkReferences": {}
}