{
  "_format": "hh-sol-artifact-1",
  "contractName": "GetOracleInfo",
  "sourceName": "contracts/GetOracleInfo.sol",
  "abi": [
    {
      "inputs": [],
      "name": "get",
      "outputs": [
        {
          "internalType": "string",
          "name": "",
          "type": "string"
        },
        {
          "internalType": "uint256",
          "name": "",
          "type": "uint256"
        }
      ],
      "stateMutability": "view",
      "type": "function"
    },
    {
      "inputs": [
        {
          "internalType": "bytes32",
          "name": "_oracleId",
          "type": "bytes32"
        }
      ],
      "name": "getOracleData",
      "outputs": [
        {
          "internalType": "string",
          "name": "",
          "type": "string"
        }
      ],
      "stateMutability": "nonpayable",
      "type": "function"
    }
  ],
  "bytecode": "0x6080604052600280546001600160a01b03191673456891c78077d31f70ca027a46d68f84a2b814d417905534801561003657600080fd5b5061049c806100466000396000f3fe608060405234801561001057600080fd5b50600436106100365760003560e01c80636d4ce63c1461003b578063b5e4b8131461005a575b600080fd5b61004361007a565b6040516100519291906101fb565b60405180910390f35b61006d61006836600461021d565b610116565b6040516100519190610236565b606060008060015481805461008e90610250565b80601f01602080910402602001604051908101604052809291908181526020018280546100ba90610250565b80156101075780601f106100dc57610100808354040283529160200191610107565b820191906000526020600020905b8154815290600101906020018083116100ea57829003601f168201915b50505050509150915091509091565b600254604051634c373c8d60e11b8152600481018390526060916001600160a01b0316906000908190839063986e791a90602401600060405180830381865afa158015610167573d6000803e3d6000fd5b505050506040513d6000823e601f3d908101601f1916820160405261018f91908101906102a0565b909250905060006101a083826103a6565b506001559392505050565b60005b838110156101c65781810151838201526020016101ae565b50506000910152565b600081518084526101e78160208601602086016101ab565b601f01601f19169290920160200192915050565b60408152600061020e60408301856101cf565b90508260208301529392505050565b60006020828403121561022f57600080fd5b5035919050565b60208152600061024960208301846101cf565b9392505050565b600181811c9082168061026457607f821691505b60208210810361028457634e487b7160e01b600052602260045260246000fd5b50919050565b634e487b7160e01b600052604160045260246000fd5b600080604083850312156102b357600080fd5b825167ffffffffffffffff808211156102cb57600080fd5b818501915085601f8301126102df57600080fd5b8151818111156102f1576102f161028a565b604051601f8201601f19908116603f011681019083821181831017156103195761031961028a565b8160405282815288602084870101111561033257600080fd5b6103438360208301602088016101ab565b602097909701519698969750505050505050565b601f8211156103a157600081815260208120601f850160051c8101602086101561037e5750805b601f850160051c820191505b8181101561039d5782815560010161038a565b5050505b505050565b815167ffffffffffffffff8111156103c0576103c061028a565b6103d4816103ce8454610250565b84610357565b602080601f83116001811461040957600084156103f15750858301515b600019600386901b1c1916600185901b17855561039d565b600085815260208120601f198616915b8281101561043857888601518255948401946001909101908401610419565b50858210156104565787850151600019600388901b60f8161c191681555b5050505050600190811b0190555056fea264697066735822122046112c17f90af2a703fb28251abeb56ee9fa64542653b917470d297900f80b6964736f6c63430008110033",
  "linkReferences": {},
  "deployedLinkReferences": {}
}