{
    "_format": "hh-sol-artifact-1",
    "contractName": "PetitProno",
    "sourceName": "contracts/PetitProno.sol",
    "abi": [
        {
            "inputs": [],
            "stateMutability": "nonpayable",
            "type": "constructor"
        },
        {
            "inputs": [],
            "name": "League",
            "outputs": [
                {
                    "internalType": "string",
                    "name": "",
                    "type": "string"
                }
            ],
            "stateMutability": "view",
            "type": "function"
        },
        {
            "inputs": [
                {
                    "internalType": "string",
                    "name": "league_addr",
                    "type": "string"
                }
            ],
            "name": "get",
            "outputs": [
                {
                    "internalType": "string",
                    "name": "",
                    "type": "string"
                }
            ],
            "stateMutability": "view",
            "type": "function"
        },
        {
            "inputs": [],
            "name": "owner",
            "outputs": [
                {
                    "internalType": "address",
                    "name": "",
                    "type": "address"
                }
            ],
            "stateMutability": "view",
            "type": "function"
        },
        {
            "inputs": [
                {
                    "internalType": "string",
                    "name": "league_addr",
                    "type": "string"
                }
            ],
            "name": "remove",
            "outputs": [],
            "stateMutability": "nonpayable",
            "type": "function"
        },
        {
            "inputs": [
                {
                    "internalType": "string",
                    "name": "league_addr",
                    "type": "string"
                },
                {
                    "internalType": "string",
                    "name": "ipfs_link",
                    "type": "string"
                }
            ],
            "name": "set",
            "outputs": [],
            "stateMutability": "nonpayable",
            "type": "function"
        }
    ],
    "bytecode": "0x608060405234801561001057600080fd5b50336000806101000a81548173ffffffffffffffffffffffffffffffffffffffff021916908373ffffffffffffffffffffffffffffffffffffffff160217905550610a55806100606000396000f3fe608060405234801561001057600080fd5b50600436106100575760003560e01c8063693ec85e1461005c5780636dcc124e1461008c57806380599e4b146100aa5780638da5cb5b146100c6578063e942b516146100e4575b600080fd5b61007660048036038101906100719190610526565b610100565b60405161008391906105ee565b60405180910390f35b6100946101b0565b6040516100a191906105ee565b60405180910390f35b6100c460048036038101906100bf9190610526565b61023e565b005b6100ce6102c3565b6040516100db9190610651565b60405180910390f35b6100fe60048036038101906100f9919061066c565b6102e7565b005b60606002826040516101129190610720565b9081526020016040518091039020805461012b90610766565b80601f016020809104026020016040519081016040528092919081815260200182805461015790610766565b80156101a45780601f10610179576101008083540402835291602001916101a4565b820191906000526020600020905b81548152906001019060200180831161018757829003601f168201915b50505050509050919050565b600180546101bd90610766565b80601f01602080910402602001604051908101604052809291908181526020018280546101e990610766565b80156102365780601f1061020b57610100808354040283529160200191610236565b820191906000526020600020905b81548152906001019060200180831161021957829003601f168201915b505050505081565b60008054906101000a900473ffffffffffffffffffffffffffffffffffffffff1673ffffffffffffffffffffffffffffffffffffffff163373ffffffffffffffffffffffffffffffffffffffff161461029657600080fd5b6002816040516102a69190610720565b908152602001604051809103902060006102c0919061036f565b50565b60008054906101000a900473ffffffffffffffffffffffffffffffffffffffff1681565b60008054906101000a900473ffffffffffffffffffffffffffffffffffffffff1673ffffffffffffffffffffffffffffffffffffffff163373ffffffffffffffffffffffffffffffffffffffff161461033f57600080fd5b806002836040516103509190610720565b9081526020016040518091039020908161036a919061094d565b505050565b50805461037b90610766565b6000825580601f1061038d57506103ac565b601f0160209004906000526020600020908101906103ab91906103af565b5b50565b5b808211156103c85760008160009055506001016103b0565b5090565b6000604051905090565b600080fd5b600080fd5b600080fd5b600080fd5b6000601f19601f8301169050919050565b7f4e487b7100000000000000000000000000000000000000000000000000000000600052604160045260246000fd5b610433826103ea565b810181811067ffffffffffffffff82111715610452576104516103fb565b5b80604052505050565b60006104656103cc565b9050610471828261042a565b919050565b600067ffffffffffffffff821115610491576104906103fb565b5b61049a826103ea565b9050602081019050919050565b82818337600083830152505050565b60006104c96104c484610476565b61045b565b9050828152602081018484840111156104e5576104e46103e5565b5b6104f08482856104a7565b509392505050565b600082601f83011261050d5761050c6103e0565b5b813561051d8482602086016104b6565b91505092915050565b60006020828403121561053c5761053b6103d6565b5b600082013567ffffffffffffffff81111561055a576105596103db565b5b610566848285016104f8565b91505092915050565b600081519050919050565b600082825260208201905092915050565b60005b838110156105a957808201518184015260208101905061058e565b60008484015250505050565b60006105c08261056f565b6105ca818561057a565b93506105da81856020860161058b565b6105e3816103ea565b840191505092915050565b6000602082019050818103600083015261060881846105b5565b905092915050565b600073ffffffffffffffffffffffffffffffffffffffff82169050919050565b600061063b82610610565b9050919050565b61064b81610630565b82525050565b60006020820190506106666000830184610642565b92915050565b60008060408385031215610683576106826103d6565b5b600083013567ffffffffffffffff8111156106a1576106a06103db565b5b6106ad858286016104f8565b925050602083013567ffffffffffffffff8111156106ce576106cd6103db565b5b6106da858286016104f8565b9150509250929050565b600081905092915050565b60006106fa8261056f565b61070481856106e4565b935061071481856020860161058b565b80840191505092915050565b600061072c82846106ef565b915081905092915050565b7f4e487b7100000000000000000000000000000000000000000000000000000000600052602260045260246000fd5b6000600282049050600182168061077e57607f821691505b60208210810361079157610790610737565b5b50919050565b60008190508160005260206000209050919050565b60006020601f8301049050919050565b600082821b905092915050565b6000600883026107f97fffffffffffffffffffffffffffffffffffffffffffffffffffffffffffffffff826107bc565b61080386836107bc565b95508019841693508086168417925050509392505050565b6000819050919050565b6000819050919050565b600061084a6108456108408461081b565b610825565b61081b565b9050919050565b6000819050919050565b6108648361082f565b61087861087082610851565b8484546107c9565b825550505050565b600090565b61088d610880565b61089881848461085b565b505050565b5b818110156108bc576108b1600082610885565b60018101905061089e565b5050565b601f821115610901576108d281610797565b6108db846107ac565b810160208510156108ea578190505b6108fe6108f6856107ac565b83018261089d565b50505b505050565b600082821c905092915050565b600061092460001984600802610906565b1980831691505092915050565b600061093d8383610913565b9150826002028217905092915050565b6109568261056f565b67ffffffffffffffff81111561096f5761096e6103fb565b5b6109798254610766565b6109848282856108c0565b600060209050601f8311600181146109b757600084156109a5578287015190505b6109af8582610931565b865550610a17565b601f1984166109c586610797565b60005b828110156109ed578489015182556001820191506020850194506020810190506109c8565b86831015610a0a5784890151610a06601f891682610913565b8355505b6001600288020188555050505b50505050505056fea26469706673582212207feb697762cea9d6ce25687e30e973030ec8f1b9846ba90ef17d33e533eddf4464736f6c63430008110033",
    "linkReferences": {},
    "deployedLinkReferences": {}
}