{
  "_format": "hh-sol-artifact-1",
  "contractName": "MonPetitProno",
  "sourceName": "contracts/PetitProno.sol",
  "abi": [
    {
      "inputs": [],
      "stateMutability": "nonpayable",
      "type": "constructor"
    },
    {
      "inputs": [
        {
          "internalType": "string",
          "name": "_LeagueId",
          "type": "string"
        },
        {
          "internalType": "string",
          "name": "_TeamId",
          "type": "string"
        },
        {
          "internalType": "address",
          "name": "_walletId",
          "type": "address"
        },
        {
          "internalType": "string",
          "name": "_matchId",
          "type": "string"
        },
        {
          "internalType": "uint256[3]",
          "name": "_odds",
          "type": "uint256[3]"
        },
        {
          "internalType": "uint256[2]",
          "name": "_prono",
          "type": "uint256[2]"
        }
      ],
      "name": "addForecast",
      "outputs": [],
      "stateMutability": "nonpayable",
      "type": "function"
    },
    {
      "inputs": [
        {
          "internalType": "string",
          "name": "_LeagueId",
          "type": "string"
        },
        {
          "internalType": "string",
          "name": "_League_name",
          "type": "string"
        },
        {
          "internalType": "string",
          "name": "_ipfs",
          "type": "string"
        }
      ],
      "name": "addLeague",
      "outputs": [],
      "stateMutability": "nonpayable",
      "type": "function"
    },
    {
      "inputs": [
        {
          "internalType": "string",
          "name": "_LeagueId",
          "type": "string"
        },
        {
          "internalType": "string",
          "name": "_TeamId",
          "type": "string"
        },
        {
          "internalType": "string",
          "name": "_Player_name",
          "type": "string"
        }
      ],
      "name": "addPlayer",
      "outputs": [],
      "stateMutability": "nonpayable",
      "type": "function"
    },
    {
      "inputs": [
        {
          "internalType": "string",
          "name": "_LeagueId",
          "type": "string"
        },
        {
          "internalType": "string",
          "name": "_TeamId",
          "type": "string"
        },
        {
          "internalType": "string",
          "name": "_Teame_Name",
          "type": "string"
        },
        {
          "internalType": "string",
          "name": "_ipfs",
          "type": "string"
        }
      ],
      "name": "addTeam",
      "outputs": [],
      "stateMutability": "nonpayable",
      "type": "function"
    },
    {
      "inputs": [
        {
          "internalType": "string",
          "name": "_LeagueId",
          "type": "string"
        },
        {
          "internalType": "string",
          "name": "_TeamId",
          "type": "string"
        }
      ],
      "name": "getAllPlayerAddrFromOneTeam",
      "outputs": [
        {
          "internalType": "address[]",
          "name": "",
          "type": "address[]"
        }
      ],
      "stateMutability": "view",
      "type": "function"
    },
    {
      "inputs": [
        {
          "internalType": "string",
          "name": "_LeagueId",
          "type": "string"
        },
        {
          "internalType": "string",
          "name": "_TeamId",
          "type": "string"
        },
        {
          "internalType": "address",
          "name": "_walletId",
          "type": "address"
        },
        {
          "internalType": "string",
          "name": "_matchId",
          "type": "string"
        }
      ],
      "name": "getForecast",
      "outputs": [
        {
          "internalType": "uint256[3]",
          "name": "",
          "type": "uint256[3]"
        },
        {
          "internalType": "uint256[2]",
          "name": "",
          "type": "uint256[2]"
        },
        {
          "internalType": "uint256[2]",
          "name": "",
          "type": "uint256[2]"
        },
        {
          "internalType": "uint256",
          "name": "",
          "type": "uint256"
        }
      ],
      "stateMutability": "view",
      "type": "function"
    },
    {
      "inputs": [
        {
          "internalType": "string",
          "name": "_LeagueId",
          "type": "string"
        }
      ],
      "name": "getFreeTeamFromOneLeague",
      "outputs": [
        {
          "internalType": "string[]",
          "name": "",
          "type": "string[]"
        }
      ],
      "stateMutability": "view",
      "type": "function"
    },
    {
      "inputs": [
        {
          "internalType": "string",
          "name": "_LeagueId",
          "type": "string"
        }
      ],
      "name": "getLeagueById",
      "outputs": [
        {
          "internalType": "string[3]",
          "name": "",
          "type": "string[3]"
        }
      ],
      "stateMutability": "view",
      "type": "function"
    },
    {
      "inputs": [],
      "name": "getLeaguesID",
      "outputs": [
        {
          "internalType": "string[]",
          "name": "",
          "type": "string[]"
        }
      ],
      "stateMutability": "view",
      "type": "function"
    },
    {
      "inputs": [
        {
          "internalType": "string",
          "name": "_LeagueId",
          "type": "string"
        }
      ],
      "name": "getMyTeamFromOneLeague",
      "outputs": [
        {
          "internalType": "string[]",
          "name": "",
          "type": "string[]"
        }
      ],
      "stateMutability": "view",
      "type": "function"
    },
    {
      "inputs": [
        {
          "internalType": "string",
          "name": "_LeagueId",
          "type": "string"
        },
        {
          "internalType": "string",
          "name": "_TeamId",
          "type": "string"
        },
        {
          "internalType": "address",
          "name": "_walletId",
          "type": "address"
        }
      ],
      "name": "getPlayerScore",
      "outputs": [
        {
          "internalType": "uint256",
          "name": "",
          "type": "uint256"
        }
      ],
      "stateMutability": "view",
      "type": "function"
    },
    {
      "inputs": [
        {
          "internalType": "string",
          "name": "_LeagueId",
          "type": "string"
        },
        {
          "internalType": "string",
          "name": "_TeamId",
          "type": "string"
        },
        {
          "internalType": "address",
          "name": "_walletId",
          "type": "address"
        }
      ],
      "name": "getPlayername",
      "outputs": [
        {
          "internalType": "string",
          "name": "",
          "type": "string"
        }
      ],
      "stateMutability": "view",
      "type": "function"
    },
    {
      "inputs": [
        {
          "internalType": "string",
          "name": "_LeagueId",
          "type": "string"
        }
      ],
      "name": "getTeamsIdFromOneLeague",
      "outputs": [
        {
          "internalType": "string[]",
          "name": "",
          "type": "string[]"
        }
      ],
      "stateMutability": "view",
      "type": "function"
    },
    {
      "inputs": [
        {
          "internalType": "string",
          "name": "_LeagueId",
          "type": "string"
        },
        {
          "internalType": "string",
          "name": "_TeamId",
          "type": "string"
        }
      ],
      "name": "getTeamsInfos",
      "outputs": [
        {
          "internalType": "string[3]",
          "name": "",
          "type": "string[3]"
        }
      ],
      "stateMutability": "view",
      "type": "function"
    },
    {
      "inputs": [],
      "name": "owner",
      "outputs": [
        {
          "internalType": "address",
          "name": "",
          "type": "address"
        }
      ],
      "stateMutability": "view",
      "type": "function"
    },
    {
      "inputs": [
        {
          "internalType": "string",
          "name": "_LeagueId",
          "type": "string"
        },
        {
          "internalType": "string",
          "name": "_TeamId",
          "type": "string"
        },
        {
          "internalType": "address",
          "name": "_walletId",
          "type": "address"
        },
        {
          "internalType": "string",
          "name": "_matchId",
          "type": "string"
        },
        {
          "internalType": "uint256",
          "name": "_PointNb",
          "type": "uint256"
        }
      ],
      "name": "setForecastPointNb",
      "outputs": [],
      "stateMutability": "nonpayable",
      "type": "function"
    },
    {
      "inputs": [
        {
          "internalType": "string",
          "name": "_LeagueId",
          "type": "string"
        },
        {
          "internalType": "string",
          "name": "_TeamId",
          "type": "string"
        },
        {
          "internalType": "address",
          "name": "_walletId",
          "type": "address"
        },
        {
          "internalType": "string",
          "name": "_matchId",
          "type": "string"
        },
        {
          "internalType": "uint256[2]",
          "name": "_prono",
          "type": "uint256[2]"
        }
      ],
      "name": "setForecastProno",
      "outputs": [],
      "stateMutability": "nonpayable",
      "type": "function"
    },
    {
      "inputs": [
        {
          "internalType": "string",
          "name": "_LeagueId",
          "type": "string"
        },
        {
          "internalType": "string",
          "name": "_TeamId",
          "type": "string"
        },
        {
          "internalType": "address",
          "name": "_walletId",
          "type": "address"
        },
        {
          "internalType": "string",
          "name": "_matchId",
          "type": "string"
        },
        {
          "internalType": "uint256[2]",
          "name": "_result",
          "type": "uint256[2]"
        }
      ],
      "name": "setForecastResult",
      "outputs": [],
      "stateMutability": "nonpayable",
      "type": "function"
    },
    {
      "inputs": [
        {
          "internalType": "string",
          "name": "_LeagueId",
          "type": "string"
        },
        {
          "internalType": "string",
          "name": "_TeamId",
          "type": "string"
        }
      ],
      "name": "updateAllScore",
      "outputs": [],
      "stateMutability": "nonpayable",
      "type": "function"
    },
    {
      "inputs": [
        {
          "internalType": "string",
          "name": "_LeagueId",
          "type": "string"
        },
        {
          "internalType": "string",
          "name": "_TeamId",
          "type": "string"
        },
        {
          "internalType": "address",
          "name": "_walletId",
          "type": "address"
        }
      ],
      "name": "updateScore",
      "outputs": [],
      "stateMutability": "nonpayable",
      "type": "function"
    }
  ],
  "bytecode": "0x608060405260015460035534801561001657600080fd5b50600080546001600160a01b03191633179055612548806100386000396000f3fe608060405234801561001057600080fd5b506004361061012c5760003560e01c8063a9b756ce116100ad578063ce649e6211610071578063ce649e62146102aa578063d5e79a13146102bd578063f10efc50146102d0578063f254a8fd146102e3578063f5aad87a1461030457600080fd5b8063a9b756ce1461022c578063b0a5e4bd1461023f578063b581130314610254578063b99298d814610274578063c34901d91461029757600080fd5b8063513a7beb116100f4578063513a7beb146101925780636808efb2146101bb5780637e141c44146101ce5780638a3baacd146101ee5780638da5cb5b1461020157600080fd5b8063138ab2c314610131578063145ce0ac1461014657806333a26f8614610159578063344f41b31461016c57806345c7a7451461017f575b600080fd5b61014461013f366004611c49565b610317565b005b610144610154366004611cf3565b6103b3565b610144610167366004611c49565b610491565b61014461017a366004611d9f565b610525565b61014461018d366004611e69565b610652565b6101a56101a0366004611ef0565b610719565b6040516101b29190611fa3565b60405180910390f35b6101446101c9366004611ff0565b6108df565b6101e16101dc366004612090565b61096e565b6040516101b29190612103565b6101a56101fc36600461211d565b610a68565b600054610214906001600160a01b031681565b6040516001600160a01b0390911681526020016101b2565b61014461023a366004611e69565b610beb565b610247610c9e565b6040516101b29190612159565b610267610262366004611ef0565b610d77565b6040516101b291906121bb565b610287610282366004612208565b610e14565b6040516101b29493929190612294565b6102476102a536600461211d565b610f88565b6101446102b8366004612090565b611082565b6102476102cb36600461211d565b61140c565b6102476102de36600461211d565b61162c565b6102f66102f1366004612090565b611824565b6040519081526020016101b2565b610144610312366004611ef0565b611896565b8060028660405161032891906122e9565b90815260200160405180910390206003018560405161034791906122e9565b90815260200160405180910390206003016000856001600160a01b03166001600160a01b031681526020019081526020016000206003018360405161038c91906122e9565b90815260200160405180910390206005019060026103ab9291906119db565b505050505050565b816002856040516103c491906122e9565b9081526020016040518091039020600301846040516103e391906122e9565b908152604051908190036020019020906103fd9082612385565b508060028560405161040f91906122e9565b90815260200160405180910390206003018460405161042e91906122e9565b9081526020016040518091039020600101908161044b9190612385565b5060028460405161045c91906122e9565b90815260405160209181900382019020600201805460018101825560009182529190200161048a8482612385565b5050505050565b806002866040516104a291906122e9565b9081526020016040518091039020600301856040516104c191906122e9565b90815260200160405180910390206003016000856001600160a01b03166001600160a01b031681526020019081526020016000206003018360405161050691906122e9565b90815260200160405180910390206003019060026103ab9291906119db565b8160028760405161053691906122e9565b90815260200160405180910390206003018660405161055591906122e9565b90815260200160405180910390206003016000866001600160a01b03166001600160a01b031681526020019081526020016000206003018460405161059a91906122e9565b9081526040519081900360200190206105b4916003611a19565b50806002876040516105c691906122e9565b9081526020016040518091039020600301866040516105e591906122e9565b90815260200160405180910390206003016000866001600160a01b03166001600160a01b031681526020019081526020016000206003018460405161062a91906122e9565b90815260200160405180910390206003019060026106499291906119db565b50505050505050565b8060028460405161066391906122e9565b90815260200160405180910390206003018360405161068291906122e9565b908152604080516020928190038301902033600090815260039091019092529020906106ae9082612385565b506002836040516106bf91906122e9565b9081526020016040518091039020600301826040516106de91906122e9565b908152604051908190036020908101909120600201805460018101825560009182529190200180546001600160a01b03191633179055505050565b610721611a46565b600060028460405161073391906122e9565b90815260200160405180910390206003018360405161075291906122e9565b908152604051908190036020019020805461076c90612305565b80601f016020809104026020016040519081016040528092919081815260200182805461079890612305565b80156107e55780601f106107ba576101008083540402835291602001916107e5565b820191906000526020600020905b8154815290600101906020018083116107c857829003601f168201915b5050505050905060006002856040516107fe91906122e9565b90815260200160405180910390206003018460405161081d91906122e9565b9081526020016040518091039020600101805461083990612305565b80601f016020809104026020016040519081016040528092919081815260200182805461086590612305565b80156108b25780601f10610887576101008083540402835291602001916108b2565b820191906000526020600020905b81548152906001019060200180831161089557829003601f168201915b50505050509050604051806060016040528085815260200183815260200182815250925050505b92915050565b806002866040516108f091906122e9565b90815260200160405180910390206003018560405161090f91906122e9565b90815260200160405180910390206003016000856001600160a01b03166001600160a01b031681526020019081526020016000206003018360405161095491906122e9565b908152604051908190036020019020600701555050505050565b606060028460405161098091906122e9565b90815260200160405180910390206003018360405161099f91906122e9565b90815260200160405180910390206003016000836001600160a01b03166001600160a01b0316815260200190815260200160002060000180546109e190612305565b80601f0160208091040260200160405190810160405280929190818152602001828054610a0d90612305565b8015610a5a5780601f10610a2f57610100808354040283529160200191610a5a565b820191906000526020600020905b815481529060010190602001808311610a3d57829003601f168201915b505050505090509392505050565b610a70611a46565b6000600283604051610a8291906122e9565b9081526040519081900360200190208054610a9c90612305565b80601f0160208091040260200160405190810160405280929190818152602001828054610ac890612305565b8015610b155780601f10610aea57610100808354040283529160200191610b15565b820191906000526020600020905b815481529060010190602001808311610af857829003601f168201915b505050505090506000600284604051610b2e91906122e9565b90815260200160405180910390206001018054610b4a90612305565b80601f0160208091040260200160405190810160405280929190818152602001828054610b7690612305565b8015610bc35780601f10610b9857610100808354040283529160200191610bc3565b820191906000526020600020905b815481529060010190602001808311610ba657829003601f168201915b5050604080516060810182529889526020890196909652505050918401919091525090919050565b6000546001600160a01b03163314610c0257600080fd5b81600284604051610c1391906122e9565b90815260405190819003602001902090610c2d9082612385565b5080600284604051610c3f91906122e9565b90815260200160405180910390206001019081610c5c9190612385565b506001805480820182556000919091527fb10e2d527612073b26eecdfd717e6a320cf44b4afac2b0732d9fcbe2b7fa0cf601610c988482612385565b50505050565b60606001805480602002602001604051908101604052809291908181526020016000905b82821015610d6e578382906000526020600020018054610ce190612305565b80601f0160208091040260200160405190810160405280929190818152602001828054610d0d90612305565b8015610d5a5780601f10610d2f57610100808354040283529160200191610d5a565b820191906000526020600020905b815481529060010190602001808311610d3d57829003601f168201915b505050505081526020019060010190610cc2565b50505050905090565b6060600283604051610d8991906122e9565b908152602001604051809103902060030182604051610da891906122e9565b9081526040805191829003602090810183206002018054808302850183019093528284529190830182828015610e0757602002820191906000526020600020905b81546001600160a01b03168152600190910190602001808311610de9575b5050505050905092915050565b610e1c611a6d565b610e24611a8b565b610e2c611a8b565b600080600289604051610e3f91906122e9565b908152602001604051809103902060030188604051610e5e91906122e9565b90815260200160405180910390206003016000886001600160a01b03166001600160a01b0316815260200190815260200160002060030186604051610ea391906122e9565b9081526040805191829003602001822060e0830190915281608081018260038282826020028201915b815481526020019060010190808311610ecc575050509183525050604080518082019182905260209092019190600384019060029082845b815481526020019060010190808311610f04575050509183525050604080518082019182905260209092019190600584019060029082845b815481526020019060010190808311610f3c575050509183525050600791909101546020918201528151908201516040830151606090930151919c909b50919950975095505050505050565b6060600282604051610f9a91906122e9565b9081526020016040518091039020600201805480602002602001604051908101604052809291908181526020016000905b82821015611077578382906000526020600020018054610fea90612305565b80601f016020809104026020016040519081016040528092919081815260200182805461101690612305565b80156110635780601f1061103857610100808354040283529160200191611063565b820191906000526020600020905b81548152906001019060200180831161104657829003601f168201915b505050505081526020019060010190610fcb565b505050509050919050565b82828260005b60028460405161109891906122e9565b9081526020016040518091039020600301836040516110b791906122e9565b908152604051908190036020019020600201548110156113af57816001600160a01b03166002856040516110eb91906122e9565b90815260200160405180910390206003018460405161110a91906122e9565b9081526020016040518091039020600201828154811061112c5761112c612444565b6000918252602090912001546001600160a01b03160361139d576000805b60028960405161115a91906122e9565b90815260200160405180910390206003018860405161117991906122e9565b9081526040805160209281900383019020336000908152600390910190925290206002015481101561134557600060028a6040516111b791906122e9565b9081526020016040518091039020600301896040516111d691906122e9565b90815260200160405180910390206003016000336001600160a01b03166001600160a01b03168152602001908152602001600020600201828154811061121e5761121e612444565b90600052602060002001805461123390612305565b80601f016020809104026020016040519081016040528092919081815260200182805461125f90612305565b80156112ac5780601f10611281576101008083540402835291602001916112ac565b820191906000526020600020905b81548152906001019060200180831161128f57829003601f168201915b5050505050905060028a6040516112c391906122e9565b9081526020016040518091039020600301896040516112e291906122e9565b908152604080519182900360209081018320336000908152600391820190925291902001906113129083906122e9565b9081526020016040518091039020600701548361132f9190612470565b925050808061133d90612483565b91505061114a565b508060028960405161135791906122e9565b90815260200160405180910390206003018860405161137691906122e9565b90815260408051602092819003830190203360009081526003909101909252902060010155505b806113a781612483565b915050611088565b5060405162461bcd60e51b815260206004820152602760248201527f566f7573206e27657465732070617320756e20506c61796572206465206365746044820152667465207465616d60c81b606482015260840160405180910390fd5b6060806114183361196f565b6000805b60028560405161142c91906122e9565b9081526040519081900360200190206002015481101561162357600060028660405161145891906122e9565b9081526020016040518091039020600201828154811061147a5761147a612444565b90600052602060002001805461148f90612305565b80601f01602080910402602001604051908101604052809291908181526020018280546114bb90612305565b80156115085780601f106114dd57610100808354040283529160200191611508565b820191906000526020600020905b8154815290600101906020018083116114eb57829003601f168201915b5050505050905060005b60028760405161152291906122e9565b90815260200160405180910390206003018260405161154191906122e9565b9081526040519081900360200190206002015481101561160e57336001600160a01b031660028860405161157591906122e9565b90815260200160405180910390206003018360405161159491906122e9565b908152602001604051809103902060020182815481106115b6576115b6612444565b6000918252602090912001546001600160a01b0316036115fc57818585815181106115e3576115e3612444565b60209081029190910101526115f9600185612470565b93505b8061160681612483565b915050611512565b5050808061161b90612483565b91505061141c565b50909392505050565b606080600061163a8461140c565b905060005b81518110156116235760005b60028660405161165b91906122e9565b908152604051908190036020019020600201548110156118115760028660405161168591906122e9565b908152602001604051809103902060020181815481106116a7576116a7612444565b906000526020600020016040516020016116c1919061249c565b604051602081830303815290604052805190602001208383815181106116e9576116e9612444565b602002602001015160405160200161170191906122e9565b60405160208183030381529060405280519060200120146117ff5760028660405161172c91906122e9565b9081526020016040518091039020600201818154811061174e5761174e612444565b90600052602060002001805461176390612305565b80601f016020809104026020016040519081016040528092919081815260200182805461178f90612305565b80156117dc5780601f106117b1576101008083540402835291602001916117dc565b820191906000526020600020905b8154815290600101906020018083116117bf57829003601f168201915b50505050508483815181106117f3576117f3612444565b60200260200101819052505b8061180981612483565b91505061164b565b508061181c81612483565b91505061163f565b600060028460405161183691906122e9565b90815260200160405180910390206003018360405161185591906122e9565b90815260200160405180910390206003016000836001600160a01b03166001600160a01b031681526020019081526020016000206001015490509392505050565b60005b6002836040516118a991906122e9565b9081526020016040518091039020600301826040516118c891906122e9565b9081526040519081900360200190206002015481101561196a5760006002846040516118f491906122e9565b90815260200160405180910390206003018360405161191391906122e9565b9081526020016040518091039020600201828154811061193557611935612444565b6000918252602090912001546001600160a01b03169050611957848483611082565b508061196281612483565b915050611899565b505050565b6040516001600160a01b03821660248201526119b79060440160408051601f198184030181529190526020810180516001600160e01b031663161765e160e11b1790526119ba565b50565b80516a636f6e736f6c652e6c6f67602083016000808483855afa5050505050565b8260028101928215611a09579160200282015b82811115611a095782518255916020019190600101906119ee565b50611a15929150611aa9565b5090565b8260038101928215611a095791602002820182811115611a095782518255916020019190600101906119ee565b60405180606001604052806003905b6060815260200190600190039081611a555790505090565b60405180606001604052806003906020820280368337509192915050565b60405180604001604052806002906020820280368337509192915050565b5b80821115611a155760008155600101611aaa565b634e487b7160e01b600052604160045260246000fd5b600082601f830112611ae557600080fd5b81356001600160401b0380821115611aff57611aff611abe565b604051601f8301601f19908116603f01168101908282118183101715611b2757611b27611abe565b81604052838152866020858801011115611b4057600080fd5b836020870160208301376000602085830101528094505050505092915050565b80356001600160a01b0381168114611b7757600080fd5b919050565b6000604051606081018181106001600160401b0382111715611ba057611ba0611abe565b6040529050806060830184811115611bb757600080fd5b835b81811015611bd1578035835260209283019201611bb9565b50505092915050565b600082601f830112611beb57600080fd5b604051604081018181106001600160401b0382111715611c0d57611c0d611abe565b8060405250806040840185811115611c2457600080fd5b845b81811015611c3e578035835260209283019201611c26565b509195945050505050565b600080600080600060c08688031215611c6157600080fd5b85356001600160401b0380821115611c7857600080fd5b611c8489838a01611ad4565b96506020880135915080821115611c9a57600080fd5b611ca689838a01611ad4565b9550611cb460408901611b60565b94506060880135915080821115611cca57600080fd5b50611cd788828901611ad4565b925050611ce78760808801611bda565b90509295509295909350565b60008060008060808587031215611d0957600080fd5b84356001600160401b0380821115611d2057600080fd5b611d2c88838901611ad4565b95506020870135915080821115611d4257600080fd5b611d4e88838901611ad4565b94506040870135915080821115611d6457600080fd5b611d7088838901611ad4565b93506060870135915080821115611d8657600080fd5b50611d9387828801611ad4565b91505092959194509250565b6000806000806000806101208789031215611db957600080fd5b86356001600160401b0380821115611dd057600080fd5b611ddc8a838b01611ad4565b97506020890135915080821115611df257600080fd5b611dfe8a838b01611ad4565b9650611e0c60408a01611b60565b95506060890135915080821115611e2257600080fd5b50611e2f89828a01611ad4565b93505087609f880112611e4157600080fd5b611e4e8860808901611b7c565b9150611e5d8860e08901611bda565b90509295509295509295565b600080600060608486031215611e7e57600080fd5b83356001600160401b0380821115611e9557600080fd5b611ea187838801611ad4565b94506020860135915080821115611eb757600080fd5b611ec387838801611ad4565b93506040860135915080821115611ed957600080fd5b50611ee686828701611ad4565b9150509250925092565b60008060408385031215611f0357600080fd5b82356001600160401b0380821115611f1a57600080fd5b611f2686838701611ad4565b93506020850135915080821115611f3c57600080fd5b50611f4985828601611ad4565b9150509250929050565b60005b83811015611f6e578181015183820152602001611f56565b50506000910152565b60008151808452611f8f816020860160208601611f53565b601f01601f19169290920160200192915050565b60208082526000906080830183820185845b6003811015611fe457601f19878503018352611fd2848351611f77565b93509184019190840190600101611fb5565b50919695505050505050565b600080600080600060a0868803121561200857600080fd5b85356001600160401b038082111561201f57600080fd5b61202b89838a01611ad4565b9650602088013591508082111561204157600080fd5b61204d89838a01611ad4565b955061205b60408901611b60565b9450606088013591508082111561207157600080fd5b5061207e88828901611ad4565b95989497509295608001359392505050565b6000806000606084860312156120a557600080fd5b83356001600160401b03808211156120bc57600080fd5b6120c887838801611ad4565b945060208601359150808211156120de57600080fd5b506120eb86828701611ad4565b9250506120fa60408501611b60565b90509250925092565b6020815260006121166020830184611f77565b9392505050565b60006020828403121561212f57600080fd5b81356001600160401b0381111561214557600080fd5b61215184828501611ad4565b949350505050565b6000602080830181845280855180835260408601915060408160051b870101925083870160005b828110156121ae57603f1988860301845261219c858351611f77565b94509285019290850190600101612180565b5092979650505050505050565b6020808252825182820181905260009190848201906040850190845b818110156121fc5783516001600160a01b0316835292840192918401916001016121d7565b50909695505050505050565b6000806000806080858703121561221e57600080fd5b84356001600160401b038082111561223557600080fd5b61224188838901611ad4565b9550602087013591508082111561225757600080fd5b61226388838901611ad4565b9450611d7060408801611b60565b8060005b6002811015610c98578151845260209384019390910190600101612275565b6101008101818660005b60038110156122bd57815183526020928301929091019060010161229e565b5050506122cd6060830186612271565b6122da60a0830185612271565b8260e083015295945050505050565b600082516122fb818460208701611f53565b9190910192915050565b600181811c9082168061231957607f821691505b60208210810361233957634e487b7160e01b600052602260045260246000fd5b50919050565b601f82111561196a57600081815260208120601f850160051c810160208610156123665750805b601f850160051c820191505b818110156103ab57828155600101612372565b81516001600160401b0381111561239e5761239e611abe565b6123b2816123ac8454612305565b8461233f565b602080601f8311600181146123e757600084156123cf5750858301515b600019600386901b1c1916600185901b1785556103ab565b600085815260208120601f198616915b82811015612416578886015182559484019460019091019084016123f7565b50858210156124345787850151600019600388901b60f8161c191681555b5050505050600190811b01905550565b634e487b7160e01b600052603260045260246000fd5b634e487b7160e01b600052601160045260246000fd5b808201808211156108d9576108d961245a565b6000600182016124955761249561245a565b5060010190565b60008083546124aa81612305565b600182811680156124c257600181146124d757612506565b60ff1984168752821515830287019450612506565b8760005260208060002060005b858110156124fd5781548a8201529084019082016124e4565b50505082870194505b5092969550505050505056fea2646970667358221220fafa902d27a4a0bd763f31fa06c776113fff1d01fc0117444218d7d2b86b34b264736f6c63430008110033",
  "linkReferences": {},
  "deployedLinkReferences": {}
}